{
	"contracts/rockPaperSissors.sol": {
		"RPSBet": {
			"abi": [
				{
					"anonymous": false,
					"inputs": [
						{
							"indexed": true,
							"internalType": "uint256",
							"name": "id",
							"type": "uint256"
						},
						{
							"indexed": true,
							"internalType": "address",
							"name": "creator",
							"type": "address"
						},
						{
							"indexed": true,
							"internalType": "address",
							"name": "opponent",
							"type": "address"
						},
						{
							"indexed": false,
							"internalType": "uint256",
							"name": "bet",
							"type": "uint256"
						}
					],
					"name": "GameCreated",
					"type": "event"
				},
				{
					"anonymous": false,
					"inputs": [
						{
							"indexed": true,
							"internalType": "uint256",
							"name": "id",
							"type": "uint256"
						},
						{
							"indexed": false,
							"internalType": "address",
							"name": "winner",
							"type": "address"
						},
						{
							"indexed": false,
							"internalType": "uint256",
							"name": "prize",
							"type": "uint256"
						}
					],
					"name": "GameFinished",
					"type": "event"
				},
				{
					"anonymous": false,
					"inputs": [
						{
							"indexed": true,
							"internalType": "uint256",
							"name": "id",
							"type": "uint256"
						},
						{
							"indexed": true,
							"internalType": "address",
							"name": "joiner",
							"type": "address"
						}
					],
					"name": "GameJoined",
					"type": "event"
				},
				{
					"anonymous": false,
					"inputs": [
						{
							"indexed": true,
							"internalType": "uint256",
							"name": "id",
							"type": "uint256"
						},
						{
							"indexed": true,
							"internalType": "address",
							"name": "player",
							"type": "address"
						},
						{
							"indexed": false,
							"internalType": "uint8",
							"name": "round",
							"type": "uint8"
						}
					],
					"name": "MoveCommitted",
					"type": "event"
				},
				{
					"anonymous": false,
					"inputs": [
						{
							"indexed": true,
							"internalType": "uint256",
							"name": "id",
							"type": "uint256"
						},
						{
							"indexed": true,
							"internalType": "address",
							"name": "player",
							"type": "address"
						},
						{
							"indexed": false,
							"internalType": "uint8",
							"name": "round",
							"type": "uint8"
						},
						{
							"indexed": false,
							"internalType": "enum RPSBet.Move",
							"name": "move",
							"type": "uint8"
						}
					],
					"name": "MoveRevealed",
					"type": "event"
				},
				{
					"inputs": [
						{
							"internalType": "uint256",
							"name": "",
							"type": "uint256"
						}
					],
					"name": "BET_SIZES",
					"outputs": [
						{
							"internalType": "uint256",
							"name": "",
							"type": "uint256"
						}
					],
					"stateMutability": "view",
					"type": "function"
				},
				{
					"inputs": [],
					"name": "JOIN_WINDOW",
					"outputs": [
						{
							"internalType": "uint256",
							"name": "",
							"type": "uint256"
						}
					],
					"stateMutability": "view",
					"type": "function"
				},
				{
					"inputs": [],
					"name": "REVEAL_WINDOW",
					"outputs": [
						{
							"internalType": "uint256",
							"name": "",
							"type": "uint256"
						}
					],
					"stateMutability": "view",
					"type": "function"
				},
				{
					"inputs": [
						{
							"internalType": "uint256",
							"name": "id",
							"type": "uint256"
						}
					],
					"name": "claimTimeout",
					"outputs": [],
					"stateMutability": "nonpayable",
					"type": "function"
				},
				{
					"inputs": [
						{
							"internalType": "address payable",
							"name": "_opponent",
							"type": "address"
						},
						{
							"internalType": "uint8",
							"name": "betIndex",
							"type": "uint8"
						},
						{
							"internalType": "bytes32[3]",
							"name": "_commitments",
							"type": "bytes32[3]"
						}
					],
					"name": "createGame",
					"outputs": [
						{
							"internalType": "uint256",
							"name": "gameId",
							"type": "uint256"
						}
					],
					"stateMutability": "payable",
					"type": "function"
				},
				{
					"inputs": [
						{
							"internalType": "uint256",
							"name": "id",
							"type": "uint256"
						},
						{
							"internalType": "bytes32[3]",
							"name": "_commitments",
							"type": "bytes32[3]"
						}
					],
					"name": "joinGame",
					"outputs": [],
					"stateMutability": "payable",
					"type": "function"
				},
				{
					"inputs": [],
					"name": "nextGameId",
					"outputs": [
						{
							"internalType": "uint256",
							"name": "",
							"type": "uint256"
						}
					],
					"stateMutability": "view",
					"type": "function"
				},
				{
					"inputs": [
						{
							"internalType": "uint256",
							"name": "id",
							"type": "uint256"
						},
						{
							"internalType": "uint8",
							"name": "round",
							"type": "uint8"
						},
						{
							"internalType": "enum RPSBet.Move",
							"name": "_move",
							"type": "uint8"
						},
						{
							"internalType": "string",
							"name": "_salt",
							"type": "string"
						}
					],
					"name": "reveal",
					"outputs": [],
					"stateMutability": "nonpayable",
					"type": "function"
				},
				{
					"stateMutability": "payable",
					"type": "receive"
				}
			],
			"devdoc": {
				"kind": "dev",
				"methods": {},
				"version": 1
			},
			"evm": {
				"assembly": "    /* \"contracts/rockPaperSissors.sol\":122:6399  contract RPSBet is ReentrancyGuard {... */\n  mstore(0x40, 0x80)\n    /* \"contracts/rockPaperSissors.sol\":263:328  uint256[3] public BET_SIZES = [0.01 ether, 0.05 ether, 0.1 ether] */\n  mload(0x40)\n  dup1\n  0x60\n  add\n  0x40\n  mstore\n  dup1\n    /* \"contracts/rockPaperSissors.sol\":294:304  0.01 ether */\n  0x2386f26fc10000\n    /* \"contracts/rockPaperSissors.sol\":263:328  uint256[3] public BET_SIZES = [0.01 ether, 0.05 ether, 0.1 ether] */\n  0xffffffffffffffff\n  and\n  dup2\n  mstore\n  0x20\n  add\n    /* \"contracts/rockPaperSissors.sol\":306:316  0.05 ether */\n  0xb1a2bc2ec50000\n    /* \"contracts/rockPaperSissors.sol\":263:328  uint256[3] public BET_SIZES = [0.01 ether, 0.05 ether, 0.1 ether] */\n  0xffffffffffffffff\n  and\n  dup2\n  mstore\n  0x20\n  add\n    /* \"contracts/rockPaperSissors.sol\":318:327  0.1 ether */\n  0x016345785d8a0000\n    /* \"contracts/rockPaperSissors.sol\":263:328  uint256[3] public BET_SIZES = [0.01 ether, 0.05 ether, 0.1 ether] */\n  0xffffffffffffffff\n  and\n  dup2\n  mstore\n  pop\n  0x01\n  swap1\n  0x03\n  tag_1\n  swap3\n  swap2\n  swap1\n  tag_2\n  jump\t// in\ntag_1:\n  pop\n    /* \"contracts/rockPaperSissors.sol\":847:848  1 */\n  0x01\n    /* \"contracts/rockPaperSissors.sol\":819:848  uint256 public nextGameId = 1 */\n  0x04\n  sstore\n    /* \"contracts/rockPaperSissors.sol\":122:6399  contract RPSBet is ReentrancyGuard {... */\n  callvalue\n  dup1\n  iszero\n  tag_3\n  jumpi\n  revert(0x00, 0x00)\ntag_3:\n  pop\n    /* \"@openzeppelin/contracts/security/ReentrancyGuard.sol\":1716:1717  1 */\n  0x01\n    /* \"@openzeppelin/contracts/security/ReentrancyGuard.sol\":1821:1828  _status */\n  0x00\n    /* \"@openzeppelin/contracts/security/ReentrancyGuard.sol\":1821:1843  _status = _NOT_ENTERED */\n  dup2\n  swap1\n  sstore\n  pop\n    /* \"contracts/rockPaperSissors.sol\":122:6399  contract RPSBet is ReentrancyGuard {... */\n  jump(tag_6)\ntag_2:\n  dup3\n  0x03\n  dup2\n  add\n  swap3\n  dup3\n  iszero\n  tag_7\n  jumpi\n  swap2\n  0x20\n  mul\n  dup3\n  add\ntag_8:\n  dup3\n  dup2\n  gt\n  iszero\n  tag_9\n  jumpi\n  dup3\n  mload\n  dup3\n  swap1\n  0xffffffffffffffff\n  and\n  swap1\n  sstore\n  swap2\n  0x20\n  add\n  swap2\n  swap1\n  0x01\n  add\n  swap1\n  jump(tag_8)\ntag_9:\ntag_7:\n  pop\n  swap1\n  pop\n  tag_10\n  swap2\n  swap1\n  tag_11\n  jump\t// in\ntag_10:\n  pop\n  swap1\n  jump\t// out\ntag_11:\ntag_12:\n  dup1\n  dup3\n  gt\n  iszero\n  tag_13\n  jumpi\n  0x00\n  dup2\n  0x00\n  swap1\n  sstore\n  pop\n  0x01\n  add\n  jump(tag_12)\ntag_13:\n  pop\n  swap1\n  jump\t// out\ntag_6:\n  dataSize(sub_0)\n  dup1\n  dataOffset(sub_0)\n  0x00\n  codecopy\n  0x00\n  return\nstop\n\nsub_0: assembly {\n        /* \"contracts/rockPaperSissors.sol\":122:6399  contract RPSBet is ReentrancyGuard {... */\n      mstore(0x40, 0x80)\n      jumpi(tag_1, lt(calldatasize, 0x04))\n      shr(0xe0, calldataload(0x00))\n      dup1\n      0x86e773f1\n      gt\n      tag_11\n      jumpi\n      dup1\n      0x86e773f1\n      eq\n      tag_7\n      jumpi\n      dup1\n      0xa60ac828\n      eq\n      tag_8\n      jumpi\n      dup1\n      0xb135bbb0\n      eq\n      tag_9\n      jumpi\n      dup1\n      0xc89da923\n      eq\n      tag_10\n      jumpi\n      jump(tag_2)\n    tag_11:\n      dup1\n      0x17128792\n      eq\n      tag_3\n      jumpi\n      dup1\n      0x17e931cf\n      eq\n      tag_4\n      jumpi\n      dup1\n      0x432cad1e\n      eq\n      tag_5\n      jumpi\n      dup1\n      0x7d90611d\n      eq\n      tag_6\n      jumpi\n      jump(tag_2)\n    tag_1:\n      jumpi(tag_2, calldatasize)\n        /* \"contracts/rockPaperSissors.sol\":6348:6390  revert(\"Send ETH via createGame/joinGame\") */\n      mload(0x40)\n      0x08c379a000000000000000000000000000000000000000000000000000000000\n      dup2\n      mstore\n      0x04\n      add\n      tag_14\n      swap1\n      tag_15\n      jump\t// in\n    tag_14:\n      mload(0x40)\n      dup1\n      swap2\n      sub\n      swap1\n      revert\n        /* \"contracts/rockPaperSissors.sol\":122:6399  contract RPSBet is ReentrancyGuard {... */\n    tag_2:\n      revert(0x00, 0x00)\n        /* \"contracts/rockPaperSissors.sol\":1521:2207  function createGame(... */\n    tag_3:\n      tag_16\n      0x04\n      dup1\n      calldatasize\n      sub\n      dup2\n      add\n      swap1\n      tag_17\n      swap2\n      swap1\n      tag_18\n      jump\t// in\n    tag_17:\n      tag_19\n      jump\t// in\n    tag_16:\n      mload(0x40)\n      tag_20\n      swap2\n      swap1\n      tag_21\n      jump\t// in\n    tag_20:\n      mload(0x40)\n      dup1\n      swap2\n      sub\n      swap1\n      return\n        /* \"contracts/rockPaperSissors.sol\":762:812  uint256 public constant REVEAL_WINDOW = 30 minutes */\n    tag_4:\n      callvalue\n      dup1\n      iszero\n      tag_22\n      jumpi\n      revert(0x00, 0x00)\n    tag_22:\n      pop\n      tag_23\n      tag_24\n      jump\t// in\n    tag_23:\n      mload(0x40)\n      tag_25\n      swap2\n      swap1\n      tag_21\n      jump\t// in\n    tag_25:\n      mload(0x40)\n      dup1\n      swap2\n      sub\n      swap1\n      return\n        /* \"contracts/rockPaperSissors.sol\":2879:3847  function reveal(... */\n    tag_5:\n      callvalue\n      dup1\n      iszero\n      tag_26\n      jumpi\n      revert(0x00, 0x00)\n    tag_26:\n      pop\n      tag_27\n      0x04\n      dup1\n      calldatasize\n      sub\n      dup2\n      add\n      swap1\n      tag_28\n      swap2\n      swap1\n      tag_29\n      jump\t// in\n    tag_28:\n      tag_30\n      jump\t// in\n    tag_27:\n      stop\n        /* \"contracts/rockPaperSissors.sol\":263:328  uint256[3] public BET_SIZES = [0.01 ether, 0.05 ether, 0.1 ether] */\n    tag_6:\n      callvalue\n      dup1\n      iszero\n      tag_31\n      jumpi\n      revert(0x00, 0x00)\n    tag_31:\n      pop\n      tag_32\n      0x04\n      dup1\n      calldatasize\n      sub\n      dup2\n      add\n      swap1\n      tag_33\n      swap2\n      swap1\n      tag_34\n      jump\t// in\n    tag_33:\n      tag_35\n      jump\t// in\n    tag_32:\n      mload(0x40)\n      tag_36\n      swap2\n      swap1\n      tag_21\n      jump\t// in\n    tag_36:\n      mload(0x40)\n      dup1\n      swap2\n      sub\n      swap1\n      return\n        /* \"contracts/rockPaperSissors.sol\":3913:4693  function claimTimeout(uint256 id) external nonReentrant {... */\n    tag_7:\n      callvalue\n      dup1\n      iszero\n      tag_37\n      jumpi\n      revert(0x00, 0x00)\n    tag_37:\n      pop\n      tag_38\n      0x04\n      dup1\n      calldatasize\n      sub\n      dup2\n      add\n      swap1\n      tag_39\n      swap2\n      swap1\n      tag_34\n      jump\t// in\n    tag_39:\n      tag_40\n      jump\t// in\n    tag_38:\n      stop\n        /* \"contracts/rockPaperSissors.sol\":708:756  uint256 public constant JOIN_WINDOW = 30 minutes */\n    tag_8:\n      callvalue\n      dup1\n      iszero\n      tag_41\n      jumpi\n      revert(0x00, 0x00)\n    tag_41:\n      pop\n      tag_42\n      tag_43\n      jump\t// in\n    tag_42:\n      mload(0x40)\n      tag_44\n      swap2\n      swap1\n      tag_21\n      jump\t// in\n    tag_44:\n      mload(0x40)\n      dup1\n      swap2\n      sub\n      swap1\n      return\n        /* \"contracts/rockPaperSissors.sol\":819:848  uint256 public nextGameId = 1 */\n    tag_9:\n      callvalue\n      dup1\n      iszero\n      tag_45\n      jumpi\n      revert(0x00, 0x00)\n    tag_45:\n      pop\n      tag_46\n      tag_47\n      jump\t// in\n    tag_46:\n      mload(0x40)\n      tag_48\n      swap2\n      swap1\n      tag_21\n      jump\t// in\n    tag_48:\n      mload(0x40)\n      dup1\n      swap2\n      sub\n      swap1\n      return\n        /* \"contracts/rockPaperSissors.sol\":2276:2824  function joinGame(uint256 id, bytes32[3] calldata _commitments) external payable nonReentrant {... */\n    tag_10:\n      tag_49\n      0x04\n      dup1\n      calldatasize\n      sub\n      dup2\n      add\n      swap1\n      tag_50\n      swap2\n      swap1\n      tag_51\n      jump\t// in\n    tag_50:\n      tag_52\n      jump\t// in\n    tag_49:\n      stop\n        /* \"contracts/rockPaperSissors.sol\":1521:2207  function createGame(... */\n    tag_19:\n        /* \"contracts/rockPaperSissors.sol\":1687:1701  uint256 gameId */\n      0x00\n        /* \"@openzeppelin/contracts/security/ReentrancyGuard.sol\":2261:2282  _nonReentrantBefore() */\n      tag_54\n        /* \"@openzeppelin/contracts/security/ReentrancyGuard.sol\":2261:2280  _nonReentrantBefore */\n      tag_55\n        /* \"@openzeppelin/contracts/security/ReentrancyGuard.sol\":2261:2282  _nonReentrantBefore() */\n      jump\t// in\n    tag_54:\n        /* \"contracts/rockPaperSissors.sol\":1732:1733  3 */\n      0x03\n        /* \"contracts/rockPaperSissors.sol\":1721:1729  betIndex */\n      dup4\n        /* \"contracts/rockPaperSissors.sol\":1721:1733  betIndex < 3 */\n      0xff\n      and\n      lt\n        /* \"contracts/rockPaperSissors.sol\":1713:1754  require(betIndex < 3, \"betIndex invalid\") */\n      tag_57\n      jumpi\n      mload(0x40)\n      0x08c379a000000000000000000000000000000000000000000000000000000000\n      dup2\n      mstore\n      0x04\n      add\n      tag_58\n      swap1\n      tag_59\n      jump\t// in\n    tag_58:\n      mload(0x40)\n      dup1\n      swap2\n      sub\n      swap1\n      revert\n    tag_57:\n        /* \"contracts/rockPaperSissors.sol\":1764:1777  uint256 wager */\n      0x00\n        /* \"contracts/rockPaperSissors.sol\":1780:1789  BET_SIZES */\n      0x01\n        /* \"contracts/rockPaperSissors.sol\":1790:1798  betIndex */\n      dup5\n        /* \"contracts/rockPaperSissors.sol\":1780:1799  BET_SIZES[betIndex] */\n      0xff\n      and\n      0x03\n      dup2\n      lt\n      tag_60\n      jumpi\n      tag_61\n      tag_62\n      jump\t// in\n    tag_61:\n    tag_60:\n      add\n      sload\n        /* \"contracts/rockPaperSissors.sol\":1764:1799  uint256 wager = BET_SIZES[betIndex] */\n      swap1\n      pop\n        /* \"contracts/rockPaperSissors.sol\":1830:1835  wager */\n      dup1\n        /* \"contracts/rockPaperSissors.sol\":1817:1826  msg.value */\n      callvalue\n        /* \"contracts/rockPaperSissors.sol\":1817:1835  msg.value == wager */\n      eq\n        /* \"contracts/rockPaperSissors.sol\":1809:1858  require(msg.value == wager, \"incorrect ETH sent\") */\n      tag_64\n      jumpi\n      mload(0x40)\n      0x08c379a000000000000000000000000000000000000000000000000000000000\n      dup2\n      mstore\n      0x04\n      add\n      tag_65\n      swap1\n      tag_66\n      jump\t// in\n    tag_65:\n      mload(0x40)\n      dup1\n      swap2\n      sub\n      swap1\n      revert\n    tag_64:\n        /* \"contracts/rockPaperSissors.sol\":1878:1888  nextGameId */\n      0x04\n      0x00\n        /* \"contracts/rockPaperSissors.sol\":1878:1890  nextGameId++ */\n      dup2\n      sload\n      dup1\n      swap3\n      swap2\n      swap1\n      tag_67\n      swap1\n      tag_68\n      jump\t// in\n    tag_67:\n      swap2\n      swap1\n      pop\n      sstore\n        /* \"contracts/rockPaperSissors.sol\":1869:1890  gameId = nextGameId++ */\n      swap2\n      pop\n        /* \"contracts/rockPaperSissors.sol\":1900:1914  Game storage g */\n      0x00\n        /* \"contracts/rockPaperSissors.sol\":1917:1922  games */\n      0x05\n        /* \"contracts/rockPaperSissors.sol\":1917:1930  games[gameId] */\n      0x00\n        /* \"contracts/rockPaperSissors.sol\":1923:1929  gameId */\n      dup5\n        /* \"contracts/rockPaperSissors.sol\":1917:1930  games[gameId] */\n      dup2\n      mstore\n      0x20\n      add\n      swap1\n      dup2\n      mstore\n      0x20\n      add\n      0x00\n      keccak256\n        /* \"contracts/rockPaperSissors.sol\":1900:1930  Game storage g = games[gameId] */\n      swap1\n      pop\n        /* \"contracts/rockPaperSissors.sol\":1955:1965  msg.sender */\n      caller\n        /* \"contracts/rockPaperSissors.sol\":1940:1941  g */\n      dup2\n        /* \"contracts/rockPaperSissors.sol\":1940:1944  g.p1 */\n      0x00\n      add\n      0x00\n        /* \"contracts/rockPaperSissors.sol\":1940:1966  g.p1 = payable(msg.sender) */\n      0x0100\n      exp\n      dup2\n      sload\n      dup2\n      0xffffffffffffffffffffffffffffffffffffffff\n      mul\n      not\n      and\n      swap1\n      dup4\n      0xffffffffffffffffffffffffffffffffffffffff\n      and\n      mul\n      or\n      swap1\n      sstore\n      pop\n        /* \"contracts/rockPaperSissors.sol\":1983:1992  _opponent */\n      dup6\n        /* \"contracts/rockPaperSissors.sol\":1976:1977  g */\n      dup2\n        /* \"contracts/rockPaperSissors.sol\":1976:1980  g.p2 */\n      0x01\n      add\n      0x00\n        /* \"contracts/rockPaperSissors.sol\":1976:1992  g.p2 = _opponent */\n      0x0100\n      exp\n      dup2\n      sload\n      dup2\n      0xffffffffffffffffffffffffffffffffffffffff\n      mul\n      not\n      and\n      swap1\n      dup4\n      0xffffffffffffffffffffffffffffffffffffffff\n      and\n      mul\n      or\n      swap1\n      sstore\n      pop\n        /* \"contracts/rockPaperSissors.sol\":2010:2015  wager */\n      dup2\n        /* \"contracts/rockPaperSissors.sol\":2002:2003  g */\n      dup2\n        /* \"contracts/rockPaperSissors.sol\":2002:2007  g.bet */\n      0x02\n      add\n        /* \"contracts/rockPaperSissors.sol\":2002:2015  g.bet = wager */\n      dup2\n      swap1\n      sstore\n      pop\n        /* \"contracts/rockPaperSissors.sol\":2035:2048  Stage.Created */\n      0x00\n        /* \"contracts/rockPaperSissors.sol\":2025:2026  g */\n      dup2\n        /* \"contracts/rockPaperSissors.sol\":2025:2032  g.stage */\n      0x03\n      add\n      0x00\n        /* \"contracts/rockPaperSissors.sol\":2025:2048  g.stage = Stage.Created */\n      0x0100\n      exp\n      dup2\n      sload\n      dup2\n      0xff\n      mul\n      not\n      and\n      swap1\n      dup4\n      0x03\n      dup2\n      gt\n      iszero\n      tag_69\n      jumpi\n      tag_70\n      tag_71\n      jump\t// in\n    tag_70:\n    tag_69:\n      mul\n      or\n      swap1\n      sstore\n      pop\n        /* \"contracts/rockPaperSissors.sol\":2073:2088  block.timestamp */\n      timestamp\n        /* \"contracts/rockPaperSissors.sol\":2058:2059  g */\n      dup2\n        /* \"contracts/rockPaperSissors.sol\":2058:2070  g.lastAction */\n      0x07\n      add\n        /* \"contracts/rockPaperSissors.sol\":2058:2088  g.lastAction = block.timestamp */\n      dup2\n      swap1\n      sstore\n      pop\n        /* \"contracts/rockPaperSissors.sol\":2123:2135  _commitments */\n      dup4\n        /* \"contracts/rockPaperSissors.sol\":2099:2100  g */\n      dup2\n        /* \"contracts/rockPaperSissors.sol\":2099:2108  g.commits */\n      0x04\n      add\n        /* \"contracts/rockPaperSissors.sol\":2099:2120  g.commits[msg.sender] */\n      0x00\n        /* \"contracts/rockPaperSissors.sol\":2109:2119  msg.sender */\n      caller\n        /* \"contracts/rockPaperSissors.sol\":2099:2120  g.commits[msg.sender] */\n      0xffffffffffffffffffffffffffffffffffffffff\n      and\n      0xffffffffffffffffffffffffffffffffffffffff\n      and\n      dup2\n      mstore\n      0x20\n      add\n      swap1\n      dup2\n      mstore\n      0x20\n      add\n      0x00\n      keccak256\n        /* \"contracts/rockPaperSissors.sol\":2099:2135  g.commits[msg.sender] = _commitments */\n      swap1\n      0x03\n      tag_72\n      swap3\n      swap2\n      swap1\n      tag_73\n      jump\t// in\n    tag_72:\n      pop\n        /* \"contracts/rockPaperSissors.sol\":2183:2192  _opponent */\n      dup6\n        /* \"contracts/rockPaperSissors.sol\":2151:2200  GameCreated(gameId, msg.sender, _opponent, wager) */\n      0xffffffffffffffffffffffffffffffffffffffff\n      and\n        /* \"contracts/rockPaperSissors.sol\":2171:2181  msg.sender */\n      caller\n        /* \"contracts/rockPaperSissors.sol\":2151:2200  GameCreated(gameId, msg.sender, _opponent, wager) */\n      0xffffffffffffffffffffffffffffffffffffffff\n      and\n        /* \"contracts/rockPaperSissors.sol\":2163:2169  gameId */\n      dup5\n        /* \"contracts/rockPaperSissors.sol\":2151:2200  GameCreated(gameId, msg.sender, _opponent, wager) */\n      0x6200407c0ea392b8107b21a9be480acd41fda186d04bed28cc7da2d4b53d56e2\n        /* \"contracts/rockPaperSissors.sol\":2194:2199  wager */\n      dup6\n        /* \"contracts/rockPaperSissors.sol\":2151:2200  GameCreated(gameId, msg.sender, _opponent, wager) */\n      mload(0x40)\n      tag_74\n      swap2\n      swap1\n      tag_21\n      jump\t// in\n    tag_74:\n      mload(0x40)\n      dup1\n      swap2\n      sub\n      swap1\n      log4\n        /* \"contracts/rockPaperSissors.sol\":1703:2207  {... */\n      pop\n      pop\n        /* \"@openzeppelin/contracts/security/ReentrancyGuard.sol\":2303:2323  _nonReentrantAfter() */\n      tag_75\n        /* \"@openzeppelin/contracts/security/ReentrancyGuard.sol\":2303:2321  _nonReentrantAfter */\n      tag_76\n        /* \"@openzeppelin/contracts/security/ReentrancyGuard.sol\":2303:2323  _nonReentrantAfter() */\n      jump\t// in\n    tag_75:\n        /* \"contracts/rockPaperSissors.sol\":1521:2207  function createGame(... */\n      swap4\n      swap3\n      pop\n      pop\n      pop\n      jump\t// out\n        /* \"contracts/rockPaperSissors.sol\":762:812  uint256 public constant REVEAL_WINDOW = 30 minutes */\n    tag_24:\n        /* \"contracts/rockPaperSissors.sol\":802:812  30 minutes */\n      0x0708\n        /* \"contracts/rockPaperSissors.sol\":762:812  uint256 public constant REVEAL_WINDOW = 30 minutes */\n      dup2\n      jump\t// out\n        /* \"contracts/rockPaperSissors.sol\":2879:3847  function reveal(... */\n    tag_30:\n        /* \"@openzeppelin/contracts/security/ReentrancyGuard.sol\":2261:2282  _nonReentrantBefore() */\n      tag_78\n        /* \"@openzeppelin/contracts/security/ReentrancyGuard.sol\":2261:2280  _nonReentrantBefore */\n      tag_55\n        /* \"@openzeppelin/contracts/security/ReentrancyGuard.sol\":2261:2282  _nonReentrantBefore() */\n      jump\t// in\n    tag_78:\n        /* \"contracts/rockPaperSissors.sol\":3025:3039  Game storage g */\n      0x00\n        /* \"contracts/rockPaperSissors.sol\":3042:3047  games */\n      0x05\n        /* \"contracts/rockPaperSissors.sol\":3042:3051  games[id] */\n      0x00\n        /* \"contracts/rockPaperSissors.sol\":3048:3050  id */\n      dup8\n        /* \"contracts/rockPaperSissors.sol\":3042:3051  games[id] */\n      dup2\n      mstore\n      0x20\n      add\n      swap1\n      dup2\n      mstore\n      0x20\n      add\n      0x00\n      keccak256\n        /* \"contracts/rockPaperSissors.sol\":3025:3051  Game storage g = games[id] */\n      swap1\n      pop\n        /* \"contracts/rockPaperSissors.sol\":3080:3092  Stage.Joined */\n      0x01\n        /* \"contracts/rockPaperSissors.sol\":3069:3092  g.stage == Stage.Joined */\n      0x03\n      dup2\n      gt\n      iszero\n      tag_80\n      jumpi\n      tag_81\n      tag_71\n      jump\t// in\n    tag_81:\n    tag_80:\n        /* \"contracts/rockPaperSissors.sol\":3069:3070  g */\n      dup2\n        /* \"contracts/rockPaperSissors.sol\":3069:3076  g.stage */\n      0x03\n      add\n      0x00\n      swap1\n      sload\n      swap1\n      0x0100\n      exp\n      swap1\n      div\n      0xff\n      and\n        /* \"contracts/rockPaperSissors.sol\":3069:3092  g.stage == Stage.Joined */\n      0x03\n      dup2\n      gt\n      iszero\n      tag_82\n      jumpi\n      tag_83\n      tag_71\n      jump\t// in\n    tag_83:\n    tag_82:\n      eq\n        /* \"contracts/rockPaperSissors.sol\":3069:3119  g.stage == Stage.Joined || g.stage == Stage.Reveal */\n      dup1\n      tag_84\n      jumpi\n      pop\n        /* \"contracts/rockPaperSissors.sol\":3107:3119  Stage.Reveal */\n      0x02\n        /* \"contracts/rockPaperSissors.sol\":3096:3119  g.stage == Stage.Reveal */\n      0x03\n      dup2\n      gt\n      iszero\n      tag_85\n      jumpi\n      tag_86\n      tag_71\n      jump\t// in\n    tag_86:\n    tag_85:\n        /* \"contracts/rockPaperSissors.sol\":3096:3097  g */\n      dup2\n        /* \"contracts/rockPaperSissors.sol\":3096:3103  g.stage */\n      0x03\n      add\n      0x00\n      swap1\n      sload\n      swap1\n      0x0100\n      exp\n      swap1\n      div\n      0xff\n      and\n        /* \"contracts/rockPaperSissors.sol\":3096:3119  g.stage == Stage.Reveal */\n      0x03\n      dup2\n      gt\n      iszero\n      tag_87\n      jumpi\n      tag_88\n      tag_71\n      jump\t// in\n    tag_88:\n    tag_87:\n      eq\n        /* \"contracts/rockPaperSissors.sol\":3069:3119  g.stage == Stage.Joined || g.stage == Stage.Reveal */\n    tag_84:\n        /* \"contracts/rockPaperSissors.sol\":3061:3133  require(g.stage == Stage.Joined || g.stage == Stage.Reveal, \"bad stage\") */\n      tag_89\n      jumpi\n      mload(0x40)\n      0x08c379a000000000000000000000000000000000000000000000000000000000\n      dup2\n      mstore\n      0x04\n      add\n      tag_90\n      swap1\n      tag_91\n      jump\t// in\n    tag_90:\n      mload(0x40)\n      dup1\n      swap2\n      sub\n      swap1\n      revert\n    tag_89:\n        /* \"contracts/rockPaperSissors.sol\":3160:3161  g */\n      dup1\n        /* \"contracts/rockPaperSissors.sol\":3160:3167  g.round */\n      0x03\n      add\n      0x01\n      swap1\n      sload\n      swap1\n      0x0100\n      exp\n      swap1\n      div\n      0xff\n      and\n        /* \"contracts/rockPaperSissors.sol\":3151:3167  round == g.round */\n      0xff\n      and\n        /* \"contracts/rockPaperSissors.sol\":3151:3156  round */\n      dup6\n        /* \"contracts/rockPaperSissors.sol\":3151:3167  round == g.round */\n      0xff\n      and\n      eq\n        /* \"contracts/rockPaperSissors.sol\":3143:3183  require(round == g.round, \"wrong round\") */\n      tag_92\n      jumpi\n      mload(0x40)\n      0x08c379a000000000000000000000000000000000000000000000000000000000\n      dup2\n      mstore\n      0x04\n      add\n      tag_93\n      swap1\n      tag_94\n      jump\t// in\n    tag_93:\n      mload(0x40)\n      dup1\n      swap2\n      sub\n      swap1\n      revert\n    tag_92:\n        /* \"contracts/rockPaperSissors.sol\":3210:3219  Move.Rock */\n      0x01\n        /* \"contracts/rockPaperSissors.sol\":3201:3219  _move >= Move.Rock */\n      0x03\n      dup2\n      gt\n      iszero\n      tag_95\n      jumpi\n      tag_96\n      tag_71\n      jump\t// in\n    tag_96:\n    tag_95:\n        /* \"contracts/rockPaperSissors.sol\":3201:3206  _move */\n      dup5\n        /* \"contracts/rockPaperSissors.sol\":3201:3219  _move >= Move.Rock */\n      0x03\n      dup2\n      gt\n      iszero\n      tag_97\n      jumpi\n      tag_98\n      tag_71\n      jump\t// in\n    tag_98:\n    tag_97:\n      lt\n      iszero\n        /* \"contracts/rockPaperSissors.sol\":3201:3245  _move >= Move.Rock && _move <= Move.Scissors */\n      dup1\n      iszero\n      tag_99\n      jumpi\n      pop\n        /* \"contracts/rockPaperSissors.sol\":3232:3245  Move.Scissors */\n      0x03\n        /* \"contracts/rockPaperSissors.sol\":3223:3245  _move <= Move.Scissors */\n      dup1\n      dup2\n      gt\n      iszero\n      tag_100\n      jumpi\n      tag_101\n      tag_71\n      jump\t// in\n    tag_101:\n    tag_100:\n        /* \"contracts/rockPaperSissors.sol\":3223:3228  _move */\n      dup5\n        /* \"contracts/rockPaperSissors.sol\":3223:3245  _move <= Move.Scissors */\n      0x03\n      dup2\n      gt\n      iszero\n      tag_102\n      jumpi\n      tag_103\n      tag_71\n      jump\t// in\n    tag_103:\n    tag_102:\n      gt\n      iszero\n        /* \"contracts/rockPaperSissors.sol\":3201:3245  _move >= Move.Rock && _move <= Move.Scissors */\n    tag_99:\n        /* \"contracts/rockPaperSissors.sol\":3193:3258  require(_move >= Move.Rock && _move <= Move.Scissors, \"bad move\") */\n      tag_104\n      jumpi\n      mload(0x40)\n      0x08c379a000000000000000000000000000000000000000000000000000000000\n      dup2\n      mstore\n      0x04\n      add\n      tag_105\n      swap1\n      tag_106\n      jump\t// in\n    tag_105:\n      mload(0x40)\n      dup1\n      swap2\n      sub\n      swap1\n      revert\n    tag_104:\n        /* \"contracts/rockPaperSissors.sol\":3298:3315  bytes32 hashCheck */\n      0x00\n        /* \"contracts/rockPaperSissors.sol\":3345:3350  _move */\n      dup5\n        /* \"contracts/rockPaperSissors.sol\":3352:3357  _salt */\n      dup5\n      dup5\n        /* \"contracts/rockPaperSissors.sol\":3328:3358  abi.encodePacked(_move, _salt) */\n      add(0x20, mload(0x40))\n      tag_107\n      swap4\n      swap3\n      swap2\n      swap1\n      tag_108\n      jump\t// in\n    tag_107:\n      mload(0x40)\n      0x20\n      dup2\n      dup4\n      sub\n      sub\n      dup2\n      mstore\n      swap1\n      0x40\n      mstore\n        /* \"contracts/rockPaperSissors.sol\":3318:3359  keccak256(abi.encodePacked(_move, _salt)) */\n      dup1\n      mload\n      swap1\n      0x20\n      add\n      keccak256\n        /* \"contracts/rockPaperSissors.sol\":3298:3359  bytes32 hashCheck = keccak256(abi.encodePacked(_move, _salt)) */\n      swap1\n      pop\n        /* \"contracts/rockPaperSissors.sol\":3390:3391  g */\n      dup2\n        /* \"contracts/rockPaperSissors.sol\":3390:3399  g.commits */\n      0x04\n      add\n        /* \"contracts/rockPaperSissors.sol\":3390:3411  g.commits[msg.sender] */\n      0x00\n        /* \"contracts/rockPaperSissors.sol\":3400:3410  msg.sender */\n      caller\n        /* \"contracts/rockPaperSissors.sol\":3390:3411  g.commits[msg.sender] */\n      0xffffffffffffffffffffffffffffffffffffffff\n      and\n      0xffffffffffffffffffffffffffffffffffffffff\n      and\n      dup2\n      mstore\n      0x20\n      add\n      swap1\n      dup2\n      mstore\n      0x20\n      add\n      0x00\n      keccak256\n        /* \"contracts/rockPaperSissors.sol\":3412:3417  round */\n      dup7\n        /* \"contracts/rockPaperSissors.sol\":3390:3418  g.commits[msg.sender][round] */\n      0xff\n      and\n      0x03\n      dup2\n      lt\n      tag_109\n      jumpi\n      tag_110\n      tag_62\n      jump\t// in\n    tag_110:\n    tag_109:\n      add\n      sload\n        /* \"contracts/rockPaperSissors.sol\":3377:3386  hashCheck */\n      dup2\n        /* \"contracts/rockPaperSissors.sol\":3377:3418  hashCheck == g.commits[msg.sender][round] */\n      eq\n        /* \"contracts/rockPaperSissors.sol\":3369:3438  require(hashCheck == g.commits[msg.sender][round], \"commit mismatch\") */\n      tag_112\n      jumpi\n      mload(0x40)\n      0x08c379a000000000000000000000000000000000000000000000000000000000\n      dup2\n      mstore\n      0x04\n      add\n      tag_113\n      swap1\n      tag_114\n      jump\t// in\n    tag_113:\n      mload(0x40)\n      dup1\n      swap2\n      sub\n      swap1\n      revert\n    tag_112:\n        /* \"contracts/rockPaperSissors.sol\":3478:3483  _move */\n      dup5\n        /* \"contracts/rockPaperSissors.sol\":3449:3450  g */\n      dup3\n        /* \"contracts/rockPaperSissors.sol\":3449:3456  g.moves */\n      0x05\n      add\n        /* \"contracts/rockPaperSissors.sol\":3449:3468  g.moves[msg.sender] */\n      0x00\n        /* \"contracts/rockPaperSissors.sol\":3457:3467  msg.sender */\n      caller\n        /* \"contracts/rockPaperSissors.sol\":3449:3468  g.moves[msg.sender] */\n      0xffffffffffffffffffffffffffffffffffffffff\n      and\n      0xffffffffffffffffffffffffffffffffffffffff\n      and\n      dup2\n      mstore\n      0x20\n      add\n      swap1\n      dup2\n      mstore\n      0x20\n      add\n      0x00\n      keccak256\n        /* \"contracts/rockPaperSissors.sol\":3469:3474  round */\n      dup8\n        /* \"contracts/rockPaperSissors.sol\":3449:3475  g.moves[msg.sender][round] */\n      0xff\n      and\n      0x03\n      dup2\n      lt\n      tag_115\n      jumpi\n      tag_116\n      tag_62\n      jump\t// in\n    tag_116:\n    tag_115:\n      0x20\n      swap2\n      dup3\n      dup3\n      div\n      add\n      swap2\n      swap1\n      mod\n        /* \"contracts/rockPaperSissors.sol\":3449:3483  g.moves[msg.sender][round] = _move */\n      0x0100\n      exp\n      dup2\n      sload\n      dup2\n      0xff\n      mul\n      not\n      and\n      swap1\n      dup4\n      0x03\n      dup2\n      gt\n      iszero\n      tag_118\n      jumpi\n      tag_119\n      tag_71\n      jump\t// in\n    tag_119:\n    tag_118:\n      mul\n      or\n      swap1\n      sstore\n      pop\n        /* \"contracts/rockPaperSissors.sol\":3515:3525  msg.sender */\n      caller\n        /* \"contracts/rockPaperSissors.sol\":3498:3540  MoveRevealed(id, msg.sender, round, _move) */\n      0xffffffffffffffffffffffffffffffffffffffff\n      and\n        /* \"contracts/rockPaperSissors.sol\":3511:3513  id */\n      dup8\n        /* \"contracts/rockPaperSissors.sol\":3498:3540  MoveRevealed(id, msg.sender, round, _move) */\n      0xd31e4584470fef66591718561fc040b8d1367a4138f938559501253d729e3152\n        /* \"contracts/rockPaperSissors.sol\":3527:3532  round */\n      dup9\n        /* \"contracts/rockPaperSissors.sol\":3534:3539  _move */\n      dup9\n        /* \"contracts/rockPaperSissors.sol\":3498:3540  MoveRevealed(id, msg.sender, round, _move) */\n      mload(0x40)\n      tag_120\n      swap3\n      swap2\n      swap1\n      tag_121\n      jump\t// in\n    tag_120:\n      mload(0x40)\n      dup1\n      swap2\n      sub\n      swap1\n      log3\n        /* \"contracts/rockPaperSissors.sol\":3600:3613  address other */\n      0x00\n        /* \"contracts/rockPaperSissors.sol\":3630:3631  g */\n      dup3\n        /* \"contracts/rockPaperSissors.sol\":3630:3634  g.p1 */\n      0x00\n      add\n      0x00\n      swap1\n      sload\n      swap1\n      0x0100\n      exp\n      swap1\n      div\n      0xffffffffffffffffffffffffffffffffffffffff\n      and\n        /* \"contracts/rockPaperSissors.sol\":3616:3634  msg.sender == g.p1 */\n      0xffffffffffffffffffffffffffffffffffffffff\n      and\n        /* \"contracts/rockPaperSissors.sol\":3616:3626  msg.sender */\n      caller\n        /* \"contracts/rockPaperSissors.sol\":3616:3634  msg.sender == g.p1 */\n      0xffffffffffffffffffffffffffffffffffffffff\n      and\n      eq\n        /* \"contracts/rockPaperSissors.sol\":3616:3648  msg.sender == g.p1 ? g.p2 : g.p1 */\n      tag_122\n      jumpi\n        /* \"contracts/rockPaperSissors.sol\":3644:3645  g */\n      dup3\n        /* \"contracts/rockPaperSissors.sol\":3644:3648  g.p1 */\n      0x00\n      add\n      0x00\n      swap1\n      sload\n      swap1\n      0x0100\n      exp\n      swap1\n      div\n      0xffffffffffffffffffffffffffffffffffffffff\n      and\n        /* \"contracts/rockPaperSissors.sol\":3616:3648  msg.sender == g.p1 ? g.p2 : g.p1 */\n      jump(tag_123)\n    tag_122:\n        /* \"contracts/rockPaperSissors.sol\":3637:3638  g */\n      dup3\n        /* \"contracts/rockPaperSissors.sol\":3637:3641  g.p2 */\n      0x01\n      add\n      0x00\n      swap1\n      sload\n      swap1\n      0x0100\n      exp\n      swap1\n      div\n      0xffffffffffffffffffffffffffffffffffffffff\n      and\n        /* \"contracts/rockPaperSissors.sol\":3616:3648  msg.sender == g.p1 ? g.p2 : g.p1 */\n    tag_123:\n        /* \"contracts/rockPaperSissors.sol\":3600:3648  address other = msg.sender == g.p1 ? g.p2 : g.p1 */\n      swap1\n      pop\n        /* \"contracts/rockPaperSissors.sol\":3687:3696  Move.None */\n      0x00\n        /* \"contracts/rockPaperSissors.sol\":3662:3696  g.moves[other][round] != Move.None */\n      0x03\n      dup2\n      gt\n      iszero\n      tag_124\n      jumpi\n      tag_125\n      tag_71\n      jump\t// in\n    tag_125:\n    tag_124:\n        /* \"contracts/rockPaperSissors.sol\":3662:3663  g */\n      dup4\n        /* \"contracts/rockPaperSissors.sol\":3662:3669  g.moves */\n      0x05\n      add\n        /* \"contracts/rockPaperSissors.sol\":3662:3676  g.moves[other] */\n      0x00\n        /* \"contracts/rockPaperSissors.sol\":3670:3675  other */\n      dup4\n        /* \"contracts/rockPaperSissors.sol\":3662:3676  g.moves[other] */\n      0xffffffffffffffffffffffffffffffffffffffff\n      and\n      0xffffffffffffffffffffffffffffffffffffffff\n      and\n      dup2\n      mstore\n      0x20\n      add\n      swap1\n      dup2\n      mstore\n      0x20\n      add\n      0x00\n      keccak256\n        /* \"contracts/rockPaperSissors.sol\":3677:3682  round */\n      dup9\n        /* \"contracts/rockPaperSissors.sol\":3662:3683  g.moves[other][round] */\n      0xff\n      and\n      0x03\n      dup2\n      lt\n      tag_126\n      jumpi\n      tag_127\n      tag_62\n      jump\t// in\n    tag_127:\n    tag_126:\n      0x20\n      swap2\n      dup3\n      dup3\n      div\n      add\n      swap2\n      swap1\n      mod\n      swap1\n      sload\n      swap1\n      0x0100\n      exp\n      swap1\n      div\n      0xff\n      and\n        /* \"contracts/rockPaperSissors.sol\":3662:3696  g.moves[other][round] != Move.None */\n      0x03\n      dup2\n      gt\n      iszero\n      tag_129\n      jumpi\n      tag_130\n      tag_71\n      jump\t// in\n    tag_130:\n    tag_129:\n      eq\n        /* \"contracts/rockPaperSissors.sol\":3658:3841  if (g.moves[other][round] != Move.None) {... */\n      tag_131\n      jumpi\n        /* \"contracts/rockPaperSissors.sol\":3712:3733  _scoreRound(g, round) */\n      tag_132\n        /* \"contracts/rockPaperSissors.sol\":3724:3725  g */\n      dup4\n        /* \"contracts/rockPaperSissors.sol\":3727:3732  round */\n      dup9\n        /* \"contracts/rockPaperSissors.sol\":3712:3723  _scoreRound */\n      tag_133\n        /* \"contracts/rockPaperSissors.sol\":3712:3733  _scoreRound(g, round) */\n      jump\t// in\n    tag_132:\n        /* \"contracts/rockPaperSissors.sol\":3658:3841  if (g.moves[other][round] != Move.None) {... */\n      jump(tag_134)\n    tag_131:\n        /* \"contracts/rockPaperSissors.sol\":3774:3786  Stage.Reveal */\n      0x02\n        /* \"contracts/rockPaperSissors.sol\":3764:3765  g */\n      dup4\n        /* \"contracts/rockPaperSissors.sol\":3764:3771  g.stage */\n      0x03\n      add\n      0x00\n        /* \"contracts/rockPaperSissors.sol\":3764:3786  g.stage = Stage.Reveal */\n      0x0100\n      exp\n      dup2\n      sload\n      dup2\n      0xff\n      mul\n      not\n      and\n      swap1\n      dup4\n      0x03\n      dup2\n      gt\n      iszero\n      tag_135\n      jumpi\n      tag_136\n      tag_71\n      jump\t// in\n    tag_136:\n    tag_135:\n      mul\n      or\n      swap1\n      sstore\n      pop\n        /* \"contracts/rockPaperSissors.sol\":3815:3830  block.timestamp */\n      timestamp\n        /* \"contracts/rockPaperSissors.sol\":3800:3801  g */\n      dup4\n        /* \"contracts/rockPaperSissors.sol\":3800:3812  g.lastAction */\n      0x07\n      add\n        /* \"contracts/rockPaperSissors.sol\":3800:3830  g.lastAction = block.timestamp */\n      dup2\n      swap1\n      sstore\n      pop\n        /* \"contracts/rockPaperSissors.sol\":3658:3841  if (g.moves[other][round] != Move.None) {... */\n    tag_134:\n        /* \"contracts/rockPaperSissors.sol\":3015:3847  {... */\n      pop\n      pop\n      pop\n        /* \"@openzeppelin/contracts/security/ReentrancyGuard.sol\":2303:2323  _nonReentrantAfter() */\n      tag_137\n        /* \"@openzeppelin/contracts/security/ReentrancyGuard.sol\":2303:2321  _nonReentrantAfter */\n      tag_76\n        /* \"@openzeppelin/contracts/security/ReentrancyGuard.sol\":2303:2323  _nonReentrantAfter() */\n      jump\t// in\n    tag_137:\n        /* \"contracts/rockPaperSissors.sol\":2879:3847  function reveal(... */\n      pop\n      pop\n      pop\n      pop\n      pop\n      jump\t// out\n        /* \"contracts/rockPaperSissors.sol\":263:328  uint256[3] public BET_SIZES = [0.01 ether, 0.05 ether, 0.1 ether] */\n    tag_35:\n      0x01\n      dup2\n      0x03\n      dup2\n      lt\n      tag_138\n      jumpi\n      0x00\n      dup1\n      revert\n    tag_138:\n      add\n      0x00\n      swap2\n      pop\n      swap1\n      pop\n      sload\n      dup2\n      jump\t// out\n        /* \"contracts/rockPaperSissors.sol\":3913:4693  function claimTimeout(uint256 id) external nonReentrant {... */\n    tag_40:\n        /* \"@openzeppelin/contracts/security/ReentrancyGuard.sol\":2261:2282  _nonReentrantBefore() */\n      tag_141\n        /* \"@openzeppelin/contracts/security/ReentrancyGuard.sol\":2261:2280  _nonReentrantBefore */\n      tag_55\n        /* \"@openzeppelin/contracts/security/ReentrancyGuard.sol\":2261:2282  _nonReentrantBefore() */\n      jump\t// in\n    tag_141:\n        /* \"contracts/rockPaperSissors.sol\":3979:3993  Game storage g */\n      0x00\n        /* \"contracts/rockPaperSissors.sol\":3996:4001  games */\n      0x05\n        /* \"contracts/rockPaperSissors.sol\":3996:4005  games[id] */\n      0x00\n        /* \"contracts/rockPaperSissors.sol\":4002:4004  id */\n      dup4\n        /* \"contracts/rockPaperSissors.sol\":3996:4005  games[id] */\n      dup2\n      mstore\n      0x20\n      add\n      swap1\n      dup2\n      mstore\n      0x20\n      add\n      0x00\n      keccak256\n        /* \"contracts/rockPaperSissors.sol\":3979:4005  Game storage g = games[id] */\n      swap1\n      pop\n        /* \"contracts/rockPaperSissors.sol\":4034:4048  Stage.Finished */\n      0x03\n        /* \"contracts/rockPaperSissors.sol\":4023:4048  g.stage != Stage.Finished */\n      dup1\n      dup2\n      gt\n      iszero\n      tag_143\n      jumpi\n      tag_144\n      tag_71\n      jump\t// in\n    tag_144:\n    tag_143:\n        /* \"contracts/rockPaperSissors.sol\":4023:4024  g */\n      dup2\n        /* \"contracts/rockPaperSissors.sol\":4023:4030  g.stage */\n      0x03\n      add\n      0x00\n      swap1\n      sload\n      swap1\n      0x0100\n      exp\n      swap1\n      div\n      0xff\n      and\n        /* \"contracts/rockPaperSissors.sol\":4023:4048  g.stage != Stage.Finished */\n      0x03\n      dup2\n      gt\n      iszero\n      tag_145\n      jumpi\n      tag_146\n      tag_71\n      jump\t// in\n    tag_146:\n    tag_145:\n      sub\n        /* \"contracts/rockPaperSissors.sol\":4015:4062  require(g.stage != Stage.Finished, \"game over\") */\n      tag_147\n      jumpi\n      mload(0x40)\n      0x08c379a000000000000000000000000000000000000000000000000000000000\n      dup2\n      mstore\n      0x04\n      add\n      tag_148\n      swap1\n      tag_149\n      jump\t// in\n    tag_148:\n      mload(0x40)\n      dup1\n      swap2\n      sub\n      swap1\n      revert\n    tag_147:\n        /* \"contracts/rockPaperSissors.sol\":4072:4084  bool timeout */\n      0x00\n        /* \"contracts/rockPaperSissors.sol\":4099:4112  Stage.Created */\n      0x00\n        /* \"contracts/rockPaperSissors.sol\":4088:4112  g.stage == Stage.Created */\n      0x03\n      dup2\n      gt\n      iszero\n      tag_150\n      jumpi\n      tag_151\n      tag_71\n      jump\t// in\n    tag_151:\n    tag_150:\n        /* \"contracts/rockPaperSissors.sol\":4088:4089  g */\n      dup3\n        /* \"contracts/rockPaperSissors.sol\":4088:4095  g.stage */\n      0x03\n      add\n      0x00\n      swap1\n      sload\n      swap1\n      0x0100\n      exp\n      swap1\n      div\n      0xff\n      and\n        /* \"contracts/rockPaperSissors.sol\":4088:4112  g.stage == Stage.Created */\n      0x03\n      dup2\n      gt\n      iszero\n      tag_152\n      jumpi\n      tag_153\n      tag_71\n      jump\t// in\n    tag_153:\n    tag_152:\n      eq\n        /* \"contracts/rockPaperSissors.sol\":4088:4160  g.stage == Stage.Created && block.timestamp > g.lastAction + JOIN_WINDOW */\n      dup1\n      iszero\n      tag_154\n      jumpi\n      pop\n        /* \"contracts/rockPaperSissors.sol\":746:756  30 minutes */\n      0x0708\n        /* \"contracts/rockPaperSissors.sol\":4134:4135  g */\n      dup3\n        /* \"contracts/rockPaperSissors.sol\":4134:4146  g.lastAction */\n      0x07\n      add\n      sload\n        /* \"contracts/rockPaperSissors.sol\":4134:4160  g.lastAction + JOIN_WINDOW */\n      tag_155\n      swap2\n      swap1\n      tag_156\n      jump\t// in\n    tag_155:\n        /* \"contracts/rockPaperSissors.sol\":4116:4131  block.timestamp */\n      timestamp\n        /* \"contracts/rockPaperSissors.sol\":4116:4160  block.timestamp > g.lastAction + JOIN_WINDOW */\n      gt\n        /* \"contracts/rockPaperSissors.sol\":4088:4160  g.stage == Stage.Created && block.timestamp > g.lastAction + JOIN_WINDOW */\n    tag_154:\n        /* \"contracts/rockPaperSissors.sol\":4087:4263  (g.stage == Stage.Created && block.timestamp > g.lastAction + JOIN_WINDOW) ||... */\n      dup1\n      tag_157\n      jumpi\n      pop\n        /* \"contracts/rockPaperSissors.sol\":4200:4212  Stage.Reveal */\n      0x02\n        /* \"contracts/rockPaperSissors.sol\":4189:4212  g.stage == Stage.Reveal */\n      0x03\n      dup2\n      gt\n      iszero\n      tag_158\n      jumpi\n      tag_159\n      tag_71\n      jump\t// in\n    tag_159:\n    tag_158:\n        /* \"contracts/rockPaperSissors.sol\":4189:4190  g */\n      dup3\n        /* \"contracts/rockPaperSissors.sol\":4189:4196  g.stage */\n      0x03\n      add\n      0x00\n      swap1\n      sload\n      swap1\n      0x0100\n      exp\n      swap1\n      div\n      0xff\n      and\n        /* \"contracts/rockPaperSissors.sol\":4189:4212  g.stage == Stage.Reveal */\n      0x03\n      dup2\n      gt\n      iszero\n      tag_160\n      jumpi\n      tag_161\n      tag_71\n      jump\t// in\n    tag_161:\n    tag_160:\n      eq\n        /* \"contracts/rockPaperSissors.sol\":4189:4262  g.stage == Stage.Reveal && block.timestamp > g.lastAction + REVEAL_WINDOW */\n      dup1\n      iszero\n      tag_162\n      jumpi\n      pop\n        /* \"contracts/rockPaperSissors.sol\":802:812  30 minutes */\n      0x0708\n        /* \"contracts/rockPaperSissors.sol\":4234:4235  g */\n      dup3\n        /* \"contracts/rockPaperSissors.sol\":4234:4246  g.lastAction */\n      0x07\n      add\n      sload\n        /* \"contracts/rockPaperSissors.sol\":4234:4262  g.lastAction + REVEAL_WINDOW */\n      tag_163\n      swap2\n      swap1\n      tag_156\n      jump\t// in\n    tag_163:\n        /* \"contracts/rockPaperSissors.sol\":4216:4231  block.timestamp */\n      timestamp\n        /* \"contracts/rockPaperSissors.sol\":4216:4262  block.timestamp > g.lastAction + REVEAL_WINDOW */\n      gt\n        /* \"contracts/rockPaperSissors.sol\":4189:4262  g.stage == Stage.Reveal && block.timestamp > g.lastAction + REVEAL_WINDOW */\n    tag_162:\n        /* \"contracts/rockPaperSissors.sol\":4087:4263  (g.stage == Stage.Created && block.timestamp > g.lastAction + JOIN_WINDOW) ||... */\n    tag_157:\n        /* \"contracts/rockPaperSissors.sol\":4072:4263  bool timeout = (g.stage == Stage.Created && block.timestamp > g.lastAction + JOIN_WINDOW) ||... */\n      swap1\n      pop\n        /* \"contracts/rockPaperSissors.sol\":4281:4288  timeout */\n      dup1\n        /* \"contracts/rockPaperSissors.sol\":4273:4307  require(timeout, \"no timeout yet\") */\n      tag_164\n      jumpi\n      mload(0x40)\n      0x08c379a000000000000000000000000000000000000000000000000000000000\n      dup2\n      mstore\n      0x04\n      add\n      tag_165\n      swap1\n      tag_166\n      jump\t// in\n    tag_165:\n      mload(0x40)\n      dup1\n      swap2\n      sub\n      swap1\n      revert\n    tag_164:\n        /* \"contracts/rockPaperSissors.sol\":4318:4340  address payable winner */\n      0x00\n        /* \"contracts/rockPaperSissors.sol\":4365:4378  Stage.Created */\n      0x00\n        /* \"contracts/rockPaperSissors.sol\":4354:4378  g.stage == Stage.Created */\n      0x03\n      dup2\n      gt\n      iszero\n      tag_167\n      jumpi\n      tag_168\n      tag_71\n      jump\t// in\n    tag_168:\n    tag_167:\n        /* \"contracts/rockPaperSissors.sol\":4354:4355  g */\n      dup4\n        /* \"contracts/rockPaperSissors.sol\":4354:4361  g.stage */\n      0x03\n      add\n      0x00\n      swap1\n      sload\n      swap1\n      0x0100\n      exp\n      swap1\n      div\n      0xff\n      and\n        /* \"contracts/rockPaperSissors.sol\":4354:4378  g.stage == Stage.Created */\n      0x03\n      dup2\n      gt\n      iszero\n      tag_169\n      jumpi\n      tag_170\n      tag_71\n      jump\t// in\n    tag_170:\n    tag_169:\n      sub\n        /* \"contracts/rockPaperSissors.sol\":4350:4659  if (g.stage == Stage.Created) {... */\n      tag_171\n      jumpi\n        /* \"contracts/rockPaperSissors.sol\":4403:4404  g */\n      dup3\n        /* \"contracts/rockPaperSissors.sol\":4403:4407  g.p1 */\n      0x00\n      add\n      0x00\n      swap1\n      sload\n      swap1\n      0x0100\n      exp\n      swap1\n      div\n      0xffffffffffffffffffffffffffffffffffffffff\n      and\n        /* \"contracts/rockPaperSissors.sol\":4394:4407  winner = g.p1 */\n      swap1\n      pop\n        /* \"contracts/rockPaperSissors.sol\":4350:4659  if (g.stage == Stage.Created) {... */\n      jump(tag_172)\n    tag_171:\n        /* \"contracts/rockPaperSissors.sol\":4592:4601  Move.None */\n      0x00\n        /* \"contracts/rockPaperSissors.sol\":4566:4601  g.moves[g.p1][g.round] != Move.None */\n      0x03\n      dup2\n      gt\n      iszero\n      tag_173\n      jumpi\n      tag_174\n      tag_71\n      jump\t// in\n    tag_174:\n    tag_173:\n        /* \"contracts/rockPaperSissors.sol\":4566:4567  g */\n      dup4\n        /* \"contracts/rockPaperSissors.sol\":4566:4573  g.moves */\n      0x05\n      add\n        /* \"contracts/rockPaperSissors.sol\":4566:4579  g.moves[g.p1] */\n      0x00\n        /* \"contracts/rockPaperSissors.sol\":4574:4575  g */\n      dup6\n        /* \"contracts/rockPaperSissors.sol\":4574:4578  g.p1 */\n      0x00\n      add\n      0x00\n      swap1\n      sload\n      swap1\n      0x0100\n      exp\n      swap1\n      div\n      0xffffffffffffffffffffffffffffffffffffffff\n      and\n        /* \"contracts/rockPaperSissors.sol\":4566:4579  g.moves[g.p1] */\n      0xffffffffffffffffffffffffffffffffffffffff\n      and\n      0xffffffffffffffffffffffffffffffffffffffff\n      and\n      dup2\n      mstore\n      0x20\n      add\n      swap1\n      dup2\n      mstore\n      0x20\n      add\n      0x00\n      keccak256\n        /* \"contracts/rockPaperSissors.sol\":4580:4581  g */\n      dup5\n        /* \"contracts/rockPaperSissors.sol\":4580:4587  g.round */\n      0x03\n      add\n      0x01\n      swap1\n      sload\n      swap1\n      0x0100\n      exp\n      swap1\n      div\n      0xff\n      and\n        /* \"contracts/rockPaperSissors.sol\":4566:4588  g.moves[g.p1][g.round] */\n      0xff\n      and\n      0x03\n      dup2\n      lt\n      tag_175\n      jumpi\n      tag_176\n      tag_62\n      jump\t// in\n    tag_176:\n    tag_175:\n      0x20\n      swap2\n      dup3\n      dup3\n      div\n      add\n      swap2\n      swap1\n      mod\n      swap1\n      sload\n      swap1\n      0x0100\n      exp\n      swap1\n      div\n      0xff\n      and\n        /* \"contracts/rockPaperSissors.sol\":4566:4601  g.moves[g.p1][g.round] != Move.None */\n      0x03\n      dup2\n      gt\n      iszero\n      tag_178\n      jumpi\n      tag_179\n      tag_71\n      jump\t// in\n    tag_179:\n    tag_178:\n      eq\n        /* \"contracts/rockPaperSissors.sol\":4562:4648  if (g.moves[g.p1][g.round] != Move.None) winner = g.p1;... */\n      tag_180\n      jumpi\n        /* \"contracts/rockPaperSissors.sol\":4612:4613  g */\n      dup3\n        /* \"contracts/rockPaperSissors.sol\":4612:4616  g.p1 */\n      0x00\n      add\n      0x00\n      swap1\n      sload\n      swap1\n      0x0100\n      exp\n      swap1\n      div\n      0xffffffffffffffffffffffffffffffffffffffff\n      and\n        /* \"contracts/rockPaperSissors.sol\":4603:4616  winner = g.p1 */\n      swap1\n      pop\n        /* \"contracts/rockPaperSissors.sol\":4562:4648  if (g.moves[g.p1][g.round] != Move.None) winner = g.p1;... */\n      jump(tag_181)\n    tag_180:\n        /* \"contracts/rockPaperSissors.sol\":4644:4645  g */\n      dup3\n        /* \"contracts/rockPaperSissors.sol\":4644:4648  g.p2 */\n      0x01\n      add\n      0x00\n      swap1\n      sload\n      swap1\n      0x0100\n      exp\n      swap1\n      div\n      0xffffffffffffffffffffffffffffffffffffffff\n      and\n        /* \"contracts/rockPaperSissors.sol\":4635:4648  winner = g.p2 */\n      swap1\n      pop\n        /* \"contracts/rockPaperSissors.sol\":4562:4648  if (g.moves[g.p1][g.round] != Move.None) winner = g.p1;... */\n    tag_181:\n        /* \"contracts/rockPaperSissors.sol\":4350:4659  if (g.stage == Stage.Created) {... */\n    tag_172:\n        /* \"contracts/rockPaperSissors.sol\":4668:4686  _payout(g, winner) */\n      tag_182\n        /* \"contracts/rockPaperSissors.sol\":4676:4677  g */\n      dup4\n        /* \"contracts/rockPaperSissors.sol\":4679:4685  winner */\n      dup3\n        /* \"contracts/rockPaperSissors.sol\":4668:4675  _payout */\n      tag_183\n        /* \"contracts/rockPaperSissors.sol\":4668:4686  _payout(g, winner) */\n      jump\t// in\n    tag_182:\n        /* \"contracts/rockPaperSissors.sol\":3969:4693  {... */\n      pop\n      pop\n      pop\n        /* \"@openzeppelin/contracts/security/ReentrancyGuard.sol\":2303:2323  _nonReentrantAfter() */\n      tag_184\n        /* \"@openzeppelin/contracts/security/ReentrancyGuard.sol\":2303:2321  _nonReentrantAfter */\n      tag_76\n        /* \"@openzeppelin/contracts/security/ReentrancyGuard.sol\":2303:2323  _nonReentrantAfter() */\n      jump\t// in\n    tag_184:\n        /* \"contracts/rockPaperSissors.sol\":3913:4693  function claimTimeout(uint256 id) external nonReentrant {... */\n      pop\n      jump\t// out\n        /* \"contracts/rockPaperSissors.sol\":708:756  uint256 public constant JOIN_WINDOW = 30 minutes */\n    tag_43:\n        /* \"contracts/rockPaperSissors.sol\":746:756  30 minutes */\n      0x0708\n        /* \"contracts/rockPaperSissors.sol\":708:756  uint256 public constant JOIN_WINDOW = 30 minutes */\n      dup2\n      jump\t// out\n        /* \"contracts/rockPaperSissors.sol\":819:848  uint256 public nextGameId = 1 */\n    tag_47:\n      sload(0x04)\n      dup2\n      jump\t// out\n        /* \"contracts/rockPaperSissors.sol\":2276:2824  function joinGame(uint256 id, bytes32[3] calldata _commitments) external payable nonReentrant {... */\n    tag_52:\n        /* \"@openzeppelin/contracts/security/ReentrancyGuard.sol\":2261:2282  _nonReentrantBefore() */\n      tag_186\n        /* \"@openzeppelin/contracts/security/ReentrancyGuard.sol\":2261:2280  _nonReentrantBefore */\n      tag_55\n        /* \"@openzeppelin/contracts/security/ReentrancyGuard.sol\":2261:2282  _nonReentrantBefore() */\n      jump\t// in\n    tag_186:\n        /* \"contracts/rockPaperSissors.sol\":2380:2394  Game storage g */\n      0x00\n        /* \"contracts/rockPaperSissors.sol\":2397:2402  games */\n      0x05\n        /* \"contracts/rockPaperSissors.sol\":2397:2406  games[id] */\n      0x00\n        /* \"contracts/rockPaperSissors.sol\":2403:2405  id */\n      dup5\n        /* \"contracts/rockPaperSissors.sol\":2397:2406  games[id] */\n      dup2\n      mstore\n      0x20\n      add\n      swap1\n      dup2\n      mstore\n      0x20\n      add\n      0x00\n      keccak256\n        /* \"contracts/rockPaperSissors.sol\":2380:2406  Game storage g = games[id] */\n      swap1\n      pop\n        /* \"contracts/rockPaperSissors.sol\":2435:2448  Stage.Created */\n      0x00\n        /* \"contracts/rockPaperSissors.sol\":2424:2448  g.stage == Stage.Created */\n      0x03\n      dup2\n      gt\n      iszero\n      tag_188\n      jumpi\n      tag_189\n      tag_71\n      jump\t// in\n    tag_189:\n    tag_188:\n        /* \"contracts/rockPaperSissors.sol\":2424:2425  g */\n      dup2\n        /* \"contracts/rockPaperSissors.sol\":2424:2431  g.stage */\n      0x03\n      add\n      0x00\n      swap1\n      sload\n      swap1\n      0x0100\n      exp\n      swap1\n      div\n      0xff\n      and\n        /* \"contracts/rockPaperSissors.sol\":2424:2448  g.stage == Stage.Created */\n      0x03\n      dup2\n      gt\n      iszero\n      tag_190\n      jumpi\n      tag_191\n      tag_71\n      jump\t// in\n    tag_191:\n    tag_190:\n      eq\n        /* \"contracts/rockPaperSissors.sol\":2416:2465  require(g.stage == Stage.Created, \"not joinable\") */\n      tag_192\n      jumpi\n      mload(0x40)\n      0x08c379a000000000000000000000000000000000000000000000000000000000\n      dup2\n      mstore\n      0x04\n      add\n      tag_193\n      swap1\n      tag_194\n      jump\t// in\n    tag_193:\n      mload(0x40)\n      dup1\n      swap2\n      sub\n      swap1\n      revert\n    tag_192:\n        /* \"contracts/rockPaperSissors.sol\":2497:2498  g */\n      dup1\n        /* \"contracts/rockPaperSissors.sol\":2497:2501  g.p2 */\n      0x01\n      add\n      0x00\n      swap1\n      sload\n      swap1\n      0x0100\n      exp\n      swap1\n      div\n      0xffffffffffffffffffffffffffffffffffffffff\n      and\n        /* \"contracts/rockPaperSissors.sol\":2483:2501  msg.sender == g.p2 */\n      0xffffffffffffffffffffffffffffffffffffffff\n      and\n        /* \"contracts/rockPaperSissors.sol\":2483:2493  msg.sender */\n      caller\n        /* \"contracts/rockPaperSissors.sol\":2483:2501  msg.sender == g.p2 */\n      0xffffffffffffffffffffffffffffffffffffffff\n      and\n      eq\n        /* \"contracts/rockPaperSissors.sol\":2475:2517  require(msg.sender == g.p2, \"not invited\") */\n      tag_195\n      jumpi\n      mload(0x40)\n      0x08c379a000000000000000000000000000000000000000000000000000000000\n      dup2\n      mstore\n      0x04\n      add\n      tag_196\n      swap1\n      tag_197\n      jump\t// in\n    tag_196:\n      mload(0x40)\n      dup1\n      swap2\n      sub\n      swap1\n      revert\n    tag_195:\n        /* \"contracts/rockPaperSissors.sol\":2548:2549  g */\n      dup1\n        /* \"contracts/rockPaperSissors.sol\":2548:2553  g.bet */\n      0x02\n      add\n      sload\n        /* \"contracts/rockPaperSissors.sol\":2535:2544  msg.value */\n      callvalue\n        /* \"contracts/rockPaperSissors.sol\":2535:2553  msg.value == g.bet */\n      eq\n        /* \"contracts/rockPaperSissors.sol\":2527:2576  require(msg.value == g.bet, \"incorrect ETH sent\") */\n      tag_198\n      jumpi\n      mload(0x40)\n      0x08c379a000000000000000000000000000000000000000000000000000000000\n      dup2\n      mstore\n      0x04\n      add\n      tag_199\n      swap1\n      tag_66\n      jump\t// in\n    tag_199:\n      mload(0x40)\n      dup1\n      swap2\n      sub\n      swap1\n      revert\n    tag_198:\n        /* \"contracts/rockPaperSissors.sol\":746:756  30 minutes */\n      0x0708\n        /* \"contracts/rockPaperSissors.sol\":2613:2614  g */\n      dup2\n        /* \"contracts/rockPaperSissors.sol\":2613:2625  g.lastAction */\n      0x07\n      add\n      sload\n        /* \"contracts/rockPaperSissors.sol\":2613:2639  g.lastAction + JOIN_WINDOW */\n      tag_200\n      swap2\n      swap1\n      tag_156\n      jump\t// in\n    tag_200:\n        /* \"contracts/rockPaperSissors.sol\":2594:2609  block.timestamp */\n      timestamp\n        /* \"contracts/rockPaperSissors.sol\":2594:2639  block.timestamp <= g.lastAction + JOIN_WINDOW */\n      gt\n      iszero\n        /* \"contracts/rockPaperSissors.sol\":2586:2656  require(block.timestamp <= g.lastAction + JOIN_WINDOW, \"join timeout\") */\n      tag_201\n      jumpi\n      mload(0x40)\n      0x08c379a000000000000000000000000000000000000000000000000000000000\n      dup2\n      mstore\n      0x04\n      add\n      tag_202\n      swap1\n      tag_203\n      jump\t// in\n    tag_202:\n      mload(0x40)\n      dup1\n      swap2\n      sub\n      swap1\n      revert\n    tag_201:\n        /* \"contracts/rockPaperSissors.sol\":2691:2703  _commitments */\n      dup2\n        /* \"contracts/rockPaperSissors.sol\":2667:2668  g */\n      dup2\n        /* \"contracts/rockPaperSissors.sol\":2667:2676  g.commits */\n      0x04\n      add\n        /* \"contracts/rockPaperSissors.sol\":2667:2688  g.commits[msg.sender] */\n      0x00\n        /* \"contracts/rockPaperSissors.sol\":2677:2687  msg.sender */\n      caller\n        /* \"contracts/rockPaperSissors.sol\":2667:2688  g.commits[msg.sender] */\n      0xffffffffffffffffffffffffffffffffffffffff\n      and\n      0xffffffffffffffffffffffffffffffffffffffff\n      and\n      dup2\n      mstore\n      0x20\n      add\n      swap1\n      dup2\n      mstore\n      0x20\n      add\n      0x00\n      keccak256\n        /* \"contracts/rockPaperSissors.sol\":2667:2703  g.commits[msg.sender] = _commitments */\n      swap1\n      0x03\n      tag_204\n      swap3\n      swap2\n      swap1\n      tag_73\n      jump\t// in\n    tag_204:\n      pop\n        /* \"contracts/rockPaperSissors.sol\":2723:2735  Stage.Joined */\n      0x01\n        /* \"contracts/rockPaperSissors.sol\":2713:2714  g */\n      dup2\n        /* \"contracts/rockPaperSissors.sol\":2713:2720  g.stage */\n      0x03\n      add\n      0x00\n        /* \"contracts/rockPaperSissors.sol\":2713:2735  g.stage = Stage.Joined */\n      0x0100\n      exp\n      dup2\n      sload\n      dup2\n      0xff\n      mul\n      not\n      and\n      swap1\n      dup4\n      0x03\n      dup2\n      gt\n      iszero\n      tag_205\n      jumpi\n      tag_206\n      tag_71\n      jump\t// in\n    tag_206:\n    tag_205:\n      mul\n      or\n      swap1\n      sstore\n      pop\n        /* \"contracts/rockPaperSissors.sol\":2760:2775  block.timestamp */\n      timestamp\n        /* \"contracts/rockPaperSissors.sol\":2745:2746  g */\n      dup2\n        /* \"contracts/rockPaperSissors.sol\":2745:2757  g.lastAction */\n      0x07\n      add\n        /* \"contracts/rockPaperSissors.sol\":2745:2775  g.lastAction = block.timestamp */\n      dup2\n      swap1\n      sstore\n      pop\n        /* \"contracts/rockPaperSissors.sol\":2806:2816  msg.sender */\n      caller\n        /* \"contracts/rockPaperSissors.sol\":2791:2817  GameJoined(id, msg.sender) */\n      0xffffffffffffffffffffffffffffffffffffffff\n      and\n        /* \"contracts/rockPaperSissors.sol\":2802:2804  id */\n      dup4\n        /* \"contracts/rockPaperSissors.sol\":2791:2817  GameJoined(id, msg.sender) */\n      0x45c4f9cbafe186141862608c493f28b823fde4c2142bedc3f5169961a73fdd22\n      mload(0x40)\n      mload(0x40)\n      dup1\n      swap2\n      sub\n      swap1\n      log3\n        /* \"contracts/rockPaperSissors.sol\":2370:2824  {... */\n      pop\n        /* \"@openzeppelin/contracts/security/ReentrancyGuard.sol\":2303:2323  _nonReentrantAfter() */\n      tag_207\n        /* \"@openzeppelin/contracts/security/ReentrancyGuard.sol\":2303:2321  _nonReentrantAfter */\n      tag_76\n        /* \"@openzeppelin/contracts/security/ReentrancyGuard.sol\":2303:2323  _nonReentrantAfter() */\n      jump\t// in\n    tag_207:\n        /* \"contracts/rockPaperSissors.sol\":2276:2824  function joinGame(uint256 id, bytes32[3] calldata _commitments) external payable nonReentrant {... */\n      pop\n      pop\n      jump\t// out\n        /* \"@openzeppelin/contracts/security/ReentrancyGuard.sol\":2336:2623  function _nonReentrantBefore() private {... */\n    tag_55:\n        /* \"@openzeppelin/contracts/security/ReentrancyGuard.sol\":1759:1760  2 */\n      0x02\n        /* \"@openzeppelin/contracts/security/ReentrancyGuard.sol\":2468:2475  _status */\n      sload(0x00)\n        /* \"@openzeppelin/contracts/security/ReentrancyGuard.sol\":2468:2487  _status != _ENTERED */\n      sub\n        /* \"@openzeppelin/contracts/security/ReentrancyGuard.sol\":2460:2523  require(_status != _ENTERED, \"ReentrancyGuard: reentrant call\") */\n      tag_209\n      jumpi\n      mload(0x40)\n      0x08c379a000000000000000000000000000000000000000000000000000000000\n      dup2\n      mstore\n      0x04\n      add\n      tag_210\n      swap1\n      tag_211\n      jump\t// in\n    tag_210:\n      mload(0x40)\n      dup1\n      swap2\n      sub\n      swap1\n      revert\n    tag_209:\n        /* \"@openzeppelin/contracts/security/ReentrancyGuard.sol\":1759:1760  2 */\n      0x02\n        /* \"@openzeppelin/contracts/security/ReentrancyGuard.sol\":2598:2605  _status */\n      0x00\n        /* \"@openzeppelin/contracts/security/ReentrancyGuard.sol\":2598:2616  _status = _ENTERED */\n      dup2\n      swap1\n      sstore\n      pop\n        /* \"@openzeppelin/contracts/security/ReentrancyGuard.sol\":2336:2623  function _nonReentrantBefore() private {... */\n      jump\t// out\n        /* \"@openzeppelin/contracts/security/ReentrancyGuard.sol\":2629:2838  function _nonReentrantAfter() private {... */\n    tag_76:\n        /* \"@openzeppelin/contracts/security/ReentrancyGuard.sol\":1716:1717  1 */\n      0x01\n        /* \"@openzeppelin/contracts/security/ReentrancyGuard.sol\":2809:2816  _status */\n      0x00\n        /* \"@openzeppelin/contracts/security/ReentrancyGuard.sol\":2809:2831  _status = _NOT_ENTERED */\n      dup2\n      swap1\n      sstore\n      pop\n        /* \"@openzeppelin/contracts/security/ReentrancyGuard.sol\":2629:2838  function _nonReentrantAfter() private {... */\n      jump\t// out\n        /* \"contracts/rockPaperSissors.sol\":4826:5694  function _scoreRound(Game storage g, uint8 round) private {... */\n    tag_133:\n        /* \"contracts/rockPaperSissors.sol\":4894:4901  Move m1 */\n      0x00\n        /* \"contracts/rockPaperSissors.sol\":4904:4905  g */\n      dup3\n        /* \"contracts/rockPaperSissors.sol\":4904:4911  g.moves */\n      0x05\n      add\n        /* \"contracts/rockPaperSissors.sol\":4904:4917  g.moves[g.p1] */\n      0x00\n        /* \"contracts/rockPaperSissors.sol\":4912:4913  g */\n      dup5\n        /* \"contracts/rockPaperSissors.sol\":4912:4916  g.p1 */\n      0x00\n      add\n      0x00\n      swap1\n      sload\n      swap1\n      0x0100\n      exp\n      swap1\n      div\n      0xffffffffffffffffffffffffffffffffffffffff\n      and\n        /* \"contracts/rockPaperSissors.sol\":4904:4917  g.moves[g.p1] */\n      0xffffffffffffffffffffffffffffffffffffffff\n      and\n      0xffffffffffffffffffffffffffffffffffffffff\n      and\n      dup2\n      mstore\n      0x20\n      add\n      swap1\n      dup2\n      mstore\n      0x20\n      add\n      0x00\n      keccak256\n        /* \"contracts/rockPaperSissors.sol\":4918:4923  round */\n      dup3\n        /* \"contracts/rockPaperSissors.sol\":4904:4924  g.moves[g.p1][round] */\n      0xff\n      and\n      0x03\n      dup2\n      lt\n      tag_214\n      jumpi\n      tag_215\n      tag_62\n      jump\t// in\n    tag_215:\n    tag_214:\n      0x20\n      swap2\n      dup3\n      dup3\n      div\n      add\n      swap2\n      swap1\n      mod\n      swap1\n      sload\n      swap1\n      0x0100\n      exp\n      swap1\n      div\n      0xff\n      and\n        /* \"contracts/rockPaperSissors.sol\":4894:4924  Move m1 = g.moves[g.p1][round] */\n      swap1\n      pop\n        /* \"contracts/rockPaperSissors.sol\":4934:4941  Move m2 */\n      0x00\n        /* \"contracts/rockPaperSissors.sol\":4944:4945  g */\n      dup4\n        /* \"contracts/rockPaperSissors.sol\":4944:4951  g.moves */\n      0x05\n      add\n        /* \"contracts/rockPaperSissors.sol\":4944:4957  g.moves[g.p2] */\n      0x00\n        /* \"contracts/rockPaperSissors.sol\":4952:4953  g */\n      dup6\n        /* \"contracts/rockPaperSissors.sol\":4952:4956  g.p2 */\n      0x01\n      add\n      0x00\n      swap1\n      sload\n      swap1\n      0x0100\n      exp\n      swap1\n      div\n      0xffffffffffffffffffffffffffffffffffffffff\n      and\n        /* \"contracts/rockPaperSissors.sol\":4944:4957  g.moves[g.p2] */\n      0xffffffffffffffffffffffffffffffffffffffff\n      and\n      0xffffffffffffffffffffffffffffffffffffffff\n      and\n      dup2\n      mstore\n      0x20\n      add\n      swap1\n      dup2\n      mstore\n      0x20\n      add\n      0x00\n      keccak256\n        /* \"contracts/rockPaperSissors.sol\":4958:4963  round */\n      dup4\n        /* \"contracts/rockPaperSissors.sol\":4944:4964  g.moves[g.p2][round] */\n      0xff\n      and\n      0x03\n      dup2\n      lt\n      tag_217\n      jumpi\n      tag_218\n      tag_62\n      jump\t// in\n    tag_218:\n    tag_217:\n      0x20\n      swap2\n      dup3\n      dup3\n      div\n      add\n      swap2\n      swap1\n      mod\n      swap1\n      sload\n      swap1\n      0x0100\n      exp\n      swap1\n      div\n      0xff\n      and\n        /* \"contracts/rockPaperSissors.sol\":4934:4964  Move m2 = g.moves[g.p2][round] */\n      swap1\n      pop\n        /* \"contracts/rockPaperSissors.sol\":4985:4987  m2 */\n      dup1\n        /* \"contracts/rockPaperSissors.sol\":4979:4987  m1 == m2 */\n      0x03\n      dup2\n      gt\n      iszero\n      tag_220\n      jumpi\n      tag_221\n      tag_71\n      jump\t// in\n    tag_221:\n    tag_220:\n        /* \"contracts/rockPaperSissors.sol\":4979:4981  m1 */\n      dup3\n        /* \"contracts/rockPaperSissors.sol\":4979:4987  m1 == m2 */\n      0x03\n      dup2\n      gt\n      iszero\n      tag_222\n      jumpi\n      tag_223\n      tag_71\n      jump\t// in\n    tag_223:\n    tag_222:\n      sub\n        /* \"contracts/rockPaperSissors.sol\":4975:5199  if (m1 == m2) {... */\n      iszero\n      tag_225\n      jumpi\n        /* \"contracts/rockPaperSissors.sol\":5068:5070  m2 */\n      dup1\n        /* \"contracts/rockPaperSissors.sol\":5062:5071  uint8(m2) */\n      0x03\n      dup2\n      gt\n      iszero\n      tag_226\n      jumpi\n      tag_227\n      tag_71\n      jump\t// in\n    tag_227:\n    tag_226:\n        /* \"contracts/rockPaperSissors.sol\":5039:5071  (uint8(m1) + 1) % 3 == uint8(m2) */\n      0xff\n      and\n        /* \"contracts/rockPaperSissors.sol\":5057:5058  3 */\n      0x03\n        /* \"contracts/rockPaperSissors.sol\":5052:5053  1 */\n      0x01\n        /* \"contracts/rockPaperSissors.sol\":5046:5048  m1 */\n      dup5\n        /* \"contracts/rockPaperSissors.sol\":5040:5049  uint8(m1) */\n      0x03\n      dup2\n      gt\n      iszero\n      tag_228\n      jumpi\n      tag_229\n      tag_71\n      jump\t// in\n    tag_229:\n    tag_228:\n        /* \"contracts/rockPaperSissors.sol\":5040:5053  uint8(m1) + 1 */\n      tag_230\n      swap2\n      swap1\n      tag_231\n      jump\t// in\n    tag_230:\n        /* \"contracts/rockPaperSissors.sol\":5039:5058  (uint8(m1) + 1) % 3 */\n      tag_232\n      swap2\n      swap1\n      tag_233\n      jump\t// in\n    tag_232:\n        /* \"contracts/rockPaperSissors.sol\":5039:5071  (uint8(m1) + 1) % 3 == uint8(m2) */\n      0xff\n      and\n      sub\n        /* \"contracts/rockPaperSissors.sol\":5035:5199  if ((uint8(m1) + 1) % 3 == uint8(m2)) {... */\n      tag_234\n      jumpi\n        /* \"contracts/rockPaperSissors.sol\":5137:5138  g */\n      dup4\n        /* \"contracts/rockPaperSissors.sol\":5137:5145  g.p2Wins */\n      0x06\n      add\n      0x01\n        /* \"contracts/rockPaperSissors.sol\":5137:5147  g.p2Wins++ */\n      dup2\n      dup2\n      swap1\n      sload\n      swap1\n      0x0100\n      exp\n      swap1\n      div\n      0xff\n      and\n      dup1\n      swap3\n      swap2\n      swap1\n      tag_235\n      swap1\n      tag_236\n      jump\t// in\n    tag_235:\n      swap2\n      swap1\n      0x0100\n      exp\n      dup2\n      sload\n      dup2\n      0xff\n      mul\n      not\n      and\n      swap1\n      dup4\n      0xff\n      and\n      mul\n      or\n      swap1\n      sstore\n      pop\n      pop\n        /* \"contracts/rockPaperSissors.sol\":5035:5199  if ((uint8(m1) + 1) % 3 == uint8(m2)) {... */\n      jump(tag_237)\n    tag_234:\n        /* \"contracts/rockPaperSissors.sol\":5178:5179  g */\n      dup4\n        /* \"contracts/rockPaperSissors.sol\":5178:5186  g.p1Wins */\n      0x06\n      add\n      0x00\n        /* \"contracts/rockPaperSissors.sol\":5178:5188  g.p1Wins++ */\n      dup2\n      dup2\n      swap1\n      sload\n      swap1\n      0x0100\n      exp\n      swap1\n      div\n      0xff\n      and\n      dup1\n      swap3\n      swap2\n      swap1\n      tag_238\n      swap1\n      tag_236\n      jump\t// in\n    tag_238:\n      swap2\n      swap1\n      0x0100\n      exp\n      dup2\n      sload\n      dup2\n      0xff\n      mul\n      not\n      and\n      swap1\n      dup4\n      0xff\n      and\n      mul\n      or\n      swap1\n      sstore\n      pop\n      pop\n        /* \"contracts/rockPaperSissors.sol\":5035:5199  if ((uint8(m1) + 1) % 3 == uint8(m2)) {... */\n    tag_237:\n        /* \"contracts/rockPaperSissors.sol\":4975:5199  if (m1 == m2) {... */\n    tag_225:\n        /* \"contracts/rockPaperSissors.sol\":5209:5210  g */\n      dup4\n        /* \"contracts/rockPaperSissors.sol\":5209:5216  g.round */\n      0x03\n      add\n      0x01\n        /* \"contracts/rockPaperSissors.sol\":5209:5218  g.round++ */\n      dup2\n      dup2\n      swap1\n      sload\n      swap1\n      0x0100\n      exp\n      swap1\n      div\n      0xff\n      and\n      dup1\n      swap3\n      swap2\n      swap1\n      tag_239\n      swap1\n      tag_236\n      jump\t// in\n    tag_239:\n      swap2\n      swap1\n      0x0100\n      exp\n      dup2\n      sload\n      dup2\n      0xff\n      mul\n      not\n      and\n      swap1\n      dup4\n      0xff\n      and\n      mul\n      or\n      swap1\n      sstore\n      pop\n      pop\n        /* \"contracts/rockPaperSissors.sol\":5277:5278  2 */\n      0x02\n        /* \"contracts/rockPaperSissors.sol\":5265:5266  g */\n      dup5\n        /* \"contracts/rockPaperSissors.sol\":5265:5273  g.p1Wins */\n      0x06\n      add\n      0x00\n      swap1\n      sload\n      swap1\n      0x0100\n      exp\n      swap1\n      div\n      0xff\n      and\n        /* \"contracts/rockPaperSissors.sol\":5265:5278  g.p1Wins == 2 */\n      0xff\n      and\n      eq\n        /* \"contracts/rockPaperSissors.sol\":5265:5295  g.p1Wins == 2 || g.p2Wins == 2 */\n      dup1\n      tag_240\n      jumpi\n      pop\n        /* \"contracts/rockPaperSissors.sol\":5294:5295  2 */\n      0x02\n        /* \"contracts/rockPaperSissors.sol\":5282:5283  g */\n      dup5\n        /* \"contracts/rockPaperSissors.sol\":5282:5290  g.p2Wins */\n      0x06\n      add\n      0x01\n      swap1\n      sload\n      swap1\n      0x0100\n      exp\n      swap1\n      div\n      0xff\n      and\n        /* \"contracts/rockPaperSissors.sol\":5282:5295  g.p2Wins == 2 */\n      0xff\n      and\n      eq\n        /* \"contracts/rockPaperSissors.sol\":5265:5295  g.p1Wins == 2 || g.p2Wins == 2 */\n    tag_240:\n        /* \"contracts/rockPaperSissors.sol\":5265:5311  g.p1Wins == 2 || g.p2Wins == 2 || g.round == 3 */\n      dup1\n      tag_241\n      jumpi\n      pop\n        /* \"contracts/rockPaperSissors.sol\":5310:5311  3 */\n      0x03\n        /* \"contracts/rockPaperSissors.sol\":5299:5300  g */\n      dup5\n        /* \"contracts/rockPaperSissors.sol\":5299:5306  g.round */\n      0x03\n      add\n      0x01\n      swap1\n      sload\n      swap1\n      0x0100\n      exp\n      swap1\n      div\n      0xff\n      and\n        /* \"contracts/rockPaperSissors.sol\":5299:5311  g.round == 3 */\n      0xff\n      and\n      eq\n        /* \"contracts/rockPaperSissors.sol\":5265:5311  g.p1Wins == 2 || g.p2Wins == 2 || g.round == 3 */\n    tag_241:\n        /* \"contracts/rockPaperSissors.sol\":5261:5688  if (g.p1Wins == 2 || g.p2Wins == 2 || g.round == 3) {... */\n      iszero\n      tag_242\n      jumpi\n        /* \"contracts/rockPaperSissors.sol\":5327:5349  address payable winner */\n      0x00\n        /* \"contracts/rockPaperSissors.sol\":5378:5379  g */\n      dup5\n        /* \"contracts/rockPaperSissors.sol\":5378:5386  g.p2Wins */\n      0x06\n      add\n      0x01\n      swap1\n      sload\n      swap1\n      0x0100\n      exp\n      swap1\n      div\n      0xff\n      and\n        /* \"contracts/rockPaperSissors.sol\":5367:5386  g.p1Wins > g.p2Wins */\n      0xff\n      and\n        /* \"contracts/rockPaperSissors.sol\":5367:5368  g */\n      dup6\n        /* \"contracts/rockPaperSissors.sol\":5367:5375  g.p1Wins */\n      0x06\n      add\n      0x00\n      swap1\n      sload\n      swap1\n      0x0100\n      exp\n      swap1\n      div\n      0xff\n      and\n        /* \"contracts/rockPaperSissors.sol\":5367:5386  g.p1Wins > g.p2Wins */\n      0xff\n      and\n      gt\n        /* \"contracts/rockPaperSissors.sol\":5363:5505  if (g.p1Wins > g.p2Wins) winner = g.p1;... */\n      iszero\n      tag_243\n      jumpi\n        /* \"contracts/rockPaperSissors.sol\":5397:5398  g */\n      dup5\n        /* \"contracts/rockPaperSissors.sol\":5397:5401  g.p1 */\n      0x00\n      add\n      0x00\n      swap1\n      sload\n      swap1\n      0x0100\n      exp\n      swap1\n      div\n      0xffffffffffffffffffffffffffffffffffffffff\n      and\n        /* \"contracts/rockPaperSissors.sol\":5388:5401  winner = g.p1 */\n      swap1\n      pop\n        /* \"contracts/rockPaperSissors.sol\":5363:5505  if (g.p1Wins > g.p2Wins) winner = g.p1;... */\n      jump(tag_244)\n    tag_243:\n        /* \"contracts/rockPaperSissors.sol\":5435:5436  g */\n      dup5\n        /* \"contracts/rockPaperSissors.sol\":5435:5443  g.p1Wins */\n      0x06\n      add\n      0x00\n      swap1\n      sload\n      swap1\n      0x0100\n      exp\n      swap1\n      div\n      0xff\n      and\n        /* \"contracts/rockPaperSissors.sol\":5424:5443  g.p2Wins > g.p1Wins */\n      0xff\n      and\n        /* \"contracts/rockPaperSissors.sol\":5424:5425  g */\n      dup6\n        /* \"contracts/rockPaperSissors.sol\":5424:5432  g.p2Wins */\n      0x06\n      add\n      0x01\n      swap1\n      sload\n      swap1\n      0x0100\n      exp\n      swap1\n      div\n      0xff\n      and\n        /* \"contracts/rockPaperSissors.sol\":5424:5443  g.p2Wins > g.p1Wins */\n      0xff\n      and\n      gt\n        /* \"contracts/rockPaperSissors.sol\":5420:5505  if (g.p2Wins > g.p1Wins) winner = g.p2;... */\n      iszero\n      tag_245\n      jumpi\n        /* \"contracts/rockPaperSissors.sol\":5454:5455  g */\n      dup5\n        /* \"contracts/rockPaperSissors.sol\":5454:5458  g.p2 */\n      0x01\n      add\n      0x00\n      swap1\n      sload\n      swap1\n      0x0100\n      exp\n      swap1\n      div\n      0xffffffffffffffffffffffffffffffffffffffff\n      and\n        /* \"contracts/rockPaperSissors.sol\":5445:5458  winner = g.p2 */\n      swap1\n      pop\n        /* \"contracts/rockPaperSissors.sol\":5420:5505  if (g.p2Wins > g.p1Wins) winner = g.p2;... */\n      jump(tag_246)\n    tag_245:\n        /* \"contracts/rockPaperSissors.sol\":5502:5503  0 */\n      0x00\n        /* \"contracts/rockPaperSissors.sol\":5477:5505  winner = payable(address(0)) */\n      swap1\n      pop\n        /* \"contracts/rockPaperSissors.sol\":5420:5505  if (g.p2Wins > g.p1Wins) winner = g.p2;... */\n    tag_246:\n        /* \"contracts/rockPaperSissors.sol\":5363:5505  if (g.p1Wins > g.p2Wins) winner = g.p1;... */\n    tag_244:\n        /* \"contracts/rockPaperSissors.sol\":5527:5545  _payout(g, winner) */\n      tag_247\n        /* \"contracts/rockPaperSissors.sol\":5535:5536  g */\n      dup6\n        /* \"contracts/rockPaperSissors.sol\":5538:5544  winner */\n      dup3\n        /* \"contracts/rockPaperSissors.sol\":5527:5534  _payout */\n      tag_183\n        /* \"contracts/rockPaperSissors.sol\":5527:5545  _payout(g, winner) */\n      jump\t// in\n    tag_247:\n        /* \"contracts/rockPaperSissors.sol\":5313:5556  {... */\n      pop\n        /* \"contracts/rockPaperSissors.sol\":5261:5688  if (g.p1Wins == 2 || g.p2Wins == 2 || g.round == 3) {... */\n      jump(tag_248)\n    tag_242:\n        /* \"contracts/rockPaperSissors.sol\":5621:5633  Stage.Joined */\n      0x01\n        /* \"contracts/rockPaperSissors.sol\":5611:5612  g */\n      dup5\n        /* \"contracts/rockPaperSissors.sol\":5611:5618  g.stage */\n      0x03\n      add\n      0x00\n        /* \"contracts/rockPaperSissors.sol\":5611:5633  g.stage = Stage.Joined */\n      0x0100\n      exp\n      dup2\n      sload\n      dup2\n      0xff\n      mul\n      not\n      and\n      swap1\n      dup4\n      0x03\n      dup2\n      gt\n      iszero\n      tag_249\n      jumpi\n      tag_250\n      tag_71\n      jump\t// in\n    tag_250:\n    tag_249:\n      mul\n      or\n      swap1\n      sstore\n      pop\n        /* \"contracts/rockPaperSissors.sol\":5662:5677  block.timestamp */\n      timestamp\n        /* \"contracts/rockPaperSissors.sol\":5647:5648  g */\n      dup5\n        /* \"contracts/rockPaperSissors.sol\":5647:5659  g.lastAction */\n      0x07\n      add\n        /* \"contracts/rockPaperSissors.sol\":5647:5677  g.lastAction = block.timestamp */\n      dup2\n      swap1\n      sstore\n      pop\n        /* \"contracts/rockPaperSissors.sol\":5261:5688  if (g.p1Wins == 2 || g.p2Wins == 2 || g.round == 3) {... */\n    tag_248:\n        /* \"contracts/rockPaperSissors.sol\":4884:5694  {... */\n      pop\n      pop\n        /* \"contracts/rockPaperSissors.sol\":4826:5694  function _scoreRound(Game storage g, uint8 round) private {... */\n      pop\n      pop\n      jump\t// out\n        /* \"contracts/rockPaperSissors.sol\":5700:6185  function _payout(Game storage g, address payable winner) private {... */\n    tag_183:\n        /* \"contracts/rockPaperSissors.sol\":5785:5799  Stage.Finished */\n      0x03\n        /* \"contracts/rockPaperSissors.sol\":5775:5776  g */\n      dup3\n        /* \"contracts/rockPaperSissors.sol\":5775:5782  g.stage */\n      0x03\n      add\n      0x00\n        /* \"contracts/rockPaperSissors.sol\":5775:5799  g.stage = Stage.Finished */\n      0x0100\n      exp\n      dup2\n      sload\n      dup2\n      0xff\n      mul\n      not\n      and\n      swap1\n      dup4\n      0x03\n      dup2\n      gt\n      iszero\n      tag_252\n      jumpi\n      tag_253\n      tag_71\n      jump\t// in\n    tag_253:\n    tag_252:\n      mul\n      or\n      swap1\n      sstore\n      pop\n        /* \"contracts/rockPaperSissors.sol\":5810:5821  uint256 pot */\n      0x00\n        /* \"contracts/rockPaperSissors.sol\":5832:5833  2 */\n      0x02\n        /* \"contracts/rockPaperSissors.sol\":5824:5825  g */\n      dup4\n        /* \"contracts/rockPaperSissors.sol\":5824:5829  g.bet */\n      0x02\n      add\n      sload\n        /* \"contracts/rockPaperSissors.sol\":5824:5833  g.bet * 2 */\n      tag_254\n      swap2\n      swap1\n      tag_255\n      jump\t// in\n    tag_254:\n        /* \"contracts/rockPaperSissors.sol\":5810:5833  uint256 pot = g.bet * 2 */\n      swap1\n      pop\n        /* \"contracts/rockPaperSissors.sol\":5865:5866  0 */\n      0x00\n        /* \"contracts/rockPaperSissors.sol\":5847:5867  winner == address(0) */\n      0xffffffffffffffffffffffffffffffffffffffff\n      and\n        /* \"contracts/rockPaperSissors.sol\":5847:5853  winner */\n      dup3\n        /* \"contracts/rockPaperSissors.sol\":5847:5867  winner == address(0) */\n      0xffffffffffffffffffffffffffffffffffffffff\n      and\n      sub\n        /* \"contracts/rockPaperSissors.sol\":5843:6179  if (winner == address(0)) {... */\n      tag_256\n      jumpi\n        /* \"contracts/rockPaperSissors.sol\":5902:5903  g */\n      dup3\n        /* \"contracts/rockPaperSissors.sol\":5902:5906  g.p1 */\n      0x00\n      add\n      0x00\n      swap1\n      sload\n      swap1\n      0x0100\n      exp\n      swap1\n      div\n      0xffffffffffffffffffffffffffffffffffffffff\n      and\n        /* \"contracts/rockPaperSissors.sol\":5902:5915  g.p1.transfer */\n      0xffffffffffffffffffffffffffffffffffffffff\n      and\n        /* \"contracts/rockPaperSissors.sol\":5902:5922  g.p1.transfer(g.bet) */\n      0x08fc\n        /* \"contracts/rockPaperSissors.sol\":5916:5917  g */\n      dup5\n        /* \"contracts/rockPaperSissors.sol\":5916:5921  g.bet */\n      0x02\n      add\n      sload\n        /* \"contracts/rockPaperSissors.sol\":5902:5922  g.p1.transfer(g.bet) */\n      swap1\n      dup2\n      iszero\n      mul\n      swap1\n      mload(0x40)\n      0x00\n      mload(0x40)\n      dup1\n      dup4\n      sub\n      dup2\n      dup6\n      dup9\n      dup9\n      call\n      swap4\n      pop\n      pop\n      pop\n      pop\n      iszero\n      dup1\n      iszero\n      tag_258\n      jumpi\n      returndatacopy(0x00, 0x00, returndatasize)\n      revert(0x00, returndatasize)\n    tag_258:\n      pop\n        /* \"contracts/rockPaperSissors.sol\":5936:5937  g */\n      dup3\n        /* \"contracts/rockPaperSissors.sol\":5936:5940  g.p2 */\n      0x01\n      add\n      0x00\n      swap1\n      sload\n      swap1\n      0x0100\n      exp\n      swap1\n      div\n      0xffffffffffffffffffffffffffffffffffffffff\n      and\n        /* \"contracts/rockPaperSissors.sol\":5936:5949  g.p2.transfer */\n      0xffffffffffffffffffffffffffffffffffffffff\n      and\n        /* \"contracts/rockPaperSissors.sol\":5936:5956  g.p2.transfer(g.bet) */\n      0x08fc\n        /* \"contracts/rockPaperSissors.sol\":5950:5951  g */\n      dup5\n        /* \"contracts/rockPaperSissors.sol\":5950:5955  g.bet */\n      0x02\n      add\n      sload\n        /* \"contracts/rockPaperSissors.sol\":5936:5956  g.p2.transfer(g.bet) */\n      swap1\n      dup2\n      iszero\n      mul\n      swap1\n      mload(0x40)\n      0x00\n      mload(0x40)\n      dup1\n      dup4\n      sub\n      dup2\n      dup6\n      dup9\n      dup9\n      call\n      swap4\n      pop\n      pop\n      pop\n      pop\n      iszero\n      dup1\n      iszero\n      tag_260\n      jumpi\n      returndatacopy(0x00, 0x00, returndatasize)\n      revert(0x00, returndatasize)\n    tag_260:\n      pop\n        /* \"contracts/rockPaperSissors.sol\":5988:5989  0 */\n      0x00\n        /* \"contracts/rockPaperSissors.sol\":5975:6005  GameFinished(0, address(0), 0) */\n      0xf5d92df6ae1a0b46d0a0c57c2e1da0d75d7591d2804ad086cb1e27ba67de7aaf\n        /* \"contracts/rockPaperSissors.sol\":5999:6000  0 */\n      0x00\n        /* \"contracts/rockPaperSissors.sol\":6003:6004  0 */\n      0x00\n        /* \"contracts/rockPaperSissors.sol\":5975:6005  GameFinished(0, address(0), 0) */\n      mload(0x40)\n      tag_261\n      swap3\n      swap2\n      swap1\n      tag_262\n      jump\t// in\n    tag_261:\n      mload(0x40)\n      dup1\n      swap2\n      sub\n      swap1\n      log2\n        /* \"contracts/rockPaperSissors.sol\":5843:6179  if (winner == address(0)) {... */\n      jump(tag_263)\n    tag_256:\n        /* \"contracts/rockPaperSissors.sol\":6037:6044  bool ok */\n      0x00\n        /* \"contracts/rockPaperSissors.sol\":6050:6056  winner */\n      dup3\n        /* \"contracts/rockPaperSissors.sol\":6050:6061  winner.call */\n      0xffffffffffffffffffffffffffffffffffffffff\n      and\n        /* \"contracts/rockPaperSissors.sol\":6069:6072  pot */\n      dup3\n        /* \"contracts/rockPaperSissors.sol\":6050:6077  winner.call{value: pot}(\"\") */\n      mload(0x40)\n      tag_264\n      swap1\n      tag_265\n      jump\t// in\n    tag_264:\n      0x00\n      mload(0x40)\n      dup1\n      dup4\n      sub\n      dup2\n      dup6\n      dup8\n      gas\n      call\n      swap3\n      pop\n      pop\n      pop\n      returndatasize\n      dup1\n      0x00\n      dup2\n      eq\n      tag_268\n      jumpi\n      mload(0x40)\n      swap2\n      pop\n      and(add(returndatasize, 0x3f), not(0x1f))\n      dup3\n      add\n      0x40\n      mstore\n      returndatasize\n      dup3\n      mstore\n      returndatasize\n      0x00\n      0x20\n      dup5\n      add\n      returndatacopy\n      jump(tag_267)\n    tag_268:\n      0x60\n      swap2\n      pop\n    tag_267:\n      pop\n        /* \"contracts/rockPaperSissors.sol\":6036:6077  (bool ok, ) = winner.call{value: pot}(\"\") */\n      pop\n      swap1\n      pop\n        /* \"contracts/rockPaperSissors.sol\":6099:6101  ok */\n      dup1\n        /* \"contracts/rockPaperSissors.sol\":6091:6121  require(ok, \"transfer failed\") */\n      tag_269\n      jumpi\n      mload(0x40)\n      0x08c379a000000000000000000000000000000000000000000000000000000000\n      dup2\n      mstore\n      0x04\n      add\n      tag_270\n      swap1\n      tag_271\n      jump\t// in\n    tag_270:\n      mload(0x40)\n      dup1\n      swap2\n      sub\n      swap1\n      revert\n    tag_269:\n        /* \"contracts/rockPaperSissors.sol\":6153:6154  0 */\n      0x00\n        /* \"contracts/rockPaperSissors.sol\":6140:6168  GameFinished(0, winner, pot) */\n      0xf5d92df6ae1a0b46d0a0c57c2e1da0d75d7591d2804ad086cb1e27ba67de7aaf\n        /* \"contracts/rockPaperSissors.sol\":6156:6162  winner */\n      dup5\n        /* \"contracts/rockPaperSissors.sol\":6164:6167  pot */\n      dup5\n        /* \"contracts/rockPaperSissors.sol\":6140:6168  GameFinished(0, winner, pot) */\n      mload(0x40)\n      tag_272\n      swap3\n      swap2\n      swap1\n      tag_273\n      jump\t// in\n    tag_272:\n      mload(0x40)\n      dup1\n      swap2\n      sub\n      swap1\n      log2\n        /* \"contracts/rockPaperSissors.sol\":6022:6179  {... */\n      pop\n        /* \"contracts/rockPaperSissors.sol\":5843:6179  if (winner == address(0)) {... */\n    tag_263:\n        /* \"contracts/rockPaperSissors.sol\":5765:6185  {... */\n      pop\n        /* \"contracts/rockPaperSissors.sol\":5700:6185  function _payout(Game storage g, address payable winner) private {... */\n      pop\n      pop\n      jump\t// out\n    tag_73:\n      dup3\n      0x03\n      dup2\n      add\n      swap3\n      dup3\n      iszero\n      tag_274\n      jumpi\n      swap2\n      0x20\n      mul\n      dup3\n      add\n    tag_275:\n      dup3\n      dup2\n      gt\n      iszero\n      tag_276\n      jumpi\n      dup3\n      calldataload\n      dup3\n      sstore\n      swap2\n      0x20\n      add\n      swap2\n      swap1\n      0x01\n      add\n      swap1\n      jump(tag_275)\n    tag_276:\n    tag_274:\n      pop\n      swap1\n      pop\n      tag_277\n      swap2\n      swap1\n      tag_278\n      jump\t// in\n    tag_277:\n      pop\n      swap1\n      jump\t// out\n    tag_278:\n    tag_279:\n      dup1\n      dup3\n      gt\n      iszero\n      tag_280\n      jumpi\n      0x00\n      dup2\n      0x00\n      swap1\n      sstore\n      pop\n      0x01\n      add\n      jump(tag_279)\n    tag_280:\n      pop\n      swap1\n      jump\t// out\n        /* \"#utility.yul\":7:176   */\n    tag_281:\n        /* \"#utility.yul\":91:102   */\n      0x00\n        /* \"#utility.yul\":125:131   */\n      dup3\n        /* \"#utility.yul\":120:123   */\n      dup3\n        /* \"#utility.yul\":113:132   */\n      mstore\n        /* \"#utility.yul\":165:169   */\n      0x20\n        /* \"#utility.yul\":160:163   */\n      dup3\n        /* \"#utility.yul\":156:170   */\n      add\n        /* \"#utility.yul\":141:170   */\n      swap1\n      pop\n        /* \"#utility.yul\":7:176   */\n      swap3\n      swap2\n      pop\n      pop\n      jump\t// out\n        /* \"#utility.yul\":182:364   */\n    tag_282:\n        /* \"#utility.yul\":322:356   */\n      0x53656e6420455448207669612063726561746547616d652f6a6f696e47616d65\n        /* \"#utility.yul\":318:319   */\n      0x00\n        /* \"#utility.yul\":310:316   */\n      dup3\n        /* \"#utility.yul\":306:320   */\n      add\n        /* \"#utility.yul\":299:357   */\n      mstore\n        /* \"#utility.yul\":182:364   */\n      pop\n      jump\t// out\n        /* \"#utility.yul\":370:736   */\n    tag_283:\n        /* \"#utility.yul\":512:515   */\n      0x00\n        /* \"#utility.yul\":533:600   */\n      tag_361\n        /* \"#utility.yul\":597:599   */\n      0x20\n        /* \"#utility.yul\":592:595   */\n      dup4\n        /* \"#utility.yul\":533:600   */\n      tag_281\n      jump\t// in\n    tag_361:\n        /* \"#utility.yul\":526:600   */\n      swap2\n      pop\n        /* \"#utility.yul\":609:702   */\n      tag_362\n        /* \"#utility.yul\":698:701   */\n      dup3\n        /* \"#utility.yul\":609:702   */\n      tag_282\n      jump\t// in\n    tag_362:\n        /* \"#utility.yul\":727:729   */\n      0x20\n        /* \"#utility.yul\":722:725   */\n      dup3\n        /* \"#utility.yul\":718:730   */\n      add\n        /* \"#utility.yul\":711:730   */\n      swap1\n      pop\n        /* \"#utility.yul\":370:736   */\n      swap2\n      swap1\n      pop\n      jump\t// out\n        /* \"#utility.yul\":742:1161   */\n    tag_15:\n        /* \"#utility.yul\":908:912   */\n      0x00\n        /* \"#utility.yul\":946:948   */\n      0x20\n        /* \"#utility.yul\":935:944   */\n      dup3\n        /* \"#utility.yul\":931:949   */\n      add\n        /* \"#utility.yul\":923:949   */\n      swap1\n      pop\n        /* \"#utility.yul\":995:1004   */\n      dup2\n        /* \"#utility.yul\":989:993   */\n      dup2\n        /* \"#utility.yul\":985:1005   */\n      sub\n        /* \"#utility.yul\":981:982   */\n      0x00\n        /* \"#utility.yul\":970:979   */\n      dup4\n        /* \"#utility.yul\":966:983   */\n      add\n        /* \"#utility.yul\":959:1006   */\n      mstore\n        /* \"#utility.yul\":1023:1154   */\n      tag_364\n        /* \"#utility.yul\":1149:1153   */\n      dup2\n        /* \"#utility.yul\":1023:1154   */\n      tag_283\n      jump\t// in\n    tag_364:\n        /* \"#utility.yul\":1015:1154   */\n      swap1\n      pop\n        /* \"#utility.yul\":742:1161   */\n      swap2\n      swap1\n      pop\n      jump\t// out\n        /* \"#utility.yul\":1248:1365   */\n    tag_285:\n        /* \"#utility.yul\":1357:1358   */\n      0x00\n        /* \"#utility.yul\":1354:1355   */\n      0x00\n        /* \"#utility.yul\":1347:1359   */\n      revert\n        /* \"#utility.yul\":1371:1488   */\n    tag_286:\n        /* \"#utility.yul\":1480:1481   */\n      0x00\n        /* \"#utility.yul\":1477:1478   */\n      0x00\n        /* \"#utility.yul\":1470:1482   */\n      revert\n        /* \"#utility.yul\":1494:1620   */\n    tag_287:\n        /* \"#utility.yul\":1531:1538   */\n      0x00\n        /* \"#utility.yul\":1571:1613   */\n      0xffffffffffffffffffffffffffffffffffffffff\n        /* \"#utility.yul\":1564:1569   */\n      dup3\n        /* \"#utility.yul\":1560:1614   */\n      and\n        /* \"#utility.yul\":1549:1614   */\n      swap1\n      pop\n        /* \"#utility.yul\":1494:1620   */\n      swap2\n      swap1\n      pop\n      jump\t// out\n        /* \"#utility.yul\":1626:1730   */\n    tag_288:\n        /* \"#utility.yul\":1671:1678   */\n      0x00\n        /* \"#utility.yul\":1700:1724   */\n      tag_370\n        /* \"#utility.yul\":1718:1723   */\n      dup3\n        /* \"#utility.yul\":1700:1724   */\n      tag_287\n      jump\t// in\n    tag_370:\n        /* \"#utility.yul\":1689:1724   */\n      swap1\n      pop\n        /* \"#utility.yul\":1626:1730   */\n      swap2\n      swap1\n      pop\n      jump\t// out\n        /* \"#utility.yul\":1736:1874   */\n    tag_289:\n        /* \"#utility.yul\":1817:1849   */\n      tag_372\n        /* \"#utility.yul\":1843:1848   */\n      dup2\n        /* \"#utility.yul\":1817:1849   */\n      tag_288\n      jump\t// in\n    tag_372:\n        /* \"#utility.yul\":1810:1815   */\n      dup2\n        /* \"#utility.yul\":1807:1850   */\n      eq\n        /* \"#utility.yul\":1797:1868   */\n      tag_373\n      jumpi\n        /* \"#utility.yul\":1864:1865   */\n      0x00\n        /* \"#utility.yul\":1861:1862   */\n      0x00\n        /* \"#utility.yul\":1854:1866   */\n      revert\n        /* \"#utility.yul\":1797:1868   */\n    tag_373:\n        /* \"#utility.yul\":1736:1874   */\n      pop\n      jump\t// out\n        /* \"#utility.yul\":1880:2035   */\n    tag_290:\n        /* \"#utility.yul\":1934:1939   */\n      0x00\n        /* \"#utility.yul\":1972:1978   */\n      dup2\n        /* \"#utility.yul\":1959:1979   */\n      calldataload\n        /* \"#utility.yul\":1950:1979   */\n      swap1\n      pop\n        /* \"#utility.yul\":1988:2029   */\n      tag_375\n        /* \"#utility.yul\":2023:2028   */\n      dup2\n        /* \"#utility.yul\":1988:2029   */\n      tag_289\n      jump\t// in\n    tag_375:\n        /* \"#utility.yul\":1880:2035   */\n      swap3\n      swap2\n      pop\n      pop\n      jump\t// out\n        /* \"#utility.yul\":2041:2127   */\n    tag_291:\n        /* \"#utility.yul\":2076:2083   */\n      0x00\n        /* \"#utility.yul\":2116:2120   */\n      0xff\n        /* \"#utility.yul\":2109:2114   */\n      dup3\n        /* \"#utility.yul\":2105:2121   */\n      and\n        /* \"#utility.yul\":2094:2121   */\n      swap1\n      pop\n        /* \"#utility.yul\":2041:2127   */\n      swap2\n      swap1\n      pop\n      jump\t// out\n        /* \"#utility.yul\":2133:2251   */\n    tag_292:\n        /* \"#utility.yul\":2204:2226   */\n      tag_378\n        /* \"#utility.yul\":2220:2225   */\n      dup2\n        /* \"#utility.yul\":2204:2226   */\n      tag_291\n      jump\t// in\n    tag_378:\n        /* \"#utility.yul\":2197:2202   */\n      dup2\n        /* \"#utility.yul\":2194:2227   */\n      eq\n        /* \"#utility.yul\":2184:2245   */\n      tag_379\n      jumpi\n        /* \"#utility.yul\":2241:2242   */\n      0x00\n        /* \"#utility.yul\":2238:2239   */\n      0x00\n        /* \"#utility.yul\":2231:2243   */\n      revert\n        /* \"#utility.yul\":2184:2245   */\n    tag_379:\n        /* \"#utility.yul\":2133:2251   */\n      pop\n      jump\t// out\n        /* \"#utility.yul\":2257:2392   */\n    tag_293:\n        /* \"#utility.yul\":2301:2306   */\n      0x00\n        /* \"#utility.yul\":2339:2345   */\n      dup2\n        /* \"#utility.yul\":2326:2346   */\n      calldataload\n        /* \"#utility.yul\":2317:2346   */\n      swap1\n      pop\n        /* \"#utility.yul\":2355:2386   */\n      tag_381\n        /* \"#utility.yul\":2380:2385   */\n      dup2\n        /* \"#utility.yul\":2355:2386   */\n      tag_292\n      jump\t// in\n    tag_381:\n        /* \"#utility.yul\":2257:2392   */\n      swap3\n      swap2\n      pop\n      pop\n      jump\t// out\n        /* \"#utility.yul\":2398:2515   */\n    tag_294:\n        /* \"#utility.yul\":2507:2508   */\n      0x00\n        /* \"#utility.yul\":2504:2505   */\n      0x00\n        /* \"#utility.yul\":2497:2509   */\n      revert\n        /* \"#utility.yul\":2539:2788   */\n    tag_295:\n        /* \"#utility.yul\":2610:2618   */\n      0x00\n        /* \"#utility.yul\":2641:2647   */\n      dup2\n        /* \"#utility.yul\":2629:2647   */\n      swap1\n      pop\n        /* \"#utility.yul\":2694:2697   */\n      dup3\n        /* \"#utility.yul\":2686:2690   */\n      0x20\n        /* \"#utility.yul\":2680:2684   */\n      0x03\n        /* \"#utility.yul\":2676:2691   */\n      mul\n        /* \"#utility.yul\":2666:2674   */\n      dup3\n        /* \"#utility.yul\":2662:2692   */\n      add\n        /* \"#utility.yul\":2659:2698   */\n      gt\n        /* \"#utility.yul\":2656:2782   */\n      iszero\n      tag_384\n      jumpi\n        /* \"#utility.yul\":2701:2780   */\n      tag_385\n      tag_294\n      jump\t// in\n    tag_385:\n        /* \"#utility.yul\":2656:2782   */\n    tag_384:\n        /* \"#utility.yul\":2539:2788   */\n      swap3\n      swap2\n      pop\n      pop\n      jump\t// out\n        /* \"#utility.yul\":2794:3476   */\n    tag_18:\n        /* \"#utility.yul\":2902:2908   */\n      0x00\n        /* \"#utility.yul\":2910:2916   */\n      0x00\n        /* \"#utility.yul\":2918:2924   */\n      0x00\n        /* \"#utility.yul\":2967:2970   */\n      0xa0\n        /* \"#utility.yul\":2955:2964   */\n      dup5\n        /* \"#utility.yul\":2946:2953   */\n      dup7\n        /* \"#utility.yul\":2942:2965   */\n      sub\n        /* \"#utility.yul\":2938:2971   */\n      slt\n        /* \"#utility.yul\":2935:3055   */\n      iszero\n      tag_387\n      jumpi\n        /* \"#utility.yul\":2974:3053   */\n      tag_388\n      tag_285\n      jump\t// in\n    tag_388:\n        /* \"#utility.yul\":2935:3055   */\n    tag_387:\n        /* \"#utility.yul\":3094:3095   */\n      0x00\n        /* \"#utility.yul\":3119:3180   */\n      tag_389\n        /* \"#utility.yul\":3172:3179   */\n      dup7\n        /* \"#utility.yul\":3163:3169   */\n      dup3\n        /* \"#utility.yul\":3152:3161   */\n      dup8\n        /* \"#utility.yul\":3148:3170   */\n      add\n        /* \"#utility.yul\":3119:3180   */\n      tag_290\n      jump\t// in\n    tag_389:\n        /* \"#utility.yul\":3109:3180   */\n      swap4\n      pop\n        /* \"#utility.yul\":3065:3190   */\n      pop\n        /* \"#utility.yul\":3229:3231   */\n      0x20\n        /* \"#utility.yul\":3255:3306   */\n      tag_390\n        /* \"#utility.yul\":3298:3305   */\n      dup7\n        /* \"#utility.yul\":3289:3295   */\n      dup3\n        /* \"#utility.yul\":3278:3287   */\n      dup8\n        /* \"#utility.yul\":3274:3296   */\n      add\n        /* \"#utility.yul\":3255:3306   */\n      tag_293\n      jump\t// in\n    tag_390:\n        /* \"#utility.yul\":3245:3306   */\n      swap3\n      pop\n        /* \"#utility.yul\":3200:3316   */\n      pop\n        /* \"#utility.yul\":3355:3357   */\n      0x40\n        /* \"#utility.yul\":3381:3459   */\n      tag_391\n        /* \"#utility.yul\":3451:3458   */\n      dup7\n        /* \"#utility.yul\":3442:3448   */\n      dup3\n        /* \"#utility.yul\":3431:3440   */\n      dup8\n        /* \"#utility.yul\":3427:3449   */\n      add\n        /* \"#utility.yul\":3381:3459   */\n      tag_295\n      jump\t// in\n    tag_391:\n        /* \"#utility.yul\":3371:3459   */\n      swap2\n      pop\n        /* \"#utility.yul\":3326:3469   */\n      pop\n        /* \"#utility.yul\":2794:3476   */\n      swap3\n      pop\n      swap3\n      pop\n      swap3\n      jump\t// out\n        /* \"#utility.yul\":3482:3559   */\n    tag_296:\n        /* \"#utility.yul\":3519:3526   */\n      0x00\n        /* \"#utility.yul\":3548:3553   */\n      dup2\n        /* \"#utility.yul\":3537:3553   */\n      swap1\n      pop\n        /* \"#utility.yul\":3482:3559   */\n      swap2\n      swap1\n      pop\n      jump\t// out\n        /* \"#utility.yul\":3565:3683   */\n    tag_297:\n        /* \"#utility.yul\":3652:3676   */\n      tag_394\n        /* \"#utility.yul\":3670:3675   */\n      dup2\n        /* \"#utility.yul\":3652:3676   */\n      tag_296\n      jump\t// in\n    tag_394:\n        /* \"#utility.yul\":3647:3650   */\n      dup3\n        /* \"#utility.yul\":3640:3677   */\n      mstore\n        /* \"#utility.yul\":3565:3683   */\n      pop\n      pop\n      jump\t// out\n        /* \"#utility.yul\":3689:3911   */\n    tag_21:\n        /* \"#utility.yul\":3782:3786   */\n      0x00\n        /* \"#utility.yul\":3820:3822   */\n      0x20\n        /* \"#utility.yul\":3809:3818   */\n      dup3\n        /* \"#utility.yul\":3805:3823   */\n      add\n        /* \"#utility.yul\":3797:3823   */\n      swap1\n      pop\n        /* \"#utility.yul\":3833:3904   */\n      tag_396\n        /* \"#utility.yul\":3901:3902   */\n      0x00\n        /* \"#utility.yul\":3890:3899   */\n      dup4\n        /* \"#utility.yul\":3886:3903   */\n      add\n        /* \"#utility.yul\":3877:3883   */\n      dup5\n        /* \"#utility.yul\":3833:3904   */\n      tag_297\n      jump\t// in\n    tag_396:\n        /* \"#utility.yul\":3689:3911   */\n      swap3\n      swap2\n      pop\n      pop\n      jump\t// out\n        /* \"#utility.yul\":3917:4039   */\n    tag_298:\n        /* \"#utility.yul\":3990:4014   */\n      tag_398\n        /* \"#utility.yul\":4008:4013   */\n      dup2\n        /* \"#utility.yul\":3990:4014   */\n      tag_296\n      jump\t// in\n    tag_398:\n        /* \"#utility.yul\":3983:3988   */\n      dup2\n        /* \"#utility.yul\":3980:4015   */\n      eq\n        /* \"#utility.yul\":3970:4033   */\n      tag_399\n      jumpi\n        /* \"#utility.yul\":4029:4030   */\n      0x00\n        /* \"#utility.yul\":4026:4027   */\n      0x00\n        /* \"#utility.yul\":4019:4031   */\n      revert\n        /* \"#utility.yul\":3970:4033   */\n    tag_399:\n        /* \"#utility.yul\":3917:4039   */\n      pop\n      jump\t// out\n        /* \"#utility.yul\":4045:4184   */\n    tag_299:\n        /* \"#utility.yul\":4091:4096   */\n      0x00\n        /* \"#utility.yul\":4129:4135   */\n      dup2\n        /* \"#utility.yul\":4116:4136   */\n      calldataload\n        /* \"#utility.yul\":4107:4136   */\n      swap1\n      pop\n        /* \"#utility.yul\":4145:4178   */\n      tag_401\n        /* \"#utility.yul\":4172:4177   */\n      dup2\n        /* \"#utility.yul\":4145:4178   */\n      tag_298\n      jump\t// in\n    tag_401:\n        /* \"#utility.yul\":4045:4184   */\n      swap3\n      swap2\n      pop\n      pop\n      jump\t// out\n        /* \"#utility.yul\":4190:4296   */\n    tag_300:\n        /* \"#utility.yul\":4270:4271   */\n      0x04\n        /* \"#utility.yul\":4263:4268   */\n      dup2\n        /* \"#utility.yul\":4260:4272   */\n      lt\n        /* \"#utility.yul\":4250:4290   */\n      tag_403\n      jumpi\n        /* \"#utility.yul\":4286:4287   */\n      0x00\n        /* \"#utility.yul\":4283:4284   */\n      0x00\n        /* \"#utility.yul\":4276:4288   */\n      revert\n        /* \"#utility.yul\":4250:4290   */\n    tag_403:\n        /* \"#utility.yul\":4190:4296   */\n      pop\n      jump\t// out\n        /* \"#utility.yul\":4302:4455   */\n    tag_301:\n        /* \"#utility.yul\":4355:4360   */\n      0x00\n        /* \"#utility.yul\":4393:4399   */\n      dup2\n        /* \"#utility.yul\":4380:4400   */\n      calldataload\n        /* \"#utility.yul\":4371:4400   */\n      swap1\n      pop\n        /* \"#utility.yul\":4409:4449   */\n      tag_405\n        /* \"#utility.yul\":4443:4448   */\n      dup2\n        /* \"#utility.yul\":4409:4449   */\n      tag_300\n      jump\t// in\n    tag_405:\n        /* \"#utility.yul\":4302:4455   */\n      swap3\n      swap2\n      pop\n      pop\n      jump\t// out\n        /* \"#utility.yul\":4461:4578   */\n    tag_302:\n        /* \"#utility.yul\":4570:4571   */\n      0x00\n        /* \"#utility.yul\":4567:4568   */\n      0x00\n        /* \"#utility.yul\":4560:4572   */\n      revert\n        /* \"#utility.yul\":4584:4701   */\n    tag_303:\n        /* \"#utility.yul\":4693:4694   */\n      0x00\n        /* \"#utility.yul\":4690:4691   */\n      0x00\n        /* \"#utility.yul\":4683:4695   */\n      revert\n        /* \"#utility.yul\":4721:5274   */\n    tag_304:\n        /* \"#utility.yul\":4779:4787   */\n      0x00\n        /* \"#utility.yul\":4789:4795   */\n      0x00\n        /* \"#utility.yul\":4839:4842   */\n      dup4\n        /* \"#utility.yul\":4832:4836   */\n      0x1f\n        /* \"#utility.yul\":4824:4830   */\n      dup5\n        /* \"#utility.yul\":4820:4837   */\n      add\n        /* \"#utility.yul\":4816:4843   */\n      slt\n        /* \"#utility.yul\":4806:4928   */\n      tag_409\n      jumpi\n        /* \"#utility.yul\":4847:4926   */\n      tag_410\n      tag_302\n      jump\t// in\n    tag_410:\n        /* \"#utility.yul\":4806:4928   */\n    tag_409:\n        /* \"#utility.yul\":4960:4966   */\n      dup3\n        /* \"#utility.yul\":4947:4967   */\n      calldataload\n        /* \"#utility.yul\":4937:4967   */\n      swap1\n      pop\n        /* \"#utility.yul\":4990:5008   */\n      0xffffffffffffffff\n        /* \"#utility.yul\":4982:4988   */\n      dup2\n        /* \"#utility.yul\":4979:5009   */\n      gt\n        /* \"#utility.yul\":4976:5093   */\n      iszero\n      tag_411\n      jumpi\n        /* \"#utility.yul\":5012:5091   */\n      tag_412\n      tag_303\n      jump\t// in\n    tag_412:\n        /* \"#utility.yul\":4976:5093   */\n    tag_411:\n        /* \"#utility.yul\":5126:5130   */\n      0x20\n        /* \"#utility.yul\":5118:5124   */\n      dup4\n        /* \"#utility.yul\":5114:5131   */\n      add\n        /* \"#utility.yul\":5102:5131   */\n      swap2\n      pop\n        /* \"#utility.yul\":5180:5183   */\n      dup4\n        /* \"#utility.yul\":5172:5176   */\n      0x01\n        /* \"#utility.yul\":5164:5170   */\n      dup3\n        /* \"#utility.yul\":5160:5177   */\n      mul\n        /* \"#utility.yul\":5150:5158   */\n      dup4\n        /* \"#utility.yul\":5146:5178   */\n      add\n        /* \"#utility.yul\":5143:5184   */\n      gt\n        /* \"#utility.yul\":5140:5268   */\n      iszero\n      tag_413\n      jumpi\n        /* \"#utility.yul\":5187:5266   */\n      tag_414\n      tag_294\n      jump\t// in\n    tag_414:\n        /* \"#utility.yul\":5140:5268   */\n    tag_413:\n        /* \"#utility.yul\":4721:5274   */\n      swap3\n      pop\n      swap3\n      swap1\n      pop\n      jump\t// out\n        /* \"#utility.yul\":5280:6255   */\n    tag_29:\n        /* \"#utility.yul\":5383:5389   */\n      0x00\n        /* \"#utility.yul\":5391:5397   */\n      0x00\n        /* \"#utility.yul\":5399:5405   */\n      0x00\n        /* \"#utility.yul\":5407:5413   */\n      0x00\n        /* \"#utility.yul\":5415:5421   */\n      0x00\n        /* \"#utility.yul\":5464:5467   */\n      0x80\n        /* \"#utility.yul\":5452:5461   */\n      dup7\n        /* \"#utility.yul\":5443:5450   */\n      dup9\n        /* \"#utility.yul\":5439:5462   */\n      sub\n        /* \"#utility.yul\":5435:5468   */\n      slt\n        /* \"#utility.yul\":5432:5552   */\n      iszero\n      tag_416\n      jumpi\n        /* \"#utility.yul\":5471:5550   */\n      tag_417\n      tag_285\n      jump\t// in\n    tag_417:\n        /* \"#utility.yul\":5432:5552   */\n    tag_416:\n        /* \"#utility.yul\":5591:5592   */\n      0x00\n        /* \"#utility.yul\":5616:5669   */\n      tag_418\n        /* \"#utility.yul\":5661:5668   */\n      dup9\n        /* \"#utility.yul\":5652:5658   */\n      dup3\n        /* \"#utility.yul\":5641:5650   */\n      dup10\n        /* \"#utility.yul\":5637:5659   */\n      add\n        /* \"#utility.yul\":5616:5669   */\n      tag_299\n      jump\t// in\n    tag_418:\n        /* \"#utility.yul\":5606:5669   */\n      swap6\n      pop\n        /* \"#utility.yul\":5562:5679   */\n      pop\n        /* \"#utility.yul\":5718:5720   */\n      0x20\n        /* \"#utility.yul\":5744:5795   */\n      tag_419\n        /* \"#utility.yul\":5787:5794   */\n      dup9\n        /* \"#utility.yul\":5778:5784   */\n      dup3\n        /* \"#utility.yul\":5767:5776   */\n      dup10\n        /* \"#utility.yul\":5763:5785   */\n      add\n        /* \"#utility.yul\":5744:5795   */\n      tag_293\n      jump\t// in\n    tag_419:\n        /* \"#utility.yul\":5734:5795   */\n      swap5\n      pop\n        /* \"#utility.yul\":5689:5805   */\n      pop\n        /* \"#utility.yul\":5844:5846   */\n      0x40\n        /* \"#utility.yul\":5870:5930   */\n      tag_420\n        /* \"#utility.yul\":5922:5929   */\n      dup9\n        /* \"#utility.yul\":5913:5919   */\n      dup3\n        /* \"#utility.yul\":5902:5911   */\n      dup10\n        /* \"#utility.yul\":5898:5920   */\n      add\n        /* \"#utility.yul\":5870:5930   */\n      tag_301\n      jump\t// in\n    tag_420:\n        /* \"#utility.yul\":5860:5930   */\n      swap4\n      pop\n        /* \"#utility.yul\":5815:5940   */\n      pop\n        /* \"#utility.yul\":6007:6009   */\n      0x60\n        /* \"#utility.yul\":5996:6005   */\n      dup7\n        /* \"#utility.yul\":5992:6010   */\n      add\n        /* \"#utility.yul\":5979:6011   */\n      calldataload\n        /* \"#utility.yul\":6038:6056   */\n      0xffffffffffffffff\n        /* \"#utility.yul\":6030:6036   */\n      dup2\n        /* \"#utility.yul\":6027:6057   */\n      gt\n        /* \"#utility.yul\":6024:6141   */\n      iszero\n      tag_421\n      jumpi\n        /* \"#utility.yul\":6060:6139   */\n      tag_422\n      tag_286\n      jump\t// in\n    tag_422:\n        /* \"#utility.yul\":6024:6141   */\n    tag_421:\n        /* \"#utility.yul\":6173:6238   */\n      tag_423\n        /* \"#utility.yul\":6230:6237   */\n      dup9\n        /* \"#utility.yul\":6221:6227   */\n      dup3\n        /* \"#utility.yul\":6210:6219   */\n      dup10\n        /* \"#utility.yul\":6206:6228   */\n      add\n        /* \"#utility.yul\":6173:6238   */\n      tag_304\n      jump\t// in\n    tag_423:\n        /* \"#utility.yul\":6155:6238   */\n      swap3\n      pop\n      swap3\n      pop\n        /* \"#utility.yul\":5950:6248   */\n      pop\n        /* \"#utility.yul\":5280:6255   */\n      swap3\n      swap6\n      pop\n      swap3\n      swap6\n      swap1\n      swap4\n      pop\n      jump\t// out\n        /* \"#utility.yul\":6261:6590   */\n    tag_34:\n        /* \"#utility.yul\":6320:6326   */\n      0x00\n        /* \"#utility.yul\":6369:6371   */\n      0x20\n        /* \"#utility.yul\":6357:6366   */\n      dup3\n        /* \"#utility.yul\":6348:6355   */\n      dup5\n        /* \"#utility.yul\":6344:6367   */\n      sub\n        /* \"#utility.yul\":6340:6372   */\n      slt\n        /* \"#utility.yul\":6337:6456   */\n      iszero\n      tag_425\n      jumpi\n        /* \"#utility.yul\":6375:6454   */\n      tag_426\n      tag_285\n      jump\t// in\n    tag_426:\n        /* \"#utility.yul\":6337:6456   */\n    tag_425:\n        /* \"#utility.yul\":6495:6496   */\n      0x00\n        /* \"#utility.yul\":6520:6573   */\n      tag_427\n        /* \"#utility.yul\":6565:6572   */\n      dup5\n        /* \"#utility.yul\":6556:6562   */\n      dup3\n        /* \"#utility.yul\":6545:6554   */\n      dup6\n        /* \"#utility.yul\":6541:6563   */\n      add\n        /* \"#utility.yul\":6520:6573   */\n      tag_299\n      jump\t// in\n    tag_427:\n        /* \"#utility.yul\":6510:6573   */\n      swap2\n      pop\n        /* \"#utility.yul\":6466:6583   */\n      pop\n        /* \"#utility.yul\":6261:6590   */\n      swap3\n      swap2\n      pop\n      pop\n      jump\t// out\n        /* \"#utility.yul\":6596:7121   */\n    tag_51:\n        /* \"#utility.yul\":6689:6695   */\n      0x00\n        /* \"#utility.yul\":6697:6703   */\n      0x00\n        /* \"#utility.yul\":6746:6749   */\n      0x80\n        /* \"#utility.yul\":6734:6743   */\n      dup4\n        /* \"#utility.yul\":6725:6732   */\n      dup6\n        /* \"#utility.yul\":6721:6744   */\n      sub\n        /* \"#utility.yul\":6717:6750   */\n      slt\n        /* \"#utility.yul\":6714:6834   */\n      iszero\n      tag_429\n      jumpi\n        /* \"#utility.yul\":6753:6832   */\n      tag_430\n      tag_285\n      jump\t// in\n    tag_430:\n        /* \"#utility.yul\":6714:6834   */\n    tag_429:\n        /* \"#utility.yul\":6873:6874   */\n      0x00\n        /* \"#utility.yul\":6898:6951   */\n      tag_431\n        /* \"#utility.yul\":6943:6950   */\n      dup6\n        /* \"#utility.yul\":6934:6940   */\n      dup3\n        /* \"#utility.yul\":6923:6932   */\n      dup7\n        /* \"#utility.yul\":6919:6941   */\n      add\n        /* \"#utility.yul\":6898:6951   */\n      tag_299\n      jump\t// in\n    tag_431:\n        /* \"#utility.yul\":6888:6951   */\n      swap3\n      pop\n        /* \"#utility.yul\":6844:6961   */\n      pop\n        /* \"#utility.yul\":7000:7002   */\n      0x20\n        /* \"#utility.yul\":7026:7104   */\n      tag_432\n        /* \"#utility.yul\":7096:7103   */\n      dup6\n        /* \"#utility.yul\":7087:7093   */\n      dup3\n        /* \"#utility.yul\":7076:7085   */\n      dup7\n        /* \"#utility.yul\":7072:7094   */\n      add\n        /* \"#utility.yul\":7026:7104   */\n      tag_295\n      jump\t// in\n    tag_432:\n        /* \"#utility.yul\":7016:7104   */\n      swap2\n      pop\n        /* \"#utility.yul\":6971:7114   */\n      pop\n        /* \"#utility.yul\":6596:7121   */\n      swap3\n      pop\n      swap3\n      swap1\n      pop\n      jump\t// out\n        /* \"#utility.yul\":7127:7293   */\n    tag_305:\n        /* \"#utility.yul\":7267:7285   */\n      0x626574496e64657820696e76616c696400000000000000000000000000000000\n        /* \"#utility.yul\":7263:7264   */\n      0x00\n        /* \"#utility.yul\":7255:7261   */\n      dup3\n        /* \"#utility.yul\":7251:7265   */\n      add\n        /* \"#utility.yul\":7244:7286   */\n      mstore\n        /* \"#utility.yul\":7127:7293   */\n      pop\n      jump\t// out\n        /* \"#utility.yul\":7299:7665   */\n    tag_306:\n        /* \"#utility.yul\":7441:7444   */\n      0x00\n        /* \"#utility.yul\":7462:7529   */\n      tag_435\n        /* \"#utility.yul\":7526:7528   */\n      0x10\n        /* \"#utility.yul\":7521:7524   */\n      dup4\n        /* \"#utility.yul\":7462:7529   */\n      tag_281\n      jump\t// in\n    tag_435:\n        /* \"#utility.yul\":7455:7529   */\n      swap2\n      pop\n        /* \"#utility.yul\":7538:7631   */\n      tag_436\n        /* \"#utility.yul\":7627:7630   */\n      dup3\n        /* \"#utility.yul\":7538:7631   */\n      tag_305\n      jump\t// in\n    tag_436:\n        /* \"#utility.yul\":7656:7658   */\n      0x20\n        /* \"#utility.yul\":7651:7654   */\n      dup3\n        /* \"#utility.yul\":7647:7659   */\n      add\n        /* \"#utility.yul\":7640:7659   */\n      swap1\n      pop\n        /* \"#utility.yul\":7299:7665   */\n      swap2\n      swap1\n      pop\n      jump\t// out\n        /* \"#utility.yul\":7671:8090   */\n    tag_59:\n        /* \"#utility.yul\":7837:7841   */\n      0x00\n        /* \"#utility.yul\":7875:7877   */\n      0x20\n        /* \"#utility.yul\":7864:7873   */\n      dup3\n        /* \"#utility.yul\":7860:7878   */\n      add\n        /* \"#utility.yul\":7852:7878   */\n      swap1\n      pop\n        /* \"#utility.yul\":7924:7933   */\n      dup2\n        /* \"#utility.yul\":7918:7922   */\n      dup2\n        /* \"#utility.yul\":7914:7934   */\n      sub\n        /* \"#utility.yul\":7910:7911   */\n      0x00\n        /* \"#utility.yul\":7899:7908   */\n      dup4\n        /* \"#utility.yul\":7895:7912   */\n      add\n        /* \"#utility.yul\":7888:7935   */\n      mstore\n        /* \"#utility.yul\":7952:8083   */\n      tag_438\n        /* \"#utility.yul\":8078:8082   */\n      dup2\n        /* \"#utility.yul\":7952:8083   */\n      tag_306\n      jump\t// in\n    tag_438:\n        /* \"#utility.yul\":7944:8083   */\n      swap1\n      pop\n        /* \"#utility.yul\":7671:8090   */\n      swap2\n      swap1\n      pop\n      jump\t// out\n        /* \"#utility.yul\":8096:8276   */\n    tag_62:\n        /* \"#utility.yul\":8144:8221   */\n      0x4e487b7100000000000000000000000000000000000000000000000000000000\n        /* \"#utility.yul\":8141:8142   */\n      0x00\n        /* \"#utility.yul\":8134:8222   */\n      mstore\n        /* \"#utility.yul\":8241:8245   */\n      0x32\n        /* \"#utility.yul\":8238:8239   */\n      0x04\n        /* \"#utility.yul\":8231:8246   */\n      mstore\n        /* \"#utility.yul\":8265:8269   */\n      0x24\n        /* \"#utility.yul\":8262:8263   */\n      0x00\n        /* \"#utility.yul\":8255:8270   */\n      revert\n        /* \"#utility.yul\":8282:8450   */\n    tag_307:\n        /* \"#utility.yul\":8422:8442   */\n      0x696e636f7272656374204554482073656e740000000000000000000000000000\n        /* \"#utility.yul\":8418:8419   */\n      0x00\n        /* \"#utility.yul\":8410:8416   */\n      dup3\n        /* \"#utility.yul\":8406:8420   */\n      add\n        /* \"#utility.yul\":8399:8443   */\n      mstore\n        /* \"#utility.yul\":8282:8450   */\n      pop\n      jump\t// out\n        /* \"#utility.yul\":8456:8822   */\n    tag_308:\n        /* \"#utility.yul\":8598:8601   */\n      0x00\n        /* \"#utility.yul\":8619:8686   */\n      tag_442\n        /* \"#utility.yul\":8683:8685   */\n      0x12\n        /* \"#utility.yul\":8678:8681   */\n      dup4\n        /* \"#utility.yul\":8619:8686   */\n      tag_281\n      jump\t// in\n    tag_442:\n        /* \"#utility.yul\":8612:8686   */\n      swap2\n      pop\n        /* \"#utility.yul\":8695:8788   */\n      tag_443\n        /* \"#utility.yul\":8784:8787   */\n      dup3\n        /* \"#utility.yul\":8695:8788   */\n      tag_307\n      jump\t// in\n    tag_443:\n        /* \"#utility.yul\":8813:8815   */\n      0x20\n        /* \"#utility.yul\":8808:8811   */\n      dup3\n        /* \"#utility.yul\":8804:8816   */\n      add\n        /* \"#utility.yul\":8797:8816   */\n      swap1\n      pop\n        /* \"#utility.yul\":8456:8822   */\n      swap2\n      swap1\n      pop\n      jump\t// out\n        /* \"#utility.yul\":8828:9247   */\n    tag_66:\n        /* \"#utility.yul\":8994:8998   */\n      0x00\n        /* \"#utility.yul\":9032:9034   */\n      0x20\n        /* \"#utility.yul\":9021:9030   */\n      dup3\n        /* \"#utility.yul\":9017:9035   */\n      add\n        /* \"#utility.yul\":9009:9035   */\n      swap1\n      pop\n        /* \"#utility.yul\":9081:9090   */\n      dup2\n        /* \"#utility.yul\":9075:9079   */\n      dup2\n        /* \"#utility.yul\":9071:9091   */\n      sub\n        /* \"#utility.yul\":9067:9068   */\n      0x00\n        /* \"#utility.yul\":9056:9065   */\n      dup4\n        /* \"#utility.yul\":9052:9069   */\n      add\n        /* \"#utility.yul\":9045:9092   */\n      mstore\n        /* \"#utility.yul\":9109:9240   */\n      tag_445\n        /* \"#utility.yul\":9235:9239   */\n      dup2\n        /* \"#utility.yul\":9109:9240   */\n      tag_308\n      jump\t// in\n    tag_445:\n        /* \"#utility.yul\":9101:9240   */\n      swap1\n      pop\n        /* \"#utility.yul\":8828:9247   */\n      swap2\n      swap1\n      pop\n      jump\t// out\n        /* \"#utility.yul\":9253:9433   */\n    tag_309:\n        /* \"#utility.yul\":9301:9378   */\n      0x4e487b7100000000000000000000000000000000000000000000000000000000\n        /* \"#utility.yul\":9298:9299   */\n      0x00\n        /* \"#utility.yul\":9291:9379   */\n      mstore\n        /* \"#utility.yul\":9398:9402   */\n      0x11\n        /* \"#utility.yul\":9395:9396   */\n      0x04\n        /* \"#utility.yul\":9388:9403   */\n      mstore\n        /* \"#utility.yul\":9422:9426   */\n      0x24\n        /* \"#utility.yul\":9419:9420   */\n      0x00\n        /* \"#utility.yul\":9412:9427   */\n      revert\n        /* \"#utility.yul\":9439:9672   */\n    tag_68:\n        /* \"#utility.yul\":9478:9481   */\n      0x00\n        /* \"#utility.yul\":9501:9525   */\n      tag_448\n        /* \"#utility.yul\":9519:9524   */\n      dup3\n        /* \"#utility.yul\":9501:9525   */\n      tag_296\n      jump\t// in\n    tag_448:\n        /* \"#utility.yul\":9492:9525   */\n      swap2\n      pop\n        /* \"#utility.yul\":9547:9613   */\n      0xffffffffffffffffffffffffffffffffffffffffffffffffffffffffffffffff\n        /* \"#utility.yul\":9540:9545   */\n      dup3\n        /* \"#utility.yul\":9537:9614   */\n      sub\n        /* \"#utility.yul\":9534:9637   */\n      tag_449\n      jumpi\n        /* \"#utility.yul\":9617:9635   */\n      tag_450\n      tag_309\n      jump\t// in\n    tag_450:\n        /* \"#utility.yul\":9534:9637   */\n    tag_449:\n        /* \"#utility.yul\":9664:9665   */\n      0x01\n        /* \"#utility.yul\":9657:9662   */\n      dup3\n        /* \"#utility.yul\":9653:9666   */\n      add\n        /* \"#utility.yul\":9646:9666   */\n      swap1\n      pop\n        /* \"#utility.yul\":9439:9672   */\n      swap2\n      swap1\n      pop\n      jump\t// out\n        /* \"#utility.yul\":9678:9858   */\n    tag_71:\n        /* \"#utility.yul\":9726:9803   */\n      0x4e487b7100000000000000000000000000000000000000000000000000000000\n        /* \"#utility.yul\":9723:9724   */\n      0x00\n        /* \"#utility.yul\":9716:9804   */\n      mstore\n        /* \"#utility.yul\":9823:9827   */\n      0x21\n        /* \"#utility.yul\":9820:9821   */\n      0x04\n        /* \"#utility.yul\":9813:9828   */\n      mstore\n        /* \"#utility.yul\":9847:9851   */\n      0x24\n        /* \"#utility.yul\":9844:9845   */\n      0x00\n        /* \"#utility.yul\":9837:9852   */\n      revert\n        /* \"#utility.yul\":9864:10023   */\n    tag_310:\n        /* \"#utility.yul\":10004:10015   */\n      0x6261642073746167650000000000000000000000000000000000000000000000\n        /* \"#utility.yul\":10000:10001   */\n      0x00\n        /* \"#utility.yul\":9992:9998   */\n      dup3\n        /* \"#utility.yul\":9988:10002   */\n      add\n        /* \"#utility.yul\":9981:10016   */\n      mstore\n        /* \"#utility.yul\":9864:10023   */\n      pop\n      jump\t// out\n        /* \"#utility.yul\":10029:10394   */\n    tag_311:\n        /* \"#utility.yul\":10171:10174   */\n      0x00\n        /* \"#utility.yul\":10192:10258   */\n      tag_454\n        /* \"#utility.yul\":10256:10257   */\n      0x09\n        /* \"#utility.yul\":10251:10254   */\n      dup4\n        /* \"#utility.yul\":10192:10258   */\n      tag_281\n      jump\t// in\n    tag_454:\n        /* \"#utility.yul\":10185:10258   */\n      swap2\n      pop\n        /* \"#utility.yul\":10267:10360   */\n      tag_455\n        /* \"#utility.yul\":10356:10359   */\n      dup3\n        /* \"#utility.yul\":10267:10360   */\n      tag_310\n      jump\t// in\n    tag_455:\n        /* \"#utility.yul\":10385:10387   */\n      0x20\n        /* \"#utility.yul\":10380:10383   */\n      dup3\n        /* \"#utility.yul\":10376:10388   */\n      add\n        /* \"#utility.yul\":10369:10388   */\n      swap1\n      pop\n        /* \"#utility.yul\":10029:10394   */\n      swap2\n      swap1\n      pop\n      jump\t// out\n        /* \"#utility.yul\":10400:10819   */\n    tag_91:\n        /* \"#utility.yul\":10566:10570   */\n      0x00\n        /* \"#utility.yul\":10604:10606   */\n      0x20\n        /* \"#utility.yul\":10593:10602   */\n      dup3\n        /* \"#utility.yul\":10589:10607   */\n      add\n        /* \"#utility.yul\":10581:10607   */\n      swap1\n      pop\n        /* \"#utility.yul\":10653:10662   */\n      dup2\n        /* \"#utility.yul\":10647:10651   */\n      dup2\n        /* \"#utility.yul\":10643:10663   */\n      sub\n        /* \"#utility.yul\":10639:10640   */\n      0x00\n        /* \"#utility.yul\":10628:10637   */\n      dup4\n        /* \"#utility.yul\":10624:10641   */\n      add\n        /* \"#utility.yul\":10617:10664   */\n      mstore\n        /* \"#utility.yul\":10681:10812   */\n      tag_457\n        /* \"#utility.yul\":10807:10811   */\n      dup2\n        /* \"#utility.yul\":10681:10812   */\n      tag_311\n      jump\t// in\n    tag_457:\n        /* \"#utility.yul\":10673:10812   */\n      swap1\n      pop\n        /* \"#utility.yul\":10400:10819   */\n      swap2\n      swap1\n      pop\n      jump\t// out\n        /* \"#utility.yul\":10825:10986   */\n    tag_312:\n        /* \"#utility.yul\":10965:10978   */\n      0x77726f6e6720726f756e64000000000000000000000000000000000000000000\n        /* \"#utility.yul\":10961:10962   */\n      0x00\n        /* \"#utility.yul\":10953:10959   */\n      dup3\n        /* \"#utility.yul\":10949:10963   */\n      add\n        /* \"#utility.yul\":10942:10979   */\n      mstore\n        /* \"#utility.yul\":10825:10986   */\n      pop\n      jump\t// out\n        /* \"#utility.yul\":10992:11358   */\n    tag_313:\n        /* \"#utility.yul\":11134:11137   */\n      0x00\n        /* \"#utility.yul\":11155:11222   */\n      tag_460\n        /* \"#utility.yul\":11219:11221   */\n      0x0b\n        /* \"#utility.yul\":11214:11217   */\n      dup4\n        /* \"#utility.yul\":11155:11222   */\n      tag_281\n      jump\t// in\n    tag_460:\n        /* \"#utility.yul\":11148:11222   */\n      swap2\n      pop\n        /* \"#utility.yul\":11231:11324   */\n      tag_461\n        /* \"#utility.yul\":11320:11323   */\n      dup3\n        /* \"#utility.yul\":11231:11324   */\n      tag_312\n      jump\t// in\n    tag_461:\n        /* \"#utility.yul\":11349:11351   */\n      0x20\n        /* \"#utility.yul\":11344:11347   */\n      dup3\n        /* \"#utility.yul\":11340:11352   */\n      add\n        /* \"#utility.yul\":11333:11352   */\n      swap1\n      pop\n        /* \"#utility.yul\":10992:11358   */\n      swap2\n      swap1\n      pop\n      jump\t// out\n        /* \"#utility.yul\":11364:11783   */\n    tag_94:\n        /* \"#utility.yul\":11530:11534   */\n      0x00\n        /* \"#utility.yul\":11568:11570   */\n      0x20\n        /* \"#utility.yul\":11557:11566   */\n      dup3\n        /* \"#utility.yul\":11553:11571   */\n      add\n        /* \"#utility.yul\":11545:11571   */\n      swap1\n      pop\n        /* \"#utility.yul\":11617:11626   */\n      dup2\n        /* \"#utility.yul\":11611:11615   */\n      dup2\n        /* \"#utility.yul\":11607:11627   */\n      sub\n        /* \"#utility.yul\":11603:11604   */\n      0x00\n        /* \"#utility.yul\":11592:11601   */\n      dup4\n        /* \"#utility.yul\":11588:11605   */\n      add\n        /* \"#utility.yul\":11581:11628   */\n      mstore\n        /* \"#utility.yul\":11645:11776   */\n      tag_463\n        /* \"#utility.yul\":11771:11775   */\n      dup2\n        /* \"#utility.yul\":11645:11776   */\n      tag_313\n      jump\t// in\n    tag_463:\n        /* \"#utility.yul\":11637:11776   */\n      swap1\n      pop\n        /* \"#utility.yul\":11364:11783   */\n      swap2\n      swap1\n      pop\n      jump\t// out\n        /* \"#utility.yul\":11789:11947   */\n    tag_314:\n        /* \"#utility.yul\":11929:11939   */\n      0x626164206d6f7665000000000000000000000000000000000000000000000000\n        /* \"#utility.yul\":11925:11926   */\n      0x00\n        /* \"#utility.yul\":11917:11923   */\n      dup3\n        /* \"#utility.yul\":11913:11927   */\n      add\n        /* \"#utility.yul\":11906:11940   */\n      mstore\n        /* \"#utility.yul\":11789:11947   */\n      pop\n      jump\t// out\n        /* \"#utility.yul\":11953:12318   */\n    tag_315:\n        /* \"#utility.yul\":12095:12098   */\n      0x00\n        /* \"#utility.yul\":12116:12182   */\n      tag_466\n        /* \"#utility.yul\":12180:12181   */\n      0x08\n        /* \"#utility.yul\":12175:12178   */\n      dup4\n        /* \"#utility.yul\":12116:12182   */\n      tag_281\n      jump\t// in\n    tag_466:\n        /* \"#utility.yul\":12109:12182   */\n      swap2\n      pop\n        /* \"#utility.yul\":12191:12284   */\n      tag_467\n        /* \"#utility.yul\":12280:12283   */\n      dup3\n        /* \"#utility.yul\":12191:12284   */\n      tag_314\n      jump\t// in\n    tag_467:\n        /* \"#utility.yul\":12309:12311   */\n      0x20\n        /* \"#utility.yul\":12304:12307   */\n      dup3\n        /* \"#utility.yul\":12300:12312   */\n      add\n        /* \"#utility.yul\":12293:12312   */\n      swap1\n      pop\n        /* \"#utility.yul\":11953:12318   */\n      swap2\n      swap1\n      pop\n      jump\t// out\n        /* \"#utility.yul\":12324:12743   */\n    tag_106:\n        /* \"#utility.yul\":12490:12494   */\n      0x00\n        /* \"#utility.yul\":12528:12530   */\n      0x20\n        /* \"#utility.yul\":12517:12526   */\n      dup3\n        /* \"#utility.yul\":12513:12531   */\n      add\n        /* \"#utility.yul\":12505:12531   */\n      swap1\n      pop\n        /* \"#utility.yul\":12577:12586   */\n      dup2\n        /* \"#utility.yul\":12571:12575   */\n      dup2\n        /* \"#utility.yul\":12567:12587   */\n      sub\n        /* \"#utility.yul\":12563:12564   */\n      0x00\n        /* \"#utility.yul\":12552:12561   */\n      dup4\n        /* \"#utility.yul\":12548:12565   */\n      add\n        /* \"#utility.yul\":12541:12588   */\n      mstore\n        /* \"#utility.yul\":12605:12736   */\n      tag_469\n        /* \"#utility.yul\":12731:12735   */\n      dup2\n        /* \"#utility.yul\":12605:12736   */\n      tag_315\n      jump\t// in\n    tag_469:\n        /* \"#utility.yul\":12597:12736   */\n      swap1\n      pop\n        /* \"#utility.yul\":12324:12743   */\n      swap2\n      swap1\n      pop\n      jump\t// out\n        /* \"#utility.yul\":12749:12861   */\n    tag_316:\n        /* \"#utility.yul\":12829:12830   */\n      0x04\n        /* \"#utility.yul\":12822:12827   */\n      dup2\n        /* \"#utility.yul\":12819:12831   */\n      lt\n        /* \"#utility.yul\":12809:12855   */\n      tag_471\n      jumpi\n        /* \"#utility.yul\":12835:12853   */\n      tag_472\n      tag_71\n      jump\t// in\n    tag_472:\n        /* \"#utility.yul\":12809:12855   */\n    tag_471:\n        /* \"#utility.yul\":12749:12861   */\n      pop\n      jump\t// out\n        /* \"#utility.yul\":12867:12992   */\n    tag_317:\n        /* \"#utility.yul\":12911:12918   */\n      0x00\n        /* \"#utility.yul\":12940:12945   */\n      dup2\n        /* \"#utility.yul\":12929:12945   */\n      swap1\n      pop\n        /* \"#utility.yul\":12946:12986   */\n      tag_474\n        /* \"#utility.yul\":12980:12985   */\n      dup3\n        /* \"#utility.yul\":12946:12986   */\n      tag_316\n      jump\t// in\n    tag_474:\n        /* \"#utility.yul\":12867:12992   */\n      swap2\n      swap1\n      pop\n      jump\t// out\n        /* \"#utility.yul\":12998:13123   */\n    tag_318:\n        /* \"#utility.yul\":13053:13062   */\n      0x00\n        /* \"#utility.yul\":13086:13117   */\n      tag_476\n        /* \"#utility.yul\":13111:13116   */\n      dup3\n        /* \"#utility.yul\":13086:13117   */\n      tag_317\n      jump\t// in\n    tag_476:\n        /* \"#utility.yul\":13073:13117   */\n      swap1\n      pop\n        /* \"#utility.yul\":12998:13123   */\n      swap2\n      swap1\n      pop\n      jump\t// out\n        /* \"#utility.yul\":13129:13225   */\n    tag_319:\n        /* \"#utility.yul\":13163:13171   */\n      0x00\n        /* \"#utility.yul\":13212:13217   */\n      dup2\n        /* \"#utility.yul\":13207:13210   */\n      0xf8\n        /* \"#utility.yul\":13203:13218   */\n      shl\n        /* \"#utility.yul\":13182:13218   */\n      swap1\n      pop\n        /* \"#utility.yul\":13129:13225   */\n      swap2\n      swap1\n      pop\n      jump\t// out\n        /* \"#utility.yul\":13231:13324   */\n    tag_320:\n        /* \"#utility.yul\":13268:13275   */\n      0x00\n        /* \"#utility.yul\":13297:13318   */\n      tag_479\n        /* \"#utility.yul\":13312:13317   */\n      dup3\n        /* \"#utility.yul\":13297:13318   */\n      tag_319\n      jump\t// in\n    tag_479:\n        /* \"#utility.yul\":13286:13318   */\n      swap1\n      pop\n        /* \"#utility.yul\":13231:13324   */\n      swap2\n      swap1\n      pop\n      jump\t// out\n        /* \"#utility.yul\":13330:13508   */\n    tag_321:\n        /* \"#utility.yul\":13440:13501   */\n      tag_481\n        /* \"#utility.yul\":13458:13500   */\n      tag_482\n        /* \"#utility.yul\":13494:13499   */\n      dup3\n        /* \"#utility.yul\":13458:13500   */\n      tag_318\n      jump\t// in\n    tag_482:\n        /* \"#utility.yul\":13440:13501   */\n      tag_320\n      jump\t// in\n    tag_481:\n        /* \"#utility.yul\":13435:13438   */\n      dup3\n        /* \"#utility.yul\":13428:13502   */\n      mstore\n        /* \"#utility.yul\":13330:13508   */\n      pop\n      pop\n      jump\t// out\n        /* \"#utility.yul\":13514:13662   */\n    tag_322:\n        /* \"#utility.yul\":13616:13627   */\n      0x00\n        /* \"#utility.yul\":13653:13656   */\n      dup2\n        /* \"#utility.yul\":13638:13656   */\n      swap1\n      pop\n        /* \"#utility.yul\":13514:13662   */\n      swap3\n      swap2\n      pop\n      pop\n      jump\t// out\n        /* \"#utility.yul\":13668:13816   */\n    tag_323:\n        /* \"#utility.yul\":13766:13772   */\n      dup3\n        /* \"#utility.yul\":13761:13764   */\n      dup2\n        /* \"#utility.yul\":13756:13759   */\n      dup4\n        /* \"#utility.yul\":13743:13773   */\n      calldatacopy\n        /* \"#utility.yul\":13807:13808   */\n      0x00\n        /* \"#utility.yul\":13798:13804   */\n      dup4\n        /* \"#utility.yul\":13793:13796   */\n      dup4\n        /* \"#utility.yul\":13789:13805   */\n      add\n        /* \"#utility.yul\":13782:13809   */\n      mstore\n        /* \"#utility.yul\":13668:13816   */\n      pop\n      pop\n      pop\n      jump\t// out\n        /* \"#utility.yul\":13846:14176   */\n    tag_324:\n        /* \"#utility.yul\":13962:13965   */\n      0x00\n        /* \"#utility.yul\":13983:14072   */\n      tag_486\n        /* \"#utility.yul\":14065:14071   */\n      dup4\n        /* \"#utility.yul\":14060:14063   */\n      dup6\n        /* \"#utility.yul\":13983:14072   */\n      tag_322\n      jump\t// in\n    tag_486:\n        /* \"#utility.yul\":13976:14072   */\n      swap4\n      pop\n        /* \"#utility.yul\":14082:14138   */\n      tag_487\n        /* \"#utility.yul\":14131:14137   */\n      dup4\n        /* \"#utility.yul\":14126:14129   */\n      dup6\n        /* \"#utility.yul\":14119:14124   */\n      dup5\n        /* \"#utility.yul\":14082:14138   */\n      tag_323\n      jump\t// in\n    tag_487:\n        /* \"#utility.yul\":14163:14169   */\n      dup3\n        /* \"#utility.yul\":14158:14161   */\n      dup5\n        /* \"#utility.yul\":14154:14170   */\n      add\n        /* \"#utility.yul\":14147:14170   */\n      swap1\n      pop\n        /* \"#utility.yul\":13846:14176   */\n      swap4\n      swap3\n      pop\n      pop\n      pop\n      jump\t// out\n        /* \"#utility.yul\":14182:14627   */\n    tag_108:\n        /* \"#utility.yul\":14357:14360   */\n      0x00\n        /* \"#utility.yul\":14372:14452   */\n      tag_489\n        /* \"#utility.yul\":14448:14451   */\n      dup3\n        /* \"#utility.yul\":14439:14445   */\n      dup7\n        /* \"#utility.yul\":14372:14452   */\n      tag_321\n      jump\t// in\n    tag_489:\n        /* \"#utility.yul\":14477:14478   */\n      0x01\n        /* \"#utility.yul\":14472:14475   */\n      dup3\n        /* \"#utility.yul\":14468:14479   */\n      add\n        /* \"#utility.yul\":14461:14479   */\n      swap2\n      pop\n        /* \"#utility.yul\":14496:14601   */\n      tag_490\n        /* \"#utility.yul\":14597:14600   */\n      dup3\n        /* \"#utility.yul\":14588:14594   */\n      dup5\n        /* \"#utility.yul\":14580:14586   */\n      dup7\n        /* \"#utility.yul\":14496:14601   */\n      tag_324\n      jump\t// in\n    tag_490:\n        /* \"#utility.yul\":14489:14601   */\n      swap2\n      pop\n        /* \"#utility.yul\":14618:14621   */\n      dup2\n        /* \"#utility.yul\":14611:14621   */\n      swap1\n      pop\n        /* \"#utility.yul\":14182:14627   */\n      swap5\n      swap4\n      pop\n      pop\n      pop\n      pop\n      jump\t// out\n        /* \"#utility.yul\":14633:14798   */\n    tag_325:\n        /* \"#utility.yul\":14773:14790   */\n      0x636f6d6d6974206d69736d617463680000000000000000000000000000000000\n        /* \"#utility.yul\":14769:14770   */\n      0x00\n        /* \"#utility.yul\":14761:14767   */\n      dup3\n        /* \"#utility.yul\":14757:14771   */\n      add\n        /* \"#utility.yul\":14750:14791   */\n      mstore\n        /* \"#utility.yul\":14633:14798   */\n      pop\n      jump\t// out\n        /* \"#utility.yul\":14804:15170   */\n    tag_326:\n        /* \"#utility.yul\":14946:14949   */\n      0x00\n        /* \"#utility.yul\":14967:15034   */\n      tag_493\n        /* \"#utility.yul\":15031:15033   */\n      0x0f\n        /* \"#utility.yul\":15026:15029   */\n      dup4\n        /* \"#utility.yul\":14967:15034   */\n      tag_281\n      jump\t// in\n    tag_493:\n        /* \"#utility.yul\":14960:15034   */\n      swap2\n      pop\n        /* \"#utility.yul\":15043:15136   */\n      tag_494\n        /* \"#utility.yul\":15132:15135   */\n      dup3\n        /* \"#utility.yul\":15043:15136   */\n      tag_325\n      jump\t// in\n    tag_494:\n        /* \"#utility.yul\":15161:15163   */\n      0x20\n        /* \"#utility.yul\":15156:15159   */\n      dup3\n        /* \"#utility.yul\":15152:15164   */\n      add\n        /* \"#utility.yul\":15145:15164   */\n      swap1\n      pop\n        /* \"#utility.yul\":14804:15170   */\n      swap2\n      swap1\n      pop\n      jump\t// out\n        /* \"#utility.yul\":15176:15595   */\n    tag_114:\n        /* \"#utility.yul\":15342:15346   */\n      0x00\n        /* \"#utility.yul\":15380:15382   */\n      0x20\n        /* \"#utility.yul\":15369:15378   */\n      dup3\n        /* \"#utility.yul\":15365:15383   */\n      add\n        /* \"#utility.yul\":15357:15383   */\n      swap1\n      pop\n        /* \"#utility.yul\":15429:15438   */\n      dup2\n        /* \"#utility.yul\":15423:15427   */\n      dup2\n        /* \"#utility.yul\":15419:15439   */\n      sub\n        /* \"#utility.yul\":15415:15416   */\n      0x00\n        /* \"#utility.yul\":15404:15413   */\n      dup4\n        /* \"#utility.yul\":15400:15417   */\n      add\n        /* \"#utility.yul\":15393:15440   */\n      mstore\n        /* \"#utility.yul\":15457:15588   */\n      tag_496\n        /* \"#utility.yul\":15583:15587   */\n      dup2\n        /* \"#utility.yul\":15457:15588   */\n      tag_326\n      jump\t// in\n    tag_496:\n        /* \"#utility.yul\":15449:15588   */\n      swap1\n      pop\n        /* \"#utility.yul\":15176:15595   */\n      swap2\n      swap1\n      pop\n      jump\t// out\n        /* \"#utility.yul\":15601:15713   */\n    tag_327:\n        /* \"#utility.yul\":15684:15706   */\n      tag_498\n        /* \"#utility.yul\":15700:15705   */\n      dup2\n        /* \"#utility.yul\":15684:15706   */\n      tag_291\n      jump\t// in\n    tag_498:\n        /* \"#utility.yul\":15679:15682   */\n      dup3\n        /* \"#utility.yul\":15672:15707   */\n      mstore\n        /* \"#utility.yul\":15601:15713   */\n      pop\n      pop\n      jump\t// out\n        /* \"#utility.yul\":15719:15860   */\n    tag_328:\n        /* \"#utility.yul\":15811:15853   */\n      tag_500\n        /* \"#utility.yul\":15847:15852   */\n      dup2\n        /* \"#utility.yul\":15811:15853   */\n      tag_318\n      jump\t// in\n    tag_500:\n        /* \"#utility.yul\":15806:15809   */\n      dup3\n        /* \"#utility.yul\":15799:15854   */\n      mstore\n        /* \"#utility.yul\":15719:15860   */\n      pop\n      pop\n      jump\t// out\n        /* \"#utility.yul\":15866:16200   */\n    tag_121:\n        /* \"#utility.yul\":15988:15992   */\n      0x00\n        /* \"#utility.yul\":16026:16028   */\n      0x40\n        /* \"#utility.yul\":16015:16024   */\n      dup3\n        /* \"#utility.yul\":16011:16029   */\n      add\n        /* \"#utility.yul\":16003:16029   */\n      swap1\n      pop\n        /* \"#utility.yul\":16039:16106   */\n      tag_502\n        /* \"#utility.yul\":16103:16104   */\n      0x00\n        /* \"#utility.yul\":16092:16101   */\n      dup4\n        /* \"#utility.yul\":16088:16105   */\n      add\n        /* \"#utility.yul\":16079:16085   */\n      dup6\n        /* \"#utility.yul\":16039:16106   */\n      tag_327\n      jump\t// in\n    tag_502:\n        /* \"#utility.yul\":16116:16193   */\n      tag_503\n        /* \"#utility.yul\":16189:16191   */\n      0x20\n        /* \"#utility.yul\":16178:16187   */\n      dup4\n        /* \"#utility.yul\":16174:16192   */\n      add\n        /* \"#utility.yul\":16165:16171   */\n      dup5\n        /* \"#utility.yul\":16116:16193   */\n      tag_328\n      jump\t// in\n    tag_503:\n        /* \"#utility.yul\":15866:16200   */\n      swap4\n      swap3\n      pop\n      pop\n      pop\n      jump\t// out\n        /* \"#utility.yul\":16206:16365   */\n    tag_329:\n        /* \"#utility.yul\":16346:16357   */\n      0x67616d65206f7665720000000000000000000000000000000000000000000000\n        /* \"#utility.yul\":16342:16343   */\n      0x00\n        /* \"#utility.yul\":16334:16340   */\n      dup3\n        /* \"#utility.yul\":16330:16344   */\n      add\n        /* \"#utility.yul\":16323:16358   */\n      mstore\n        /* \"#utility.yul\":16206:16365   */\n      pop\n      jump\t// out\n        /* \"#utility.yul\":16371:16736   */\n    tag_330:\n        /* \"#utility.yul\":16513:16516   */\n      0x00\n        /* \"#utility.yul\":16534:16600   */\n      tag_506\n        /* \"#utility.yul\":16598:16599   */\n      0x09\n        /* \"#utility.yul\":16593:16596   */\n      dup4\n        /* \"#utility.yul\":16534:16600   */\n      tag_281\n      jump\t// in\n    tag_506:\n        /* \"#utility.yul\":16527:16600   */\n      swap2\n      pop\n        /* \"#utility.yul\":16609:16702   */\n      tag_507\n        /* \"#utility.yul\":16698:16701   */\n      dup3\n        /* \"#utility.yul\":16609:16702   */\n      tag_329\n      jump\t// in\n    tag_507:\n        /* \"#utility.yul\":16727:16729   */\n      0x20\n        /* \"#utility.yul\":16722:16725   */\n      dup3\n        /* \"#utility.yul\":16718:16730   */\n      add\n        /* \"#utility.yul\":16711:16730   */\n      swap1\n      pop\n        /* \"#utility.yul\":16371:16736   */\n      swap2\n      swap1\n      pop\n      jump\t// out\n        /* \"#utility.yul\":16742:17161   */\n    tag_149:\n        /* \"#utility.yul\":16908:16912   */\n      0x00\n        /* \"#utility.yul\":16946:16948   */\n      0x20\n        /* \"#utility.yul\":16935:16944   */\n      dup3\n        /* \"#utility.yul\":16931:16949   */\n      add\n        /* \"#utility.yul\":16923:16949   */\n      swap1\n      pop\n        /* \"#utility.yul\":16995:17004   */\n      dup2\n        /* \"#utility.yul\":16989:16993   */\n      dup2\n        /* \"#utility.yul\":16985:17005   */\n      sub\n        /* \"#utility.yul\":16981:16982   */\n      0x00\n        /* \"#utility.yul\":16970:16979   */\n      dup4\n        /* \"#utility.yul\":16966:16983   */\n      add\n        /* \"#utility.yul\":16959:17006   */\n      mstore\n        /* \"#utility.yul\":17023:17154   */\n      tag_509\n        /* \"#utility.yul\":17149:17153   */\n      dup2\n        /* \"#utility.yul\":17023:17154   */\n      tag_330\n      jump\t// in\n    tag_509:\n        /* \"#utility.yul\":17015:17154   */\n      swap1\n      pop\n        /* \"#utility.yul\":16742:17161   */\n      swap2\n      swap1\n      pop\n      jump\t// out\n        /* \"#utility.yul\":17167:17358   */\n    tag_156:\n        /* \"#utility.yul\":17207:17210   */\n      0x00\n        /* \"#utility.yul\":17226:17246   */\n      tag_511\n        /* \"#utility.yul\":17244:17245   */\n      dup3\n        /* \"#utility.yul\":17226:17246   */\n      tag_296\n      jump\t// in\n    tag_511:\n        /* \"#utility.yul\":17221:17246   */\n      swap2\n      pop\n        /* \"#utility.yul\":17260:17280   */\n      tag_512\n        /* \"#utility.yul\":17278:17279   */\n      dup4\n        /* \"#utility.yul\":17260:17280   */\n      tag_296\n      jump\t// in\n    tag_512:\n        /* \"#utility.yul\":17255:17280   */\n      swap3\n      pop\n        /* \"#utility.yul\":17303:17304   */\n      dup3\n        /* \"#utility.yul\":17300:17301   */\n      dup3\n        /* \"#utility.yul\":17296:17305   */\n      add\n        /* \"#utility.yul\":17289:17305   */\n      swap1\n      pop\n        /* \"#utility.yul\":17324:17327   */\n      dup1\n        /* \"#utility.yul\":17321:17322   */\n      dup3\n        /* \"#utility.yul\":17318:17328   */\n      gt\n        /* \"#utility.yul\":17315:17351   */\n      iszero\n      tag_513\n      jumpi\n        /* \"#utility.yul\":17331:17349   */\n      tag_514\n      tag_309\n      jump\t// in\n    tag_514:\n        /* \"#utility.yul\":17315:17351   */\n    tag_513:\n        /* \"#utility.yul\":17167:17358   */\n      swap3\n      swap2\n      pop\n      pop\n      jump\t// out\n        /* \"#utility.yul\":17364:17528   */\n    tag_331:\n        /* \"#utility.yul\":17504:17520   */\n      0x6e6f2074696d656f757420796574000000000000000000000000000000000000\n        /* \"#utility.yul\":17500:17501   */\n      0x00\n        /* \"#utility.yul\":17492:17498   */\n      dup3\n        /* \"#utility.yul\":17488:17502   */\n      add\n        /* \"#utility.yul\":17481:17521   */\n      mstore\n        /* \"#utility.yul\":17364:17528   */\n      pop\n      jump\t// out\n        /* \"#utility.yul\":17534:17900   */\n    tag_332:\n        /* \"#utility.yul\":17676:17679   */\n      0x00\n        /* \"#utility.yul\":17697:17764   */\n      tag_517\n        /* \"#utility.yul\":17761:17763   */\n      0x0e\n        /* \"#utility.yul\":17756:17759   */\n      dup4\n        /* \"#utility.yul\":17697:17764   */\n      tag_281\n      jump\t// in\n    tag_517:\n        /* \"#utility.yul\":17690:17764   */\n      swap2\n      pop\n        /* \"#utility.yul\":17773:17866   */\n      tag_518\n        /* \"#utility.yul\":17862:17865   */\n      dup3\n        /* \"#utility.yul\":17773:17866   */\n      tag_331\n      jump\t// in\n    tag_518:\n        /* \"#utility.yul\":17891:17893   */\n      0x20\n        /* \"#utility.yul\":17886:17889   */\n      dup3\n        /* \"#utility.yul\":17882:17894   */\n      add\n        /* \"#utility.yul\":17875:17894   */\n      swap1\n      pop\n        /* \"#utility.yul\":17534:17900   */\n      swap2\n      swap1\n      pop\n      jump\t// out\n        /* \"#utility.yul\":17906:18325   */\n    tag_166:\n        /* \"#utility.yul\":18072:18076   */\n      0x00\n        /* \"#utility.yul\":18110:18112   */\n      0x20\n        /* \"#utility.yul\":18099:18108   */\n      dup3\n        /* \"#utility.yul\":18095:18113   */\n      add\n        /* \"#utility.yul\":18087:18113   */\n      swap1\n      pop\n        /* \"#utility.yul\":18159:18168   */\n      dup2\n        /* \"#utility.yul\":18153:18157   */\n      dup2\n        /* \"#utility.yul\":18149:18169   */\n      sub\n        /* \"#utility.yul\":18145:18146   */\n      0x00\n        /* \"#utility.yul\":18134:18143   */\n      dup4\n        /* \"#utility.yul\":18130:18147   */\n      add\n        /* \"#utility.yul\":18123:18170   */\n      mstore\n        /* \"#utility.yul\":18187:18318   */\n      tag_520\n        /* \"#utility.yul\":18313:18317   */\n      dup2\n        /* \"#utility.yul\":18187:18318   */\n      tag_332\n      jump\t// in\n    tag_520:\n        /* \"#utility.yul\":18179:18318   */\n      swap1\n      pop\n        /* \"#utility.yul\":17906:18325   */\n      swap2\n      swap1\n      pop\n      jump\t// out\n        /* \"#utility.yul\":18331:18493   */\n    tag_333:\n        /* \"#utility.yul\":18471:18485   */\n      0x6e6f74206a6f696e61626c650000000000000000000000000000000000000000\n        /* \"#utility.yul\":18467:18468   */\n      0x00\n        /* \"#utility.yul\":18459:18465   */\n      dup3\n        /* \"#utility.yul\":18455:18469   */\n      add\n        /* \"#utility.yul\":18448:18486   */\n      mstore\n        /* \"#utility.yul\":18331:18493   */\n      pop\n      jump\t// out\n        /* \"#utility.yul\":18499:18865   */\n    tag_334:\n        /* \"#utility.yul\":18641:18644   */\n      0x00\n        /* \"#utility.yul\":18662:18729   */\n      tag_523\n        /* \"#utility.yul\":18726:18728   */\n      0x0c\n        /* \"#utility.yul\":18721:18724   */\n      dup4\n        /* \"#utility.yul\":18662:18729   */\n      tag_281\n      jump\t// in\n    tag_523:\n        /* \"#utility.yul\":18655:18729   */\n      swap2\n      pop\n        /* \"#utility.yul\":18738:18831   */\n      tag_524\n        /* \"#utility.yul\":18827:18830   */\n      dup3\n        /* \"#utility.yul\":18738:18831   */\n      tag_333\n      jump\t// in\n    tag_524:\n        /* \"#utility.yul\":18856:18858   */\n      0x20\n        /* \"#utility.yul\":18851:18854   */\n      dup3\n        /* \"#utility.yul\":18847:18859   */\n      add\n        /* \"#utility.yul\":18840:18859   */\n      swap1\n      pop\n        /* \"#utility.yul\":18499:18865   */\n      swap2\n      swap1\n      pop\n      jump\t// out\n        /* \"#utility.yul\":18871:19290   */\n    tag_194:\n        /* \"#utility.yul\":19037:19041   */\n      0x00\n        /* \"#utility.yul\":19075:19077   */\n      0x20\n        /* \"#utility.yul\":19064:19073   */\n      dup3\n        /* \"#utility.yul\":19060:19078   */\n      add\n        /* \"#utility.yul\":19052:19078   */\n      swap1\n      pop\n        /* \"#utility.yul\":19124:19133   */\n      dup2\n        /* \"#utility.yul\":19118:19122   */\n      dup2\n        /* \"#utility.yul\":19114:19134   */\n      sub\n        /* \"#utility.yul\":19110:19111   */\n      0x00\n        /* \"#utility.yul\":19099:19108   */\n      dup4\n        /* \"#utility.yul\":19095:19112   */\n      add\n        /* \"#utility.yul\":19088:19135   */\n      mstore\n        /* \"#utility.yul\":19152:19283   */\n      tag_526\n        /* \"#utility.yul\":19278:19282   */\n      dup2\n        /* \"#utility.yul\":19152:19283   */\n      tag_334\n      jump\t// in\n    tag_526:\n        /* \"#utility.yul\":19144:19283   */\n      swap1\n      pop\n        /* \"#utility.yul\":18871:19290   */\n      swap2\n      swap1\n      pop\n      jump\t// out\n        /* \"#utility.yul\":19296:19457   */\n    tag_335:\n        /* \"#utility.yul\":19436:19449   */\n      0x6e6f7420696e7669746564000000000000000000000000000000000000000000\n        /* \"#utility.yul\":19432:19433   */\n      0x00\n        /* \"#utility.yul\":19424:19430   */\n      dup3\n        /* \"#utility.yul\":19420:19434   */\n      add\n        /* \"#utility.yul\":19413:19450   */\n      mstore\n        /* \"#utility.yul\":19296:19457   */\n      pop\n      jump\t// out\n        /* \"#utility.yul\":19463:19829   */\n    tag_336:\n        /* \"#utility.yul\":19605:19608   */\n      0x00\n        /* \"#utility.yul\":19626:19693   */\n      tag_529\n        /* \"#utility.yul\":19690:19692   */\n      0x0b\n        /* \"#utility.yul\":19685:19688   */\n      dup4\n        /* \"#utility.yul\":19626:19693   */\n      tag_281\n      jump\t// in\n    tag_529:\n        /* \"#utility.yul\":19619:19693   */\n      swap2\n      pop\n        /* \"#utility.yul\":19702:19795   */\n      tag_530\n        /* \"#utility.yul\":19791:19794   */\n      dup3\n        /* \"#utility.yul\":19702:19795   */\n      tag_335\n      jump\t// in\n    tag_530:\n        /* \"#utility.yul\":19820:19822   */\n      0x20\n        /* \"#utility.yul\":19815:19818   */\n      dup3\n        /* \"#utility.yul\":19811:19823   */\n      add\n        /* \"#utility.yul\":19804:19823   */\n      swap1\n      pop\n        /* \"#utility.yul\":19463:19829   */\n      swap2\n      swap1\n      pop\n      jump\t// out\n        /* \"#utility.yul\":19835:20254   */\n    tag_197:\n        /* \"#utility.yul\":20001:20005   */\n      0x00\n        /* \"#utility.yul\":20039:20041   */\n      0x20\n        /* \"#utility.yul\":20028:20037   */\n      dup3\n        /* \"#utility.yul\":20024:20042   */\n      add\n        /* \"#utility.yul\":20016:20042   */\n      swap1\n      pop\n        /* \"#utility.yul\":20088:20097   */\n      dup2\n        /* \"#utility.yul\":20082:20086   */\n      dup2\n        /* \"#utility.yul\":20078:20098   */\n      sub\n        /* \"#utility.yul\":20074:20075   */\n      0x00\n        /* \"#utility.yul\":20063:20072   */\n      dup4\n        /* \"#utility.yul\":20059:20076   */\n      add\n        /* \"#utility.yul\":20052:20099   */\n      mstore\n        /* \"#utility.yul\":20116:20247   */\n      tag_532\n        /* \"#utility.yul\":20242:20246   */\n      dup2\n        /* \"#utility.yul\":20116:20247   */\n      tag_336\n      jump\t// in\n    tag_532:\n        /* \"#utility.yul\":20108:20247   */\n      swap1\n      pop\n        /* \"#utility.yul\":19835:20254   */\n      swap2\n      swap1\n      pop\n      jump\t// out\n        /* \"#utility.yul\":20260:20422   */\n    tag_337:\n        /* \"#utility.yul\":20400:20414   */\n      0x6a6f696e2074696d656f75740000000000000000000000000000000000000000\n        /* \"#utility.yul\":20396:20397   */\n      0x00\n        /* \"#utility.yul\":20388:20394   */\n      dup3\n        /* \"#utility.yul\":20384:20398   */\n      add\n        /* \"#utility.yul\":20377:20415   */\n      mstore\n        /* \"#utility.yul\":20260:20422   */\n      pop\n      jump\t// out\n        /* \"#utility.yul\":20428:20794   */\n    tag_338:\n        /* \"#utility.yul\":20570:20573   */\n      0x00\n        /* \"#utility.yul\":20591:20658   */\n      tag_535\n        /* \"#utility.yul\":20655:20657   */\n      0x0c\n        /* \"#utility.yul\":20650:20653   */\n      dup4\n        /* \"#utility.yul\":20591:20658   */\n      tag_281\n      jump\t// in\n    tag_535:\n        /* \"#utility.yul\":20584:20658   */\n      swap2\n      pop\n        /* \"#utility.yul\":20667:20760   */\n      tag_536\n        /* \"#utility.yul\":20756:20759   */\n      dup3\n        /* \"#utility.yul\":20667:20760   */\n      tag_337\n      jump\t// in\n    tag_536:\n        /* \"#utility.yul\":20785:20787   */\n      0x20\n        /* \"#utility.yul\":20780:20783   */\n      dup3\n        /* \"#utility.yul\":20776:20788   */\n      add\n        /* \"#utility.yul\":20769:20788   */\n      swap1\n      pop\n        /* \"#utility.yul\":20428:20794   */\n      swap2\n      swap1\n      pop\n      jump\t// out\n        /* \"#utility.yul\":20800:21219   */\n    tag_203:\n        /* \"#utility.yul\":20966:20970   */\n      0x00\n        /* \"#utility.yul\":21004:21006   */\n      0x20\n        /* \"#utility.yul\":20993:21002   */\n      dup3\n        /* \"#utility.yul\":20989:21007   */\n      add\n        /* \"#utility.yul\":20981:21007   */\n      swap1\n      pop\n        /* \"#utility.yul\":21053:21062   */\n      dup2\n        /* \"#utility.yul\":21047:21051   */\n      dup2\n        /* \"#utility.yul\":21043:21063   */\n      sub\n        /* \"#utility.yul\":21039:21040   */\n      0x00\n        /* \"#utility.yul\":21028:21037   */\n      dup4\n        /* \"#utility.yul\":21024:21041   */\n      add\n        /* \"#utility.yul\":21017:21064   */\n      mstore\n        /* \"#utility.yul\":21081:21212   */\n      tag_538\n        /* \"#utility.yul\":21207:21211   */\n      dup2\n        /* \"#utility.yul\":21081:21212   */\n      tag_338\n      jump\t// in\n    tag_538:\n        /* \"#utility.yul\":21073:21212   */\n      swap1\n      pop\n        /* \"#utility.yul\":20800:21219   */\n      swap2\n      swap1\n      pop\n      jump\t// out\n        /* \"#utility.yul\":21225:21406   */\n    tag_339:\n        /* \"#utility.yul\":21365:21398   */\n      0x5265656e7472616e637947756172643a207265656e7472616e742063616c6c00\n        /* \"#utility.yul\":21361:21362   */\n      0x00\n        /* \"#utility.yul\":21353:21359   */\n      dup3\n        /* \"#utility.yul\":21349:21363   */\n      add\n        /* \"#utility.yul\":21342:21399   */\n      mstore\n        /* \"#utility.yul\":21225:21406   */\n      pop\n      jump\t// out\n        /* \"#utility.yul\":21412:21778   */\n    tag_340:\n        /* \"#utility.yul\":21554:21557   */\n      0x00\n        /* \"#utility.yul\":21575:21642   */\n      tag_541\n        /* \"#utility.yul\":21639:21641   */\n      0x1f\n        /* \"#utility.yul\":21634:21637   */\n      dup4\n        /* \"#utility.yul\":21575:21642   */\n      tag_281\n      jump\t// in\n    tag_541:\n        /* \"#utility.yul\":21568:21642   */\n      swap2\n      pop\n        /* \"#utility.yul\":21651:21744   */\n      tag_542\n        /* \"#utility.yul\":21740:21743   */\n      dup3\n        /* \"#utility.yul\":21651:21744   */\n      tag_339\n      jump\t// in\n    tag_542:\n        /* \"#utility.yul\":21769:21771   */\n      0x20\n        /* \"#utility.yul\":21764:21767   */\n      dup3\n        /* \"#utility.yul\":21760:21772   */\n      add\n        /* \"#utility.yul\":21753:21772   */\n      swap1\n      pop\n        /* \"#utility.yul\":21412:21778   */\n      swap2\n      swap1\n      pop\n      jump\t// out\n        /* \"#utility.yul\":21784:22203   */\n    tag_211:\n        /* \"#utility.yul\":21950:21954   */\n      0x00\n        /* \"#utility.yul\":21988:21990   */\n      0x20\n        /* \"#utility.yul\":21977:21986   */\n      dup3\n        /* \"#utility.yul\":21973:21991   */\n      add\n        /* \"#utility.yul\":21965:21991   */\n      swap1\n      pop\n        /* \"#utility.yul\":22037:22046   */\n      dup2\n        /* \"#utility.yul\":22031:22035   */\n      dup2\n        /* \"#utility.yul\":22027:22047   */\n      sub\n        /* \"#utility.yul\":22023:22024   */\n      0x00\n        /* \"#utility.yul\":22012:22021   */\n      dup4\n        /* \"#utility.yul\":22008:22025   */\n      add\n        /* \"#utility.yul\":22001:22048   */\n      mstore\n        /* \"#utility.yul\":22065:22196   */\n      tag_544\n        /* \"#utility.yul\":22191:22195   */\n      dup2\n        /* \"#utility.yul\":22065:22196   */\n      tag_340\n      jump\t// in\n    tag_544:\n        /* \"#utility.yul\":22057:22196   */\n      swap1\n      pop\n        /* \"#utility.yul\":21784:22203   */\n      swap2\n      swap1\n      pop\n      jump\t// out\n        /* \"#utility.yul\":22209:22397   */\n    tag_231:\n        /* \"#utility.yul\":22247:22250   */\n      0x00\n        /* \"#utility.yul\":22266:22284   */\n      tag_546\n        /* \"#utility.yul\":22282:22283   */\n      dup3\n        /* \"#utility.yul\":22266:22284   */\n      tag_291\n      jump\t// in\n    tag_546:\n        /* \"#utility.yul\":22261:22284   */\n      swap2\n      pop\n        /* \"#utility.yul\":22298:22316   */\n      tag_547\n        /* \"#utility.yul\":22314:22315   */\n      dup4\n        /* \"#utility.yul\":22298:22316   */\n      tag_291\n      jump\t// in\n    tag_547:\n        /* \"#utility.yul\":22293:22316   */\n      swap3\n      pop\n        /* \"#utility.yul\":22339:22340   */\n      dup3\n        /* \"#utility.yul\":22336:22337   */\n      dup3\n        /* \"#utility.yul\":22332:22341   */\n      add\n        /* \"#utility.yul\":22325:22341   */\n      swap1\n      pop\n        /* \"#utility.yul\":22362:22366   */\n      0xff\n        /* \"#utility.yul\":22357:22360   */\n      dup2\n        /* \"#utility.yul\":22354:22367   */\n      gt\n        /* \"#utility.yul\":22351:22390   */\n      iszero\n      tag_548\n      jumpi\n        /* \"#utility.yul\":22370:22388   */\n      tag_549\n      tag_309\n      jump\t// in\n    tag_549:\n        /* \"#utility.yul\":22351:22390   */\n    tag_548:\n        /* \"#utility.yul\":22209:22397   */\n      swap3\n      swap2\n      pop\n      pop\n      jump\t// out\n        /* \"#utility.yul\":22403:22583   */\n    tag_341:\n        /* \"#utility.yul\":22451:22528   */\n      0x4e487b7100000000000000000000000000000000000000000000000000000000\n        /* \"#utility.yul\":22448:22449   */\n      0x00\n        /* \"#utility.yul\":22441:22529   */\n      mstore\n        /* \"#utility.yul\":22548:22552   */\n      0x12\n        /* \"#utility.yul\":22545:22546   */\n      0x04\n        /* \"#utility.yul\":22538:22553   */\n      mstore\n        /* \"#utility.yul\":22572:22576   */\n      0x24\n        /* \"#utility.yul\":22569:22570   */\n      0x00\n        /* \"#utility.yul\":22562:22577   */\n      revert\n        /* \"#utility.yul\":22589:22759   */\n    tag_233:\n        /* \"#utility.yul\":22619:22620   */\n      0x00\n        /* \"#utility.yul\":22636:22654   */\n      tag_552\n        /* \"#utility.yul\":22652:22653   */\n      dup3\n        /* \"#utility.yul\":22636:22654   */\n      tag_291\n      jump\t// in\n    tag_552:\n        /* \"#utility.yul\":22631:22654   */\n      swap2\n      pop\n        /* \"#utility.yul\":22668:22686   */\n      tag_553\n        /* \"#utility.yul\":22684:22685   */\n      dup4\n        /* \"#utility.yul\":22668:22686   */\n      tag_291\n      jump\t// in\n    tag_553:\n        /* \"#utility.yul\":22663:22686   */\n      swap3\n      pop\n        /* \"#utility.yul\":22705:22706   */\n      dup3\n        /* \"#utility.yul\":22695:22730   */\n      tag_554\n      jumpi\n        /* \"#utility.yul\":22710:22728   */\n      tag_555\n      tag_341\n      jump\t// in\n    tag_555:\n        /* \"#utility.yul\":22695:22730   */\n    tag_554:\n        /* \"#utility.yul\":22751:22752   */\n      dup3\n        /* \"#utility.yul\":22748:22749   */\n      dup3\n        /* \"#utility.yul\":22744:22753   */\n      mod\n        /* \"#utility.yul\":22739:22753   */\n      swap1\n      pop\n        /* \"#utility.yul\":22589:22759   */\n      swap3\n      swap2\n      pop\n      pop\n      jump\t// out\n        /* \"#utility.yul\":22765:22932   */\n    tag_236:\n        /* \"#utility.yul\":22802:22805   */\n      0x00\n        /* \"#utility.yul\":22825:22847   */\n      tag_557\n        /* \"#utility.yul\":22841:22846   */\n      dup3\n        /* \"#utility.yul\":22825:22847   */\n      tag_291\n      jump\t// in\n    tag_557:\n        /* \"#utility.yul\":22816:22847   */\n      swap2\n      pop\n        /* \"#utility.yul\":22869:22873   */\n      0xff\n        /* \"#utility.yul\":22862:22867   */\n      dup3\n        /* \"#utility.yul\":22859:22874   */\n      sub\n        /* \"#utility.yul\":22856:22897   */\n      tag_558\n      jumpi\n        /* \"#utility.yul\":22877:22895   */\n      tag_559\n      tag_309\n      jump\t// in\n    tag_559:\n        /* \"#utility.yul\":22856:22897   */\n    tag_558:\n        /* \"#utility.yul\":22924:22925   */\n      0x01\n        /* \"#utility.yul\":22917:22922   */\n      dup3\n        /* \"#utility.yul\":22913:22926   */\n      add\n        /* \"#utility.yul\":22906:22926   */\n      swap1\n      pop\n        /* \"#utility.yul\":22765:22932   */\n      swap2\n      swap1\n      pop\n      jump\t// out\n        /* \"#utility.yul\":22938:23348   */\n    tag_255:\n        /* \"#utility.yul\":22978:22985   */\n      0x00\n        /* \"#utility.yul\":23001:23021   */\n      tag_561\n        /* \"#utility.yul\":23019:23020   */\n      dup3\n        /* \"#utility.yul\":23001:23021   */\n      tag_296\n      jump\t// in\n    tag_561:\n        /* \"#utility.yul\":22996:23021   */\n      swap2\n      pop\n        /* \"#utility.yul\":23035:23055   */\n      tag_562\n        /* \"#utility.yul\":23053:23054   */\n      dup4\n        /* \"#utility.yul\":23035:23055   */\n      tag_296\n      jump\t// in\n    tag_562:\n        /* \"#utility.yul\":23030:23055   */\n      swap3\n      pop\n        /* \"#utility.yul\":23090:23091   */\n      dup3\n        /* \"#utility.yul\":23087:23088   */\n      dup3\n        /* \"#utility.yul\":23083:23092   */\n      mul\n        /* \"#utility.yul\":23112:23142   */\n      tag_563\n        /* \"#utility.yul\":23130:23141   */\n      dup2\n        /* \"#utility.yul\":23112:23142   */\n      tag_296\n      jump\t// in\n    tag_563:\n        /* \"#utility.yul\":23101:23142   */\n      swap2\n      pop\n        /* \"#utility.yul\":23291:23292   */\n      dup3\n        /* \"#utility.yul\":23282:23289   */\n      dup3\n        /* \"#utility.yul\":23278:23293   */\n      div\n        /* \"#utility.yul\":23275:23276   */\n      dup5\n        /* \"#utility.yul\":23272:23294   */\n      eq\n        /* \"#utility.yul\":23252:23253   */\n      dup4\n        /* \"#utility.yul\":23245:23254   */\n      iszero\n        /* \"#utility.yul\":23225:23308   */\n      or\n        /* \"#utility.yul\":23202:23341   */\n      tag_564\n      jumpi\n        /* \"#utility.yul\":23321:23339   */\n      tag_565\n      tag_309\n      jump\t// in\n    tag_565:\n        /* \"#utility.yul\":23202:23341   */\n    tag_564:\n        /* \"#utility.yul\":22986:23348   */\n      pop\n        /* \"#utility.yul\":22938:23348   */\n      swap3\n      swap2\n      pop\n      pop\n      jump\t// out\n        /* \"#utility.yul\":23354:23450   */\n    tag_342:\n        /* \"#utility.yul\":23391:23398   */\n      0x00\n        /* \"#utility.yul\":23420:23444   */\n      tag_567\n        /* \"#utility.yul\":23438:23443   */\n      dup3\n        /* \"#utility.yul\":23420:23444   */\n      tag_287\n      jump\t// in\n    tag_567:\n        /* \"#utility.yul\":23409:23444   */\n      swap1\n      pop\n        /* \"#utility.yul\":23354:23450   */\n      swap2\n      swap1\n      pop\n      jump\t// out\n        /* \"#utility.yul\":23456:23574   */\n    tag_343:\n        /* \"#utility.yul\":23543:23567   */\n      tag_569\n        /* \"#utility.yul\":23561:23566   */\n      dup2\n        /* \"#utility.yul\":23543:23567   */\n      tag_342\n      jump\t// in\n    tag_569:\n        /* \"#utility.yul\":23538:23541   */\n      dup3\n        /* \"#utility.yul\":23531:23568   */\n      mstore\n        /* \"#utility.yul\":23456:23574   */\n      pop\n      pop\n      jump\t// out\n        /* \"#utility.yul\":23580:23665   */\n    tag_344:\n        /* \"#utility.yul\":23625:23632   */\n      0x00\n        /* \"#utility.yul\":23654:23659   */\n      dup2\n        /* \"#utility.yul\":23643:23659   */\n      swap1\n      pop\n        /* \"#utility.yul\":23580:23665   */\n      swap2\n      swap1\n      pop\n      jump\t// out\n        /* \"#utility.yul\":23671:23731   */\n    tag_345:\n        /* \"#utility.yul\":23699:23702   */\n      0x00\n        /* \"#utility.yul\":23720:23725   */\n      dup2\n        /* \"#utility.yul\":23713:23725   */\n      swap1\n      pop\n        /* \"#utility.yul\":23671:23731   */\n      swap2\n      swap1\n      pop\n      jump\t// out\n        /* \"#utility.yul\":23737:23895   */\n    tag_346:\n        /* \"#utility.yul\":23795:23804   */\n      0x00\n        /* \"#utility.yul\":23828:23889   */\n      tag_573\n        /* \"#utility.yul\":23846:23888   */\n      tag_574\n        /* \"#utility.yul\":23855:23887   */\n      tag_575\n        /* \"#utility.yul\":23881:23886   */\n      dup5\n        /* \"#utility.yul\":23855:23887   */\n      tag_344\n      jump\t// in\n    tag_575:\n        /* \"#utility.yul\":23846:23888   */\n      tag_345\n      jump\t// in\n    tag_574:\n        /* \"#utility.yul\":23828:23889   */\n      tag_296\n      jump\t// in\n    tag_573:\n        /* \"#utility.yul\":23815:23889   */\n      swap1\n      pop\n        /* \"#utility.yul\":23737:23895   */\n      swap2\n      swap1\n      pop\n      jump\t// out\n        /* \"#utility.yul\":23901:24048   */\n    tag_347:\n        /* \"#utility.yul\":23996:24041   */\n      tag_577\n        /* \"#utility.yul\":24035:24040   */\n      dup2\n        /* \"#utility.yul\":23996:24041   */\n      tag_346\n      jump\t// in\n    tag_577:\n        /* \"#utility.yul\":23991:23994   */\n      dup3\n        /* \"#utility.yul\":23984:24042   */\n      mstore\n        /* \"#utility.yul\":23901:24048   */\n      pop\n      pop\n      jump\t// out\n        /* \"#utility.yul\":24054:24402   */\n    tag_262:\n        /* \"#utility.yul\":24183:24187   */\n      0x00\n        /* \"#utility.yul\":24221:24223   */\n      0x40\n        /* \"#utility.yul\":24210:24219   */\n      dup3\n        /* \"#utility.yul\":24206:24224   */\n      add\n        /* \"#utility.yul\":24198:24224   */\n      swap1\n      pop\n        /* \"#utility.yul\":24234:24305   */\n      tag_579\n        /* \"#utility.yul\":24302:24303   */\n      0x00\n        /* \"#utility.yul\":24291:24300   */\n      dup4\n        /* \"#utility.yul\":24287:24304   */\n      add\n        /* \"#utility.yul\":24278:24284   */\n      dup6\n        /* \"#utility.yul\":24234:24305   */\n      tag_343\n      jump\t// in\n    tag_579:\n        /* \"#utility.yul\":24315:24395   */\n      tag_580\n        /* \"#utility.yul\":24391:24393   */\n      0x20\n        /* \"#utility.yul\":24380:24389   */\n      dup4\n        /* \"#utility.yul\":24376:24394   */\n      add\n        /* \"#utility.yul\":24367:24373   */\n      dup5\n        /* \"#utility.yul\":24315:24395   */\n      tag_347\n      jump\t// in\n    tag_580:\n        /* \"#utility.yul\":24054:24402   */\n      swap4\n      swap3\n      pop\n      pop\n      pop\n      jump\t// out\n        /* \"#utility.yul\":24408:24555   */\n    tag_348:\n        /* \"#utility.yul\":24509:24520   */\n      0x00\n        /* \"#utility.yul\":24546:24549   */\n      dup2\n        /* \"#utility.yul\":24531:24549   */\n      swap1\n      pop\n        /* \"#utility.yul\":24408:24555   */\n      swap3\n      swap2\n      pop\n      pop\n      jump\t// out\n        /* \"#utility.yul\":24561:24675   */\n    tag_349:\n      pop\n      jump\t// out\n        /* \"#utility.yul\":24681:25079   */\n    tag_350:\n        /* \"#utility.yul\":24840:24843   */\n      0x00\n        /* \"#utility.yul\":24861:24944   */\n      tag_584\n        /* \"#utility.yul\":24942:24943   */\n      0x00\n        /* \"#utility.yul\":24937:24940   */\n      dup4\n        /* \"#utility.yul\":24861:24944   */\n      tag_348\n      jump\t// in\n    tag_584:\n        /* \"#utility.yul\":24854:24944   */\n      swap2\n      pop\n        /* \"#utility.yul\":24953:25046   */\n      tag_585\n        /* \"#utility.yul\":25042:25045   */\n      dup3\n        /* \"#utility.yul\":24953:25046   */\n      tag_349\n      jump\t// in\n    tag_585:\n        /* \"#utility.yul\":25071:25072   */\n      0x00\n        /* \"#utility.yul\":25066:25069   */\n      dup3\n        /* \"#utility.yul\":25062:25073   */\n      add\n        /* \"#utility.yul\":25055:25073   */\n      swap1\n      pop\n        /* \"#utility.yul\":24681:25079   */\n      swap2\n      swap1\n      pop\n      jump\t// out\n        /* \"#utility.yul\":25085:25464   */\n    tag_265:\n        /* \"#utility.yul\":25269:25272   */\n      0x00\n        /* \"#utility.yul\":25291:25438   */\n      tag_587\n        /* \"#utility.yul\":25434:25437   */\n      dup3\n        /* \"#utility.yul\":25291:25438   */\n      tag_350\n      jump\t// in\n    tag_587:\n        /* \"#utility.yul\":25284:25438   */\n      swap2\n      pop\n        /* \"#utility.yul\":25455:25458   */\n      dup2\n        /* \"#utility.yul\":25448:25458   */\n      swap1\n      pop\n        /* \"#utility.yul\":25085:25464   */\n      swap2\n      swap1\n      pop\n      jump\t// out\n        /* \"#utility.yul\":25470:25635   */\n    tag_351:\n        /* \"#utility.yul\":25610:25627   */\n      0x7472616e73666572206661696c65640000000000000000000000000000000000\n        /* \"#utility.yul\":25606:25607   */\n      0x00\n        /* \"#utility.yul\":25598:25604   */\n      dup3\n        /* \"#utility.yul\":25594:25608   */\n      add\n        /* \"#utility.yul\":25587:25628   */\n      mstore\n        /* \"#utility.yul\":25470:25635   */\n      pop\n      jump\t// out\n        /* \"#utility.yul\":25641:26007   */\n    tag_352:\n        /* \"#utility.yul\":25783:25786   */\n      0x00\n        /* \"#utility.yul\":25804:25871   */\n      tag_590\n        /* \"#utility.yul\":25868:25870   */\n      0x0f\n        /* \"#utility.yul\":25863:25866   */\n      dup4\n        /* \"#utility.yul\":25804:25871   */\n      tag_281\n      jump\t// in\n    tag_590:\n        /* \"#utility.yul\":25797:25871   */\n      swap2\n      pop\n        /* \"#utility.yul\":25880:25973   */\n      tag_591\n        /* \"#utility.yul\":25969:25972   */\n      dup3\n        /* \"#utility.yul\":25880:25973   */\n      tag_351\n      jump\t// in\n    tag_591:\n        /* \"#utility.yul\":25998:26000   */\n      0x20\n        /* \"#utility.yul\":25993:25996   */\n      dup3\n        /* \"#utility.yul\":25989:26001   */\n      add\n        /* \"#utility.yul\":25982:26001   */\n      swap1\n      pop\n        /* \"#utility.yul\":25641:26007   */\n      swap2\n      swap1\n      pop\n      jump\t// out\n        /* \"#utility.yul\":26013:26432   */\n    tag_271:\n        /* \"#utility.yul\":26179:26183   */\n      0x00\n        /* \"#utility.yul\":26217:26219   */\n      0x20\n        /* \"#utility.yul\":26206:26215   */\n      dup3\n        /* \"#utility.yul\":26202:26220   */\n      add\n        /* \"#utility.yul\":26194:26220   */\n      swap1\n      pop\n        /* \"#utility.yul\":26266:26275   */\n      dup2\n        /* \"#utility.yul\":26260:26264   */\n      dup2\n        /* \"#utility.yul\":26256:26276   */\n      sub\n        /* \"#utility.yul\":26252:26253   */\n      0x00\n        /* \"#utility.yul\":26241:26250   */\n      dup4\n        /* \"#utility.yul\":26237:26254   */\n      add\n        /* \"#utility.yul\":26230:26277   */\n      mstore\n        /* \"#utility.yul\":26294:26425   */\n      tag_593\n        /* \"#utility.yul\":26420:26424   */\n      dup2\n        /* \"#utility.yul\":26294:26425   */\n      tag_352\n      jump\t// in\n    tag_593:\n        /* \"#utility.yul\":26286:26425   */\n      swap1\n      pop\n        /* \"#utility.yul\":26013:26432   */\n      swap2\n      swap1\n      pop\n      jump\t// out\n        /* \"#utility.yul\":26438:26580   */\n    tag_353:\n        /* \"#utility.yul\":26488:26497   */\n      0x00\n        /* \"#utility.yul\":26521:26574   */\n      tag_595\n        /* \"#utility.yul\":26539:26573   */\n      tag_596\n        /* \"#utility.yul\":26548:26572   */\n      tag_597\n        /* \"#utility.yul\":26566:26571   */\n      dup5\n        /* \"#utility.yul\":26548:26572   */\n      tag_287\n      jump\t// in\n    tag_597:\n        /* \"#utility.yul\":26539:26573   */\n      tag_345\n      jump\t// in\n    tag_596:\n        /* \"#utility.yul\":26521:26574   */\n      tag_287\n      jump\t// in\n    tag_595:\n        /* \"#utility.yul\":26508:26574   */\n      swap1\n      pop\n        /* \"#utility.yul\":26438:26580   */\n      swap2\n      swap1\n      pop\n      jump\t// out\n        /* \"#utility.yul\":26586:26712   */\n    tag_354:\n        /* \"#utility.yul\":26636:26645   */\n      0x00\n        /* \"#utility.yul\":26669:26706   */\n      tag_599\n        /* \"#utility.yul\":26700:26705   */\n      dup3\n        /* \"#utility.yul\":26669:26706   */\n      tag_353\n      jump\t// in\n    tag_599:\n        /* \"#utility.yul\":26656:26706   */\n      swap1\n      pop\n        /* \"#utility.yul\":26586:26712   */\n      swap2\n      swap1\n      pop\n      jump\t// out\n        /* \"#utility.yul\":26718:26852   */\n    tag_355:\n        /* \"#utility.yul\":26776:26785   */\n      0x00\n        /* \"#utility.yul\":26809:26846   */\n      tag_601\n        /* \"#utility.yul\":26840:26845   */\n      dup3\n        /* \"#utility.yul\":26809:26846   */\n      tag_354\n      jump\t// in\n    tag_601:\n        /* \"#utility.yul\":26796:26846   */\n      swap1\n      pop\n        /* \"#utility.yul\":26718:26852   */\n      swap2\n      swap1\n      pop\n      jump\t// out\n        /* \"#utility.yul\":26858:27005   */\n    tag_356:\n        /* \"#utility.yul\":26953:26998   */\n      tag_603\n        /* \"#utility.yul\":26992:26997   */\n      dup2\n        /* \"#utility.yul\":26953:26998   */\n      tag_355\n      jump\t// in\n    tag_603:\n        /* \"#utility.yul\":26948:26951   */\n      dup3\n        /* \"#utility.yul\":26941:26999   */\n      mstore\n        /* \"#utility.yul\":26858:27005   */\n      pop\n      pop\n      jump\t// out\n        /* \"#utility.yul\":27011:27359   */\n    tag_273:\n        /* \"#utility.yul\":27140:27144   */\n      0x00\n        /* \"#utility.yul\":27178:27180   */\n      0x40\n        /* \"#utility.yul\":27167:27176   */\n      dup3\n        /* \"#utility.yul\":27163:27181   */\n      add\n        /* \"#utility.yul\":27155:27181   */\n      swap1\n      pop\n        /* \"#utility.yul\":27191:27270   */\n      tag_605\n        /* \"#utility.yul\":27267:27268   */\n      0x00\n        /* \"#utility.yul\":27256:27265   */\n      dup4\n        /* \"#utility.yul\":27252:27269   */\n      add\n        /* \"#utility.yul\":27243:27249   */\n      dup6\n        /* \"#utility.yul\":27191:27270   */\n      tag_356\n      jump\t// in\n    tag_605:\n        /* \"#utility.yul\":27280:27352   */\n      tag_606\n        /* \"#utility.yul\":27348:27350   */\n      0x20\n        /* \"#utility.yul\":27337:27346   */\n      dup4\n        /* \"#utility.yul\":27333:27351   */\n      add\n        /* \"#utility.yul\":27324:27330   */\n      dup5\n        /* \"#utility.yul\":27280:27352   */\n      tag_297\n      jump\t// in\n    tag_606:\n        /* \"#utility.yul\":27011:27359   */\n      swap4\n      swap3\n      pop\n      pop\n      pop\n      jump\t// out\n\n    auxdata: 0xa2646970667358221220b90f3e3a9ab649610bccf98eaa3fc2e5ee83e7d601574826c27324d94f6533f364736f6c634300081e0033\n}\n",
				"bytecode": {
					"linkReferences": {},
					"object": "60806040526040518060600160405280662386f26fc1000067ffffffffffffffff16815260200166b1a2bc2ec5000067ffffffffffffffff16815260200167016345785d8a000067ffffffffffffffff1681525060019060036061929190607d565b5060016004553480156071575f5ffd5b5060015f8190555060dd565b826003810192821560b5579160200282015b8281111560b4578251829067ffffffffffffffff16905591602001919060010190608f565b5b50905060c0919060c4565b5090565b5b8082111560d9575f815f90555060010160c5565b5090565b612321806100ea5f395ff3fe60806040526004361061007e575f3560e01c806386e773f11161004d57806386e773f114610180578063a60ac828146101a8578063b135bbb0146101d2578063c89da923146101fc576100be565b806317128792146100c257806317e931cf146100f2578063432cad1e1461011c5780637d90611d14610144576100be565b366100be576040517f08c379a00000000000000000000000000000000000000000000000000000000081526004016100b59061165d565b60405180910390fd5b5f5ffd5b6100dc60048036038101906100d79190611738565b610218565b6040516100e991906117a0565b60405180910390f35b3480156100fd575f5ffd5b50610106610477565b60405161011391906117a0565b60405180910390f35b348015610127575f5ffd5b50610142600480360381019061013d9190611863565b61047d565b005b34801561014f575f5ffd5b5061016a600480360381019061016591906118e7565b61096a565b60405161017791906117a0565b60405180910390f35b34801561018b575f5ffd5b506101a660048036038101906101a191906118e7565b610983565b005b3480156101b3575f5ffd5b506101bc610c9d565b6040516101c991906117a0565b60405180910390f35b3480156101dd575f5ffd5b506101e6610ca3565b6040516101f391906117a0565b60405180910390f35b61021660048036038101906102119190611912565b610ca9565b005b5f610221610f3b565b60038360ff1610610267576040517f08c379a000000000000000000000000000000000000000000000000000000000815260040161025e9061199a565b60405180910390fd5b5f60018460ff166003811061027f5761027e6119b8565b5b015490508034146102c5576040517f08c379a00000000000000000000000000000000000000000000000000000000081526004016102bc90611a2f565b60405180910390fd5b60045f8154809291906102d790611a7a565b9190505591505f60055f8481526020019081526020015f20905033815f015f6101000a81548173ffffffffffffffffffffffffffffffffffffffff021916908373ffffffffffffffffffffffffffffffffffffffff16021790555085816001015f6101000a81548173ffffffffffffffffffffffffffffffffffffffff021916908373ffffffffffffffffffffffffffffffffffffffff1602179055508181600201819055505f816003015f6101000a81548160ff021916908360038111156103a3576103a2611ac1565b5b021790555042816007018190555083816004015f3373ffffffffffffffffffffffffffffffffffffffff1673ffffffffffffffffffffffffffffffffffffffff1681526020019081526020015f209060036103ff9291906115a8565b508573ffffffffffffffffffffffffffffffffffffffff163373ffffffffffffffffffffffffffffffffffffffff16847f6200407c0ea392b8107b21a9be480acd41fda186d04bed28cc7da2d4b53d56e28560405161045e91906117a0565b60405180910390a45050610470610f88565b9392505050565b61070881565b610485610f3b565b5f60055f8781526020019081526020015f209050600160038111156104ad576104ac611ac1565b5b816003015f9054906101000a900460ff1660038111156104d0576104cf611ac1565b5b14806105105750600260038111156104eb576104ea611ac1565b5b816003015f9054906101000a900460ff16600381111561050e5761050d611ac1565b5b145b61054f576040517f08c379a000000000000000000000000000000000000000000000000000000000815260040161054690611b38565b60405180910390fd5b8060030160019054906101000a900460ff1660ff168560ff16146105a8576040517f08c379a000000000000000000000000000000000000000000000000000000000815260040161059f90611ba0565b60405180910390fd5b600160038111156105bc576105bb611ac1565b5b8460038111156105cf576105ce611ac1565b5b1015801561060157506003808111156105eb576105ea611ac1565b5b8460038111156105fe576105fd611ac1565b5b11155b610640576040517f08c379a000000000000000000000000000000000000000000000000000000000815260040161063790611c08565b60405180910390fd5b5f84848460405160200161065693929190611ccd565b604051602081830303815290604052805190602001209050816004015f3373ffffffffffffffffffffffffffffffffffffffff1673ffffffffffffffffffffffffffffffffffffffff1681526020019081526020015f208660ff16600381106106c2576106c16119b8565b5b01548114610705576040517f08c379a00000000000000000000000000000000000000000000000000000000081526004016106fc90611d40565b60405180910390fd5b84826005015f3373ffffffffffffffffffffffffffffffffffffffff1673ffffffffffffffffffffffffffffffffffffffff1681526020019081526020015f208760ff166003811061075a576107596119b8565b5b602091828204019190066101000a81548160ff0219169083600381111561078457610783611ac1565b5b02179055503373ffffffffffffffffffffffffffffffffffffffff16877fd31e4584470fef66591718561fc040b8d1367a4138f938559501253d729e315288886040516107d2929190611d7c565b60405180910390a35f825f015f9054906101000a900473ffffffffffffffffffffffffffffffffffffffff1673ffffffffffffffffffffffffffffffffffffffff163373ffffffffffffffffffffffffffffffffffffffff161461085857825f015f9054906101000a900473ffffffffffffffffffffffffffffffffffffffff1661087d565b826001015f9054906101000a900473ffffffffffffffffffffffffffffffffffffffff165b90505f600381111561089257610891611ac1565b5b836005015f8373ffffffffffffffffffffffffffffffffffffffff1673ffffffffffffffffffffffffffffffffffffffff1681526020019081526020015f208860ff16600381106108e6576108e56119b8565b5b602091828204019190069054906101000a900460ff16600381111561090e5761090d611ac1565b5b146109225761091d8388610f91565b610958565b6002836003015f6101000a81548160ff0219169083600381111561094957610948611ac1565b5b02179055504283600701819055505b505050610963610f88565b5050505050565b60018160038110610979575f80fd5b015f915090505481565b61098b610f3b565b5f60055f8381526020019081526020015f2090506003808111156109b2576109b1611ac1565b5b816003015f9054906101000a900460ff1660038111156109d5576109d4611ac1565b5b03610a15576040517f08c379a0000000000000000000000000000000000000000000000000000000008152600401610a0c90611ded565b60405180910390fd5b5f5f6003811115610a2957610a28611ac1565b5b826003015f9054906101000a900460ff166003811115610a4c57610a4b611ac1565b5b148015610a6957506107088260070154610a669190611e0b565b42115b80610ac4575060026003811115610a8357610a82611ac1565b5b826003015f9054906101000a900460ff166003811115610aa657610aa5611ac1565b5b148015610ac357506107088260070154610ac09190611e0b565b42115b5b905080610b06576040517f08c379a0000000000000000000000000000000000000000000000000000000008152600401610afd90611e88565b60405180910390fd5b5f5f6003811115610b1a57610b19611ac1565b5b836003015f9054906101000a900460ff166003811115610b3d57610b3c611ac1565b5b03610b6c57825f015f9054906101000a900473ffffffffffffffffffffffffffffffffffffffff169050610c85565b5f6003811115610b7f57610b7e611ac1565b5b836005015f855f015f9054906101000a900473ffffffffffffffffffffffffffffffffffffffff1673ffffffffffffffffffffffffffffffffffffffff1673ffffffffffffffffffffffffffffffffffffffff1681526020019081526020015f208460030160019054906101000a900460ff1660ff1660038110610c0657610c056119b8565b5b602091828204019190069054906101000a900460ff166003811115610c2e57610c2d611ac1565b5b14610c5d57825f015f9054906101000a900473ffffffffffffffffffffffffffffffffffffffff169050610c84565b826001015f9054906101000a900473ffffffffffffffffffffffffffffffffffffffff1690505b5b610c8f8382611338565b505050610c9a610f88565b50565b61070881565b60045481565b610cb1610f3b565b5f60055f8481526020019081526020015f2090505f6003811115610cd857610cd7611ac1565b5b816003015f9054906101000a900460ff166003811115610cfb57610cfa611ac1565b5b14610d3b576040517f08c379a0000000000000000000000000000000000000000000000000000000008152600401610d3290611ef0565b60405180910390fd5b806001015f9054906101000a900473ffffffffffffffffffffffffffffffffffffffff1673ffffffffffffffffffffffffffffffffffffffff163373ffffffffffffffffffffffffffffffffffffffff1614610dcc576040517f08c379a0000000000000000000000000000000000000000000000000000000008152600401610dc390611f58565b60405180910390fd5b80600201543414610e12576040517f08c379a0000000000000000000000000000000000000000000000000000000008152600401610e0990611a2f565b60405180910390fd5b6107088160070154610e249190611e0b565b421115610e66576040517f08c379a0000000000000000000000000000000000000000000000000000000008152600401610e5d90611fc0565b60405180910390fd5b81816004015f3373ffffffffffffffffffffffffffffffffffffffff1673ffffffffffffffffffffffffffffffffffffffff1681526020019081526020015f20906003610eb49291906115a8565b506001816003015f6101000a81548160ff02191690836003811115610edc57610edb611ac1565b5b02179055504281600701819055503373ffffffffffffffffffffffffffffffffffffffff16837f45c4f9cbafe186141862608c493f28b823fde4c2142bedc3f5169961a73fdd2260405160405180910390a350610f37610f88565b5050565b60025f5403610f7f576040517f08c379a0000000000000000000000000000000000000000000000000000000008152600401610f7690612028565b60405180910390fd5b60025f81905550565b60015f81905550565b5f826005015f845f015f9054906101000a900473ffffffffffffffffffffffffffffffffffffffff1673ffffffffffffffffffffffffffffffffffffffff1673ffffffffffffffffffffffffffffffffffffffff1681526020019081526020015f208260ff1660038110611008576110076119b8565b5b602091828204019190069054906101000a900460ff1690505f836005015f856001015f9054906101000a900473ffffffffffffffffffffffffffffffffffffffff1673ffffffffffffffffffffffffffffffffffffffff1673ffffffffffffffffffffffffffffffffffffffff1681526020019081526020015f208360ff1660038110611098576110976119b8565b5b602091828204019190069054906101000a900460ff1690508060038111156110c3576110c2611ac1565b5b8260038111156110d6576110d5611ac1565b5b031561119f578060038111156110ef576110ee611ac1565b5b60ff166003600184600381111561110957611108611ac1565b5b6111139190612046565b61111d91906120a7565b60ff16036111645783600601600181819054906101000a900460ff1680929190611146906120d7565b91906101000a81548160ff021916908360ff1602179055505061119e565b836006015f81819054906101000a900460ff1680929190611184906120d7565b91906101000a81548160ff021916908360ff160217905550505b5b83600301600181819054906101000a900460ff16809291906111c0906120d7565b91906101000a81548160ff021916908360ff160217905550506002846006015f9054906101000a900460ff1660ff16148061120f575060028460060160019054906101000a900460ff1660ff16145b8061122e575060038460030160019054906101000a900460ff1660ff16145b156112fc575f8460060160019054906101000a900460ff1660ff16856006015f9054906101000a900460ff1660ff16111561128d57845f015f9054906101000a900473ffffffffffffffffffffffffffffffffffffffff1690506112ec565b846006015f9054906101000a900460ff1660ff168560060160019054906101000a900460ff1660ff1611156112e757846001015f9054906101000a900473ffffffffffffffffffffffffffffffffffffffff1690506112eb565b5f90505b5b6112f68582611338565b50611332565b6001846003015f6101000a81548160ff0219169083600381111561132357611322611ac1565b5b02179055504284600701819055505b50505050565b6003826003015f6101000a81548160ff0219169083600381111561135f5761135e611ac1565b5b02179055505f6002836002015461137691906120ff565b90505f73ffffffffffffffffffffffffffffffffffffffff168273ffffffffffffffffffffffffffffffffffffffff16036114bf57825f015f9054906101000a900473ffffffffffffffffffffffffffffffffffffffff1673ffffffffffffffffffffffffffffffffffffffff166108fc846002015490811502906040515f60405180830381858888f19350505050158015611414573d5f5f3e3d5ffd5b50826001015f9054906101000a900473ffffffffffffffffffffffffffffffffffffffff1673ffffffffffffffffffffffffffffffffffffffff166108fc846002015490811502906040515f60405180830381858888f1935050505015801561147f573d5f5f3e3d5ffd5b505f7ff5d92df6ae1a0b46d0a0c57c2e1da0d75d7591d2804ad086cb1e27ba67de7aaf5f5f6040516114b29291906121a2565b60405180910390a26115a3565b5f8273ffffffffffffffffffffffffffffffffffffffff16826040516114e4906121f6565b5f6040518083038185875af1925050503d805f811461151e576040519150601f19603f3d011682016040523d82523d5f602084013e611523565b606091505b5050905080611567576040517f08c379a000000000000000000000000000000000000000000000000000000000815260040161155e90612254565b60405180910390fd5b5f7ff5d92df6ae1a0b46d0a0c57c2e1da0d75d7591d2804ad086cb1e27ba67de7aaf84846040516115999291906122c4565b60405180910390a2505b505050565b82600381019282156115d7579160200282015b828111156115d65782358255916020019190600101906115bb565b5b5090506115e491906115e8565b5090565b5b808211156115ff575f815f9055506001016115e9565b5090565b5f82825260208201905092915050565b7f53656e6420455448207669612063726561746547616d652f6a6f696e47616d655f82015250565b5f611647602083611603565b915061165282611613565b602082019050919050565b5f6020820190508181035f8301526116748161163b565b9050919050565b5f5ffd5b5f5ffd5b5f73ffffffffffffffffffffffffffffffffffffffff82169050919050565b5f6116ac82611683565b9050919050565b6116bc816116a2565b81146116c6575f5ffd5b50565b5f813590506116d7816116b3565b92915050565b5f60ff82169050919050565b6116f2816116dd565b81146116fc575f5ffd5b50565b5f8135905061170d816116e9565b92915050565b5f5ffd5b5f8190508260206003028201111561173257611731611713565b5b92915050565b5f5f5f60a0848603121561174f5761174e61167b565b5b5f61175c868287016116c9565b935050602061176d868287016116ff565b925050604061177e86828701611717565b9150509250925092565b5f819050919050565b61179a81611788565b82525050565b5f6020820190506117b35f830184611791565b92915050565b6117c281611788565b81146117cc575f5ffd5b50565b5f813590506117dd816117b9565b92915050565b600481106117ef575f5ffd5b50565b5f81359050611800816117e3565b92915050565b5f5ffd5b5f5ffd5b5f5f83601f84011261182357611822611806565b5b8235905067ffffffffffffffff8111156118405761183f61180a565b5b60208301915083600182028301111561185c5761185b611713565b5b9250929050565b5f5f5f5f5f6080868803121561187c5761187b61167b565b5b5f611889888289016117cf565b955050602061189a888289016116ff565b94505060406118ab888289016117f2565b935050606086013567ffffffffffffffff8111156118cc576118cb61167f565b5b6118d88882890161180e565b92509250509295509295909350565b5f602082840312156118fc576118fb61167b565b5b5f611909848285016117cf565b91505092915050565b5f5f608083850312156119285761192761167b565b5b5f611935858286016117cf565b925050602061194685828601611717565b9150509250929050565b7f626574496e64657820696e76616c6964000000000000000000000000000000005f82015250565b5f611984601083611603565b915061198f82611950565b602082019050919050565b5f6020820190508181035f8301526119b181611978565b9050919050565b7f4e487b71000000000000000000000000000000000000000000000000000000005f52603260045260245ffd5b7f696e636f7272656374204554482073656e7400000000000000000000000000005f82015250565b5f611a19601283611603565b9150611a24826119e5565b602082019050919050565b5f6020820190508181035f830152611a4681611a0d565b9050919050565b7f4e487b71000000000000000000000000000000000000000000000000000000005f52601160045260245ffd5b5f611a8482611788565b91507fffffffffffffffffffffffffffffffffffffffffffffffffffffffffffffffff8203611ab657611ab5611a4d565b5b600182019050919050565b7f4e487b71000000000000000000000000000000000000000000000000000000005f52602160045260245ffd5b7f62616420737461676500000000000000000000000000000000000000000000005f82015250565b5f611b22600983611603565b9150611b2d82611aee565b602082019050919050565b5f6020820190508181035f830152611b4f81611b16565b9050919050565b7f77726f6e6720726f756e640000000000000000000000000000000000000000005f82015250565b5f611b8a600b83611603565b9150611b9582611b56565b602082019050919050565b5f6020820190508181035f830152611bb781611b7e565b9050919050565b7f626164206d6f76650000000000000000000000000000000000000000000000005f82015250565b5f611bf2600883611603565b9150611bfd82611bbe565b602082019050919050565b5f6020820190508181035f830152611c1f81611be6565b9050919050565b60048110611c3757611c36611ac1565b5b50565b5f819050611c4782611c26565b919050565b5f611c5682611c3a565b9050919050565b5f8160f81b9050919050565b5f611c7382611c5d565b9050919050565b611c8b611c8682611c4c565b611c69565b82525050565b5f81905092915050565b828183375f83830152505050565b5f611cb48385611c91565b9350611cc1838584611c9b565b82840190509392505050565b5f611cd88286611c7a565b600182019150611ce9828486611ca9565b9150819050949350505050565b7f636f6d6d6974206d69736d6174636800000000000000000000000000000000005f82015250565b5f611d2a600f83611603565b9150611d3582611cf6565b602082019050919050565b5f6020820190508181035f830152611d5781611d1e565b9050919050565b611d67816116dd565b82525050565b611d7681611c4c565b82525050565b5f604082019050611d8f5f830185611d5e565b611d9c6020830184611d6d565b9392505050565b7f67616d65206f76657200000000000000000000000000000000000000000000005f82015250565b5f611dd7600983611603565b9150611de282611da3565b602082019050919050565b5f6020820190508181035f830152611e0481611dcb565b9050919050565b5f611e1582611788565b9150611e2083611788565b9250828201905080821115611e3857611e37611a4d565b5b92915050565b7f6e6f2074696d656f7574207965740000000000000000000000000000000000005f82015250565b5f611e72600e83611603565b9150611e7d82611e3e565b602082019050919050565b5f6020820190508181035f830152611e9f81611e66565b9050919050565b7f6e6f74206a6f696e61626c6500000000000000000000000000000000000000005f82015250565b5f611eda600c83611603565b9150611ee582611ea6565b602082019050919050565b5f6020820190508181035f830152611f0781611ece565b9050919050565b7f6e6f7420696e76697465640000000000000000000000000000000000000000005f82015250565b5f611f42600b83611603565b9150611f4d82611f0e565b602082019050919050565b5f6020820190508181035f830152611f6f81611f36565b9050919050565b7f6a6f696e2074696d656f757400000000000000000000000000000000000000005f82015250565b5f611faa600c83611603565b9150611fb582611f76565b602082019050919050565b5f6020820190508181035f830152611fd781611f9e565b9050919050565b7f5265656e7472616e637947756172643a207265656e7472616e742063616c6c005f82015250565b5f612012601f83611603565b915061201d82611fde565b602082019050919050565b5f6020820190508181035f83015261203f81612006565b9050919050565b5f612050826116dd565b915061205b836116dd565b9250828201905060ff81111561207457612073611a4d565b5b92915050565b7f4e487b71000000000000000000000000000000000000000000000000000000005f52601260045260245ffd5b5f6120b1826116dd565b91506120bc836116dd565b9250826120cc576120cb61207a565b5b828206905092915050565b5f6120e1826116dd565b915060ff82036120f4576120f3611a4d565b5b600182019050919050565b5f61210982611788565b915061211483611788565b925082820261212281611788565b9150828204841483151761213957612138611a4d565b5b5092915050565b5f61214a82611683565b9050919050565b61215a81612140565b82525050565b5f819050919050565b5f819050919050565b5f61218c61218761218284612160565b612169565b611788565b9050919050565b61219c81612172565b82525050565b5f6040820190506121b55f830185612151565b6121c26020830184612193565b9392505050565b5f81905092915050565b50565b5f6121e15f836121c9565b91506121ec826121d3565b5f82019050919050565b5f612200826121d6565b9150819050919050565b7f7472616e73666572206661696c656400000000000000000000000000000000005f82015250565b5f61223e600f83611603565b91506122498261220a565b602082019050919050565b5f6020820190508181035f83015261226b81612232565b9050919050565b5f61228c61228761228284611683565b612169565b611683565b9050919050565b5f61229d82612272565b9050919050565b5f6122ae82612293565b9050919050565b6122be816122a4565b82525050565b5f6040820190506122d75f8301856122b5565b6122e46020830184611791565b939250505056fea2646970667358221220b90f3e3a9ab649610bccf98eaa3fc2e5ee83e7d601574826c27324d94f6533f364736f6c634300081e0033",
					"opcodes": "PUSH1 0x80 PUSH1 0x40 MSTORE PUSH1 0x40 MLOAD DUP1 PUSH1 0x60 ADD PUSH1 0x40 MSTORE DUP1 PUSH7 0x2386F26FC10000 PUSH8 0xFFFFFFFFFFFFFFFF AND DUP2 MSTORE PUSH1 0x20 ADD PUSH7 0xB1A2BC2EC50000 PUSH8 0xFFFFFFFFFFFFFFFF AND DUP2 MSTORE PUSH1 0x20 ADD PUSH8 0x16345785D8A0000 PUSH8 0xFFFFFFFFFFFFFFFF AND DUP2 MSTORE POP PUSH1 0x1 SWAP1 PUSH1 0x3 PUSH1 0x61 SWAP3 SWAP2 SWAP1 PUSH1 0x7D JUMP JUMPDEST POP PUSH1 0x1 PUSH1 0x4 SSTORE CALLVALUE DUP1 ISZERO PUSH1 0x71 JUMPI PUSH0 PUSH0 REVERT JUMPDEST POP PUSH1 0x1 PUSH0 DUP2 SWAP1 SSTORE POP PUSH1 0xDD JUMP JUMPDEST DUP3 PUSH1 0x3 DUP2 ADD SWAP3 DUP3 ISZERO PUSH1 0xB5 JUMPI SWAP2 PUSH1 0x20 MUL DUP3 ADD JUMPDEST DUP3 DUP2 GT ISZERO PUSH1 0xB4 JUMPI DUP3 MLOAD DUP3 SWAP1 PUSH8 0xFFFFFFFFFFFFFFFF AND SWAP1 SSTORE SWAP2 PUSH1 0x20 ADD SWAP2 SWAP1 PUSH1 0x1 ADD SWAP1 PUSH1 0x8F JUMP JUMPDEST JUMPDEST POP SWAP1 POP PUSH1 0xC0 SWAP2 SWAP1 PUSH1 0xC4 JUMP JUMPDEST POP SWAP1 JUMP JUMPDEST JUMPDEST DUP1 DUP3 GT ISZERO PUSH1 0xD9 JUMPI PUSH0 DUP2 PUSH0 SWAP1 SSTORE POP PUSH1 0x1 ADD PUSH1 0xC5 JUMP JUMPDEST POP SWAP1 JUMP JUMPDEST PUSH2 0x2321 DUP1 PUSH2 0xEA PUSH0 CODECOPY PUSH0 RETURN INVALID PUSH1 0x80 PUSH1 0x40 MSTORE PUSH1 0x4 CALLDATASIZE LT PUSH2 0x7E JUMPI PUSH0 CALLDATALOAD PUSH1 0xE0 SHR DUP1 PUSH4 0x86E773F1 GT PUSH2 0x4D JUMPI DUP1 PUSH4 0x86E773F1 EQ PUSH2 0x180 JUMPI DUP1 PUSH4 0xA60AC828 EQ PUSH2 0x1A8 JUMPI DUP1 PUSH4 0xB135BBB0 EQ PUSH2 0x1D2 JUMPI DUP1 PUSH4 0xC89DA923 EQ PUSH2 0x1FC JUMPI PUSH2 0xBE JUMP JUMPDEST DUP1 PUSH4 0x17128792 EQ PUSH2 0xC2 JUMPI DUP1 PUSH4 0x17E931CF EQ PUSH2 0xF2 JUMPI DUP1 PUSH4 0x432CAD1E EQ PUSH2 0x11C JUMPI DUP1 PUSH4 0x7D90611D EQ PUSH2 0x144 JUMPI PUSH2 0xBE JUMP JUMPDEST CALLDATASIZE PUSH2 0xBE JUMPI PUSH1 0x40 MLOAD PUSH32 0x8C379A000000000000000000000000000000000000000000000000000000000 DUP2 MSTORE PUSH1 0x4 ADD PUSH2 0xB5 SWAP1 PUSH2 0x165D JUMP JUMPDEST PUSH1 0x40 MLOAD DUP1 SWAP2 SUB SWAP1 REVERT JUMPDEST PUSH0 PUSH0 REVERT JUMPDEST PUSH2 0xDC PUSH1 0x4 DUP1 CALLDATASIZE SUB DUP2 ADD SWAP1 PUSH2 0xD7 SWAP2 SWAP1 PUSH2 0x1738 JUMP JUMPDEST PUSH2 0x218 JUMP JUMPDEST PUSH1 0x40 MLOAD PUSH2 0xE9 SWAP2 SWAP1 PUSH2 0x17A0 JUMP JUMPDEST PUSH1 0x40 MLOAD DUP1 SWAP2 SUB SWAP1 RETURN JUMPDEST CALLVALUE DUP1 ISZERO PUSH2 0xFD JUMPI PUSH0 PUSH0 REVERT JUMPDEST POP PUSH2 0x106 PUSH2 0x477 JUMP JUMPDEST PUSH1 0x40 MLOAD PUSH2 0x113 SWAP2 SWAP1 PUSH2 0x17A0 JUMP JUMPDEST PUSH1 0x40 MLOAD DUP1 SWAP2 SUB SWAP1 RETURN JUMPDEST CALLVALUE DUP1 ISZERO PUSH2 0x127 JUMPI PUSH0 PUSH0 REVERT JUMPDEST POP PUSH2 0x142 PUSH1 0x4 DUP1 CALLDATASIZE SUB DUP2 ADD SWAP1 PUSH2 0x13D SWAP2 SWAP1 PUSH2 0x1863 JUMP JUMPDEST PUSH2 0x47D JUMP JUMPDEST STOP JUMPDEST CALLVALUE DUP1 ISZERO PUSH2 0x14F JUMPI PUSH0 PUSH0 REVERT JUMPDEST POP PUSH2 0x16A PUSH1 0x4 DUP1 CALLDATASIZE SUB DUP2 ADD SWAP1 PUSH2 0x165 SWAP2 SWAP1 PUSH2 0x18E7 JUMP JUMPDEST PUSH2 0x96A JUMP JUMPDEST PUSH1 0x40 MLOAD PUSH2 0x177 SWAP2 SWAP1 PUSH2 0x17A0 JUMP JUMPDEST PUSH1 0x40 MLOAD DUP1 SWAP2 SUB SWAP1 RETURN JUMPDEST CALLVALUE DUP1 ISZERO PUSH2 0x18B JUMPI PUSH0 PUSH0 REVERT JUMPDEST POP PUSH2 0x1A6 PUSH1 0x4 DUP1 CALLDATASIZE SUB DUP2 ADD SWAP1 PUSH2 0x1A1 SWAP2 SWAP1 PUSH2 0x18E7 JUMP JUMPDEST PUSH2 0x983 JUMP JUMPDEST STOP JUMPDEST CALLVALUE DUP1 ISZERO PUSH2 0x1B3 JUMPI PUSH0 PUSH0 REVERT JUMPDEST POP PUSH2 0x1BC PUSH2 0xC9D JUMP JUMPDEST PUSH1 0x40 MLOAD PUSH2 0x1C9 SWAP2 SWAP1 PUSH2 0x17A0 JUMP JUMPDEST PUSH1 0x40 MLOAD DUP1 SWAP2 SUB SWAP1 RETURN JUMPDEST CALLVALUE DUP1 ISZERO PUSH2 0x1DD JUMPI PUSH0 PUSH0 REVERT JUMPDEST POP PUSH2 0x1E6 PUSH2 0xCA3 JUMP JUMPDEST PUSH1 0x40 MLOAD PUSH2 0x1F3 SWAP2 SWAP1 PUSH2 0x17A0 JUMP JUMPDEST PUSH1 0x40 MLOAD DUP1 SWAP2 SUB SWAP1 RETURN JUMPDEST PUSH2 0x216 PUSH1 0x4 DUP1 CALLDATASIZE SUB DUP2 ADD SWAP1 PUSH2 0x211 SWAP2 SWAP1 PUSH2 0x1912 JUMP JUMPDEST PUSH2 0xCA9 JUMP JUMPDEST STOP JUMPDEST PUSH0 PUSH2 0x221 PUSH2 0xF3B JUMP JUMPDEST PUSH1 0x3 DUP4 PUSH1 0xFF AND LT PUSH2 0x267 JUMPI PUSH1 0x40 MLOAD PUSH32 0x8C379A000000000000000000000000000000000000000000000000000000000 DUP2 MSTORE PUSH1 0x4 ADD PUSH2 0x25E SWAP1 PUSH2 0x199A JUMP JUMPDEST PUSH1 0x40 MLOAD DUP1 SWAP2 SUB SWAP1 REVERT JUMPDEST PUSH0 PUSH1 0x1 DUP5 PUSH1 0xFF AND PUSH1 0x3 DUP2 LT PUSH2 0x27F JUMPI PUSH2 0x27E PUSH2 0x19B8 JUMP JUMPDEST JUMPDEST ADD SLOAD SWAP1 POP DUP1 CALLVALUE EQ PUSH2 0x2C5 JUMPI PUSH1 0x40 MLOAD PUSH32 0x8C379A000000000000000000000000000000000000000000000000000000000 DUP2 MSTORE PUSH1 0x4 ADD PUSH2 0x2BC SWAP1 PUSH2 0x1A2F JUMP JUMPDEST PUSH1 0x40 MLOAD DUP1 SWAP2 SUB SWAP1 REVERT JUMPDEST PUSH1 0x4 PUSH0 DUP2 SLOAD DUP1 SWAP3 SWAP2 SWAP1 PUSH2 0x2D7 SWAP1 PUSH2 0x1A7A JUMP JUMPDEST SWAP2 SWAP1 POP SSTORE SWAP2 POP PUSH0 PUSH1 0x5 PUSH0 DUP5 DUP2 MSTORE PUSH1 0x20 ADD SWAP1 DUP2 MSTORE PUSH1 0x20 ADD PUSH0 KECCAK256 SWAP1 POP CALLER DUP2 PUSH0 ADD PUSH0 PUSH2 0x100 EXP DUP2 SLOAD DUP2 PUSH20 0xFFFFFFFFFFFFFFFFFFFFFFFFFFFFFFFFFFFFFFFF MUL NOT AND SWAP1 DUP4 PUSH20 0xFFFFFFFFFFFFFFFFFFFFFFFFFFFFFFFFFFFFFFFF AND MUL OR SWAP1 SSTORE POP DUP6 DUP2 PUSH1 0x1 ADD PUSH0 PUSH2 0x100 EXP DUP2 SLOAD DUP2 PUSH20 0xFFFFFFFFFFFFFFFFFFFFFFFFFFFFFFFFFFFFFFFF MUL NOT AND SWAP1 DUP4 PUSH20 0xFFFFFFFFFFFFFFFFFFFFFFFFFFFFFFFFFFFFFFFF AND MUL OR SWAP1 SSTORE POP DUP2 DUP2 PUSH1 0x2 ADD DUP2 SWAP1 SSTORE POP PUSH0 DUP2 PUSH1 0x3 ADD PUSH0 PUSH2 0x100 EXP DUP2 SLOAD DUP2 PUSH1 0xFF MUL NOT AND SWAP1 DUP4 PUSH1 0x3 DUP2 GT ISZERO PUSH2 0x3A3 JUMPI PUSH2 0x3A2 PUSH2 0x1AC1 JUMP JUMPDEST JUMPDEST MUL OR SWAP1 SSTORE POP TIMESTAMP DUP2 PUSH1 0x7 ADD DUP2 SWAP1 SSTORE POP DUP4 DUP2 PUSH1 0x4 ADD PUSH0 CALLER PUSH20 0xFFFFFFFFFFFFFFFFFFFFFFFFFFFFFFFFFFFFFFFF AND PUSH20 0xFFFFFFFFFFFFFFFFFFFFFFFFFFFFFFFFFFFFFFFF AND DUP2 MSTORE PUSH1 0x20 ADD SWAP1 DUP2 MSTORE PUSH1 0x20 ADD PUSH0 KECCAK256 SWAP1 PUSH1 0x3 PUSH2 0x3FF SWAP3 SWAP2 SWAP1 PUSH2 0x15A8 JUMP JUMPDEST POP DUP6 PUSH20 0xFFFFFFFFFFFFFFFFFFFFFFFFFFFFFFFFFFFFFFFF AND CALLER PUSH20 0xFFFFFFFFFFFFFFFFFFFFFFFFFFFFFFFFFFFFFFFF AND DUP5 PUSH32 0x6200407C0EA392B8107B21A9BE480ACD41FDA186D04BED28CC7DA2D4B53D56E2 DUP6 PUSH1 0x40 MLOAD PUSH2 0x45E SWAP2 SWAP1 PUSH2 0x17A0 JUMP JUMPDEST PUSH1 0x40 MLOAD DUP1 SWAP2 SUB SWAP1 LOG4 POP POP PUSH2 0x470 PUSH2 0xF88 JUMP JUMPDEST SWAP4 SWAP3 POP POP POP JUMP JUMPDEST PUSH2 0x708 DUP2 JUMP JUMPDEST PUSH2 0x485 PUSH2 0xF3B JUMP JUMPDEST PUSH0 PUSH1 0x5 PUSH0 DUP8 DUP2 MSTORE PUSH1 0x20 ADD SWAP1 DUP2 MSTORE PUSH1 0x20 ADD PUSH0 KECCAK256 SWAP1 POP PUSH1 0x1 PUSH1 0x3 DUP2 GT ISZERO PUSH2 0x4AD JUMPI PUSH2 0x4AC PUSH2 0x1AC1 JUMP JUMPDEST JUMPDEST DUP2 PUSH1 0x3 ADD PUSH0 SWAP1 SLOAD SWAP1 PUSH2 0x100 EXP SWAP1 DIV PUSH1 0xFF AND PUSH1 0x3 DUP2 GT ISZERO PUSH2 0x4D0 JUMPI PUSH2 0x4CF PUSH2 0x1AC1 JUMP JUMPDEST JUMPDEST EQ DUP1 PUSH2 0x510 JUMPI POP PUSH1 0x2 PUSH1 0x3 DUP2 GT ISZERO PUSH2 0x4EB JUMPI PUSH2 0x4EA PUSH2 0x1AC1 JUMP JUMPDEST JUMPDEST DUP2 PUSH1 0x3 ADD PUSH0 SWAP1 SLOAD SWAP1 PUSH2 0x100 EXP SWAP1 DIV PUSH1 0xFF AND PUSH1 0x3 DUP2 GT ISZERO PUSH2 0x50E JUMPI PUSH2 0x50D PUSH2 0x1AC1 JUMP JUMPDEST JUMPDEST EQ JUMPDEST PUSH2 0x54F JUMPI PUSH1 0x40 MLOAD PUSH32 0x8C379A000000000000000000000000000000000000000000000000000000000 DUP2 MSTORE PUSH1 0x4 ADD PUSH2 0x546 SWAP1 PUSH2 0x1B38 JUMP JUMPDEST PUSH1 0x40 MLOAD DUP1 SWAP2 SUB SWAP1 REVERT JUMPDEST DUP1 PUSH1 0x3 ADD PUSH1 0x1 SWAP1 SLOAD SWAP1 PUSH2 0x100 EXP SWAP1 DIV PUSH1 0xFF AND PUSH1 0xFF AND DUP6 PUSH1 0xFF AND EQ PUSH2 0x5A8 JUMPI PUSH1 0x40 MLOAD PUSH32 0x8C379A000000000000000000000000000000000000000000000000000000000 DUP2 MSTORE PUSH1 0x4 ADD PUSH2 0x59F SWAP1 PUSH2 0x1BA0 JUMP JUMPDEST PUSH1 0x40 MLOAD DUP1 SWAP2 SUB SWAP1 REVERT JUMPDEST PUSH1 0x1 PUSH1 0x3 DUP2 GT ISZERO PUSH2 0x5BC JUMPI PUSH2 0x5BB PUSH2 0x1AC1 JUMP JUMPDEST JUMPDEST DUP5 PUSH1 0x3 DUP2 GT ISZERO PUSH2 0x5CF JUMPI PUSH2 0x5CE PUSH2 0x1AC1 JUMP JUMPDEST JUMPDEST LT ISZERO DUP1 ISZERO PUSH2 0x601 JUMPI POP PUSH1 0x3 DUP1 DUP2 GT ISZERO PUSH2 0x5EB JUMPI PUSH2 0x5EA PUSH2 0x1AC1 JUMP JUMPDEST JUMPDEST DUP5 PUSH1 0x3 DUP2 GT ISZERO PUSH2 0x5FE JUMPI PUSH2 0x5FD PUSH2 0x1AC1 JUMP JUMPDEST JUMPDEST GT ISZERO JUMPDEST PUSH2 0x640 JUMPI PUSH1 0x40 MLOAD PUSH32 0x8C379A000000000000000000000000000000000000000000000000000000000 DUP2 MSTORE PUSH1 0x4 ADD PUSH2 0x637 SWAP1 PUSH2 0x1C08 JUMP JUMPDEST PUSH1 0x40 MLOAD DUP1 SWAP2 SUB SWAP1 REVERT JUMPDEST PUSH0 DUP5 DUP5 DUP5 PUSH1 0x40 MLOAD PUSH1 0x20 ADD PUSH2 0x656 SWAP4 SWAP3 SWAP2 SWAP1 PUSH2 0x1CCD JUMP JUMPDEST PUSH1 0x40 MLOAD PUSH1 0x20 DUP2 DUP4 SUB SUB DUP2 MSTORE SWAP1 PUSH1 0x40 MSTORE DUP1 MLOAD SWAP1 PUSH1 0x20 ADD KECCAK256 SWAP1 POP DUP2 PUSH1 0x4 ADD PUSH0 CALLER PUSH20 0xFFFFFFFFFFFFFFFFFFFFFFFFFFFFFFFFFFFFFFFF AND PUSH20 0xFFFFFFFFFFFFFFFFFFFFFFFFFFFFFFFFFFFFFFFF AND DUP2 MSTORE PUSH1 0x20 ADD SWAP1 DUP2 MSTORE PUSH1 0x20 ADD PUSH0 KECCAK256 DUP7 PUSH1 0xFF AND PUSH1 0x3 DUP2 LT PUSH2 0x6C2 JUMPI PUSH2 0x6C1 PUSH2 0x19B8 JUMP JUMPDEST JUMPDEST ADD SLOAD DUP2 EQ PUSH2 0x705 JUMPI PUSH1 0x40 MLOAD PUSH32 0x8C379A000000000000000000000000000000000000000000000000000000000 DUP2 MSTORE PUSH1 0x4 ADD PUSH2 0x6FC SWAP1 PUSH2 0x1D40 JUMP JUMPDEST PUSH1 0x40 MLOAD DUP1 SWAP2 SUB SWAP1 REVERT JUMPDEST DUP5 DUP3 PUSH1 0x5 ADD PUSH0 CALLER PUSH20 0xFFFFFFFFFFFFFFFFFFFFFFFFFFFFFFFFFFFFFFFF AND PUSH20 0xFFFFFFFFFFFFFFFFFFFFFFFFFFFFFFFFFFFFFFFF AND DUP2 MSTORE PUSH1 0x20 ADD SWAP1 DUP2 MSTORE PUSH1 0x20 ADD PUSH0 KECCAK256 DUP8 PUSH1 0xFF AND PUSH1 0x3 DUP2 LT PUSH2 0x75A JUMPI PUSH2 0x759 PUSH2 0x19B8 JUMP JUMPDEST JUMPDEST PUSH1 0x20 SWAP2 DUP3 DUP3 DIV ADD SWAP2 SWAP1 MOD PUSH2 0x100 EXP DUP2 SLOAD DUP2 PUSH1 0xFF MUL NOT AND SWAP1 DUP4 PUSH1 0x3 DUP2 GT ISZERO PUSH2 0x784 JUMPI PUSH2 0x783 PUSH2 0x1AC1 JUMP JUMPDEST JUMPDEST MUL OR SWAP1 SSTORE POP CALLER PUSH20 0xFFFFFFFFFFFFFFFFFFFFFFFFFFFFFFFFFFFFFFFF AND DUP8 PUSH32 0xD31E4584470FEF66591718561FC040B8D1367A4138F938559501253D729E3152 DUP9 DUP9 PUSH1 0x40 MLOAD PUSH2 0x7D2 SWAP3 SWAP2 SWAP1 PUSH2 0x1D7C JUMP JUMPDEST PUSH1 0x40 MLOAD DUP1 SWAP2 SUB SWAP1 LOG3 PUSH0 DUP3 PUSH0 ADD PUSH0 SWAP1 SLOAD SWAP1 PUSH2 0x100 EXP SWAP1 DIV PUSH20 0xFFFFFFFFFFFFFFFFFFFFFFFFFFFFFFFFFFFFFFFF AND PUSH20 0xFFFFFFFFFFFFFFFFFFFFFFFFFFFFFFFFFFFFFFFF AND CALLER PUSH20 0xFFFFFFFFFFFFFFFFFFFFFFFFFFFFFFFFFFFFFFFF AND EQ PUSH2 0x858 JUMPI DUP3 PUSH0 ADD PUSH0 SWAP1 SLOAD SWAP1 PUSH2 0x100 EXP SWAP1 DIV PUSH20 0xFFFFFFFFFFFFFFFFFFFFFFFFFFFFFFFFFFFFFFFF AND PUSH2 0x87D JUMP JUMPDEST DUP3 PUSH1 0x1 ADD PUSH0 SWAP1 SLOAD SWAP1 PUSH2 0x100 EXP SWAP1 DIV PUSH20 0xFFFFFFFFFFFFFFFFFFFFFFFFFFFFFFFFFFFFFFFF AND JUMPDEST SWAP1 POP PUSH0 PUSH1 0x3 DUP2 GT ISZERO PUSH2 0x892 JUMPI PUSH2 0x891 PUSH2 0x1AC1 JUMP JUMPDEST JUMPDEST DUP4 PUSH1 0x5 ADD PUSH0 DUP4 PUSH20 0xFFFFFFFFFFFFFFFFFFFFFFFFFFFFFFFFFFFFFFFF AND PUSH20 0xFFFFFFFFFFFFFFFFFFFFFFFFFFFFFFFFFFFFFFFF AND DUP2 MSTORE PUSH1 0x20 ADD SWAP1 DUP2 MSTORE PUSH1 0x20 ADD PUSH0 KECCAK256 DUP9 PUSH1 0xFF AND PUSH1 0x3 DUP2 LT PUSH2 0x8E6 JUMPI PUSH2 0x8E5 PUSH2 0x19B8 JUMP JUMPDEST JUMPDEST PUSH1 0x20 SWAP2 DUP3 DUP3 DIV ADD SWAP2 SWAP1 MOD SWAP1 SLOAD SWAP1 PUSH2 0x100 EXP SWAP1 DIV PUSH1 0xFF AND PUSH1 0x3 DUP2 GT ISZERO PUSH2 0x90E JUMPI PUSH2 0x90D PUSH2 0x1AC1 JUMP JUMPDEST JUMPDEST EQ PUSH2 0x922 JUMPI PUSH2 0x91D DUP4 DUP9 PUSH2 0xF91 JUMP JUMPDEST PUSH2 0x958 JUMP JUMPDEST PUSH1 0x2 DUP4 PUSH1 0x3 ADD PUSH0 PUSH2 0x100 EXP DUP2 SLOAD DUP2 PUSH1 0xFF MUL NOT AND SWAP1 DUP4 PUSH1 0x3 DUP2 GT ISZERO PUSH2 0x949 JUMPI PUSH2 0x948 PUSH2 0x1AC1 JUMP JUMPDEST JUMPDEST MUL OR SWAP1 SSTORE POP TIMESTAMP DUP4 PUSH1 0x7 ADD DUP2 SWAP1 SSTORE POP JUMPDEST POP POP POP PUSH2 0x963 PUSH2 0xF88 JUMP JUMPDEST POP POP POP POP POP JUMP JUMPDEST PUSH1 0x1 DUP2 PUSH1 0x3 DUP2 LT PUSH2 0x979 JUMPI PUSH0 DUP1 REVERT JUMPDEST ADD PUSH0 SWAP2 POP SWAP1 POP SLOAD DUP2 JUMP JUMPDEST PUSH2 0x98B PUSH2 0xF3B JUMP JUMPDEST PUSH0 PUSH1 0x5 PUSH0 DUP4 DUP2 MSTORE PUSH1 0x20 ADD SWAP1 DUP2 MSTORE PUSH1 0x20 ADD PUSH0 KECCAK256 SWAP1 POP PUSH1 0x3 DUP1 DUP2 GT ISZERO PUSH2 0x9B2 JUMPI PUSH2 0x9B1 PUSH2 0x1AC1 JUMP JUMPDEST JUMPDEST DUP2 PUSH1 0x3 ADD PUSH0 SWAP1 SLOAD SWAP1 PUSH2 0x100 EXP SWAP1 DIV PUSH1 0xFF AND PUSH1 0x3 DUP2 GT ISZERO PUSH2 0x9D5 JUMPI PUSH2 0x9D4 PUSH2 0x1AC1 JUMP JUMPDEST JUMPDEST SUB PUSH2 0xA15 JUMPI PUSH1 0x40 MLOAD PUSH32 0x8C379A000000000000000000000000000000000000000000000000000000000 DUP2 MSTORE PUSH1 0x4 ADD PUSH2 0xA0C SWAP1 PUSH2 0x1DED JUMP JUMPDEST PUSH1 0x40 MLOAD DUP1 SWAP2 SUB SWAP1 REVERT JUMPDEST PUSH0 PUSH0 PUSH1 0x3 DUP2 GT ISZERO PUSH2 0xA29 JUMPI PUSH2 0xA28 PUSH2 0x1AC1 JUMP JUMPDEST JUMPDEST DUP3 PUSH1 0x3 ADD PUSH0 SWAP1 SLOAD SWAP1 PUSH2 0x100 EXP SWAP1 DIV PUSH1 0xFF AND PUSH1 0x3 DUP2 GT ISZERO PUSH2 0xA4C JUMPI PUSH2 0xA4B PUSH2 0x1AC1 JUMP JUMPDEST JUMPDEST EQ DUP1 ISZERO PUSH2 0xA69 JUMPI POP PUSH2 0x708 DUP3 PUSH1 0x7 ADD SLOAD PUSH2 0xA66 SWAP2 SWAP1 PUSH2 0x1E0B JUMP JUMPDEST TIMESTAMP GT JUMPDEST DUP1 PUSH2 0xAC4 JUMPI POP PUSH1 0x2 PUSH1 0x3 DUP2 GT ISZERO PUSH2 0xA83 JUMPI PUSH2 0xA82 PUSH2 0x1AC1 JUMP JUMPDEST JUMPDEST DUP3 PUSH1 0x3 ADD PUSH0 SWAP1 SLOAD SWAP1 PUSH2 0x100 EXP SWAP1 DIV PUSH1 0xFF AND PUSH1 0x3 DUP2 GT ISZERO PUSH2 0xAA6 JUMPI PUSH2 0xAA5 PUSH2 0x1AC1 JUMP JUMPDEST JUMPDEST EQ DUP1 ISZERO PUSH2 0xAC3 JUMPI POP PUSH2 0x708 DUP3 PUSH1 0x7 ADD SLOAD PUSH2 0xAC0 SWAP2 SWAP1 PUSH2 0x1E0B JUMP JUMPDEST TIMESTAMP GT JUMPDEST JUMPDEST SWAP1 POP DUP1 PUSH2 0xB06 JUMPI PUSH1 0x40 MLOAD PUSH32 0x8C379A000000000000000000000000000000000000000000000000000000000 DUP2 MSTORE PUSH1 0x4 ADD PUSH2 0xAFD SWAP1 PUSH2 0x1E88 JUMP JUMPDEST PUSH1 0x40 MLOAD DUP1 SWAP2 SUB SWAP1 REVERT JUMPDEST PUSH0 PUSH0 PUSH1 0x3 DUP2 GT ISZERO PUSH2 0xB1A JUMPI PUSH2 0xB19 PUSH2 0x1AC1 JUMP JUMPDEST JUMPDEST DUP4 PUSH1 0x3 ADD PUSH0 SWAP1 SLOAD SWAP1 PUSH2 0x100 EXP SWAP1 DIV PUSH1 0xFF AND PUSH1 0x3 DUP2 GT ISZERO PUSH2 0xB3D JUMPI PUSH2 0xB3C PUSH2 0x1AC1 JUMP JUMPDEST JUMPDEST SUB PUSH2 0xB6C JUMPI DUP3 PUSH0 ADD PUSH0 SWAP1 SLOAD SWAP1 PUSH2 0x100 EXP SWAP1 DIV PUSH20 0xFFFFFFFFFFFFFFFFFFFFFFFFFFFFFFFFFFFFFFFF AND SWAP1 POP PUSH2 0xC85 JUMP JUMPDEST PUSH0 PUSH1 0x3 DUP2 GT ISZERO PUSH2 0xB7F JUMPI PUSH2 0xB7E PUSH2 0x1AC1 JUMP JUMPDEST JUMPDEST DUP4 PUSH1 0x5 ADD PUSH0 DUP6 PUSH0 ADD PUSH0 SWAP1 SLOAD SWAP1 PUSH2 0x100 EXP SWAP1 DIV PUSH20 0xFFFFFFFFFFFFFFFFFFFFFFFFFFFFFFFFFFFFFFFF AND PUSH20 0xFFFFFFFFFFFFFFFFFFFFFFFFFFFFFFFFFFFFFFFF AND PUSH20 0xFFFFFFFFFFFFFFFFFFFFFFFFFFFFFFFFFFFFFFFF AND DUP2 MSTORE PUSH1 0x20 ADD SWAP1 DUP2 MSTORE PUSH1 0x20 ADD PUSH0 KECCAK256 DUP5 PUSH1 0x3 ADD PUSH1 0x1 SWAP1 SLOAD SWAP1 PUSH2 0x100 EXP SWAP1 DIV PUSH1 0xFF AND PUSH1 0xFF AND PUSH1 0x3 DUP2 LT PUSH2 0xC06 JUMPI PUSH2 0xC05 PUSH2 0x19B8 JUMP JUMPDEST JUMPDEST PUSH1 0x20 SWAP2 DUP3 DUP3 DIV ADD SWAP2 SWAP1 MOD SWAP1 SLOAD SWAP1 PUSH2 0x100 EXP SWAP1 DIV PUSH1 0xFF AND PUSH1 0x3 DUP2 GT ISZERO PUSH2 0xC2E JUMPI PUSH2 0xC2D PUSH2 0x1AC1 JUMP JUMPDEST JUMPDEST EQ PUSH2 0xC5D JUMPI DUP3 PUSH0 ADD PUSH0 SWAP1 SLOAD SWAP1 PUSH2 0x100 EXP SWAP1 DIV PUSH20 0xFFFFFFFFFFFFFFFFFFFFFFFFFFFFFFFFFFFFFFFF AND SWAP1 POP PUSH2 0xC84 JUMP JUMPDEST DUP3 PUSH1 0x1 ADD PUSH0 SWAP1 SLOAD SWAP1 PUSH2 0x100 EXP SWAP1 DIV PUSH20 0xFFFFFFFFFFFFFFFFFFFFFFFFFFFFFFFFFFFFFFFF AND SWAP1 POP JUMPDEST JUMPDEST PUSH2 0xC8F DUP4 DUP3 PUSH2 0x1338 JUMP JUMPDEST POP POP POP PUSH2 0xC9A PUSH2 0xF88 JUMP JUMPDEST POP JUMP JUMPDEST PUSH2 0x708 DUP2 JUMP JUMPDEST PUSH1 0x4 SLOAD DUP2 JUMP JUMPDEST PUSH2 0xCB1 PUSH2 0xF3B JUMP JUMPDEST PUSH0 PUSH1 0x5 PUSH0 DUP5 DUP2 MSTORE PUSH1 0x20 ADD SWAP1 DUP2 MSTORE PUSH1 0x20 ADD PUSH0 KECCAK256 SWAP1 POP PUSH0 PUSH1 0x3 DUP2 GT ISZERO PUSH2 0xCD8 JUMPI PUSH2 0xCD7 PUSH2 0x1AC1 JUMP JUMPDEST JUMPDEST DUP2 PUSH1 0x3 ADD PUSH0 SWAP1 SLOAD SWAP1 PUSH2 0x100 EXP SWAP1 DIV PUSH1 0xFF AND PUSH1 0x3 DUP2 GT ISZERO PUSH2 0xCFB JUMPI PUSH2 0xCFA PUSH2 0x1AC1 JUMP JUMPDEST JUMPDEST EQ PUSH2 0xD3B JUMPI PUSH1 0x40 MLOAD PUSH32 0x8C379A000000000000000000000000000000000000000000000000000000000 DUP2 MSTORE PUSH1 0x4 ADD PUSH2 0xD32 SWAP1 PUSH2 0x1EF0 JUMP JUMPDEST PUSH1 0x40 MLOAD DUP1 SWAP2 SUB SWAP1 REVERT JUMPDEST DUP1 PUSH1 0x1 ADD PUSH0 SWAP1 SLOAD SWAP1 PUSH2 0x100 EXP SWAP1 DIV PUSH20 0xFFFFFFFFFFFFFFFFFFFFFFFFFFFFFFFFFFFFFFFF AND PUSH20 0xFFFFFFFFFFFFFFFFFFFFFFFFFFFFFFFFFFFFFFFF AND CALLER PUSH20 0xFFFFFFFFFFFFFFFFFFFFFFFFFFFFFFFFFFFFFFFF AND EQ PUSH2 0xDCC JUMPI PUSH1 0x40 MLOAD PUSH32 0x8C379A000000000000000000000000000000000000000000000000000000000 DUP2 MSTORE PUSH1 0x4 ADD PUSH2 0xDC3 SWAP1 PUSH2 0x1F58 JUMP JUMPDEST PUSH1 0x40 MLOAD DUP1 SWAP2 SUB SWAP1 REVERT JUMPDEST DUP1 PUSH1 0x2 ADD SLOAD CALLVALUE EQ PUSH2 0xE12 JUMPI PUSH1 0x40 MLOAD PUSH32 0x8C379A000000000000000000000000000000000000000000000000000000000 DUP2 MSTORE PUSH1 0x4 ADD PUSH2 0xE09 SWAP1 PUSH2 0x1A2F JUMP JUMPDEST PUSH1 0x40 MLOAD DUP1 SWAP2 SUB SWAP1 REVERT JUMPDEST PUSH2 0x708 DUP2 PUSH1 0x7 ADD SLOAD PUSH2 0xE24 SWAP2 SWAP1 PUSH2 0x1E0B JUMP JUMPDEST TIMESTAMP GT ISZERO PUSH2 0xE66 JUMPI PUSH1 0x40 MLOAD PUSH32 0x8C379A000000000000000000000000000000000000000000000000000000000 DUP2 MSTORE PUSH1 0x4 ADD PUSH2 0xE5D SWAP1 PUSH2 0x1FC0 JUMP JUMPDEST PUSH1 0x40 MLOAD DUP1 SWAP2 SUB SWAP1 REVERT JUMPDEST DUP2 DUP2 PUSH1 0x4 ADD PUSH0 CALLER PUSH20 0xFFFFFFFFFFFFFFFFFFFFFFFFFFFFFFFFFFFFFFFF AND PUSH20 0xFFFFFFFFFFFFFFFFFFFFFFFFFFFFFFFFFFFFFFFF AND DUP2 MSTORE PUSH1 0x20 ADD SWAP1 DUP2 MSTORE PUSH1 0x20 ADD PUSH0 KECCAK256 SWAP1 PUSH1 0x3 PUSH2 0xEB4 SWAP3 SWAP2 SWAP1 PUSH2 0x15A8 JUMP JUMPDEST POP PUSH1 0x1 DUP2 PUSH1 0x3 ADD PUSH0 PUSH2 0x100 EXP DUP2 SLOAD DUP2 PUSH1 0xFF MUL NOT AND SWAP1 DUP4 PUSH1 0x3 DUP2 GT ISZERO PUSH2 0xEDC JUMPI PUSH2 0xEDB PUSH2 0x1AC1 JUMP JUMPDEST JUMPDEST MUL OR SWAP1 SSTORE POP TIMESTAMP DUP2 PUSH1 0x7 ADD DUP2 SWAP1 SSTORE POP CALLER PUSH20 0xFFFFFFFFFFFFFFFFFFFFFFFFFFFFFFFFFFFFFFFF AND DUP4 PUSH32 0x45C4F9CBAFE186141862608C493F28B823FDE4C2142BEDC3F5169961A73FDD22 PUSH1 0x40 MLOAD PUSH1 0x40 MLOAD DUP1 SWAP2 SUB SWAP1 LOG3 POP PUSH2 0xF37 PUSH2 0xF88 JUMP JUMPDEST POP POP JUMP JUMPDEST PUSH1 0x2 PUSH0 SLOAD SUB PUSH2 0xF7F JUMPI PUSH1 0x40 MLOAD PUSH32 0x8C379A000000000000000000000000000000000000000000000000000000000 DUP2 MSTORE PUSH1 0x4 ADD PUSH2 0xF76 SWAP1 PUSH2 0x2028 JUMP JUMPDEST PUSH1 0x40 MLOAD DUP1 SWAP2 SUB SWAP1 REVERT JUMPDEST PUSH1 0x2 PUSH0 DUP2 SWAP1 SSTORE POP JUMP JUMPDEST PUSH1 0x1 PUSH0 DUP2 SWAP1 SSTORE POP JUMP JUMPDEST PUSH0 DUP3 PUSH1 0x5 ADD PUSH0 DUP5 PUSH0 ADD PUSH0 SWAP1 SLOAD SWAP1 PUSH2 0x100 EXP SWAP1 DIV PUSH20 0xFFFFFFFFFFFFFFFFFFFFFFFFFFFFFFFFFFFFFFFF AND PUSH20 0xFFFFFFFFFFFFFFFFFFFFFFFFFFFFFFFFFFFFFFFF AND PUSH20 0xFFFFFFFFFFFFFFFFFFFFFFFFFFFFFFFFFFFFFFFF AND DUP2 MSTORE PUSH1 0x20 ADD SWAP1 DUP2 MSTORE PUSH1 0x20 ADD PUSH0 KECCAK256 DUP3 PUSH1 0xFF AND PUSH1 0x3 DUP2 LT PUSH2 0x1008 JUMPI PUSH2 0x1007 PUSH2 0x19B8 JUMP JUMPDEST JUMPDEST PUSH1 0x20 SWAP2 DUP3 DUP3 DIV ADD SWAP2 SWAP1 MOD SWAP1 SLOAD SWAP1 PUSH2 0x100 EXP SWAP1 DIV PUSH1 0xFF AND SWAP1 POP PUSH0 DUP4 PUSH1 0x5 ADD PUSH0 DUP6 PUSH1 0x1 ADD PUSH0 SWAP1 SLOAD SWAP1 PUSH2 0x100 EXP SWAP1 DIV PUSH20 0xFFFFFFFFFFFFFFFFFFFFFFFFFFFFFFFFFFFFFFFF AND PUSH20 0xFFFFFFFFFFFFFFFFFFFFFFFFFFFFFFFFFFFFFFFF AND PUSH20 0xFFFFFFFFFFFFFFFFFFFFFFFFFFFFFFFFFFFFFFFF AND DUP2 MSTORE PUSH1 0x20 ADD SWAP1 DUP2 MSTORE PUSH1 0x20 ADD PUSH0 KECCAK256 DUP4 PUSH1 0xFF AND PUSH1 0x3 DUP2 LT PUSH2 0x1098 JUMPI PUSH2 0x1097 PUSH2 0x19B8 JUMP JUMPDEST JUMPDEST PUSH1 0x20 SWAP2 DUP3 DUP3 DIV ADD SWAP2 SWAP1 MOD SWAP1 SLOAD SWAP1 PUSH2 0x100 EXP SWAP1 DIV PUSH1 0xFF AND SWAP1 POP DUP1 PUSH1 0x3 DUP2 GT ISZERO PUSH2 0x10C3 JUMPI PUSH2 0x10C2 PUSH2 0x1AC1 JUMP JUMPDEST JUMPDEST DUP3 PUSH1 0x3 DUP2 GT ISZERO PUSH2 0x10D6 JUMPI PUSH2 0x10D5 PUSH2 0x1AC1 JUMP JUMPDEST JUMPDEST SUB ISZERO PUSH2 0x119F JUMPI DUP1 PUSH1 0x3 DUP2 GT ISZERO PUSH2 0x10EF JUMPI PUSH2 0x10EE PUSH2 0x1AC1 JUMP JUMPDEST JUMPDEST PUSH1 0xFF AND PUSH1 0x3 PUSH1 0x1 DUP5 PUSH1 0x3 DUP2 GT ISZERO PUSH2 0x1109 JUMPI PUSH2 0x1108 PUSH2 0x1AC1 JUMP JUMPDEST JUMPDEST PUSH2 0x1113 SWAP2 SWAP1 PUSH2 0x2046 JUMP JUMPDEST PUSH2 0x111D SWAP2 SWAP1 PUSH2 0x20A7 JUMP JUMPDEST PUSH1 0xFF AND SUB PUSH2 0x1164 JUMPI DUP4 PUSH1 0x6 ADD PUSH1 0x1 DUP2 DUP2 SWAP1 SLOAD SWAP1 PUSH2 0x100 EXP SWAP1 DIV PUSH1 0xFF AND DUP1 SWAP3 SWAP2 SWAP1 PUSH2 0x1146 SWAP1 PUSH2 0x20D7 JUMP JUMPDEST SWAP2 SWAP1 PUSH2 0x100 EXP DUP2 SLOAD DUP2 PUSH1 0xFF MUL NOT AND SWAP1 DUP4 PUSH1 0xFF AND MUL OR SWAP1 SSTORE POP POP PUSH2 0x119E JUMP JUMPDEST DUP4 PUSH1 0x6 ADD PUSH0 DUP2 DUP2 SWAP1 SLOAD SWAP1 PUSH2 0x100 EXP SWAP1 DIV PUSH1 0xFF AND DUP1 SWAP3 SWAP2 SWAP1 PUSH2 0x1184 SWAP1 PUSH2 0x20D7 JUMP JUMPDEST SWAP2 SWAP1 PUSH2 0x100 EXP DUP2 SLOAD DUP2 PUSH1 0xFF MUL NOT AND SWAP1 DUP4 PUSH1 0xFF AND MUL OR SWAP1 SSTORE POP POP JUMPDEST JUMPDEST DUP4 PUSH1 0x3 ADD PUSH1 0x1 DUP2 DUP2 SWAP1 SLOAD SWAP1 PUSH2 0x100 EXP SWAP1 DIV PUSH1 0xFF AND DUP1 SWAP3 SWAP2 SWAP1 PUSH2 0x11C0 SWAP1 PUSH2 0x20D7 JUMP JUMPDEST SWAP2 SWAP1 PUSH2 0x100 EXP DUP2 SLOAD DUP2 PUSH1 0xFF MUL NOT AND SWAP1 DUP4 PUSH1 0xFF AND MUL OR SWAP1 SSTORE POP POP PUSH1 0x2 DUP5 PUSH1 0x6 ADD PUSH0 SWAP1 SLOAD SWAP1 PUSH2 0x100 EXP SWAP1 DIV PUSH1 0xFF AND PUSH1 0xFF AND EQ DUP1 PUSH2 0x120F JUMPI POP PUSH1 0x2 DUP5 PUSH1 0x6 ADD PUSH1 0x1 SWAP1 SLOAD SWAP1 PUSH2 0x100 EXP SWAP1 DIV PUSH1 0xFF AND PUSH1 0xFF AND EQ JUMPDEST DUP1 PUSH2 0x122E JUMPI POP PUSH1 0x3 DUP5 PUSH1 0x3 ADD PUSH1 0x1 SWAP1 SLOAD SWAP1 PUSH2 0x100 EXP SWAP1 DIV PUSH1 0xFF AND PUSH1 0xFF AND EQ JUMPDEST ISZERO PUSH2 0x12FC JUMPI PUSH0 DUP5 PUSH1 0x6 ADD PUSH1 0x1 SWAP1 SLOAD SWAP1 PUSH2 0x100 EXP SWAP1 DIV PUSH1 0xFF AND PUSH1 0xFF AND DUP6 PUSH1 0x6 ADD PUSH0 SWAP1 SLOAD SWAP1 PUSH2 0x100 EXP SWAP1 DIV PUSH1 0xFF AND PUSH1 0xFF AND GT ISZERO PUSH2 0x128D JUMPI DUP5 PUSH0 ADD PUSH0 SWAP1 SLOAD SWAP1 PUSH2 0x100 EXP SWAP1 DIV PUSH20 0xFFFFFFFFFFFFFFFFFFFFFFFFFFFFFFFFFFFFFFFF AND SWAP1 POP PUSH2 0x12EC JUMP JUMPDEST DUP5 PUSH1 0x6 ADD PUSH0 SWAP1 SLOAD SWAP1 PUSH2 0x100 EXP SWAP1 DIV PUSH1 0xFF AND PUSH1 0xFF AND DUP6 PUSH1 0x6 ADD PUSH1 0x1 SWAP1 SLOAD SWAP1 PUSH2 0x100 EXP SWAP1 DIV PUSH1 0xFF AND PUSH1 0xFF AND GT ISZERO PUSH2 0x12E7 JUMPI DUP5 PUSH1 0x1 ADD PUSH0 SWAP1 SLOAD SWAP1 PUSH2 0x100 EXP SWAP1 DIV PUSH20 0xFFFFFFFFFFFFFFFFFFFFFFFFFFFFFFFFFFFFFFFF AND SWAP1 POP PUSH2 0x12EB JUMP JUMPDEST PUSH0 SWAP1 POP JUMPDEST JUMPDEST PUSH2 0x12F6 DUP6 DUP3 PUSH2 0x1338 JUMP JUMPDEST POP PUSH2 0x1332 JUMP JUMPDEST PUSH1 0x1 DUP5 PUSH1 0x3 ADD PUSH0 PUSH2 0x100 EXP DUP2 SLOAD DUP2 PUSH1 0xFF MUL NOT AND SWAP1 DUP4 PUSH1 0x3 DUP2 GT ISZERO PUSH2 0x1323 JUMPI PUSH2 0x1322 PUSH2 0x1AC1 JUMP JUMPDEST JUMPDEST MUL OR SWAP1 SSTORE POP TIMESTAMP DUP5 PUSH1 0x7 ADD DUP2 SWAP1 SSTORE POP JUMPDEST POP POP POP POP JUMP JUMPDEST PUSH1 0x3 DUP3 PUSH1 0x3 ADD PUSH0 PUSH2 0x100 EXP DUP2 SLOAD DUP2 PUSH1 0xFF MUL NOT AND SWAP1 DUP4 PUSH1 0x3 DUP2 GT ISZERO PUSH2 0x135F JUMPI PUSH2 0x135E PUSH2 0x1AC1 JUMP JUMPDEST JUMPDEST MUL OR SWAP1 SSTORE POP PUSH0 PUSH1 0x2 DUP4 PUSH1 0x2 ADD SLOAD PUSH2 0x1376 SWAP2 SWAP1 PUSH2 0x20FF JUMP JUMPDEST SWAP1 POP PUSH0 PUSH20 0xFFFFFFFFFFFFFFFFFFFFFFFFFFFFFFFFFFFFFFFF AND DUP3 PUSH20 0xFFFFFFFFFFFFFFFFFFFFFFFFFFFFFFFFFFFFFFFF AND SUB PUSH2 0x14BF JUMPI DUP3 PUSH0 ADD PUSH0 SWAP1 SLOAD SWAP1 PUSH2 0x100 EXP SWAP1 DIV PUSH20 0xFFFFFFFFFFFFFFFFFFFFFFFFFFFFFFFFFFFFFFFF AND PUSH20 0xFFFFFFFFFFFFFFFFFFFFFFFFFFFFFFFFFFFFFFFF AND PUSH2 0x8FC DUP5 PUSH1 0x2 ADD SLOAD SWAP1 DUP2 ISZERO MUL SWAP1 PUSH1 0x40 MLOAD PUSH0 PUSH1 0x40 MLOAD DUP1 DUP4 SUB DUP2 DUP6 DUP9 DUP9 CALL SWAP4 POP POP POP POP ISZERO DUP1 ISZERO PUSH2 0x1414 JUMPI RETURNDATASIZE PUSH0 PUSH0 RETURNDATACOPY RETURNDATASIZE PUSH0 REVERT JUMPDEST POP DUP3 PUSH1 0x1 ADD PUSH0 SWAP1 SLOAD SWAP1 PUSH2 0x100 EXP SWAP1 DIV PUSH20 0xFFFFFFFFFFFFFFFFFFFFFFFFFFFFFFFFFFFFFFFF AND PUSH20 0xFFFFFFFFFFFFFFFFFFFFFFFFFFFFFFFFFFFFFFFF AND PUSH2 0x8FC DUP5 PUSH1 0x2 ADD SLOAD SWAP1 DUP2 ISZERO MUL SWAP1 PUSH1 0x40 MLOAD PUSH0 PUSH1 0x40 MLOAD DUP1 DUP4 SUB DUP2 DUP6 DUP9 DUP9 CALL SWAP4 POP POP POP POP ISZERO DUP1 ISZERO PUSH2 0x147F JUMPI RETURNDATASIZE PUSH0 PUSH0 RETURNDATACOPY RETURNDATASIZE PUSH0 REVERT JUMPDEST POP PUSH0 PUSH32 0xF5D92DF6AE1A0B46D0A0C57C2E1DA0D75D7591D2804AD086CB1E27BA67DE7AAF PUSH0 PUSH0 PUSH1 0x40 MLOAD PUSH2 0x14B2 SWAP3 SWAP2 SWAP1 PUSH2 0x21A2 JUMP JUMPDEST PUSH1 0x40 MLOAD DUP1 SWAP2 SUB SWAP1 LOG2 PUSH2 0x15A3 JUMP JUMPDEST PUSH0 DUP3 PUSH20 0xFFFFFFFFFFFFFFFFFFFFFFFFFFFFFFFFFFFFFFFF AND DUP3 PUSH1 0x40 MLOAD PUSH2 0x14E4 SWAP1 PUSH2 0x21F6 JUMP JUMPDEST PUSH0 PUSH1 0x40 MLOAD DUP1 DUP4 SUB DUP2 DUP6 DUP8 GAS CALL SWAP3 POP POP POP RETURNDATASIZE DUP1 PUSH0 DUP2 EQ PUSH2 0x151E JUMPI PUSH1 0x40 MLOAD SWAP2 POP PUSH1 0x1F NOT PUSH1 0x3F RETURNDATASIZE ADD AND DUP3 ADD PUSH1 0x40 MSTORE RETURNDATASIZE DUP3 MSTORE RETURNDATASIZE PUSH0 PUSH1 0x20 DUP5 ADD RETURNDATACOPY PUSH2 0x1523 JUMP JUMPDEST PUSH1 0x60 SWAP2 POP JUMPDEST POP POP SWAP1 POP DUP1 PUSH2 0x1567 JUMPI PUSH1 0x40 MLOAD PUSH32 0x8C379A000000000000000000000000000000000000000000000000000000000 DUP2 MSTORE PUSH1 0x4 ADD PUSH2 0x155E SWAP1 PUSH2 0x2254 JUMP JUMPDEST PUSH1 0x40 MLOAD DUP1 SWAP2 SUB SWAP1 REVERT JUMPDEST PUSH0 PUSH32 0xF5D92DF6AE1A0B46D0A0C57C2E1DA0D75D7591D2804AD086CB1E27BA67DE7AAF DUP5 DUP5 PUSH1 0x40 MLOAD PUSH2 0x1599 SWAP3 SWAP2 SWAP1 PUSH2 0x22C4 JUMP JUMPDEST PUSH1 0x40 MLOAD DUP1 SWAP2 SUB SWAP1 LOG2 POP JUMPDEST POP POP POP JUMP JUMPDEST DUP3 PUSH1 0x3 DUP2 ADD SWAP3 DUP3 ISZERO PUSH2 0x15D7 JUMPI SWAP2 PUSH1 0x20 MUL DUP3 ADD JUMPDEST DUP3 DUP2 GT ISZERO PUSH2 0x15D6 JUMPI DUP3 CALLDATALOAD DUP3 SSTORE SWAP2 PUSH1 0x20 ADD SWAP2 SWAP1 PUSH1 0x1 ADD SWAP1 PUSH2 0x15BB JUMP JUMPDEST JUMPDEST POP SWAP1 POP PUSH2 0x15E4 SWAP2 SWAP1 PUSH2 0x15E8 JUMP JUMPDEST POP SWAP1 JUMP JUMPDEST JUMPDEST DUP1 DUP3 GT ISZERO PUSH2 0x15FF JUMPI PUSH0 DUP2 PUSH0 SWAP1 SSTORE POP PUSH1 0x1 ADD PUSH2 0x15E9 JUMP JUMPDEST POP SWAP1 JUMP JUMPDEST PUSH0 DUP3 DUP3 MSTORE PUSH1 0x20 DUP3 ADD SWAP1 POP SWAP3 SWAP2 POP POP JUMP JUMPDEST PUSH32 0x53656E6420455448207669612063726561746547616D652F6A6F696E47616D65 PUSH0 DUP3 ADD MSTORE POP JUMP JUMPDEST PUSH0 PUSH2 0x1647 PUSH1 0x20 DUP4 PUSH2 0x1603 JUMP JUMPDEST SWAP2 POP PUSH2 0x1652 DUP3 PUSH2 0x1613 JUMP JUMPDEST PUSH1 0x20 DUP3 ADD SWAP1 POP SWAP2 SWAP1 POP JUMP JUMPDEST PUSH0 PUSH1 0x20 DUP3 ADD SWAP1 POP DUP2 DUP2 SUB PUSH0 DUP4 ADD MSTORE PUSH2 0x1674 DUP2 PUSH2 0x163B JUMP JUMPDEST SWAP1 POP SWAP2 SWAP1 POP JUMP JUMPDEST PUSH0 PUSH0 REVERT JUMPDEST PUSH0 PUSH0 REVERT JUMPDEST PUSH0 PUSH20 0xFFFFFFFFFFFFFFFFFFFFFFFFFFFFFFFFFFFFFFFF DUP3 AND SWAP1 POP SWAP2 SWAP1 POP JUMP JUMPDEST PUSH0 PUSH2 0x16AC DUP3 PUSH2 0x1683 JUMP JUMPDEST SWAP1 POP SWAP2 SWAP1 POP JUMP JUMPDEST PUSH2 0x16BC DUP2 PUSH2 0x16A2 JUMP JUMPDEST DUP2 EQ PUSH2 0x16C6 JUMPI PUSH0 PUSH0 REVERT JUMPDEST POP JUMP JUMPDEST PUSH0 DUP2 CALLDATALOAD SWAP1 POP PUSH2 0x16D7 DUP2 PUSH2 0x16B3 JUMP JUMPDEST SWAP3 SWAP2 POP POP JUMP JUMPDEST PUSH0 PUSH1 0xFF DUP3 AND SWAP1 POP SWAP2 SWAP1 POP JUMP JUMPDEST PUSH2 0x16F2 DUP2 PUSH2 0x16DD JUMP JUMPDEST DUP2 EQ PUSH2 0x16FC JUMPI PUSH0 PUSH0 REVERT JUMPDEST POP JUMP JUMPDEST PUSH0 DUP2 CALLDATALOAD SWAP1 POP PUSH2 0x170D DUP2 PUSH2 0x16E9 JUMP JUMPDEST SWAP3 SWAP2 POP POP JUMP JUMPDEST PUSH0 PUSH0 REVERT JUMPDEST PUSH0 DUP2 SWAP1 POP DUP3 PUSH1 0x20 PUSH1 0x3 MUL DUP3 ADD GT ISZERO PUSH2 0x1732 JUMPI PUSH2 0x1731 PUSH2 0x1713 JUMP JUMPDEST JUMPDEST SWAP3 SWAP2 POP POP JUMP JUMPDEST PUSH0 PUSH0 PUSH0 PUSH1 0xA0 DUP5 DUP7 SUB SLT ISZERO PUSH2 0x174F JUMPI PUSH2 0x174E PUSH2 0x167B JUMP JUMPDEST JUMPDEST PUSH0 PUSH2 0x175C DUP7 DUP3 DUP8 ADD PUSH2 0x16C9 JUMP JUMPDEST SWAP4 POP POP PUSH1 0x20 PUSH2 0x176D DUP7 DUP3 DUP8 ADD PUSH2 0x16FF JUMP JUMPDEST SWAP3 POP POP PUSH1 0x40 PUSH2 0x177E DUP7 DUP3 DUP8 ADD PUSH2 0x1717 JUMP JUMPDEST SWAP2 POP POP SWAP3 POP SWAP3 POP SWAP3 JUMP JUMPDEST PUSH0 DUP2 SWAP1 POP SWAP2 SWAP1 POP JUMP JUMPDEST PUSH2 0x179A DUP2 PUSH2 0x1788 JUMP JUMPDEST DUP3 MSTORE POP POP JUMP JUMPDEST PUSH0 PUSH1 0x20 DUP3 ADD SWAP1 POP PUSH2 0x17B3 PUSH0 DUP4 ADD DUP5 PUSH2 0x1791 JUMP JUMPDEST SWAP3 SWAP2 POP POP JUMP JUMPDEST PUSH2 0x17C2 DUP2 PUSH2 0x1788 JUMP JUMPDEST DUP2 EQ PUSH2 0x17CC JUMPI PUSH0 PUSH0 REVERT JUMPDEST POP JUMP JUMPDEST PUSH0 DUP2 CALLDATALOAD SWAP1 POP PUSH2 0x17DD DUP2 PUSH2 0x17B9 JUMP JUMPDEST SWAP3 SWAP2 POP POP JUMP JUMPDEST PUSH1 0x4 DUP2 LT PUSH2 0x17EF JUMPI PUSH0 PUSH0 REVERT JUMPDEST POP JUMP JUMPDEST PUSH0 DUP2 CALLDATALOAD SWAP1 POP PUSH2 0x1800 DUP2 PUSH2 0x17E3 JUMP JUMPDEST SWAP3 SWAP2 POP POP JUMP JUMPDEST PUSH0 PUSH0 REVERT JUMPDEST PUSH0 PUSH0 REVERT JUMPDEST PUSH0 PUSH0 DUP4 PUSH1 0x1F DUP5 ADD SLT PUSH2 0x1823 JUMPI PUSH2 0x1822 PUSH2 0x1806 JUMP JUMPDEST JUMPDEST DUP3 CALLDATALOAD SWAP1 POP PUSH8 0xFFFFFFFFFFFFFFFF DUP2 GT ISZERO PUSH2 0x1840 JUMPI PUSH2 0x183F PUSH2 0x180A JUMP JUMPDEST JUMPDEST PUSH1 0x20 DUP4 ADD SWAP2 POP DUP4 PUSH1 0x1 DUP3 MUL DUP4 ADD GT ISZERO PUSH2 0x185C JUMPI PUSH2 0x185B PUSH2 0x1713 JUMP JUMPDEST JUMPDEST SWAP3 POP SWAP3 SWAP1 POP JUMP JUMPDEST PUSH0 PUSH0 PUSH0 PUSH0 PUSH0 PUSH1 0x80 DUP7 DUP9 SUB SLT ISZERO PUSH2 0x187C JUMPI PUSH2 0x187B PUSH2 0x167B JUMP JUMPDEST JUMPDEST PUSH0 PUSH2 0x1889 DUP9 DUP3 DUP10 ADD PUSH2 0x17CF JUMP JUMPDEST SWAP6 POP POP PUSH1 0x20 PUSH2 0x189A DUP9 DUP3 DUP10 ADD PUSH2 0x16FF JUMP JUMPDEST SWAP5 POP POP PUSH1 0x40 PUSH2 0x18AB DUP9 DUP3 DUP10 ADD PUSH2 0x17F2 JUMP JUMPDEST SWAP4 POP POP PUSH1 0x60 DUP7 ADD CALLDATALOAD PUSH8 0xFFFFFFFFFFFFFFFF DUP2 GT ISZERO PUSH2 0x18CC JUMPI PUSH2 0x18CB PUSH2 0x167F JUMP JUMPDEST JUMPDEST PUSH2 0x18D8 DUP9 DUP3 DUP10 ADD PUSH2 0x180E JUMP JUMPDEST SWAP3 POP SWAP3 POP POP SWAP3 SWAP6 POP SWAP3 SWAP6 SWAP1 SWAP4 POP JUMP JUMPDEST PUSH0 PUSH1 0x20 DUP3 DUP5 SUB SLT ISZERO PUSH2 0x18FC JUMPI PUSH2 0x18FB PUSH2 0x167B JUMP JUMPDEST JUMPDEST PUSH0 PUSH2 0x1909 DUP5 DUP3 DUP6 ADD PUSH2 0x17CF JUMP JUMPDEST SWAP2 POP POP SWAP3 SWAP2 POP POP JUMP JUMPDEST PUSH0 PUSH0 PUSH1 0x80 DUP4 DUP6 SUB SLT ISZERO PUSH2 0x1928 JUMPI PUSH2 0x1927 PUSH2 0x167B JUMP JUMPDEST JUMPDEST PUSH0 PUSH2 0x1935 DUP6 DUP3 DUP7 ADD PUSH2 0x17CF JUMP JUMPDEST SWAP3 POP POP PUSH1 0x20 PUSH2 0x1946 DUP6 DUP3 DUP7 ADD PUSH2 0x1717 JUMP JUMPDEST SWAP2 POP POP SWAP3 POP SWAP3 SWAP1 POP JUMP JUMPDEST PUSH32 0x626574496E64657820696E76616C696400000000000000000000000000000000 PUSH0 DUP3 ADD MSTORE POP JUMP JUMPDEST PUSH0 PUSH2 0x1984 PUSH1 0x10 DUP4 PUSH2 0x1603 JUMP JUMPDEST SWAP2 POP PUSH2 0x198F DUP3 PUSH2 0x1950 JUMP JUMPDEST PUSH1 0x20 DUP3 ADD SWAP1 POP SWAP2 SWAP1 POP JUMP JUMPDEST PUSH0 PUSH1 0x20 DUP3 ADD SWAP1 POP DUP2 DUP2 SUB PUSH0 DUP4 ADD MSTORE PUSH2 0x19B1 DUP2 PUSH2 0x1978 JUMP JUMPDEST SWAP1 POP SWAP2 SWAP1 POP JUMP JUMPDEST PUSH32 0x4E487B7100000000000000000000000000000000000000000000000000000000 PUSH0 MSTORE PUSH1 0x32 PUSH1 0x4 MSTORE PUSH1 0x24 PUSH0 REVERT JUMPDEST PUSH32 0x696E636F7272656374204554482073656E740000000000000000000000000000 PUSH0 DUP3 ADD MSTORE POP JUMP JUMPDEST PUSH0 PUSH2 0x1A19 PUSH1 0x12 DUP4 PUSH2 0x1603 JUMP JUMPDEST SWAP2 POP PUSH2 0x1A24 DUP3 PUSH2 0x19E5 JUMP JUMPDEST PUSH1 0x20 DUP3 ADD SWAP1 POP SWAP2 SWAP1 POP JUMP JUMPDEST PUSH0 PUSH1 0x20 DUP3 ADD SWAP1 POP DUP2 DUP2 SUB PUSH0 DUP4 ADD MSTORE PUSH2 0x1A46 DUP2 PUSH2 0x1A0D JUMP JUMPDEST SWAP1 POP SWAP2 SWAP1 POP JUMP JUMPDEST PUSH32 0x4E487B7100000000000000000000000000000000000000000000000000000000 PUSH0 MSTORE PUSH1 0x11 PUSH1 0x4 MSTORE PUSH1 0x24 PUSH0 REVERT JUMPDEST PUSH0 PUSH2 0x1A84 DUP3 PUSH2 0x1788 JUMP JUMPDEST SWAP2 POP PUSH32 0xFFFFFFFFFFFFFFFFFFFFFFFFFFFFFFFFFFFFFFFFFFFFFFFFFFFFFFFFFFFFFFFF DUP3 SUB PUSH2 0x1AB6 JUMPI PUSH2 0x1AB5 PUSH2 0x1A4D JUMP JUMPDEST JUMPDEST PUSH1 0x1 DUP3 ADD SWAP1 POP SWAP2 SWAP1 POP JUMP JUMPDEST PUSH32 0x4E487B7100000000000000000000000000000000000000000000000000000000 PUSH0 MSTORE PUSH1 0x21 PUSH1 0x4 MSTORE PUSH1 0x24 PUSH0 REVERT JUMPDEST PUSH32 0x6261642073746167650000000000000000000000000000000000000000000000 PUSH0 DUP3 ADD MSTORE POP JUMP JUMPDEST PUSH0 PUSH2 0x1B22 PUSH1 0x9 DUP4 PUSH2 0x1603 JUMP JUMPDEST SWAP2 POP PUSH2 0x1B2D DUP3 PUSH2 0x1AEE JUMP JUMPDEST PUSH1 0x20 DUP3 ADD SWAP1 POP SWAP2 SWAP1 POP JUMP JUMPDEST PUSH0 PUSH1 0x20 DUP3 ADD SWAP1 POP DUP2 DUP2 SUB PUSH0 DUP4 ADD MSTORE PUSH2 0x1B4F DUP2 PUSH2 0x1B16 JUMP JUMPDEST SWAP1 POP SWAP2 SWAP1 POP JUMP JUMPDEST PUSH32 0x77726F6E6720726F756E64000000000000000000000000000000000000000000 PUSH0 DUP3 ADD MSTORE POP JUMP JUMPDEST PUSH0 PUSH2 0x1B8A PUSH1 0xB DUP4 PUSH2 0x1603 JUMP JUMPDEST SWAP2 POP PUSH2 0x1B95 DUP3 PUSH2 0x1B56 JUMP JUMPDEST PUSH1 0x20 DUP3 ADD SWAP1 POP SWAP2 SWAP1 POP JUMP JUMPDEST PUSH0 PUSH1 0x20 DUP3 ADD SWAP1 POP DUP2 DUP2 SUB PUSH0 DUP4 ADD MSTORE PUSH2 0x1BB7 DUP2 PUSH2 0x1B7E JUMP JUMPDEST SWAP1 POP SWAP2 SWAP1 POP JUMP JUMPDEST PUSH32 0x626164206D6F7665000000000000000000000000000000000000000000000000 PUSH0 DUP3 ADD MSTORE POP JUMP JUMPDEST PUSH0 PUSH2 0x1BF2 PUSH1 0x8 DUP4 PUSH2 0x1603 JUMP JUMPDEST SWAP2 POP PUSH2 0x1BFD DUP3 PUSH2 0x1BBE JUMP JUMPDEST PUSH1 0x20 DUP3 ADD SWAP1 POP SWAP2 SWAP1 POP JUMP JUMPDEST PUSH0 PUSH1 0x20 DUP3 ADD SWAP1 POP DUP2 DUP2 SUB PUSH0 DUP4 ADD MSTORE PUSH2 0x1C1F DUP2 PUSH2 0x1BE6 JUMP JUMPDEST SWAP1 POP SWAP2 SWAP1 POP JUMP JUMPDEST PUSH1 0x4 DUP2 LT PUSH2 0x1C37 JUMPI PUSH2 0x1C36 PUSH2 0x1AC1 JUMP JUMPDEST JUMPDEST POP JUMP JUMPDEST PUSH0 DUP2 SWAP1 POP PUSH2 0x1C47 DUP3 PUSH2 0x1C26 JUMP JUMPDEST SWAP2 SWAP1 POP JUMP JUMPDEST PUSH0 PUSH2 0x1C56 DUP3 PUSH2 0x1C3A JUMP JUMPDEST SWAP1 POP SWAP2 SWAP1 POP JUMP JUMPDEST PUSH0 DUP2 PUSH1 0xF8 SHL SWAP1 POP SWAP2 SWAP1 POP JUMP JUMPDEST PUSH0 PUSH2 0x1C73 DUP3 PUSH2 0x1C5D JUMP JUMPDEST SWAP1 POP SWAP2 SWAP1 POP JUMP JUMPDEST PUSH2 0x1C8B PUSH2 0x1C86 DUP3 PUSH2 0x1C4C JUMP JUMPDEST PUSH2 0x1C69 JUMP JUMPDEST DUP3 MSTORE POP POP JUMP JUMPDEST PUSH0 DUP2 SWAP1 POP SWAP3 SWAP2 POP POP JUMP JUMPDEST DUP3 DUP2 DUP4 CALLDATACOPY PUSH0 DUP4 DUP4 ADD MSTORE POP POP POP JUMP JUMPDEST PUSH0 PUSH2 0x1CB4 DUP4 DUP6 PUSH2 0x1C91 JUMP JUMPDEST SWAP4 POP PUSH2 0x1CC1 DUP4 DUP6 DUP5 PUSH2 0x1C9B JUMP JUMPDEST DUP3 DUP5 ADD SWAP1 POP SWAP4 SWAP3 POP POP POP JUMP JUMPDEST PUSH0 PUSH2 0x1CD8 DUP3 DUP7 PUSH2 0x1C7A JUMP JUMPDEST PUSH1 0x1 DUP3 ADD SWAP2 POP PUSH2 0x1CE9 DUP3 DUP5 DUP7 PUSH2 0x1CA9 JUMP JUMPDEST SWAP2 POP DUP2 SWAP1 POP SWAP5 SWAP4 POP POP POP POP JUMP JUMPDEST PUSH32 0x636F6D6D6974206D69736D617463680000000000000000000000000000000000 PUSH0 DUP3 ADD MSTORE POP JUMP JUMPDEST PUSH0 PUSH2 0x1D2A PUSH1 0xF DUP4 PUSH2 0x1603 JUMP JUMPDEST SWAP2 POP PUSH2 0x1D35 DUP3 PUSH2 0x1CF6 JUMP JUMPDEST PUSH1 0x20 DUP3 ADD SWAP1 POP SWAP2 SWAP1 POP JUMP JUMPDEST PUSH0 PUSH1 0x20 DUP3 ADD SWAP1 POP DUP2 DUP2 SUB PUSH0 DUP4 ADD MSTORE PUSH2 0x1D57 DUP2 PUSH2 0x1D1E JUMP JUMPDEST SWAP1 POP SWAP2 SWAP1 POP JUMP JUMPDEST PUSH2 0x1D67 DUP2 PUSH2 0x16DD JUMP JUMPDEST DUP3 MSTORE POP POP JUMP JUMPDEST PUSH2 0x1D76 DUP2 PUSH2 0x1C4C JUMP JUMPDEST DUP3 MSTORE POP POP JUMP JUMPDEST PUSH0 PUSH1 0x40 DUP3 ADD SWAP1 POP PUSH2 0x1D8F PUSH0 DUP4 ADD DUP6 PUSH2 0x1D5E JUMP JUMPDEST PUSH2 0x1D9C PUSH1 0x20 DUP4 ADD DUP5 PUSH2 0x1D6D JUMP JUMPDEST SWAP4 SWAP3 POP POP POP JUMP JUMPDEST PUSH32 0x67616D65206F7665720000000000000000000000000000000000000000000000 PUSH0 DUP3 ADD MSTORE POP JUMP JUMPDEST PUSH0 PUSH2 0x1DD7 PUSH1 0x9 DUP4 PUSH2 0x1603 JUMP JUMPDEST SWAP2 POP PUSH2 0x1DE2 DUP3 PUSH2 0x1DA3 JUMP JUMPDEST PUSH1 0x20 DUP3 ADD SWAP1 POP SWAP2 SWAP1 POP JUMP JUMPDEST PUSH0 PUSH1 0x20 DUP3 ADD SWAP1 POP DUP2 DUP2 SUB PUSH0 DUP4 ADD MSTORE PUSH2 0x1E04 DUP2 PUSH2 0x1DCB JUMP JUMPDEST SWAP1 POP SWAP2 SWAP1 POP JUMP JUMPDEST PUSH0 PUSH2 0x1E15 DUP3 PUSH2 0x1788 JUMP JUMPDEST SWAP2 POP PUSH2 0x1E20 DUP4 PUSH2 0x1788 JUMP JUMPDEST SWAP3 POP DUP3 DUP3 ADD SWAP1 POP DUP1 DUP3 GT ISZERO PUSH2 0x1E38 JUMPI PUSH2 0x1E37 PUSH2 0x1A4D JUMP JUMPDEST JUMPDEST SWAP3 SWAP2 POP POP JUMP JUMPDEST PUSH32 0x6E6F2074696D656F757420796574000000000000000000000000000000000000 PUSH0 DUP3 ADD MSTORE POP JUMP JUMPDEST PUSH0 PUSH2 0x1E72 PUSH1 0xE DUP4 PUSH2 0x1603 JUMP JUMPDEST SWAP2 POP PUSH2 0x1E7D DUP3 PUSH2 0x1E3E JUMP JUMPDEST PUSH1 0x20 DUP3 ADD SWAP1 POP SWAP2 SWAP1 POP JUMP JUMPDEST PUSH0 PUSH1 0x20 DUP3 ADD SWAP1 POP DUP2 DUP2 SUB PUSH0 DUP4 ADD MSTORE PUSH2 0x1E9F DUP2 PUSH2 0x1E66 JUMP JUMPDEST SWAP1 POP SWAP2 SWAP1 POP JUMP JUMPDEST PUSH32 0x6E6F74206A6F696E61626C650000000000000000000000000000000000000000 PUSH0 DUP3 ADD MSTORE POP JUMP JUMPDEST PUSH0 PUSH2 0x1EDA PUSH1 0xC DUP4 PUSH2 0x1603 JUMP JUMPDEST SWAP2 POP PUSH2 0x1EE5 DUP3 PUSH2 0x1EA6 JUMP JUMPDEST PUSH1 0x20 DUP3 ADD SWAP1 POP SWAP2 SWAP1 POP JUMP JUMPDEST PUSH0 PUSH1 0x20 DUP3 ADD SWAP1 POP DUP2 DUP2 SUB PUSH0 DUP4 ADD MSTORE PUSH2 0x1F07 DUP2 PUSH2 0x1ECE JUMP JUMPDEST SWAP1 POP SWAP2 SWAP1 POP JUMP JUMPDEST PUSH32 0x6E6F7420696E7669746564000000000000000000000000000000000000000000 PUSH0 DUP3 ADD MSTORE POP JUMP JUMPDEST PUSH0 PUSH2 0x1F42 PUSH1 0xB DUP4 PUSH2 0x1603 JUMP JUMPDEST SWAP2 POP PUSH2 0x1F4D DUP3 PUSH2 0x1F0E JUMP JUMPDEST PUSH1 0x20 DUP3 ADD SWAP1 POP SWAP2 SWAP1 POP JUMP JUMPDEST PUSH0 PUSH1 0x20 DUP3 ADD SWAP1 POP DUP2 DUP2 SUB PUSH0 DUP4 ADD MSTORE PUSH2 0x1F6F DUP2 PUSH2 0x1F36 JUMP JUMPDEST SWAP1 POP SWAP2 SWAP1 POP JUMP JUMPDEST PUSH32 0x6A6F696E2074696D656F75740000000000000000000000000000000000000000 PUSH0 DUP3 ADD MSTORE POP JUMP JUMPDEST PUSH0 PUSH2 0x1FAA PUSH1 0xC DUP4 PUSH2 0x1603 JUMP JUMPDEST SWAP2 POP PUSH2 0x1FB5 DUP3 PUSH2 0x1F76 JUMP JUMPDEST PUSH1 0x20 DUP3 ADD SWAP1 POP SWAP2 SWAP1 POP JUMP JUMPDEST PUSH0 PUSH1 0x20 DUP3 ADD SWAP1 POP DUP2 DUP2 SUB PUSH0 DUP4 ADD MSTORE PUSH2 0x1FD7 DUP2 PUSH2 0x1F9E JUMP JUMPDEST SWAP1 POP SWAP2 SWAP1 POP JUMP JUMPDEST PUSH32 0x5265656E7472616E637947756172643A207265656E7472616E742063616C6C00 PUSH0 DUP3 ADD MSTORE POP JUMP JUMPDEST PUSH0 PUSH2 0x2012 PUSH1 0x1F DUP4 PUSH2 0x1603 JUMP JUMPDEST SWAP2 POP PUSH2 0x201D DUP3 PUSH2 0x1FDE JUMP JUMPDEST PUSH1 0x20 DUP3 ADD SWAP1 POP SWAP2 SWAP1 POP JUMP JUMPDEST PUSH0 PUSH1 0x20 DUP3 ADD SWAP1 POP DUP2 DUP2 SUB PUSH0 DUP4 ADD MSTORE PUSH2 0x203F DUP2 PUSH2 0x2006 JUMP JUMPDEST SWAP1 POP SWAP2 SWAP1 POP JUMP JUMPDEST PUSH0 PUSH2 0x2050 DUP3 PUSH2 0x16DD JUMP JUMPDEST SWAP2 POP PUSH2 0x205B DUP4 PUSH2 0x16DD JUMP JUMPDEST SWAP3 POP DUP3 DUP3 ADD SWAP1 POP PUSH1 0xFF DUP2 GT ISZERO PUSH2 0x2074 JUMPI PUSH2 0x2073 PUSH2 0x1A4D JUMP JUMPDEST JUMPDEST SWAP3 SWAP2 POP POP JUMP JUMPDEST PUSH32 0x4E487B7100000000000000000000000000000000000000000000000000000000 PUSH0 MSTORE PUSH1 0x12 PUSH1 0x4 MSTORE PUSH1 0x24 PUSH0 REVERT JUMPDEST PUSH0 PUSH2 0x20B1 DUP3 PUSH2 0x16DD JUMP JUMPDEST SWAP2 POP PUSH2 0x20BC DUP4 PUSH2 0x16DD JUMP JUMPDEST SWAP3 POP DUP3 PUSH2 0x20CC JUMPI PUSH2 0x20CB PUSH2 0x207A JUMP JUMPDEST JUMPDEST DUP3 DUP3 MOD SWAP1 POP SWAP3 SWAP2 POP POP JUMP JUMPDEST PUSH0 PUSH2 0x20E1 DUP3 PUSH2 0x16DD JUMP JUMPDEST SWAP2 POP PUSH1 0xFF DUP3 SUB PUSH2 0x20F4 JUMPI PUSH2 0x20F3 PUSH2 0x1A4D JUMP JUMPDEST JUMPDEST PUSH1 0x1 DUP3 ADD SWAP1 POP SWAP2 SWAP1 POP JUMP JUMPDEST PUSH0 PUSH2 0x2109 DUP3 PUSH2 0x1788 JUMP JUMPDEST SWAP2 POP PUSH2 0x2114 DUP4 PUSH2 0x1788 JUMP JUMPDEST SWAP3 POP DUP3 DUP3 MUL PUSH2 0x2122 DUP2 PUSH2 0x1788 JUMP JUMPDEST SWAP2 POP DUP3 DUP3 DIV DUP5 EQ DUP4 ISZERO OR PUSH2 0x2139 JUMPI PUSH2 0x2138 PUSH2 0x1A4D JUMP JUMPDEST JUMPDEST POP SWAP3 SWAP2 POP POP JUMP JUMPDEST PUSH0 PUSH2 0x214A DUP3 PUSH2 0x1683 JUMP JUMPDEST SWAP1 POP SWAP2 SWAP1 POP JUMP JUMPDEST PUSH2 0x215A DUP2 PUSH2 0x2140 JUMP JUMPDEST DUP3 MSTORE POP POP JUMP JUMPDEST PUSH0 DUP2 SWAP1 POP SWAP2 SWAP1 POP JUMP JUMPDEST PUSH0 DUP2 SWAP1 POP SWAP2 SWAP1 POP JUMP JUMPDEST PUSH0 PUSH2 0x218C PUSH2 0x2187 PUSH2 0x2182 DUP5 PUSH2 0x2160 JUMP JUMPDEST PUSH2 0x2169 JUMP JUMPDEST PUSH2 0x1788 JUMP JUMPDEST SWAP1 POP SWAP2 SWAP1 POP JUMP JUMPDEST PUSH2 0x219C DUP2 PUSH2 0x2172 JUMP JUMPDEST DUP3 MSTORE POP POP JUMP JUMPDEST PUSH0 PUSH1 0x40 DUP3 ADD SWAP1 POP PUSH2 0x21B5 PUSH0 DUP4 ADD DUP6 PUSH2 0x2151 JUMP JUMPDEST PUSH2 0x21C2 PUSH1 0x20 DUP4 ADD DUP5 PUSH2 0x2193 JUMP JUMPDEST SWAP4 SWAP3 POP POP POP JUMP JUMPDEST PUSH0 DUP2 SWAP1 POP SWAP3 SWAP2 POP POP JUMP JUMPDEST POP JUMP JUMPDEST PUSH0 PUSH2 0x21E1 PUSH0 DUP4 PUSH2 0x21C9 JUMP JUMPDEST SWAP2 POP PUSH2 0x21EC DUP3 PUSH2 0x21D3 JUMP JUMPDEST PUSH0 DUP3 ADD SWAP1 POP SWAP2 SWAP1 POP JUMP JUMPDEST PUSH0 PUSH2 0x2200 DUP3 PUSH2 0x21D6 JUMP JUMPDEST SWAP2 POP DUP2 SWAP1 POP SWAP2 SWAP1 POP JUMP JUMPDEST PUSH32 0x7472616E73666572206661696C65640000000000000000000000000000000000 PUSH0 DUP3 ADD MSTORE POP JUMP JUMPDEST PUSH0 PUSH2 0x223E PUSH1 0xF DUP4 PUSH2 0x1603 JUMP JUMPDEST SWAP2 POP PUSH2 0x2249 DUP3 PUSH2 0x220A JUMP JUMPDEST PUSH1 0x20 DUP3 ADD SWAP1 POP SWAP2 SWAP1 POP JUMP JUMPDEST PUSH0 PUSH1 0x20 DUP3 ADD SWAP1 POP DUP2 DUP2 SUB PUSH0 DUP4 ADD MSTORE PUSH2 0x226B DUP2 PUSH2 0x2232 JUMP JUMPDEST SWAP1 POP SWAP2 SWAP1 POP JUMP JUMPDEST PUSH0 PUSH2 0x228C PUSH2 0x2287 PUSH2 0x2282 DUP5 PUSH2 0x1683 JUMP JUMPDEST PUSH2 0x2169 JUMP JUMPDEST PUSH2 0x1683 JUMP JUMPDEST SWAP1 POP SWAP2 SWAP1 POP JUMP JUMPDEST PUSH0 PUSH2 0x229D DUP3 PUSH2 0x2272 JUMP JUMPDEST SWAP1 POP SWAP2 SWAP1 POP JUMP JUMPDEST PUSH0 PUSH2 0x22AE DUP3 PUSH2 0x2293 JUMP JUMPDEST SWAP1 POP SWAP2 SWAP1 POP JUMP JUMPDEST PUSH2 0x22BE DUP2 PUSH2 0x22A4 JUMP JUMPDEST DUP3 MSTORE POP POP JUMP JUMPDEST PUSH0 PUSH1 0x40 DUP3 ADD SWAP1 POP PUSH2 0x22D7 PUSH0 DUP4 ADD DUP6 PUSH2 0x22B5 JUMP JUMPDEST PUSH2 0x22E4 PUSH1 0x20 DUP4 ADD DUP5 PUSH2 0x1791 JUMP JUMPDEST SWAP4 SWAP3 POP POP POP JUMP INVALID LOG2 PUSH5 0x6970667358 0x22 SLT KECCAK256 0xB9 0xF RETURNDATACOPY GASPRICE SWAP11 0xB6 BLOBHASH PUSH2 0xBCC EXTDELEGATECALL DUP15 0xAA EXTCODEHASH 0xC2 JUMPF 0xEE83 SWAPN 0xD6 ADD JUMPI BASEFEE 0x26 0xC2 PUSH20 0x24D94F6533F364736F6C634300081E0033000000 "
				},
				"gasEstimates": {
					"creation": {
						"codeDepositCost": "1798600",
						"executionCost": "infinite",
						"totalCost": "infinite"
					},
					"external": {
						"BET_SIZES(uint256)": "infinite",
						"JOIN_WINDOW()": "347",
						"REVEAL_WINDOW()": "348",
						"claimTimeout(uint256)": "infinite",
						"createGame(address,uint8,bytes32[3])": "infinite",
						"joinGame(uint256,bytes32[3])": "infinite",
						"nextGameId()": "2469",
						"reveal(uint256,uint8,uint8,string)": "infinite"
					},
					"internal": {
						"_payout(struct RPSBet.Game storage pointer,address payable)": "infinite",
						"_scoreRound(struct RPSBet.Game storage pointer,uint8)": "infinite"
					}
				},
				"methodIdentifiers": {
					"BET_SIZES(uint256)": "7d90611d",
					"JOIN_WINDOW()": "a60ac828",
					"REVEAL_WINDOW()": "17e931cf",
					"claimTimeout(uint256)": "86e773f1",
					"createGame(address,uint8,bytes32[3])": "17128792",
					"joinGame(uint256,bytes32[3])": "c89da923",
					"nextGameId()": "b135bbb0",
					"reveal(uint256,uint8,uint8,string)": "432cad1e"
				}
			},
			"storageLayout": {
				"storage": [
					{
						"astId": 10,
						"contract": "contracts/rockPaperSissors.sol:RPSBet",
						"label": "_status",
						"offset": 0,
						"slot": "0",
						"type": "t_uint256"
					},
					{
						"astId": 87,
						"contract": "contracts/rockPaperSissors.sol:RPSBet",
						"label": "BET_SIZES",
						"offset": 0,
						"slot": "1",
						"type": "t_array(t_uint256)3_storage"
					},
					{
						"astId": 127,
						"contract": "contracts/rockPaperSissors.sol:RPSBet",
						"label": "nextGameId",
						"offset": 0,
						"slot": "4",
						"type": "t_uint256"
					},
					{
						"astId": 132,
						"contract": "contracts/rockPaperSissors.sol:RPSBet",
						"label": "games",
						"offset": 0,
						"slot": "5",
						"type": "t_mapping(t_uint256,t_struct(Game)118_storage)"
					}
				],
				"types": {
					"t_address": {
						"encoding": "inplace",
						"label": "address",
						"numberOfBytes": "20"
					},
					"t_address_payable": {
						"encoding": "inplace",
						"label": "address payable",
						"numberOfBytes": "20"
					},
					"t_array(t_bytes32)3_storage": {
						"base": "t_bytes32",
						"encoding": "inplace",
						"label": "bytes32[3]",
						"numberOfBytes": "96"
					},
					"t_array(t_enum(Move)74)3_storage": {
						"base": "t_enum(Move)74",
						"encoding": "inplace",
						"label": "enum RPSBet.Move[3]",
						"numberOfBytes": "32"
					},
					"t_array(t_uint256)3_storage": {
						"base": "t_uint256",
						"encoding": "inplace",
						"label": "uint256[3]",
						"numberOfBytes": "96"
					},
					"t_bytes32": {
						"encoding": "inplace",
						"label": "bytes32",
						"numberOfBytes": "32"
					},
					"t_enum(Move)74": {
						"encoding": "inplace",
						"label": "enum RPSBet.Move",
						"numberOfBytes": "1"
					},
					"t_enum(Stage)79": {
						"encoding": "inplace",
						"label": "enum RPSBet.Stage",
						"numberOfBytes": "1"
					},
					"t_mapping(t_address,t_array(t_bytes32)3_storage)": {
						"encoding": "mapping",
						"key": "t_address",
						"label": "mapping(address => bytes32[3])",
						"numberOfBytes": "32",
						"value": "t_array(t_bytes32)3_storage"
					},
					"t_mapping(t_address,t_array(t_enum(Move)74)3_storage)": {
						"encoding": "mapping",
						"key": "t_address",
						"label": "mapping(address => enum RPSBet.Move[3])",
						"numberOfBytes": "32",
						"value": "t_array(t_enum(Move)74)3_storage"
					},
					"t_mapping(t_uint256,t_struct(Game)118_storage)": {
						"encoding": "mapping",
						"key": "t_uint256",
						"label": "mapping(uint256 => struct RPSBet.Game)",
						"numberOfBytes": "32",
						"value": "t_struct(Game)118_storage"
					},
					"t_struct(Game)118_storage": {
						"encoding": "inplace",
						"label": "struct RPSBet.Game",
						"members": [
							{
								"astId": 89,
								"contract": "contracts/rockPaperSissors.sol:RPSBet",
								"label": "p1",
								"offset": 0,
								"slot": "0",
								"type": "t_address_payable"
							},
							{
								"astId": 91,
								"contract": "contracts/rockPaperSissors.sol:RPSBet",
								"label": "p2",
								"offset": 0,
								"slot": "1",
								"type": "t_address_payable"
							},
							{
								"astId": 93,
								"contract": "contracts/rockPaperSissors.sol:RPSBet",
								"label": "bet",
								"offset": 0,
								"slot": "2",
								"type": "t_uint256"
							},
							{
								"astId": 96,
								"contract": "contracts/rockPaperSissors.sol:RPSBet",
								"label": "stage",
								"offset": 0,
								"slot": "3",
								"type": "t_enum(Stage)79"
							},
							{
								"astId": 98,
								"contract": "contracts/rockPaperSissors.sol:RPSBet",
								"label": "round",
								"offset": 1,
								"slot": "3",
								"type": "t_uint8"
							},
							{
								"astId": 104,
								"contract": "contracts/rockPaperSissors.sol:RPSBet",
								"label": "commits",
								"offset": 0,
								"slot": "4",
								"type": "t_mapping(t_address,t_array(t_bytes32)3_storage)"
							},
							{
								"astId": 111,
								"contract": "contracts/rockPaperSissors.sol:RPSBet",
								"label": "moves",
								"offset": 0,
								"slot": "5",
								"type": "t_mapping(t_address,t_array(t_enum(Move)74)3_storage)"
							},
							{
								"astId": 113,
								"contract": "contracts/rockPaperSissors.sol:RPSBet",
								"label": "p1Wins",
								"offset": 0,
								"slot": "6",
								"type": "t_uint8"
							},
							{
								"astId": 115,
								"contract": "contracts/rockPaperSissors.sol:RPSBet",
								"label": "p2Wins",
								"offset": 1,
								"slot": "6",
								"type": "t_uint8"
							},
							{
								"astId": 117,
								"contract": "contracts/rockPaperSissors.sol:RPSBet",
								"label": "lastAction",
								"offset": 0,
								"slot": "7",
								"type": "t_uint256"
							}
						],
						"numberOfBytes": "256"
					},
					"t_uint256": {
						"encoding": "inplace",
						"label": "uint256",
						"numberOfBytes": "32"
					},
					"t_uint8": {
						"encoding": "inplace",
						"label": "uint8",
						"numberOfBytes": "1"
					}
				}
			},
			"userdoc": {
				"kind": "user",
				"methods": {
					"claimTimeout(uint256)": {
						"notice": "Reclama victoria si oponente no revela/join"
					},
					"createGame(address,uint8,bytes32[3])": {
						"notice": "Crea partida (mejor de 3) enviando 3 hashes y tu apuesta"
					},
					"joinGame(uint256,bytes32[3])": {
						"notice": "Rival entra a la partida con sus 3 commitments"
					},
					"reveal(uint256,uint8,uint8,string)": {
						"notice": "Revela jugada de la ronda actual"
					}
				},
				"version": 1
			}
		}
	}
}