{
	"contracts/SaveMyName.sol": {
		"SaveMyName": {
			"abi": [
				{
					"inputs": [
						{
							"internalType": "string",
							"name": "_name",
							"type": "string"
						},
						{
							"internalType": "string",
							"name": "_description",
							"type": "string"
						}
					],
					"stateMutability": "nonpayable",
					"type": "constructor"
				},
				{
					"inputs": [],
					"name": "description",
					"outputs": [
						{
							"internalType": "string",
							"name": "",
							"type": "string"
						}
					],
					"stateMutability": "view",
					"type": "function"
				},
				{
					"inputs": [],
					"name": "name",
					"outputs": [
						{
							"internalType": "string",
							"name": "",
							"type": "string"
						}
					],
					"stateMutability": "view",
					"type": "function"
				},
				{
					"inputs": [],
					"name": "owner",
					"outputs": [
						{
							"internalType": "address",
							"name": "",
							"type": "address"
						}
					],
					"stateMutability": "view",
					"type": "function"
				},
				{
					"inputs": [
						{
							"internalType": "string",
							"name": "_newName",
							"type": "string"
						}
					],
					"name": "setName",
					"outputs": [],
					"stateMutability": "nonpayable",
					"type": "function"
				}
			],
			"devdoc": {
				"kind": "dev",
				"methods": {},
				"version": 1
			},
			"evm": {
				"assembly": "    /* \"contracts/SaveMyName.sol\":108:564  contract SaveMyName {... */\n  mstore(0x40, 0x80)\n    /* \"contracts/SaveMyName.sol\":259:412  constructor(string memory _name, string memory _description) {... */\n  callvalue\n  dup1\n  iszero\n  tag_1\n  jumpi\n  revert(0x00, 0x00)\ntag_1:\n  pop\n  mload(0x40)\n  sub(codesize, bytecodeSize)\n  dup1\n  bytecodeSize\n  dup4\n  codecopy\n  dup2\n  dup2\n  add\n  0x40\n  mstore\n  dup2\n  add\n  swap1\n  tag_2\n  swap2\n  swap1\n  tag_3\n  jump\t// in\ntag_2:\n    /* \"contracts/SaveMyName.sol\":337:342  _name */\n  dup2\n    /* \"contracts/SaveMyName.sol\":330:334  name */\n  0x00\n    /* \"contracts/SaveMyName.sol\":330:342  name = _name */\n  swap1\n  dup2\n  tag_6\n  swap2\n  swap1\n  tag_7\n  jump\t// in\ntag_6:\n  pop\n    /* \"contracts/SaveMyName.sol\":365:377  _description */\n  dup1\n    /* \"contracts/SaveMyName.sol\":352:363  description */\n  0x01\n    /* \"contracts/SaveMyName.sol\":352:377  description= _description */\n  swap1\n  dup2\n  tag_8\n  swap2\n  swap1\n  tag_7\n  jump\t// in\ntag_8:\n  pop\n    /* \"contracts/SaveMyName.sol\":395:405  msg.sender */\n  caller\n    /* \"contracts/SaveMyName.sol\":387:392  owner */\n  0x02\n  0x00\n    /* \"contracts/SaveMyName.sol\":387:405  owner = msg.sender */\n  0x0100\n  exp\n  dup2\n  sload\n  dup2\n  0xffffffffffffffffffffffffffffffffffffffff\n  mul\n  not\n  and\n  swap1\n  dup4\n  0xffffffffffffffffffffffffffffffffffffffff\n  and\n  mul\n  or\n  swap1\n  sstore\n  pop\n    /* \"contracts/SaveMyName.sol\":259:412  constructor(string memory _name, string memory _description) {... */\n  pop\n  pop\n    /* \"contracts/SaveMyName.sol\":108:564  contract SaveMyName {... */\n  jump(tag_9)\n    /* \"#utility.yul\":7:82   */\ntag_10:\n    /* \"#utility.yul\":40:46   */\n  0x00\n    /* \"#utility.yul\":73:75   */\n  0x40\n    /* \"#utility.yul\":67:76   */\n  mload\n    /* \"#utility.yul\":57:76   */\n  swap1\n  pop\n    /* \"#utility.yul\":7:82   */\n  swap1\n  jump\t// out\n    /* \"#utility.yul\":88:205   */\ntag_11:\n    /* \"#utility.yul\":197:198   */\n  0x00\n    /* \"#utility.yul\":194:195   */\n  0x00\n    /* \"#utility.yul\":187:199   */\n  revert\n    /* \"#utility.yul\":211:328   */\ntag_12:\n    /* \"#utility.yul\":320:321   */\n  0x00\n    /* \"#utility.yul\":317:318   */\n  0x00\n    /* \"#utility.yul\":310:322   */\n  revert\n    /* \"#utility.yul\":334:451   */\ntag_13:\n    /* \"#utility.yul\":443:444   */\n  0x00\n    /* \"#utility.yul\":440:441   */\n  0x00\n    /* \"#utility.yul\":433:445   */\n  revert\n    /* \"#utility.yul\":457:574   */\ntag_14:\n    /* \"#utility.yul\":566:567   */\n  0x00\n    /* \"#utility.yul\":563:564   */\n  0x00\n    /* \"#utility.yul\":556:568   */\n  revert\n    /* \"#utility.yul\":580:682   */\ntag_15:\n    /* \"#utility.yul\":621:627   */\n  0x00\n    /* \"#utility.yul\":672:674   */\n  0x1f\n    /* \"#utility.yul\":668:675   */\n  not\n    /* \"#utility.yul\":663:665   */\n  0x1f\n    /* \"#utility.yul\":656:661   */\n  dup4\n    /* \"#utility.yul\":652:666   */\n  add\n    /* \"#utility.yul\":648:676   */\n  and\n    /* \"#utility.yul\":638:676   */\n  swap1\n  pop\n    /* \"#utility.yul\":580:682   */\n  swap2\n  swap1\n  pop\n  jump\t// out\n    /* \"#utility.yul\":688:868   */\ntag_16:\n    /* \"#utility.yul\":736:813   */\n  0x4e487b7100000000000000000000000000000000000000000000000000000000\n    /* \"#utility.yul\":733:734   */\n  0x00\n    /* \"#utility.yul\":726:814   */\n  mstore\n    /* \"#utility.yul\":833:837   */\n  0x41\n    /* \"#utility.yul\":830:831   */\n  0x04\n    /* \"#utility.yul\":823:838   */\n  mstore\n    /* \"#utility.yul\":857:861   */\n  0x24\n    /* \"#utility.yul\":854:855   */\n  0x00\n    /* \"#utility.yul\":847:862   */\n  revert\n    /* \"#utility.yul\":874:1155   */\ntag_17:\n    /* \"#utility.yul\":957:984   */\n  tag_51\n    /* \"#utility.yul\":979:983   */\n  dup3\n    /* \"#utility.yul\":957:984   */\n  tag_15\n  jump\t// in\ntag_51:\n    /* \"#utility.yul\":949:955   */\n  dup2\n    /* \"#utility.yul\":945:985   */\n  add\n    /* \"#utility.yul\":1087:1093   */\n  dup2\n    /* \"#utility.yul\":1075:1085   */\n  dup2\n    /* \"#utility.yul\":1072:1094   */\n  lt\n    /* \"#utility.yul\":1051:1069   */\n  0xffffffffffffffff\n    /* \"#utility.yul\":1039:1049   */\n  dup3\n    /* \"#utility.yul\":1036:1070   */\n  gt\n    /* \"#utility.yul\":1033:1095   */\n  or\n    /* \"#utility.yul\":1030:1118   */\n  iszero\n  tag_52\n  jumpi\n    /* \"#utility.yul\":1098:1116   */\n  tag_53\n  tag_16\n  jump\t// in\ntag_53:\n    /* \"#utility.yul\":1030:1118   */\ntag_52:\n    /* \"#utility.yul\":1138:1148   */\n  dup1\n    /* \"#utility.yul\":1134:1136   */\n  0x40\n    /* \"#utility.yul\":1127:1149   */\n  mstore\n    /* \"#utility.yul\":917:1155   */\n  pop\n    /* \"#utility.yul\":874:1155   */\n  pop\n  pop\n  jump\t// out\n    /* \"#utility.yul\":1161:1290   */\ntag_18:\n    /* \"#utility.yul\":1195:1201   */\n  0x00\n    /* \"#utility.yul\":1222:1242   */\n  tag_55\n  tag_10\n  jump\t// in\ntag_55:\n    /* \"#utility.yul\":1212:1242   */\n  swap1\n  pop\n    /* \"#utility.yul\":1251:1284   */\n  tag_56\n    /* \"#utility.yul\":1279:1283   */\n  dup3\n    /* \"#utility.yul\":1271:1277   */\n  dup3\n    /* \"#utility.yul\":1251:1284   */\n  tag_17\n  jump\t// in\ntag_56:\n    /* \"#utility.yul\":1161:1290   */\n  swap2\n  swap1\n  pop\n  jump\t// out\n    /* \"#utility.yul\":1296:1604   */\ntag_19:\n    /* \"#utility.yul\":1358:1362   */\n  0x00\n    /* \"#utility.yul\":1448:1466   */\n  0xffffffffffffffff\n    /* \"#utility.yul\":1440:1446   */\n  dup3\n    /* \"#utility.yul\":1437:1467   */\n  gt\n    /* \"#utility.yul\":1434:1490   */\n  iszero\n  tag_58\n  jumpi\n    /* \"#utility.yul\":1470:1488   */\n  tag_59\n  tag_16\n  jump\t// in\ntag_59:\n    /* \"#utility.yul\":1434:1490   */\ntag_58:\n    /* \"#utility.yul\":1508:1537   */\n  tag_60\n    /* \"#utility.yul\":1530:1536   */\n  dup3\n    /* \"#utility.yul\":1508:1537   */\n  tag_15\n  jump\t// in\ntag_60:\n    /* \"#utility.yul\":1500:1537   */\n  swap1\n  pop\n    /* \"#utility.yul\":1592:1596   */\n  0x20\n    /* \"#utility.yul\":1586:1590   */\n  dup2\n    /* \"#utility.yul\":1582:1597   */\n  add\n    /* \"#utility.yul\":1574:1597   */\n  swap1\n  pop\n    /* \"#utility.yul\":1296:1604   */\n  swap2\n  swap1\n  pop\n  jump\t// out\n    /* \"#utility.yul\":1610:1749   */\ntag_20:\n    /* \"#utility.yul\":1699:1705   */\n  dup3\n    /* \"#utility.yul\":1694:1697   */\n  dup2\n    /* \"#utility.yul\":1689:1692   */\n  dup4\n    /* \"#utility.yul\":1683:1706   */\n  mcopy\n    /* \"#utility.yul\":1740:1741   */\n  0x00\n    /* \"#utility.yul\":1731:1737   */\n  dup4\n    /* \"#utility.yul\":1726:1729   */\n  dup4\n    /* \"#utility.yul\":1722:1738   */\n  add\n    /* \"#utility.yul\":1715:1742   */\n  mstore\n    /* \"#utility.yul\":1610:1749   */\n  pop\n  pop\n  pop\n  jump\t// out\n    /* \"#utility.yul\":1755:2189   */\ntag_21:\n    /* \"#utility.yul\":1844:1849   */\n  0x00\n    /* \"#utility.yul\":1869:1935   */\n  tag_63\n    /* \"#utility.yul\":1885:1934   */\n  tag_64\n    /* \"#utility.yul\":1927:1933   */\n  dup5\n    /* \"#utility.yul\":1885:1934   */\n  tag_19\n  jump\t// in\ntag_64:\n    /* \"#utility.yul\":1869:1935   */\n  tag_18\n  jump\t// in\ntag_63:\n    /* \"#utility.yul\":1860:1935   */\n  swap1\n  pop\n    /* \"#utility.yul\":1958:1964   */\n  dup3\n    /* \"#utility.yul\":1951:1956   */\n  dup2\n    /* \"#utility.yul\":1944:1965   */\n  mstore\n    /* \"#utility.yul\":1996:2000   */\n  0x20\n    /* \"#utility.yul\":1989:1994   */\n  dup2\n    /* \"#utility.yul\":1985:2001   */\n  add\n    /* \"#utility.yul\":2034:2037   */\n  dup5\n    /* \"#utility.yul\":2025:2031   */\n  dup5\n    /* \"#utility.yul\":2020:2023   */\n  dup5\n    /* \"#utility.yul\":2016:2032   */\n  add\n    /* \"#utility.yul\":2013:2038   */\n  gt\n    /* \"#utility.yul\":2010:2122   */\n  iszero\n  tag_65\n  jumpi\n    /* \"#utility.yul\":2041:2120   */\n  tag_66\n  tag_14\n  jump\t// in\ntag_66:\n    /* \"#utility.yul\":2010:2122   */\ntag_65:\n    /* \"#utility.yul\":2131:2183   */\n  tag_67\n    /* \"#utility.yul\":2176:2182   */\n  dup5\n    /* \"#utility.yul\":2171:2174   */\n  dup3\n    /* \"#utility.yul\":2166:2169   */\n  dup6\n    /* \"#utility.yul\":2131:2183   */\n  tag_20\n  jump\t// in\ntag_67:\n    /* \"#utility.yul\":1850:2189   */\n  pop\n    /* \"#utility.yul\":1755:2189   */\n  swap4\n  swap3\n  pop\n  pop\n  pop\n  jump\t// out\n    /* \"#utility.yul\":2209:2564   */\ntag_22:\n    /* \"#utility.yul\":2276:2281   */\n  0x00\n    /* \"#utility.yul\":2325:2328   */\n  dup3\n    /* \"#utility.yul\":2318:2322   */\n  0x1f\n    /* \"#utility.yul\":2310:2316   */\n  dup4\n    /* \"#utility.yul\":2306:2323   */\n  add\n    /* \"#utility.yul\":2302:2329   */\n  slt\n    /* \"#utility.yul\":2292:2414   */\n  tag_69\n  jumpi\n    /* \"#utility.yul\":2333:2412   */\n  tag_70\n  tag_13\n  jump\t// in\ntag_70:\n    /* \"#utility.yul\":2292:2414   */\ntag_69:\n    /* \"#utility.yul\":2443:2449   */\n  dup2\n    /* \"#utility.yul\":2437:2450   */\n  mload\n    /* \"#utility.yul\":2468:2558   */\n  tag_71\n    /* \"#utility.yul\":2554:2557   */\n  dup5\n    /* \"#utility.yul\":2546:2552   */\n  dup3\n    /* \"#utility.yul\":2539:2543   */\n  0x20\n    /* \"#utility.yul\":2531:2537   */\n  dup7\n    /* \"#utility.yul\":2527:2544   */\n  add\n    /* \"#utility.yul\":2468:2558   */\n  tag_21\n  jump\t// in\ntag_71:\n    /* \"#utility.yul\":2459:2558   */\n  swap2\n  pop\n    /* \"#utility.yul\":2282:2564   */\n  pop\n    /* \"#utility.yul\":2209:2564   */\n  swap3\n  swap2\n  pop\n  pop\n  jump\t// out\n    /* \"#utility.yul\":2570:3423   */\ntag_3:\n    /* \"#utility.yul\":2669:2675   */\n  0x00\n    /* \"#utility.yul\":2677:2683   */\n  0x00\n    /* \"#utility.yul\":2726:2728   */\n  0x40\n    /* \"#utility.yul\":2714:2723   */\n  dup4\n    /* \"#utility.yul\":2705:2712   */\n  dup6\n    /* \"#utility.yul\":2701:2724   */\n  sub\n    /* \"#utility.yul\":2697:2729   */\n  slt\n    /* \"#utility.yul\":2694:2813   */\n  iszero\n  tag_73\n  jumpi\n    /* \"#utility.yul\":2732:2811   */\n  tag_74\n  tag_11\n  jump\t// in\ntag_74:\n    /* \"#utility.yul\":2694:2813   */\ntag_73:\n    /* \"#utility.yul\":2873:2874   */\n  0x00\n    /* \"#utility.yul\":2862:2871   */\n  dup4\n    /* \"#utility.yul\":2858:2875   */\n  add\n    /* \"#utility.yul\":2852:2876   */\n  mload\n    /* \"#utility.yul\":2903:2921   */\n  0xffffffffffffffff\n    /* \"#utility.yul\":2895:2901   */\n  dup2\n    /* \"#utility.yul\":2892:2922   */\n  gt\n    /* \"#utility.yul\":2889:3006   */\n  iszero\n  tag_75\n  jumpi\n    /* \"#utility.yul\":2925:3004   */\n  tag_76\n  tag_12\n  jump\t// in\ntag_76:\n    /* \"#utility.yul\":2889:3006   */\ntag_75:\n    /* \"#utility.yul\":3030:3104   */\n  tag_77\n    /* \"#utility.yul\":3096:3103   */\n  dup6\n    /* \"#utility.yul\":3087:3093   */\n  dup3\n    /* \"#utility.yul\":3076:3085   */\n  dup7\n    /* \"#utility.yul\":3072:3094   */\n  add\n    /* \"#utility.yul\":3030:3104   */\n  tag_22\n  jump\t// in\ntag_77:\n    /* \"#utility.yul\":3020:3104   */\n  swap3\n  pop\n    /* \"#utility.yul\":2823:3114   */\n  pop\n    /* \"#utility.yul\":3174:3176   */\n  0x20\n    /* \"#utility.yul\":3163:3172   */\n  dup4\n    /* \"#utility.yul\":3159:3177   */\n  add\n    /* \"#utility.yul\":3153:3178   */\n  mload\n    /* \"#utility.yul\":3205:3223   */\n  0xffffffffffffffff\n    /* \"#utility.yul\":3197:3203   */\n  dup2\n    /* \"#utility.yul\":3194:3224   */\n  gt\n    /* \"#utility.yul\":3191:3308   */\n  iszero\n  tag_78\n  jumpi\n    /* \"#utility.yul\":3227:3306   */\n  tag_79\n  tag_12\n  jump\t// in\ntag_79:\n    /* \"#utility.yul\":3191:3308   */\ntag_78:\n    /* \"#utility.yul\":3332:3406   */\n  tag_80\n    /* \"#utility.yul\":3398:3405   */\n  dup6\n    /* \"#utility.yul\":3389:3395   */\n  dup3\n    /* \"#utility.yul\":3378:3387   */\n  dup7\n    /* \"#utility.yul\":3374:3396   */\n  add\n    /* \"#utility.yul\":3332:3406   */\n  tag_22\n  jump\t// in\ntag_80:\n    /* \"#utility.yul\":3322:3406   */\n  swap2\n  pop\n    /* \"#utility.yul\":3124:3416   */\n  pop\n    /* \"#utility.yul\":2570:3423   */\n  swap3\n  pop\n  swap3\n  swap1\n  pop\n  jump\t// out\n    /* \"#utility.yul\":3429:3528   */\ntag_23:\n    /* \"#utility.yul\":3481:3487   */\n  0x00\n    /* \"#utility.yul\":3515:3520   */\n  dup2\n    /* \"#utility.yul\":3509:3521   */\n  mload\n    /* \"#utility.yul\":3499:3521   */\n  swap1\n  pop\n    /* \"#utility.yul\":3429:3528   */\n  swap2\n  swap1\n  pop\n  jump\t// out\n    /* \"#utility.yul\":3534:3714   */\ntag_24:\n    /* \"#utility.yul\":3582:3659   */\n  0x4e487b7100000000000000000000000000000000000000000000000000000000\n    /* \"#utility.yul\":3579:3580   */\n  0x00\n    /* \"#utility.yul\":3572:3660   */\n  mstore\n    /* \"#utility.yul\":3679:3683   */\n  0x22\n    /* \"#utility.yul\":3676:3677   */\n  0x04\n    /* \"#utility.yul\":3669:3684   */\n  mstore\n    /* \"#utility.yul\":3703:3707   */\n  0x24\n    /* \"#utility.yul\":3700:3701   */\n  0x00\n    /* \"#utility.yul\":3693:3708   */\n  revert\n    /* \"#utility.yul\":3720:4040   */\ntag_25:\n    /* \"#utility.yul\":3764:3770   */\n  0x00\n    /* \"#utility.yul\":3801:3802   */\n  0x02\n    /* \"#utility.yul\":3795:3799   */\n  dup3\n    /* \"#utility.yul\":3791:3803   */\n  div\n    /* \"#utility.yul\":3781:3803   */\n  swap1\n  pop\n    /* \"#utility.yul\":3848:3849   */\n  0x01\n    /* \"#utility.yul\":3842:3846   */\n  dup3\n    /* \"#utility.yul\":3838:3850   */\n  and\n    /* \"#utility.yul\":3869:3887   */\n  dup1\n    /* \"#utility.yul\":3859:3940   */\n  tag_84\n  jumpi\n    /* \"#utility.yul\":3925:3929   */\n  0x7f\n    /* \"#utility.yul\":3917:3923   */\n  dup3\n    /* \"#utility.yul\":3913:3930   */\n  and\n    /* \"#utility.yul\":3903:3930   */\n  swap2\n  pop\n    /* \"#utility.yul\":3859:3940   */\ntag_84:\n    /* \"#utility.yul\":3987:3989   */\n  0x20\n    /* \"#utility.yul\":3979:3985   */\n  dup3\n    /* \"#utility.yul\":3976:3990   */\n  lt\n    /* \"#utility.yul\":3956:3974   */\n  dup2\n    /* \"#utility.yul\":3953:3991   */\n  sub\n    /* \"#utility.yul\":3950:4034   */\n  tag_85\n  jumpi\n    /* \"#utility.yul\":4006:4024   */\n  tag_86\n  tag_24\n  jump\t// in\ntag_86:\n    /* \"#utility.yul\":3950:4034   */\ntag_85:\n    /* \"#utility.yul\":3771:4040   */\n  pop\n    /* \"#utility.yul\":3720:4040   */\n  swap2\n  swap1\n  pop\n  jump\t// out\n    /* \"#utility.yul\":4046:4187   */\ntag_26:\n    /* \"#utility.yul\":4095:4099   */\n  0x00\n    /* \"#utility.yul\":4118:4121   */\n  dup2\n    /* \"#utility.yul\":4110:4121   */\n  swap1\n  pop\n    /* \"#utility.yul\":4141:4144   */\n  dup2\n    /* \"#utility.yul\":4138:4139   */\n  0x00\n    /* \"#utility.yul\":4131:4145   */\n  mstore\n    /* \"#utility.yul\":4175:4179   */\n  0x20\n    /* \"#utility.yul\":4172:4173   */\n  0x00\n    /* \"#utility.yul\":4162:4180   */\n  keccak256\n    /* \"#utility.yul\":4154:4180   */\n  swap1\n  pop\n    /* \"#utility.yul\":4046:4187   */\n  swap2\n  swap1\n  pop\n  jump\t// out\n    /* \"#utility.yul\":4193:4286   */\ntag_27:\n    /* \"#utility.yul\":4230:4236   */\n  0x00\n    /* \"#utility.yul\":4277:4279   */\n  0x20\n    /* \"#utility.yul\":4272:4274   */\n  0x1f\n    /* \"#utility.yul\":4265:4270   */\n  dup4\n    /* \"#utility.yul\":4261:4275   */\n  add\n    /* \"#utility.yul\":4257:4280   */\n  div\n    /* \"#utility.yul\":4247:4280   */\n  swap1\n  pop\n    /* \"#utility.yul\":4193:4286   */\n  swap2\n  swap1\n  pop\n  jump\t// out\n    /* \"#utility.yul\":4292:4399   */\ntag_28:\n    /* \"#utility.yul\":4336:4344   */\n  0x00\n    /* \"#utility.yul\":4386:4391   */\n  dup3\n    /* \"#utility.yul\":4380:4384   */\n  dup3\n    /* \"#utility.yul\":4376:4392   */\n  shl\n    /* \"#utility.yul\":4355:4392   */\n  swap1\n  pop\n    /* \"#utility.yul\":4292:4399   */\n  swap3\n  swap2\n  pop\n  pop\n  jump\t// out\n    /* \"#utility.yul\":4405:4798   */\ntag_29:\n    /* \"#utility.yul\":4474:4480   */\n  0x00\n    /* \"#utility.yul\":4524:4525   */\n  0x08\n    /* \"#utility.yul\":4512:4522   */\n  dup4\n    /* \"#utility.yul\":4508:4526   */\n  mul\n    /* \"#utility.yul\":4547:4644   */\n  tag_91\n    /* \"#utility.yul\":4577:4643   */\n  0xffffffffffffffffffffffffffffffffffffffffffffffffffffffffffffffff\n    /* \"#utility.yul\":4566:4575   */\n  dup3\n    /* \"#utility.yul\":4547:4644   */\n  tag_28\n  jump\t// in\ntag_91:\n    /* \"#utility.yul\":4665:4704   */\n  tag_92\n    /* \"#utility.yul\":4695:4703   */\n  dup7\n    /* \"#utility.yul\":4684:4693   */\n  dup4\n    /* \"#utility.yul\":4665:4704   */\n  tag_28\n  jump\t// in\ntag_92:\n    /* \"#utility.yul\":4653:4704   */\n  swap6\n  pop\n    /* \"#utility.yul\":4737:4741   */\n  dup1\n    /* \"#utility.yul\":4733:4742   */\n  not\n    /* \"#utility.yul\":4726:4731   */\n  dup5\n    /* \"#utility.yul\":4722:4743   */\n  and\n    /* \"#utility.yul\":4713:4743   */\n  swap4\n  pop\n    /* \"#utility.yul\":4786:4790   */\n  dup1\n    /* \"#utility.yul\":4776:4784   */\n  dup7\n    /* \"#utility.yul\":4772:4791   */\n  and\n    /* \"#utility.yul\":4765:4770   */\n  dup5\n    /* \"#utility.yul\":4762:4792   */\n  or\n    /* \"#utility.yul\":4752:4792   */\n  swap3\n  pop\n    /* \"#utility.yul\":4481:4798   */\n  pop\n  pop\n    /* \"#utility.yul\":4405:4798   */\n  swap4\n  swap3\n  pop\n  pop\n  pop\n  jump\t// out\n    /* \"#utility.yul\":4804:4881   */\ntag_30:\n    /* \"#utility.yul\":4841:4848   */\n  0x00\n    /* \"#utility.yul\":4870:4875   */\n  dup2\n    /* \"#utility.yul\":4859:4875   */\n  swap1\n  pop\n    /* \"#utility.yul\":4804:4881   */\n  swap2\n  swap1\n  pop\n  jump\t// out\n    /* \"#utility.yul\":4887:4947   */\ntag_31:\n    /* \"#utility.yul\":4915:4918   */\n  0x00\n    /* \"#utility.yul\":4936:4941   */\n  dup2\n    /* \"#utility.yul\":4929:4941   */\n  swap1\n  pop\n    /* \"#utility.yul\":4887:4947   */\n  swap2\n  swap1\n  pop\n  jump\t// out\n    /* \"#utility.yul\":4953:5095   */\ntag_32:\n    /* \"#utility.yul\":5003:5012   */\n  0x00\n    /* \"#utility.yul\":5036:5089   */\n  tag_96\n    /* \"#utility.yul\":5054:5088   */\n  tag_97\n    /* \"#utility.yul\":5063:5087   */\n  tag_98\n    /* \"#utility.yul\":5081:5086   */\n  dup5\n    /* \"#utility.yul\":5063:5087   */\n  tag_30\n  jump\t// in\ntag_98:\n    /* \"#utility.yul\":5054:5088   */\n  tag_31\n  jump\t// in\ntag_97:\n    /* \"#utility.yul\":5036:5089   */\n  tag_30\n  jump\t// in\ntag_96:\n    /* \"#utility.yul\":5023:5089   */\n  swap1\n  pop\n    /* \"#utility.yul\":4953:5095   */\n  swap2\n  swap1\n  pop\n  jump\t// out\n    /* \"#utility.yul\":5101:5176   */\ntag_33:\n    /* \"#utility.yul\":5144:5147   */\n  0x00\n    /* \"#utility.yul\":5165:5170   */\n  dup2\n    /* \"#utility.yul\":5158:5170   */\n  swap1\n  pop\n    /* \"#utility.yul\":5101:5176   */\n  swap2\n  swap1\n  pop\n  jump\t// out\n    /* \"#utility.yul\":5182:5451   */\ntag_34:\n    /* \"#utility.yul\":5292:5331   */\n  tag_101\n    /* \"#utility.yul\":5323:5330   */\n  dup4\n    /* \"#utility.yul\":5292:5331   */\n  tag_32\n  jump\t// in\ntag_101:\n    /* \"#utility.yul\":5353:5444   */\n  tag_102\n    /* \"#utility.yul\":5402:5443   */\n  tag_103\n    /* \"#utility.yul\":5426:5442   */\n  dup3\n    /* \"#utility.yul\":5402:5443   */\n  tag_33\n  jump\t// in\ntag_103:\n    /* \"#utility.yul\":5394:5400   */\n  dup5\n    /* \"#utility.yul\":5387:5391   */\n  dup5\n    /* \"#utility.yul\":5381:5392   */\n  sload\n    /* \"#utility.yul\":5353:5444   */\n  tag_29\n  jump\t// in\ntag_102:\n    /* \"#utility.yul\":5347:5351   */\n  dup3\n    /* \"#utility.yul\":5340:5445   */\n  sstore\n    /* \"#utility.yul\":5258:5451   */\n  pop\n    /* \"#utility.yul\":5182:5451   */\n  pop\n  pop\n  pop\n  jump\t// out\n    /* \"#utility.yul\":5457:5530   */\ntag_35:\n    /* \"#utility.yul\":5502:5505   */\n  0x00\n    /* \"#utility.yul\":5523:5524   */\n  0x00\n    /* \"#utility.yul\":5516:5524   */\n  swap1\n  pop\n    /* \"#utility.yul\":5457:5530   */\n  swap1\n  jump\t// out\n    /* \"#utility.yul\":5536:5725   */\ntag_36:\n    /* \"#utility.yul\":5613:5645   */\n  tag_106\n  tag_35\n  jump\t// in\ntag_106:\n    /* \"#utility.yul\":5654:5719   */\n  tag_107\n    /* \"#utility.yul\":5712:5718   */\n  dup2\n    /* \"#utility.yul\":5704:5710   */\n  dup5\n    /* \"#utility.yul\":5698:5702   */\n  dup5\n    /* \"#utility.yul\":5654:5719   */\n  tag_34\n  jump\t// in\ntag_107:\n    /* \"#utility.yul\":5589:5725   */\n  pop\n    /* \"#utility.yul\":5536:5725   */\n  pop\n  pop\n  jump\t// out\n    /* \"#utility.yul\":5731:5917   */\ntag_37:\n    /* \"#utility.yul\":5791:5911   */\ntag_109:\n    /* \"#utility.yul\":5808:5811   */\n  dup2\n    /* \"#utility.yul\":5801:5806   */\n  dup2\n    /* \"#utility.yul\":5798:5812   */\n  lt\n    /* \"#utility.yul\":5791:5911   */\n  iszero\n  tag_111\n  jumpi\n    /* \"#utility.yul\":5862:5901   */\n  tag_112\n    /* \"#utility.yul\":5899:5900   */\n  0x00\n    /* \"#utility.yul\":5892:5897   */\n  dup3\n    /* \"#utility.yul\":5862:5901   */\n  tag_36\n  jump\t// in\ntag_112:\n    /* \"#utility.yul\":5835:5836   */\n  0x01\n    /* \"#utility.yul\":5828:5833   */\n  dup2\n    /* \"#utility.yul\":5824:5837   */\n  add\n    /* \"#utility.yul\":5815:5837   */\n  swap1\n  pop\n    /* \"#utility.yul\":5791:5911   */\n  jump(tag_109)\ntag_111:\n    /* \"#utility.yul\":5731:5917   */\n  pop\n  pop\n  jump\t// out\n    /* \"#utility.yul\":5923:6466   */\ntag_38:\n    /* \"#utility.yul\":6024:6026   */\n  0x1f\n    /* \"#utility.yul\":6019:6022   */\n  dup3\n    /* \"#utility.yul\":6016:6027   */\n  gt\n    /* \"#utility.yul\":6013:6459   */\n  iszero\n  tag_114\n  jumpi\n    /* \"#utility.yul\":6058:6096   */\n  tag_115\n    /* \"#utility.yul\":6090:6095   */\n  dup2\n    /* \"#utility.yul\":6058:6096   */\n  tag_26\n  jump\t// in\ntag_115:\n    /* \"#utility.yul\":6142:6171   */\n  tag_116\n    /* \"#utility.yul\":6160:6170   */\n  dup5\n    /* \"#utility.yul\":6142:6171   */\n  tag_27\n  jump\t// in\ntag_116:\n    /* \"#utility.yul\":6132:6140   */\n  dup2\n    /* \"#utility.yul\":6128:6172   */\n  add\n    /* \"#utility.yul\":6325:6327   */\n  0x20\n    /* \"#utility.yul\":6313:6323   */\n  dup6\n    /* \"#utility.yul\":6310:6328   */\n  lt\n    /* \"#utility.yul\":6307:6356   */\n  iszero\n  tag_117\n  jumpi\n    /* \"#utility.yul\":6346:6354   */\n  dup2\n    /* \"#utility.yul\":6331:6354   */\n  swap1\n  pop\n    /* \"#utility.yul\":6307:6356   */\ntag_117:\n    /* \"#utility.yul\":6369:6449   */\n  tag_118\n    /* \"#utility.yul\":6425:6447   */\n  tag_119\n    /* \"#utility.yul\":6443:6446   */\n  dup6\n    /* \"#utility.yul\":6425:6447   */\n  tag_27\n  jump\t// in\ntag_119:\n    /* \"#utility.yul\":6415:6423   */\n  dup4\n    /* \"#utility.yul\":6411:6448   */\n  add\n    /* \"#utility.yul\":6398:6409   */\n  dup3\n    /* \"#utility.yul\":6369:6449   */\n  tag_37\n  jump\t// in\ntag_118:\n    /* \"#utility.yul\":6028:6459   */\n  pop\n  pop\n    /* \"#utility.yul\":6013:6459   */\ntag_114:\n    /* \"#utility.yul\":5923:6466   */\n  pop\n  pop\n  pop\n  jump\t// out\n    /* \"#utility.yul\":6472:6589   */\ntag_39:\n    /* \"#utility.yul\":6526:6534   */\n  0x00\n    /* \"#utility.yul\":6576:6581   */\n  dup3\n    /* \"#utility.yul\":6570:6574   */\n  dup3\n    /* \"#utility.yul\":6566:6582   */\n  shr\n    /* \"#utility.yul\":6545:6582   */\n  swap1\n  pop\n    /* \"#utility.yul\":6472:6589   */\n  swap3\n  swap2\n  pop\n  pop\n  jump\t// out\n    /* \"#utility.yul\":6595:6764   */\ntag_40:\n    /* \"#utility.yul\":6639:6645   */\n  0x00\n    /* \"#utility.yul\":6672:6723   */\n  tag_122\n    /* \"#utility.yul\":6720:6721   */\n  0x00\n    /* \"#utility.yul\":6716:6722   */\n  not\n    /* \"#utility.yul\":6708:6713   */\n  dup5\n    /* \"#utility.yul\":6705:6706   */\n  0x08\n    /* \"#utility.yul\":6701:6714   */\n  mul\n    /* \"#utility.yul\":6672:6723   */\n  tag_39\n  jump\t// in\ntag_122:\n    /* \"#utility.yul\":6668:6724   */\n  not\n    /* \"#utility.yul\":6753:6757   */\n  dup1\n    /* \"#utility.yul\":6747:6751   */\n  dup4\n    /* \"#utility.yul\":6743:6758   */\n  and\n    /* \"#utility.yul\":6733:6758   */\n  swap2\n  pop\n    /* \"#utility.yul\":6646:6764   */\n  pop\n    /* \"#utility.yul\":6595:6764   */\n  swap3\n  swap2\n  pop\n  pop\n  jump\t// out\n    /* \"#utility.yul\":6769:7064   */\ntag_41:\n    /* \"#utility.yul\":6845:6849   */\n  0x00\n    /* \"#utility.yul\":6991:7020   */\n  tag_124\n    /* \"#utility.yul\":7016:7019   */\n  dup4\n    /* \"#utility.yul\":7010:7014   */\n  dup4\n    /* \"#utility.yul\":6991:7020   */\n  tag_40\n  jump\t// in\ntag_124:\n    /* \"#utility.yul\":6983:7020   */\n  swap2\n  pop\n    /* \"#utility.yul\":7053:7056   */\n  dup3\n    /* \"#utility.yul\":7050:7051   */\n  0x02\n    /* \"#utility.yul\":7046:7057   */\n  mul\n    /* \"#utility.yul\":7040:7044   */\n  dup3\n    /* \"#utility.yul\":7037:7058   */\n  or\n    /* \"#utility.yul\":7029:7058   */\n  swap1\n  pop\n    /* \"#utility.yul\":6769:7064   */\n  swap3\n  swap2\n  pop\n  pop\n  jump\t// out\n    /* \"#utility.yul\":7069:8464   */\ntag_7:\n    /* \"#utility.yul\":7186:7223   */\n  tag_126\n    /* \"#utility.yul\":7219:7222   */\n  dup3\n    /* \"#utility.yul\":7186:7223   */\n  tag_23\n  jump\t// in\ntag_126:\n    /* \"#utility.yul\":7288:7306   */\n  0xffffffffffffffff\n    /* \"#utility.yul\":7280:7286   */\n  dup2\n    /* \"#utility.yul\":7277:7307   */\n  gt\n    /* \"#utility.yul\":7274:7330   */\n  iszero\n  tag_127\n  jumpi\n    /* \"#utility.yul\":7310:7328   */\n  tag_128\n  tag_16\n  jump\t// in\ntag_128:\n    /* \"#utility.yul\":7274:7330   */\ntag_127:\n    /* \"#utility.yul\":7354:7392   */\n  tag_129\n    /* \"#utility.yul\":7386:7390   */\n  dup3\n    /* \"#utility.yul\":7380:7391   */\n  sload\n    /* \"#utility.yul\":7354:7392   */\n  tag_25\n  jump\t// in\ntag_129:\n    /* \"#utility.yul\":7439:7506   */\n  tag_130\n    /* \"#utility.yul\":7499:7505   */\n  dup3\n    /* \"#utility.yul\":7491:7497   */\n  dup3\n    /* \"#utility.yul\":7485:7489   */\n  dup6\n    /* \"#utility.yul\":7439:7506   */\n  tag_38\n  jump\t// in\ntag_130:\n    /* \"#utility.yul\":7533:7534   */\n  0x00\n    /* \"#utility.yul\":7557:7561   */\n  0x20\n    /* \"#utility.yul\":7544:7561   */\n  swap1\n  pop\n    /* \"#utility.yul\":7589:7591   */\n  0x1f\n    /* \"#utility.yul\":7581:7587   */\n  dup4\n    /* \"#utility.yul\":7578:7592   */\n  gt\n    /* \"#utility.yul\":7606:7607   */\n  0x01\n    /* \"#utility.yul\":7601:8219   */\n  dup2\n  eq\n  tag_132\n  jumpi\n    /* \"#utility.yul\":8263:8264   */\n  0x00\n    /* \"#utility.yul\":8280:8286   */\n  dup5\n    /* \"#utility.yul\":8277:8354   */\n  iszero\n  tag_133\n  jumpi\n    /* \"#utility.yul\":8329:8338   */\n  dup3\n    /* \"#utility.yul\":8324:8327   */\n  dup8\n    /* \"#utility.yul\":8320:8339   */\n  add\n    /* \"#utility.yul\":8314:8340   */\n  mload\n    /* \"#utility.yul\":8305:8340   */\n  swap1\n  pop\n    /* \"#utility.yul\":8277:8354   */\ntag_133:\n    /* \"#utility.yul\":8380:8447   */\n  tag_134\n    /* \"#utility.yul\":8440:8446   */\n  dup6\n    /* \"#utility.yul\":8433:8438   */\n  dup3\n    /* \"#utility.yul\":8380:8447   */\n  tag_41\n  jump\t// in\ntag_134:\n    /* \"#utility.yul\":8374:8378   */\n  dup7\n    /* \"#utility.yul\":8367:8448   */\n  sstore\n    /* \"#utility.yul\":8236:8458   */\n  pop\n    /* \"#utility.yul\":7571:8458   */\n  jump(tag_131)\n    /* \"#utility.yul\":7601:8219   */\ntag_132:\n    /* \"#utility.yul\":7653:7657   */\n  0x1f\n    /* \"#utility.yul\":7649:7658   */\n  not\n    /* \"#utility.yul\":7641:7647   */\n  dup5\n    /* \"#utility.yul\":7637:7659   */\n  and\n    /* \"#utility.yul\":7687:7724   */\n  tag_135\n    /* \"#utility.yul\":7719:7723   */\n  dup7\n    /* \"#utility.yul\":7687:7724   */\n  tag_26\n  jump\t// in\ntag_135:\n    /* \"#utility.yul\":7746:7747   */\n  0x00\n    /* \"#utility.yul\":7760:7968   */\ntag_136:\n    /* \"#utility.yul\":7774:7781   */\n  dup3\n    /* \"#utility.yul\":7771:7772   */\n  dup2\n    /* \"#utility.yul\":7768:7782   */\n  lt\n    /* \"#utility.yul\":7760:7968   */\n  iszero\n  tag_138\n  jumpi\n    /* \"#utility.yul\":7853:7862   */\n  dup5\n    /* \"#utility.yul\":7848:7851   */\n  dup10\n    /* \"#utility.yul\":7844:7863   */\n  add\n    /* \"#utility.yul\":7838:7864   */\n  mload\n    /* \"#utility.yul\":7830:7836   */\n  dup3\n    /* \"#utility.yul\":7823:7865   */\n  sstore\n    /* \"#utility.yul\":7904:7905   */\n  0x01\n    /* \"#utility.yul\":7896:7902   */\n  dup3\n    /* \"#utility.yul\":7892:7906   */\n  add\n    /* \"#utility.yul\":7882:7906   */\n  swap2\n  pop\n    /* \"#utility.yul\":7951:7953   */\n  0x20\n    /* \"#utility.yul\":7940:7949   */\n  dup6\n    /* \"#utility.yul\":7936:7954   */\n  add\n    /* \"#utility.yul\":7923:7954   */\n  swap5\n  pop\n    /* \"#utility.yul\":7797:7801   */\n  0x20\n    /* \"#utility.yul\":7794:7795   */\n  dup2\n    /* \"#utility.yul\":7790:7802   */\n  add\n    /* \"#utility.yul\":7785:7802   */\n  swap1\n  pop\n    /* \"#utility.yul\":7760:7968   */\n  jump(tag_136)\ntag_138:\n    /* \"#utility.yul\":7996:8002   */\n  dup7\n    /* \"#utility.yul\":7987:7994   */\n  dup4\n    /* \"#utility.yul\":7984:8003   */\n  lt\n    /* \"#utility.yul\":7981:8160   */\n  iszero\n  tag_139\n  jumpi\n    /* \"#utility.yul\":8054:8063   */\n  dup5\n    /* \"#utility.yul\":8049:8052   */\n  dup10\n    /* \"#utility.yul\":8045:8064   */\n  add\n    /* \"#utility.yul\":8039:8065   */\n  mload\n    /* \"#utility.yul\":8097:8145   */\n  tag_140\n    /* \"#utility.yul\":8139:8143   */\n  0x1f\n    /* \"#utility.yul\":8131:8137   */\n  dup10\n    /* \"#utility.yul\":8127:8144   */\n  and\n    /* \"#utility.yul\":8116:8125   */\n  dup3\n    /* \"#utility.yul\":8097:8145   */\n  tag_40\n  jump\t// in\ntag_140:\n    /* \"#utility.yul\":8089:8095   */\n  dup4\n    /* \"#utility.yul\":8082:8146   */\n  sstore\n    /* \"#utility.yul\":8004:8160   */\n  pop\n    /* \"#utility.yul\":7981:8160   */\ntag_139:\n    /* \"#utility.yul\":8206:8207   */\n  0x01\n    /* \"#utility.yul\":8202:8203   */\n  0x02\n    /* \"#utility.yul\":8194:8200   */\n  dup9\n    /* \"#utility.yul\":8190:8204   */\n  mul\n    /* \"#utility.yul\":8186:8208   */\n  add\n    /* \"#utility.yul\":8180:8184   */\n  dup9\n    /* \"#utility.yul\":8173:8209   */\n  sstore\n    /* \"#utility.yul\":7608:8219   */\n  pop\n  pop\n  pop\n    /* \"#utility.yul\":7571:8458   */\ntag_131:\n  pop\n    /* \"#utility.yul\":7161:8464   */\n  pop\n  pop\n  pop\n    /* \"#utility.yul\":7069:8464   */\n  pop\n  pop\n  jump\t// out\n    /* \"contracts/SaveMyName.sol\":108:564  contract SaveMyName {... */\ntag_9:\n  dataSize(sub_0)\n  dup1\n  dataOffset(sub_0)\n  0x00\n  codecopy\n  0x00\n  return\nstop\n\nsub_0: assembly {\n        /* \"contracts/SaveMyName.sol\":108:564  contract SaveMyName {... */\n      mstore(0x40, 0x80)\n      callvalue\n      dup1\n      iszero\n      tag_1\n      jumpi\n      revert(0x00, 0x00)\n    tag_1:\n      pop\n      jumpi(tag_2, lt(calldatasize, 0x04))\n      shr(0xe0, calldataload(0x00))\n      dup1\n      0x06fdde03\n      eq\n      tag_3\n      jumpi\n      dup1\n      0x7284e416\n      eq\n      tag_4\n      jumpi\n      dup1\n      0x8da5cb5b\n      eq\n      tag_5\n      jumpi\n      dup1\n      0xc47f0027\n      eq\n      tag_6\n      jumpi\n    tag_2:\n      revert(0x00, 0x00)\n        /* \"contracts/SaveMyName.sol\":134:152  string public name */\n    tag_3:\n      tag_7\n      tag_8\n      jump\t// in\n    tag_7:\n      mload(0x40)\n      tag_9\n      swap2\n      swap1\n      tag_10\n      jump\t// in\n    tag_9:\n      mload(0x40)\n      dup1\n      swap2\n      sub\n      swap1\n      return\n        /* \"contracts/SaveMyName.sol\":193:218  string public description */\n    tag_4:\n      tag_11\n      tag_12\n      jump\t// in\n    tag_11:\n      mload(0x40)\n      tag_13\n      swap2\n      swap1\n      tag_10\n      jump\t// in\n    tag_13:\n      mload(0x40)\n      dup1\n      swap2\n      sub\n      swap1\n      return\n        /* \"contracts/SaveMyName.sol\":232:252  address public owner */\n    tag_5:\n      tag_14\n      tag_15\n      jump\t// in\n    tag_14:\n      mload(0x40)\n      tag_16\n      swap2\n      swap1\n      tag_17\n      jump\t// in\n    tag_16:\n      mload(0x40)\n      dup1\n      swap2\n      sub\n      swap1\n      return\n        /* \"contracts/SaveMyName.sol\":418:562  function setName(string memory _newName) external {... */\n    tag_6:\n      tag_18\n      0x04\n      dup1\n      calldatasize\n      sub\n      dup2\n      add\n      swap1\n      tag_19\n      swap2\n      swap1\n      tag_20\n      jump\t// in\n    tag_19:\n      tag_21\n      jump\t// in\n    tag_18:\n      stop\n        /* \"contracts/SaveMyName.sol\":134:152  string public name */\n    tag_8:\n      0x00\n      dup1\n      sload\n      tag_22\n      swap1\n      tag_23\n      jump\t// in\n    tag_22:\n      dup1\n      0x1f\n      add\n      0x20\n      dup1\n      swap2\n      div\n      mul\n      0x20\n      add\n      mload(0x40)\n      swap1\n      dup2\n      add\n      0x40\n      mstore\n      dup1\n      swap3\n      swap2\n      swap1\n      dup2\n      dup2\n      mstore\n      0x20\n      add\n      dup3\n      dup1\n      sload\n      tag_24\n      swap1\n      tag_23\n      jump\t// in\n    tag_24:\n      dup1\n      iszero\n      tag_25\n      jumpi\n      dup1\n      0x1f\n      lt\n      tag_26\n      jumpi\n      0x0100\n      dup1\n      dup4\n      sload\n      div\n      mul\n      dup4\n      mstore\n      swap2\n      0x20\n      add\n      swap2\n      jump(tag_25)\n    tag_26:\n      dup3\n      add\n      swap2\n      swap1\n      0x00\n      mstore\n      keccak256(0x00, 0x20)\n      swap1\n    tag_27:\n      dup2\n      sload\n      dup2\n      mstore\n      swap1\n      0x01\n      add\n      swap1\n      0x20\n      add\n      dup1\n      dup4\n      gt\n      tag_27\n      jumpi\n      dup3\n      swap1\n      sub\n      0x1f\n      and\n      dup3\n      add\n      swap2\n    tag_25:\n      pop\n      pop\n      pop\n      pop\n      pop\n      dup2\n      jump\t// out\n        /* \"contracts/SaveMyName.sol\":193:218  string public description */\n    tag_12:\n      0x01\n      dup1\n      sload\n      tag_28\n      swap1\n      tag_23\n      jump\t// in\n    tag_28:\n      dup1\n      0x1f\n      add\n      0x20\n      dup1\n      swap2\n      div\n      mul\n      0x20\n      add\n      mload(0x40)\n      swap1\n      dup2\n      add\n      0x40\n      mstore\n      dup1\n      swap3\n      swap2\n      swap1\n      dup2\n      dup2\n      mstore\n      0x20\n      add\n      dup3\n      dup1\n      sload\n      tag_29\n      swap1\n      tag_23\n      jump\t// in\n    tag_29:\n      dup1\n      iszero\n      tag_30\n      jumpi\n      dup1\n      0x1f\n      lt\n      tag_31\n      jumpi\n      0x0100\n      dup1\n      dup4\n      sload\n      div\n      mul\n      dup4\n      mstore\n      swap2\n      0x20\n      add\n      swap2\n      jump(tag_30)\n    tag_31:\n      dup3\n      add\n      swap2\n      swap1\n      0x00\n      mstore\n      keccak256(0x00, 0x20)\n      swap1\n    tag_32:\n      dup2\n      sload\n      dup2\n      mstore\n      swap1\n      0x01\n      add\n      swap1\n      0x20\n      add\n      dup1\n      dup4\n      gt\n      tag_32\n      jumpi\n      dup3\n      swap1\n      sub\n      0x1f\n      and\n      dup3\n      add\n      swap2\n    tag_30:\n      pop\n      pop\n      pop\n      pop\n      pop\n      dup2\n      jump\t// out\n        /* \"contracts/SaveMyName.sol\":232:252  address public owner */\n    tag_15:\n      0x02\n      0x00\n      swap1\n      sload\n      swap1\n      0x0100\n      exp\n      swap1\n      div\n      0xffffffffffffffffffffffffffffffffffffffff\n      and\n      dup2\n      jump\t// out\n        /* \"contracts/SaveMyName.sol\":418:562  function setName(string memory _newName) external {... */\n    tag_21:\n        /* \"contracts/SaveMyName.sol\":500:505  owner */\n      0x02\n      0x00\n      swap1\n      sload\n      swap1\n      0x0100\n      exp\n      swap1\n      div\n      0xffffffffffffffffffffffffffffffffffffffff\n      and\n        /* \"contracts/SaveMyName.sol\":486:505  msg.sender == owner */\n      0xffffffffffffffffffffffffffffffffffffffff\n      and\n        /* \"contracts/SaveMyName.sol\":486:496  msg.sender */\n      caller\n        /* \"contracts/SaveMyName.sol\":486:505  msg.sender == owner */\n      0xffffffffffffffffffffffffffffffffffffffff\n      and\n      eq\n        /* \"contracts/SaveMyName.sol\":478:530  require(msg.sender == owner, \"You aren't the owner\") */\n      tag_34\n      jumpi\n      mload(0x40)\n      0x08c379a000000000000000000000000000000000000000000000000000000000\n      dup2\n      mstore\n      0x04\n      add\n      tag_35\n      swap1\n      tag_36\n      jump\t// in\n    tag_35:\n      mload(0x40)\n      dup1\n      swap2\n      sub\n      swap1\n      revert\n    tag_34:\n        /* \"contracts/SaveMyName.sol\":547:555  _newName */\n      dup1\n        /* \"contracts/SaveMyName.sol\":540:544  name */\n      0x00\n        /* \"contracts/SaveMyName.sol\":540:555  name = _newName */\n      swap1\n      dup2\n      tag_37\n      swap2\n      swap1\n      tag_38\n      jump\t// in\n    tag_37:\n      pop\n        /* \"contracts/SaveMyName.sol\":418:562  function setName(string memory _newName) external {... */\n      pop\n      jump\t// out\n        /* \"#utility.yul\":7:106   */\n    tag_39:\n        /* \"#utility.yul\":59:65   */\n      0x00\n        /* \"#utility.yul\":93:98   */\n      dup2\n        /* \"#utility.yul\":87:99   */\n      mload\n        /* \"#utility.yul\":77:99   */\n      swap1\n      pop\n        /* \"#utility.yul\":7:106   */\n      swap2\n      swap1\n      pop\n      jump\t// out\n        /* \"#utility.yul\":112:281   */\n    tag_40:\n        /* \"#utility.yul\":196:207   */\n      0x00\n        /* \"#utility.yul\":230:236   */\n      dup3\n        /* \"#utility.yul\":225:228   */\n      dup3\n        /* \"#utility.yul\":218:237   */\n      mstore\n        /* \"#utility.yul\":270:274   */\n      0x20\n        /* \"#utility.yul\":265:268   */\n      dup3\n        /* \"#utility.yul\":261:275   */\n      add\n        /* \"#utility.yul\":246:275   */\n      swap1\n      pop\n        /* \"#utility.yul\":112:281   */\n      swap3\n      swap2\n      pop\n      pop\n      jump\t// out\n        /* \"#utility.yul\":287:426   */\n    tag_41:\n        /* \"#utility.yul\":376:382   */\n      dup3\n        /* \"#utility.yul\":371:374   */\n      dup2\n        /* \"#utility.yul\":366:369   */\n      dup4\n        /* \"#utility.yul\":360:383   */\n      mcopy\n        /* \"#utility.yul\":417:418   */\n      0x00\n        /* \"#utility.yul\":408:414   */\n      dup4\n        /* \"#utility.yul\":403:406   */\n      dup4\n        /* \"#utility.yul\":399:415   */\n      add\n        /* \"#utility.yul\":392:419   */\n      mstore\n        /* \"#utility.yul\":287:426   */\n      pop\n      pop\n      pop\n      jump\t// out\n        /* \"#utility.yul\":432:534   */\n    tag_42:\n        /* \"#utility.yul\":473:479   */\n      0x00\n        /* \"#utility.yul\":524:526   */\n      0x1f\n        /* \"#utility.yul\":520:527   */\n      not\n        /* \"#utility.yul\":515:517   */\n      0x1f\n        /* \"#utility.yul\":508:513   */\n      dup4\n        /* \"#utility.yul\":504:518   */\n      add\n        /* \"#utility.yul\":500:528   */\n      and\n        /* \"#utility.yul\":490:528   */\n      swap1\n      pop\n        /* \"#utility.yul\":432:534   */\n      swap2\n      swap1\n      pop\n      jump\t// out\n        /* \"#utility.yul\":540:917   */\n    tag_43:\n        /* \"#utility.yul\":628:631   */\n      0x00\n        /* \"#utility.yul\":656:695   */\n      tag_84\n        /* \"#utility.yul\":689:694   */\n      dup3\n        /* \"#utility.yul\":656:695   */\n      tag_39\n      jump\t// in\n    tag_84:\n        /* \"#utility.yul\":711:782   */\n      tag_85\n        /* \"#utility.yul\":775:781   */\n      dup2\n        /* \"#utility.yul\":770:773   */\n      dup6\n        /* \"#utility.yul\":711:782   */\n      tag_40\n      jump\t// in\n    tag_85:\n        /* \"#utility.yul\":704:782   */\n      swap4\n      pop\n        /* \"#utility.yul\":791:856   */\n      tag_86\n        /* \"#utility.yul\":849:855   */\n      dup2\n        /* \"#utility.yul\":844:847   */\n      dup6\n        /* \"#utility.yul\":837:841   */\n      0x20\n        /* \"#utility.yul\":830:835   */\n      dup7\n        /* \"#utility.yul\":826:842   */\n      add\n        /* \"#utility.yul\":791:856   */\n      tag_41\n      jump\t// in\n    tag_86:\n        /* \"#utility.yul\":881:910   */\n      tag_87\n        /* \"#utility.yul\":903:909   */\n      dup2\n        /* \"#utility.yul\":881:910   */\n      tag_42\n      jump\t// in\n    tag_87:\n        /* \"#utility.yul\":876:879   */\n      dup5\n        /* \"#utility.yul\":872:911   */\n      add\n        /* \"#utility.yul\":865:911   */\n      swap2\n      pop\n        /* \"#utility.yul\":632:917   */\n      pop\n        /* \"#utility.yul\":540:917   */\n      swap3\n      swap2\n      pop\n      pop\n      jump\t// out\n        /* \"#utility.yul\":923:1236   */\n    tag_10:\n        /* \"#utility.yul\":1036:1040   */\n      0x00\n        /* \"#utility.yul\":1074:1076   */\n      0x20\n        /* \"#utility.yul\":1063:1072   */\n      dup3\n        /* \"#utility.yul\":1059:1077   */\n      add\n        /* \"#utility.yul\":1051:1077   */\n      swap1\n      pop\n        /* \"#utility.yul\":1123:1132   */\n      dup2\n        /* \"#utility.yul\":1117:1121   */\n      dup2\n        /* \"#utility.yul\":1113:1133   */\n      sub\n        /* \"#utility.yul\":1109:1110   */\n      0x00\n        /* \"#utility.yul\":1098:1107   */\n      dup4\n        /* \"#utility.yul\":1094:1111   */\n      add\n        /* \"#utility.yul\":1087:1134   */\n      mstore\n        /* \"#utility.yul\":1151:1229   */\n      tag_89\n        /* \"#utility.yul\":1224:1228   */\n      dup2\n        /* \"#utility.yul\":1215:1221   */\n      dup5\n        /* \"#utility.yul\":1151:1229   */\n      tag_43\n      jump\t// in\n    tag_89:\n        /* \"#utility.yul\":1143:1229   */\n      swap1\n      pop\n        /* \"#utility.yul\":923:1236   */\n      swap3\n      swap2\n      pop\n      pop\n      jump\t// out\n        /* \"#utility.yul\":1242:1368   */\n    tag_44:\n        /* \"#utility.yul\":1279:1286   */\n      0x00\n        /* \"#utility.yul\":1319:1361   */\n      0xffffffffffffffffffffffffffffffffffffffff\n        /* \"#utility.yul\":1312:1317   */\n      dup3\n        /* \"#utility.yul\":1308:1362   */\n      and\n        /* \"#utility.yul\":1297:1362   */\n      swap1\n      pop\n        /* \"#utility.yul\":1242:1368   */\n      swap2\n      swap1\n      pop\n      jump\t// out\n        /* \"#utility.yul\":1374:1470   */\n    tag_45:\n        /* \"#utility.yul\":1411:1418   */\n      0x00\n        /* \"#utility.yul\":1440:1464   */\n      tag_92\n        /* \"#utility.yul\":1458:1463   */\n      dup3\n        /* \"#utility.yul\":1440:1464   */\n      tag_44\n      jump\t// in\n    tag_92:\n        /* \"#utility.yul\":1429:1464   */\n      swap1\n      pop\n        /* \"#utility.yul\":1374:1470   */\n      swap2\n      swap1\n      pop\n      jump\t// out\n        /* \"#utility.yul\":1476:1594   */\n    tag_46:\n        /* \"#utility.yul\":1563:1587   */\n      tag_94\n        /* \"#utility.yul\":1581:1586   */\n      dup2\n        /* \"#utility.yul\":1563:1587   */\n      tag_45\n      jump\t// in\n    tag_94:\n        /* \"#utility.yul\":1558:1561   */\n      dup3\n        /* \"#utility.yul\":1551:1588   */\n      mstore\n        /* \"#utility.yul\":1476:1594   */\n      pop\n      pop\n      jump\t// out\n        /* \"#utility.yul\":1600:1822   */\n    tag_17:\n        /* \"#utility.yul\":1693:1697   */\n      0x00\n        /* \"#utility.yul\":1731:1733   */\n      0x20\n        /* \"#utility.yul\":1720:1729   */\n      dup3\n        /* \"#utility.yul\":1716:1734   */\n      add\n        /* \"#utility.yul\":1708:1734   */\n      swap1\n      pop\n        /* \"#utility.yul\":1744:1815   */\n      tag_96\n        /* \"#utility.yul\":1812:1813   */\n      0x00\n        /* \"#utility.yul\":1801:1810   */\n      dup4\n        /* \"#utility.yul\":1797:1814   */\n      add\n        /* \"#utility.yul\":1788:1794   */\n      dup5\n        /* \"#utility.yul\":1744:1815   */\n      tag_46\n      jump\t// in\n    tag_96:\n        /* \"#utility.yul\":1600:1822   */\n      swap3\n      swap2\n      pop\n      pop\n      jump\t// out\n        /* \"#utility.yul\":1828:1903   */\n    tag_47:\n        /* \"#utility.yul\":1861:1867   */\n      0x00\n        /* \"#utility.yul\":1894:1896   */\n      0x40\n        /* \"#utility.yul\":1888:1897   */\n      mload\n        /* \"#utility.yul\":1878:1897   */\n      swap1\n      pop\n        /* \"#utility.yul\":1828:1903   */\n      swap1\n      jump\t// out\n        /* \"#utility.yul\":1909:2026   */\n    tag_48:\n        /* \"#utility.yul\":2018:2019   */\n      0x00\n        /* \"#utility.yul\":2015:2016   */\n      0x00\n        /* \"#utility.yul\":2008:2020   */\n      revert\n        /* \"#utility.yul\":2032:2149   */\n    tag_49:\n        /* \"#utility.yul\":2141:2142   */\n      0x00\n        /* \"#utility.yul\":2138:2139   */\n      0x00\n        /* \"#utility.yul\":2131:2143   */\n      revert\n        /* \"#utility.yul\":2155:2272   */\n    tag_50:\n        /* \"#utility.yul\":2264:2265   */\n      0x00\n        /* \"#utility.yul\":2261:2262   */\n      0x00\n        /* \"#utility.yul\":2254:2266   */\n      revert\n        /* \"#utility.yul\":2278:2395   */\n    tag_51:\n        /* \"#utility.yul\":2387:2388   */\n      0x00\n        /* \"#utility.yul\":2384:2385   */\n      0x00\n        /* \"#utility.yul\":2377:2389   */\n      revert\n        /* \"#utility.yul\":2401:2581   */\n    tag_52:\n        /* \"#utility.yul\":2449:2526   */\n      0x4e487b7100000000000000000000000000000000000000000000000000000000\n        /* \"#utility.yul\":2446:2447   */\n      0x00\n        /* \"#utility.yul\":2439:2527   */\n      mstore\n        /* \"#utility.yul\":2546:2550   */\n      0x41\n        /* \"#utility.yul\":2543:2544   */\n      0x04\n        /* \"#utility.yul\":2536:2551   */\n      mstore\n        /* \"#utility.yul\":2570:2574   */\n      0x24\n        /* \"#utility.yul\":2567:2568   */\n      0x00\n        /* \"#utility.yul\":2560:2575   */\n      revert\n        /* \"#utility.yul\":2587:2868   */\n    tag_53:\n        /* \"#utility.yul\":2670:2697   */\n      tag_104\n        /* \"#utility.yul\":2692:2696   */\n      dup3\n        /* \"#utility.yul\":2670:2697   */\n      tag_42\n      jump\t// in\n    tag_104:\n        /* \"#utility.yul\":2662:2668   */\n      dup2\n        /* \"#utility.yul\":2658:2698   */\n      add\n        /* \"#utility.yul\":2800:2806   */\n      dup2\n        /* \"#utility.yul\":2788:2798   */\n      dup2\n        /* \"#utility.yul\":2785:2807   */\n      lt\n        /* \"#utility.yul\":2764:2782   */\n      0xffffffffffffffff\n        /* \"#utility.yul\":2752:2762   */\n      dup3\n        /* \"#utility.yul\":2749:2783   */\n      gt\n        /* \"#utility.yul\":2746:2808   */\n      or\n        /* \"#utility.yul\":2743:2831   */\n      iszero\n      tag_105\n      jumpi\n        /* \"#utility.yul\":2811:2829   */\n      tag_106\n      tag_52\n      jump\t// in\n    tag_106:\n        /* \"#utility.yul\":2743:2831   */\n    tag_105:\n        /* \"#utility.yul\":2851:2861   */\n      dup1\n        /* \"#utility.yul\":2847:2849   */\n      0x40\n        /* \"#utility.yul\":2840:2862   */\n      mstore\n        /* \"#utility.yul\":2630:2868   */\n      pop\n        /* \"#utility.yul\":2587:2868   */\n      pop\n      pop\n      jump\t// out\n        /* \"#utility.yul\":2874:3003   */\n    tag_54:\n        /* \"#utility.yul\":2908:2914   */\n      0x00\n        /* \"#utility.yul\":2935:2955   */\n      tag_108\n      tag_47\n      jump\t// in\n    tag_108:\n        /* \"#utility.yul\":2925:2955   */\n      swap1\n      pop\n        /* \"#utility.yul\":2964:2997   */\n      tag_109\n        /* \"#utility.yul\":2992:2996   */\n      dup3\n        /* \"#utility.yul\":2984:2990   */\n      dup3\n        /* \"#utility.yul\":2964:2997   */\n      tag_53\n      jump\t// in\n    tag_109:\n        /* \"#utility.yul\":2874:3003   */\n      swap2\n      swap1\n      pop\n      jump\t// out\n        /* \"#utility.yul\":3009:3317   */\n    tag_55:\n        /* \"#utility.yul\":3071:3075   */\n      0x00\n        /* \"#utility.yul\":3161:3179   */\n      0xffffffffffffffff\n        /* \"#utility.yul\":3153:3159   */\n      dup3\n        /* \"#utility.yul\":3150:3180   */\n      gt\n        /* \"#utility.yul\":3147:3203   */\n      iszero\n      tag_111\n      jumpi\n        /* \"#utility.yul\":3183:3201   */\n      tag_112\n      tag_52\n      jump\t// in\n    tag_112:\n        /* \"#utility.yul\":3147:3203   */\n    tag_111:\n        /* \"#utility.yul\":3221:3250   */\n      tag_113\n        /* \"#utility.yul\":3243:3249   */\n      dup3\n        /* \"#utility.yul\":3221:3250   */\n      tag_42\n      jump\t// in\n    tag_113:\n        /* \"#utility.yul\":3213:3250   */\n      swap1\n      pop\n        /* \"#utility.yul\":3305:3309   */\n      0x20\n        /* \"#utility.yul\":3299:3303   */\n      dup2\n        /* \"#utility.yul\":3295:3310   */\n      add\n        /* \"#utility.yul\":3287:3310   */\n      swap1\n      pop\n        /* \"#utility.yul\":3009:3317   */\n      swap2\n      swap1\n      pop\n      jump\t// out\n        /* \"#utility.yul\":3323:3471   */\n    tag_56:\n        /* \"#utility.yul\":3421:3427   */\n      dup3\n        /* \"#utility.yul\":3416:3419   */\n      dup2\n        /* \"#utility.yul\":3411:3414   */\n      dup4\n        /* \"#utility.yul\":3398:3428   */\n      calldatacopy\n        /* \"#utility.yul\":3462:3463   */\n      0x00\n        /* \"#utility.yul\":3453:3459   */\n      dup4\n        /* \"#utility.yul\":3448:3451   */\n      dup4\n        /* \"#utility.yul\":3444:3460   */\n      add\n        /* \"#utility.yul\":3437:3464   */\n      mstore\n        /* \"#utility.yul\":3323:3471   */\n      pop\n      pop\n      pop\n      jump\t// out\n        /* \"#utility.yul\":3477:3902   */\n    tag_57:\n        /* \"#utility.yul\":3555:3560   */\n      0x00\n        /* \"#utility.yul\":3580:3646   */\n      tag_116\n        /* \"#utility.yul\":3596:3645   */\n      tag_117\n        /* \"#utility.yul\":3638:3644   */\n      dup5\n        /* \"#utility.yul\":3596:3645   */\n      tag_55\n      jump\t// in\n    tag_117:\n        /* \"#utility.yul\":3580:3646   */\n      tag_54\n      jump\t// in\n    tag_116:\n        /* \"#utility.yul\":3571:3646   */\n      swap1\n      pop\n        /* \"#utility.yul\":3669:3675   */\n      dup3\n        /* \"#utility.yul\":3662:3667   */\n      dup2\n        /* \"#utility.yul\":3655:3676   */\n      mstore\n        /* \"#utility.yul\":3707:3711   */\n      0x20\n        /* \"#utility.yul\":3700:3705   */\n      dup2\n        /* \"#utility.yul\":3696:3712   */\n      add\n        /* \"#utility.yul\":3745:3748   */\n      dup5\n        /* \"#utility.yul\":3736:3742   */\n      dup5\n        /* \"#utility.yul\":3731:3734   */\n      dup5\n        /* \"#utility.yul\":3727:3743   */\n      add\n        /* \"#utility.yul\":3724:3749   */\n      gt\n        /* \"#utility.yul\":3721:3833   */\n      iszero\n      tag_118\n      jumpi\n        /* \"#utility.yul\":3752:3831   */\n      tag_119\n      tag_51\n      jump\t// in\n    tag_119:\n        /* \"#utility.yul\":3721:3833   */\n    tag_118:\n        /* \"#utility.yul\":3842:3896   */\n      tag_120\n        /* \"#utility.yul\":3889:3895   */\n      dup5\n        /* \"#utility.yul\":3884:3887   */\n      dup3\n        /* \"#utility.yul\":3879:3882   */\n      dup6\n        /* \"#utility.yul\":3842:3896   */\n      tag_56\n      jump\t// in\n    tag_120:\n        /* \"#utility.yul\":3561:3902   */\n      pop\n        /* \"#utility.yul\":3477:3902   */\n      swap4\n      swap3\n      pop\n      pop\n      pop\n      jump\t// out\n        /* \"#utility.yul\":3922:4262   */\n    tag_58:\n        /* \"#utility.yul\":3978:3983   */\n      0x00\n        /* \"#utility.yul\":4027:4030   */\n      dup3\n        /* \"#utility.yul\":4020:4024   */\n      0x1f\n        /* \"#utility.yul\":4012:4018   */\n      dup4\n        /* \"#utility.yul\":4008:4025   */\n      add\n        /* \"#utility.yul\":4004:4031   */\n      slt\n        /* \"#utility.yul\":3994:4116   */\n      tag_122\n      jumpi\n        /* \"#utility.yul\":4035:4114   */\n      tag_123\n      tag_50\n      jump\t// in\n    tag_123:\n        /* \"#utility.yul\":3994:4116   */\n    tag_122:\n        /* \"#utility.yul\":4152:4158   */\n      dup2\n        /* \"#utility.yul\":4139:4159   */\n      calldataload\n        /* \"#utility.yul\":4177:4256   */\n      tag_124\n        /* \"#utility.yul\":4252:4255   */\n      dup5\n        /* \"#utility.yul\":4244:4250   */\n      dup3\n        /* \"#utility.yul\":4237:4241   */\n      0x20\n        /* \"#utility.yul\":4229:4235   */\n      dup7\n        /* \"#utility.yul\":4225:4242   */\n      add\n        /* \"#utility.yul\":4177:4256   */\n      tag_57\n      jump\t// in\n    tag_124:\n        /* \"#utility.yul\":4168:4256   */\n      swap2\n      pop\n        /* \"#utility.yul\":3984:4262   */\n      pop\n        /* \"#utility.yul\":3922:4262   */\n      swap3\n      swap2\n      pop\n      pop\n      jump\t// out\n        /* \"#utility.yul\":4268:4777   */\n    tag_20:\n        /* \"#utility.yul\":4337:4343   */\n      0x00\n        /* \"#utility.yul\":4386:4388   */\n      0x20\n        /* \"#utility.yul\":4374:4383   */\n      dup3\n        /* \"#utility.yul\":4365:4372   */\n      dup5\n        /* \"#utility.yul\":4361:4384   */\n      sub\n        /* \"#utility.yul\":4357:4389   */\n      slt\n        /* \"#utility.yul\":4354:4473   */\n      iszero\n      tag_126\n      jumpi\n        /* \"#utility.yul\":4392:4471   */\n      tag_127\n      tag_48\n      jump\t// in\n    tag_127:\n        /* \"#utility.yul\":4354:4473   */\n    tag_126:\n        /* \"#utility.yul\":4540:4541   */\n      0x00\n        /* \"#utility.yul\":4529:4538   */\n      dup3\n        /* \"#utility.yul\":4525:4542   */\n      add\n        /* \"#utility.yul\":4512:4543   */\n      calldataload\n        /* \"#utility.yul\":4570:4588   */\n      0xffffffffffffffff\n        /* \"#utility.yul\":4562:4568   */\n      dup2\n        /* \"#utility.yul\":4559:4589   */\n      gt\n        /* \"#utility.yul\":4556:4673   */\n      iszero\n      tag_128\n      jumpi\n        /* \"#utility.yul\":4592:4671   */\n      tag_129\n      tag_49\n      jump\t// in\n    tag_129:\n        /* \"#utility.yul\":4556:4673   */\n    tag_128:\n        /* \"#utility.yul\":4697:4760   */\n      tag_130\n        /* \"#utility.yul\":4752:4759   */\n      dup5\n        /* \"#utility.yul\":4743:4749   */\n      dup3\n        /* \"#utility.yul\":4732:4741   */\n      dup6\n        /* \"#utility.yul\":4728:4750   */\n      add\n        /* \"#utility.yul\":4697:4760   */\n      tag_58\n      jump\t// in\n    tag_130:\n        /* \"#utility.yul\":4687:4760   */\n      swap2\n      pop\n        /* \"#utility.yul\":4483:4770   */\n      pop\n        /* \"#utility.yul\":4268:4777   */\n      swap3\n      swap2\n      pop\n      pop\n      jump\t// out\n        /* \"#utility.yul\":4783:4963   */\n    tag_59:\n        /* \"#utility.yul\":4831:4908   */\n      0x4e487b7100000000000000000000000000000000000000000000000000000000\n        /* \"#utility.yul\":4828:4829   */\n      0x00\n        /* \"#utility.yul\":4821:4909   */\n      mstore\n        /* \"#utility.yul\":4928:4932   */\n      0x22\n        /* \"#utility.yul\":4925:4926   */\n      0x04\n        /* \"#utility.yul\":4918:4933   */\n      mstore\n        /* \"#utility.yul\":4952:4956   */\n      0x24\n        /* \"#utility.yul\":4949:4950   */\n      0x00\n        /* \"#utility.yul\":4942:4957   */\n      revert\n        /* \"#utility.yul\":4969:5289   */\n    tag_23:\n        /* \"#utility.yul\":5013:5019   */\n      0x00\n        /* \"#utility.yul\":5050:5051   */\n      0x02\n        /* \"#utility.yul\":5044:5048   */\n      dup3\n        /* \"#utility.yul\":5040:5052   */\n      div\n        /* \"#utility.yul\":5030:5052   */\n      swap1\n      pop\n        /* \"#utility.yul\":5097:5098   */\n      0x01\n        /* \"#utility.yul\":5091:5095   */\n      dup3\n        /* \"#utility.yul\":5087:5099   */\n      and\n        /* \"#utility.yul\":5118:5136   */\n      dup1\n        /* \"#utility.yul\":5108:5189   */\n      tag_133\n      jumpi\n        /* \"#utility.yul\":5174:5178   */\n      0x7f\n        /* \"#utility.yul\":5166:5172   */\n      dup3\n        /* \"#utility.yul\":5162:5179   */\n      and\n        /* \"#utility.yul\":5152:5179   */\n      swap2\n      pop\n        /* \"#utility.yul\":5108:5189   */\n    tag_133:\n        /* \"#utility.yul\":5236:5238   */\n      0x20\n        /* \"#utility.yul\":5228:5234   */\n      dup3\n        /* \"#utility.yul\":5225:5239   */\n      lt\n        /* \"#utility.yul\":5205:5223   */\n      dup2\n        /* \"#utility.yul\":5202:5240   */\n      sub\n        /* \"#utility.yul\":5199:5283   */\n      tag_134\n      jumpi\n        /* \"#utility.yul\":5255:5273   */\n      tag_135\n      tag_59\n      jump\t// in\n    tag_135:\n        /* \"#utility.yul\":5199:5283   */\n    tag_134:\n        /* \"#utility.yul\":5020:5289   */\n      pop\n        /* \"#utility.yul\":4969:5289   */\n      swap2\n      swap1\n      pop\n      jump\t// out\n        /* \"#utility.yul\":5295:5465   */\n    tag_60:\n        /* \"#utility.yul\":5435:5457   */\n      0x596f75206172656e277420746865206f776e6572000000000000000000000000\n        /* \"#utility.yul\":5431:5432   */\n      0x00\n        /* \"#utility.yul\":5423:5429   */\n      dup3\n        /* \"#utility.yul\":5419:5433   */\n      add\n        /* \"#utility.yul\":5412:5458   */\n      mstore\n        /* \"#utility.yul\":5295:5465   */\n      pop\n      jump\t// out\n        /* \"#utility.yul\":5471:5837   */\n    tag_61:\n        /* \"#utility.yul\":5613:5616   */\n      0x00\n        /* \"#utility.yul\":5634:5701   */\n      tag_138\n        /* \"#utility.yul\":5698:5700   */\n      0x14\n        /* \"#utility.yul\":5693:5696   */\n      dup4\n        /* \"#utility.yul\":5634:5701   */\n      tag_40\n      jump\t// in\n    tag_138:\n        /* \"#utility.yul\":5627:5701   */\n      swap2\n      pop\n        /* \"#utility.yul\":5710:5803   */\n      tag_139\n        /* \"#utility.yul\":5799:5802   */\n      dup3\n        /* \"#utility.yul\":5710:5803   */\n      tag_60\n      jump\t// in\n    tag_139:\n        /* \"#utility.yul\":5828:5830   */\n      0x20\n        /* \"#utility.yul\":5823:5826   */\n      dup3\n        /* \"#utility.yul\":5819:5831   */\n      add\n        /* \"#utility.yul\":5812:5831   */\n      swap1\n      pop\n        /* \"#utility.yul\":5471:5837   */\n      swap2\n      swap1\n      pop\n      jump\t// out\n        /* \"#utility.yul\":5843:6262   */\n    tag_36:\n        /* \"#utility.yul\":6009:6013   */\n      0x00\n        /* \"#utility.yul\":6047:6049   */\n      0x20\n        /* \"#utility.yul\":6036:6045   */\n      dup3\n        /* \"#utility.yul\":6032:6050   */\n      add\n        /* \"#utility.yul\":6024:6050   */\n      swap1\n      pop\n        /* \"#utility.yul\":6096:6105   */\n      dup2\n        /* \"#utility.yul\":6090:6094   */\n      dup2\n        /* \"#utility.yul\":6086:6106   */\n      sub\n        /* \"#utility.yul\":6082:6083   */\n      0x00\n        /* \"#utility.yul\":6071:6080   */\n      dup4\n        /* \"#utility.yul\":6067:6084   */\n      add\n        /* \"#utility.yul\":6060:6107   */\n      mstore\n        /* \"#utility.yul\":6124:6255   */\n      tag_141\n        /* \"#utility.yul\":6250:6254   */\n      dup2\n        /* \"#utility.yul\":6124:6255   */\n      tag_61\n      jump\t// in\n    tag_141:\n        /* \"#utility.yul\":6116:6255   */\n      swap1\n      pop\n        /* \"#utility.yul\":5843:6262   */\n      swap2\n      swap1\n      pop\n      jump\t// out\n        /* \"#utility.yul\":6268:6409   */\n    tag_62:\n        /* \"#utility.yul\":6317:6321   */\n      0x00\n        /* \"#utility.yul\":6340:6343   */\n      dup2\n        /* \"#utility.yul\":6332:6343   */\n      swap1\n      pop\n        /* \"#utility.yul\":6363:6366   */\n      dup2\n        /* \"#utility.yul\":6360:6361   */\n      0x00\n        /* \"#utility.yul\":6353:6367   */\n      mstore\n        /* \"#utility.yul\":6397:6401   */\n      0x20\n        /* \"#utility.yul\":6394:6395   */\n      0x00\n        /* \"#utility.yul\":6384:6402   */\n      keccak256\n        /* \"#utility.yul\":6376:6402   */\n      swap1\n      pop\n        /* \"#utility.yul\":6268:6409   */\n      swap2\n      swap1\n      pop\n      jump\t// out\n        /* \"#utility.yul\":6415:6508   */\n    tag_63:\n        /* \"#utility.yul\":6452:6458   */\n      0x00\n        /* \"#utility.yul\":6499:6501   */\n      0x20\n        /* \"#utility.yul\":6494:6496   */\n      0x1f\n        /* \"#utility.yul\":6487:6492   */\n      dup4\n        /* \"#utility.yul\":6483:6497   */\n      add\n        /* \"#utility.yul\":6479:6502   */\n      div\n        /* \"#utility.yul\":6469:6502   */\n      swap1\n      pop\n        /* \"#utility.yul\":6415:6508   */\n      swap2\n      swap1\n      pop\n      jump\t// out\n        /* \"#utility.yul\":6514:6621   */\n    tag_64:\n        /* \"#utility.yul\":6558:6566   */\n      0x00\n        /* \"#utility.yul\":6608:6613   */\n      dup3\n        /* \"#utility.yul\":6602:6606   */\n      dup3\n        /* \"#utility.yul\":6598:6614   */\n      shl\n        /* \"#utility.yul\":6577:6614   */\n      swap1\n      pop\n        /* \"#utility.yul\":6514:6621   */\n      swap3\n      swap2\n      pop\n      pop\n      jump\t// out\n        /* \"#utility.yul\":6627:7020   */\n    tag_65:\n        /* \"#utility.yul\":6696:6702   */\n      0x00\n        /* \"#utility.yul\":6746:6747   */\n      0x08\n        /* \"#utility.yul\":6734:6744   */\n      dup4\n        /* \"#utility.yul\":6730:6748   */\n      mul\n        /* \"#utility.yul\":6769:6866   */\n      tag_146\n        /* \"#utility.yul\":6799:6865   */\n      0xffffffffffffffffffffffffffffffffffffffffffffffffffffffffffffffff\n        /* \"#utility.yul\":6788:6797   */\n      dup3\n        /* \"#utility.yul\":6769:6866   */\n      tag_64\n      jump\t// in\n    tag_146:\n        /* \"#utility.yul\":6887:6926   */\n      tag_147\n        /* \"#utility.yul\":6917:6925   */\n      dup7\n        /* \"#utility.yul\":6906:6915   */\n      dup4\n        /* \"#utility.yul\":6887:6926   */\n      tag_64\n      jump\t// in\n    tag_147:\n        /* \"#utility.yul\":6875:6926   */\n      swap6\n      pop\n        /* \"#utility.yul\":6959:6963   */\n      dup1\n        /* \"#utility.yul\":6955:6964   */\n      not\n        /* \"#utility.yul\":6948:6953   */\n      dup5\n        /* \"#utility.yul\":6944:6965   */\n      and\n        /* \"#utility.yul\":6935:6965   */\n      swap4\n      pop\n        /* \"#utility.yul\":7008:7012   */\n      dup1\n        /* \"#utility.yul\":6998:7006   */\n      dup7\n        /* \"#utility.yul\":6994:7013   */\n      and\n        /* \"#utility.yul\":6987:6992   */\n      dup5\n        /* \"#utility.yul\":6984:7014   */\n      or\n        /* \"#utility.yul\":6974:7014   */\n      swap3\n      pop\n        /* \"#utility.yul\":6703:7020   */\n      pop\n      pop\n        /* \"#utility.yul\":6627:7020   */\n      swap4\n      swap3\n      pop\n      pop\n      pop\n      jump\t// out\n        /* \"#utility.yul\":7026:7103   */\n    tag_66:\n        /* \"#utility.yul\":7063:7070   */\n      0x00\n        /* \"#utility.yul\":7092:7097   */\n      dup2\n        /* \"#utility.yul\":7081:7097   */\n      swap1\n      pop\n        /* \"#utility.yul\":7026:7103   */\n      swap2\n      swap1\n      pop\n      jump\t// out\n        /* \"#utility.yul\":7109:7169   */\n    tag_67:\n        /* \"#utility.yul\":7137:7140   */\n      0x00\n        /* \"#utility.yul\":7158:7163   */\n      dup2\n        /* \"#utility.yul\":7151:7163   */\n      swap1\n      pop\n        /* \"#utility.yul\":7109:7169   */\n      swap2\n      swap1\n      pop\n      jump\t// out\n        /* \"#utility.yul\":7175:7317   */\n    tag_68:\n        /* \"#utility.yul\":7225:7234   */\n      0x00\n        /* \"#utility.yul\":7258:7311   */\n      tag_151\n        /* \"#utility.yul\":7276:7310   */\n      tag_152\n        /* \"#utility.yul\":7285:7309   */\n      tag_153\n        /* \"#utility.yul\":7303:7308   */\n      dup5\n        /* \"#utility.yul\":7285:7309   */\n      tag_66\n      jump\t// in\n    tag_153:\n        /* \"#utility.yul\":7276:7310   */\n      tag_67\n      jump\t// in\n    tag_152:\n        /* \"#utility.yul\":7258:7311   */\n      tag_66\n      jump\t// in\n    tag_151:\n        /* \"#utility.yul\":7245:7311   */\n      swap1\n      pop\n        /* \"#utility.yul\":7175:7317   */\n      swap2\n      swap1\n      pop\n      jump\t// out\n        /* \"#utility.yul\":7323:7398   */\n    tag_69:\n        /* \"#utility.yul\":7366:7369   */\n      0x00\n        /* \"#utility.yul\":7387:7392   */\n      dup2\n        /* \"#utility.yul\":7380:7392   */\n      swap1\n      pop\n        /* \"#utility.yul\":7323:7398   */\n      swap2\n      swap1\n      pop\n      jump\t// out\n        /* \"#utility.yul\":7404:7673   */\n    tag_70:\n        /* \"#utility.yul\":7514:7553   */\n      tag_156\n        /* \"#utility.yul\":7545:7552   */\n      dup4\n        /* \"#utility.yul\":7514:7553   */\n      tag_68\n      jump\t// in\n    tag_156:\n        /* \"#utility.yul\":7575:7666   */\n      tag_157\n        /* \"#utility.yul\":7624:7665   */\n      tag_158\n        /* \"#utility.yul\":7648:7664   */\n      dup3\n        /* \"#utility.yul\":7624:7665   */\n      tag_69\n      jump\t// in\n    tag_158:\n        /* \"#utility.yul\":7616:7622   */\n      dup5\n        /* \"#utility.yul\":7609:7613   */\n      dup5\n        /* \"#utility.yul\":7603:7614   */\n      sload\n        /* \"#utility.yul\":7575:7666   */\n      tag_65\n      jump\t// in\n    tag_157:\n        /* \"#utility.yul\":7569:7573   */\n      dup3\n        /* \"#utility.yul\":7562:7667   */\n      sstore\n        /* \"#utility.yul\":7480:7673   */\n      pop\n        /* \"#utility.yul\":7404:7673   */\n      pop\n      pop\n      pop\n      jump\t// out\n        /* \"#utility.yul\":7679:7752   */\n    tag_71:\n        /* \"#utility.yul\":7724:7727   */\n      0x00\n        /* \"#utility.yul\":7745:7746   */\n      0x00\n        /* \"#utility.yul\":7738:7746   */\n      swap1\n      pop\n        /* \"#utility.yul\":7679:7752   */\n      swap1\n      jump\t// out\n        /* \"#utility.yul\":7758:7947   */\n    tag_72:\n        /* \"#utility.yul\":7835:7867   */\n      tag_161\n      tag_71\n      jump\t// in\n    tag_161:\n        /* \"#utility.yul\":7876:7941   */\n      tag_162\n        /* \"#utility.yul\":7934:7940   */\n      dup2\n        /* \"#utility.yul\":7926:7932   */\n      dup5\n        /* \"#utility.yul\":7920:7924   */\n      dup5\n        /* \"#utility.yul\":7876:7941   */\n      tag_70\n      jump\t// in\n    tag_162:\n        /* \"#utility.yul\":7811:7947   */\n      pop\n        /* \"#utility.yul\":7758:7947   */\n      pop\n      pop\n      jump\t// out\n        /* \"#utility.yul\":7953:8139   */\n    tag_73:\n        /* \"#utility.yul\":8013:8133   */\n    tag_164:\n        /* \"#utility.yul\":8030:8033   */\n      dup2\n        /* \"#utility.yul\":8023:8028   */\n      dup2\n        /* \"#utility.yul\":8020:8034   */\n      lt\n        /* \"#utility.yul\":8013:8133   */\n      iszero\n      tag_166\n      jumpi\n        /* \"#utility.yul\":8084:8123   */\n      tag_167\n        /* \"#utility.yul\":8121:8122   */\n      0x00\n        /* \"#utility.yul\":8114:8119   */\n      dup3\n        /* \"#utility.yul\":8084:8123   */\n      tag_72\n      jump\t// in\n    tag_167:\n        /* \"#utility.yul\":8057:8058   */\n      0x01\n        /* \"#utility.yul\":8050:8055   */\n      dup2\n        /* \"#utility.yul\":8046:8059   */\n      add\n        /* \"#utility.yul\":8037:8059   */\n      swap1\n      pop\n        /* \"#utility.yul\":8013:8133   */\n      jump(tag_164)\n    tag_166:\n        /* \"#utility.yul\":7953:8139   */\n      pop\n      pop\n      jump\t// out\n        /* \"#utility.yul\":8145:8688   */\n    tag_74:\n        /* \"#utility.yul\":8246:8248   */\n      0x1f\n        /* \"#utility.yul\":8241:8244   */\n      dup3\n        /* \"#utility.yul\":8238:8249   */\n      gt\n        /* \"#utility.yul\":8235:8681   */\n      iszero\n      tag_169\n      jumpi\n        /* \"#utility.yul\":8280:8318   */\n      tag_170\n        /* \"#utility.yul\":8312:8317   */\n      dup2\n        /* \"#utility.yul\":8280:8318   */\n      tag_62\n      jump\t// in\n    tag_170:\n        /* \"#utility.yul\":8364:8393   */\n      tag_171\n        /* \"#utility.yul\":8382:8392   */\n      dup5\n        /* \"#utility.yul\":8364:8393   */\n      tag_63\n      jump\t// in\n    tag_171:\n        /* \"#utility.yul\":8354:8362   */\n      dup2\n        /* \"#utility.yul\":8350:8394   */\n      add\n        /* \"#utility.yul\":8547:8549   */\n      0x20\n        /* \"#utility.yul\":8535:8545   */\n      dup6\n        /* \"#utility.yul\":8532:8550   */\n      lt\n        /* \"#utility.yul\":8529:8578   */\n      iszero\n      tag_172\n      jumpi\n        /* \"#utility.yul\":8568:8576   */\n      dup2\n        /* \"#utility.yul\":8553:8576   */\n      swap1\n      pop\n        /* \"#utility.yul\":8529:8578   */\n    tag_172:\n        /* \"#utility.yul\":8591:8671   */\n      tag_173\n        /* \"#utility.yul\":8647:8669   */\n      tag_174\n        /* \"#utility.yul\":8665:8668   */\n      dup6\n        /* \"#utility.yul\":8647:8669   */\n      tag_63\n      jump\t// in\n    tag_174:\n        /* \"#utility.yul\":8637:8645   */\n      dup4\n        /* \"#utility.yul\":8633:8670   */\n      add\n        /* \"#utility.yul\":8620:8631   */\n      dup3\n        /* \"#utility.yul\":8591:8671   */\n      tag_73\n      jump\t// in\n    tag_173:\n        /* \"#utility.yul\":8250:8681   */\n      pop\n      pop\n        /* \"#utility.yul\":8235:8681   */\n    tag_169:\n        /* \"#utility.yul\":8145:8688   */\n      pop\n      pop\n      pop\n      jump\t// out\n        /* \"#utility.yul\":8694:8811   */\n    tag_75:\n        /* \"#utility.yul\":8748:8756   */\n      0x00\n        /* \"#utility.yul\":8798:8803   */\n      dup3\n        /* \"#utility.yul\":8792:8796   */\n      dup3\n        /* \"#utility.yul\":8788:8804   */\n      shr\n        /* \"#utility.yul\":8767:8804   */\n      swap1\n      pop\n        /* \"#utility.yul\":8694:8811   */\n      swap3\n      swap2\n      pop\n      pop\n      jump\t// out\n        /* \"#utility.yul\":8817:8986   */\n    tag_76:\n        /* \"#utility.yul\":8861:8867   */\n      0x00\n        /* \"#utility.yul\":8894:8945   */\n      tag_177\n        /* \"#utility.yul\":8942:8943   */\n      0x00\n        /* \"#utility.yul\":8938:8944   */\n      not\n        /* \"#utility.yul\":8930:8935   */\n      dup5\n        /* \"#utility.yul\":8927:8928   */\n      0x08\n        /* \"#utility.yul\":8923:8936   */\n      mul\n        /* \"#utility.yul\":8894:8945   */\n      tag_75\n      jump\t// in\n    tag_177:\n        /* \"#utility.yul\":8890:8946   */\n      not\n        /* \"#utility.yul\":8975:8979   */\n      dup1\n        /* \"#utility.yul\":8969:8973   */\n      dup4\n        /* \"#utility.yul\":8965:8980   */\n      and\n        /* \"#utility.yul\":8955:8980   */\n      swap2\n      pop\n        /* \"#utility.yul\":8868:8986   */\n      pop\n        /* \"#utility.yul\":8817:8986   */\n      swap3\n      swap2\n      pop\n      pop\n      jump\t// out\n        /* \"#utility.yul\":8991:9286   */\n    tag_77:\n        /* \"#utility.yul\":9067:9071   */\n      0x00\n        /* \"#utility.yul\":9213:9242   */\n      tag_179\n        /* \"#utility.yul\":9238:9241   */\n      dup4\n        /* \"#utility.yul\":9232:9236   */\n      dup4\n        /* \"#utility.yul\":9213:9242   */\n      tag_76\n      jump\t// in\n    tag_179:\n        /* \"#utility.yul\":9205:9242   */\n      swap2\n      pop\n        /* \"#utility.yul\":9275:9278   */\n      dup3\n        /* \"#utility.yul\":9272:9273   */\n      0x02\n        /* \"#utility.yul\":9268:9279   */\n      mul\n        /* \"#utility.yul\":9262:9266   */\n      dup3\n        /* \"#utility.yul\":9259:9280   */\n      or\n        /* \"#utility.yul\":9251:9280   */\n      swap1\n      pop\n        /* \"#utility.yul\":8991:9286   */\n      swap3\n      swap2\n      pop\n      pop\n      jump\t// out\n        /* \"#utility.yul\":9291:10686   */\n    tag_38:\n        /* \"#utility.yul\":9408:9445   */\n      tag_181\n        /* \"#utility.yul\":9441:9444   */\n      dup3\n        /* \"#utility.yul\":9408:9445   */\n      tag_39\n      jump\t// in\n    tag_181:\n        /* \"#utility.yul\":9510:9528   */\n      0xffffffffffffffff\n        /* \"#utility.yul\":9502:9508   */\n      dup2\n        /* \"#utility.yul\":9499:9529   */\n      gt\n        /* \"#utility.yul\":9496:9552   */\n      iszero\n      tag_182\n      jumpi\n        /* \"#utility.yul\":9532:9550   */\n      tag_183\n      tag_52\n      jump\t// in\n    tag_183:\n        /* \"#utility.yul\":9496:9552   */\n    tag_182:\n        /* \"#utility.yul\":9576:9614   */\n      tag_184\n        /* \"#utility.yul\":9608:9612   */\n      dup3\n        /* \"#utility.yul\":9602:9613   */\n      sload\n        /* \"#utility.yul\":9576:9614   */\n      tag_23\n      jump\t// in\n    tag_184:\n        /* \"#utility.yul\":9661:9728   */\n      tag_185\n        /* \"#utility.yul\":9721:9727   */\n      dup3\n        /* \"#utility.yul\":9713:9719   */\n      dup3\n        /* \"#utility.yul\":9707:9711   */\n      dup6\n        /* \"#utility.yul\":9661:9728   */\n      tag_74\n      jump\t// in\n    tag_185:\n        /* \"#utility.yul\":9755:9756   */\n      0x00\n        /* \"#utility.yul\":9779:9783   */\n      0x20\n        /* \"#utility.yul\":9766:9783   */\n      swap1\n      pop\n        /* \"#utility.yul\":9811:9813   */\n      0x1f\n        /* \"#utility.yul\":9803:9809   */\n      dup4\n        /* \"#utility.yul\":9800:9814   */\n      gt\n        /* \"#utility.yul\":9828:9829   */\n      0x01\n        /* \"#utility.yul\":9823:10441   */\n      dup2\n      eq\n      tag_187\n      jumpi\n        /* \"#utility.yul\":10485:10486   */\n      0x00\n        /* \"#utility.yul\":10502:10508   */\n      dup5\n        /* \"#utility.yul\":10499:10576   */\n      iszero\n      tag_188\n      jumpi\n        /* \"#utility.yul\":10551:10560   */\n      dup3\n        /* \"#utility.yul\":10546:10549   */\n      dup8\n        /* \"#utility.yul\":10542:10561   */\n      add\n        /* \"#utility.yul\":10536:10562   */\n      mload\n        /* \"#utility.yul\":10527:10562   */\n      swap1\n      pop\n        /* \"#utility.yul\":10499:10576   */\n    tag_188:\n        /* \"#utility.yul\":10602:10669   */\n      tag_189\n        /* \"#utility.yul\":10662:10668   */\n      dup6\n        /* \"#utility.yul\":10655:10660   */\n      dup3\n        /* \"#utility.yul\":10602:10669   */\n      tag_77\n      jump\t// in\n    tag_189:\n        /* \"#utility.yul\":10596:10600   */\n      dup7\n        /* \"#utility.yul\":10589:10670   */\n      sstore\n        /* \"#utility.yul\":10458:10680   */\n      pop\n        /* \"#utility.yul\":9793:10680   */\n      jump(tag_186)\n        /* \"#utility.yul\":9823:10441   */\n    tag_187:\n        /* \"#utility.yul\":9875:9879   */\n      0x1f\n        /* \"#utility.yul\":9871:9880   */\n      not\n        /* \"#utility.yul\":9863:9869   */\n      dup5\n        /* \"#utility.yul\":9859:9881   */\n      and\n        /* \"#utility.yul\":9909:9946   */\n      tag_190\n        /* \"#utility.yul\":9941:9945   */\n      dup7\n        /* \"#utility.yul\":9909:9946   */\n      tag_62\n      jump\t// in\n    tag_190:\n        /* \"#utility.yul\":9968:9969   */\n      0x00\n        /* \"#utility.yul\":9982:10190   */\n    tag_191:\n        /* \"#utility.yul\":9996:10003   */\n      dup3\n        /* \"#utility.yul\":9993:9994   */\n      dup2\n        /* \"#utility.yul\":9990:10004   */\n      lt\n        /* \"#utility.yul\":9982:10190   */\n      iszero\n      tag_193\n      jumpi\n        /* \"#utility.yul\":10075:10084   */\n      dup5\n        /* \"#utility.yul\":10070:10073   */\n      dup10\n        /* \"#utility.yul\":10066:10085   */\n      add\n        /* \"#utility.yul\":10060:10086   */\n      mload\n        /* \"#utility.yul\":10052:10058   */\n      dup3\n        /* \"#utility.yul\":10045:10087   */\n      sstore\n        /* \"#utility.yul\":10126:10127   */\n      0x01\n        /* \"#utility.yul\":10118:10124   */\n      dup3\n        /* \"#utility.yul\":10114:10128   */\n      add\n        /* \"#utility.yul\":10104:10128   */\n      swap2\n      pop\n        /* \"#utility.yul\":10173:10175   */\n      0x20\n        /* \"#utility.yul\":10162:10171   */\n      dup6\n        /* \"#utility.yul\":10158:10176   */\n      add\n        /* \"#utility.yul\":10145:10176   */\n      swap5\n      pop\n        /* \"#utility.yul\":10019:10023   */\n      0x20\n        /* \"#utility.yul\":10016:10017   */\n      dup2\n        /* \"#utility.yul\":10012:10024   */\n      add\n        /* \"#utility.yul\":10007:10024   */\n      swap1\n      pop\n        /* \"#utility.yul\":9982:10190   */\n      jump(tag_191)\n    tag_193:\n        /* \"#utility.yul\":10218:10224   */\n      dup7\n        /* \"#utility.yul\":10209:10216   */\n      dup4\n        /* \"#utility.yul\":10206:10225   */\n      lt\n        /* \"#utility.yul\":10203:10382   */\n      iszero\n      tag_194\n      jumpi\n        /* \"#utility.yul\":10276:10285   */\n      dup5\n        /* \"#utility.yul\":10271:10274   */\n      dup10\n        /* \"#utility.yul\":10267:10286   */\n      add\n        /* \"#utility.yul\":10261:10287   */\n      mload\n        /* \"#utility.yul\":10319:10367   */\n      tag_195\n        /* \"#utility.yul\":10361:10365   */\n      0x1f\n        /* \"#utility.yul\":10353:10359   */\n      dup10\n        /* \"#utility.yul\":10349:10366   */\n      and\n        /* \"#utility.yul\":10338:10347   */\n      dup3\n        /* \"#utility.yul\":10319:10367   */\n      tag_76\n      jump\t// in\n    tag_195:\n        /* \"#utility.yul\":10311:10317   */\n      dup4\n        /* \"#utility.yul\":10304:10368   */\n      sstore\n        /* \"#utility.yul\":10226:10382   */\n      pop\n        /* \"#utility.yul\":10203:10382   */\n    tag_194:\n        /* \"#utility.yul\":10428:10429   */\n      0x01\n        /* \"#utility.yul\":10424:10425   */\n      0x02\n        /* \"#utility.yul\":10416:10422   */\n      dup9\n        /* \"#utility.yul\":10412:10426   */\n      mul\n        /* \"#utility.yul\":10408:10430   */\n      add\n        /* \"#utility.yul\":10402:10406   */\n      dup9\n        /* \"#utility.yul\":10395:10431   */\n      sstore\n        /* \"#utility.yul\":9830:10441   */\n      pop\n      pop\n      pop\n        /* \"#utility.yul\":9793:10680   */\n    tag_186:\n      pop\n        /* \"#utility.yul\":9383:10686   */\n      pop\n      pop\n      pop\n        /* \"#utility.yul\":9291:10686   */\n      pop\n      pop\n      jump\t// out\n\n    auxdata: 0xa2646970667358221220f916fe0e7f4ff7ad2cb71db0e63e9b574ec83696908154599cc2c8e42016657064736f6c634300081c0033\n}\n",
				"bytecode": {
					"linkReferences": {},
					"object": "608060405234801561000f575f5ffd5b50604051610dc6380380610dc6833981810160405281019061003191906101e4565b815f908161003f919061046a565b50806001908161004f919061046a565b503360025f6101000a81548173ffffffffffffffffffffffffffffffffffffffff021916908373ffffffffffffffffffffffffffffffffffffffff1602179055505050610539565b5f604051905090565b5f5ffd5b5f5ffd5b5f5ffd5b5f5ffd5b5f601f19601f8301169050919050565b7f4e487b71000000000000000000000000000000000000000000000000000000005f52604160045260245ffd5b6100f6826100b0565b810181811067ffffffffffffffff82111715610115576101146100c0565b5b80604052505050565b5f610127610097565b905061013382826100ed565b919050565b5f67ffffffffffffffff821115610152576101516100c0565b5b61015b826100b0565b9050602081019050919050565b8281835e5f83830152505050565b5f61018861018384610138565b61011e565b9050828152602081018484840111156101a4576101a36100ac565b5b6101af848285610168565b509392505050565b5f82601f8301126101cb576101ca6100a8565b5b81516101db848260208601610176565b91505092915050565b5f5f604083850312156101fa576101f96100a0565b5b5f83015167ffffffffffffffff811115610217576102166100a4565b5b610223858286016101b7565b925050602083015167ffffffffffffffff811115610244576102436100a4565b5b610250858286016101b7565b9150509250929050565b5f81519050919050565b7f4e487b71000000000000000000000000000000000000000000000000000000005f52602260045260245ffd5b5f60028204905060018216806102a857607f821691505b6020821081036102bb576102ba610264565b5b50919050565b5f819050815f5260205f209050919050565b5f6020601f8301049050919050565b5f82821b905092915050565b5f6008830261031d7fffffffffffffffffffffffffffffffffffffffffffffffffffffffffffffffff826102e2565b61032786836102e2565b95508019841693508086168417925050509392505050565b5f819050919050565b5f819050919050565b5f61036b6103666103618461033f565b610348565b61033f565b9050919050565b5f819050919050565b61038483610351565b61039861039082610372565b8484546102ee565b825550505050565b5f5f905090565b6103af6103a0565b6103ba81848461037b565b505050565b5b818110156103dd576103d25f826103a7565b6001810190506103c0565b5050565b601f821115610422576103f3816102c1565b6103fc846102d3565b8101602085101561040b578190505b61041f610417856102d3565b8301826103bf565b50505b505050565b5f82821c905092915050565b5f6104425f1984600802610427565b1980831691505092915050565b5f61045a8383610433565b9150826002028217905092915050565b6104738261025a565b67ffffffffffffffff81111561048c5761048b6100c0565b5b6104968254610291565b6104a18282856103e1565b5f60209050601f8311600181146104d2575f84156104c0578287015190505b6104ca858261044f565b865550610531565b601f1984166104e0866102c1565b5f5b82811015610507578489015182556001820191506020850194506020810190506104e2565b868310156105245784890151610520601f891682610433565b8355505b6001600288020188555050505b505050505050565b610880806105465f395ff3fe608060405234801561000f575f5ffd5b506004361061004a575f3560e01c806306fdde031461004e5780637284e4161461006c5780638da5cb5b1461008a578063c47f0027146100a8575b5f5ffd5b6100566100c4565b6040516100639190610311565b60405180910390f35b61007461014f565b6040516100819190610311565b60405180910390f35b6100926101db565b60405161009f9190610370565b60405180910390f35b6100c260048036038101906100bd91906104c6565b610200565b005b5f80546100d09061053a565b80601f01602080910402602001604051908101604052809291908181526020018280546100fc9061053a565b80156101475780601f1061011e57610100808354040283529160200191610147565b820191905f5260205f20905b81548152906001019060200180831161012a57829003601f168201915b505050505081565b6001805461015c9061053a565b80601f01602080910402602001604051908101604052809291908181526020018280546101889061053a565b80156101d35780601f106101aa576101008083540402835291602001916101d3565b820191905f5260205f20905b8154815290600101906020018083116101b657829003601f168201915b505050505081565b60025f9054906101000a900473ffffffffffffffffffffffffffffffffffffffff1681565b60025f9054906101000a900473ffffffffffffffffffffffffffffffffffffffff1673ffffffffffffffffffffffffffffffffffffffff163373ffffffffffffffffffffffffffffffffffffffff161461028f576040517f08c379a0000000000000000000000000000000000000000000000000000000008152600401610286906105b4565b60405180910390fd5b805f908161029d919061077b565b5050565b5f81519050919050565b5f82825260208201905092915050565b8281835e5f83830152505050565b5f601f19601f8301169050919050565b5f6102e3826102a1565b6102ed81856102ab565b93506102fd8185602086016102bb565b610306816102c9565b840191505092915050565b5f6020820190508181035f83015261032981846102d9565b905092915050565b5f73ffffffffffffffffffffffffffffffffffffffff82169050919050565b5f61035a82610331565b9050919050565b61036a81610350565b82525050565b5f6020820190506103835f830184610361565b92915050565b5f604051905090565b5f5ffd5b5f5ffd5b5f5ffd5b5f5ffd5b7f4e487b71000000000000000000000000000000000000000000000000000000005f52604160045260245ffd5b6103d8826102c9565b810181811067ffffffffffffffff821117156103f7576103f66103a2565b5b80604052505050565b5f610409610389565b905061041582826103cf565b919050565b5f67ffffffffffffffff821115610434576104336103a2565b5b61043d826102c9565b9050602081019050919050565b828183375f83830152505050565b5f61046a6104658461041a565b610400565b9050828152602081018484840111156104865761048561039e565b5b61049184828561044a565b509392505050565b5f82601f8301126104ad576104ac61039a565b5b81356104bd848260208601610458565b91505092915050565b5f602082840312156104db576104da610392565b5b5f82013567ffffffffffffffff8111156104f8576104f7610396565b5b61050484828501610499565b91505092915050565b7f4e487b71000000000000000000000000000000000000000000000000000000005f52602260045260245ffd5b5f600282049050600182168061055157607f821691505b6020821081036105645761056361050d565b5b50919050565b7f596f75206172656e277420746865206f776e65720000000000000000000000005f82015250565b5f61059e6014836102ab565b91506105a98261056a565b602082019050919050565b5f6020820190508181035f8301526105cb81610592565b9050919050565b5f819050815f5260205f209050919050565b5f6020601f8301049050919050565b5f82821b905092915050565b5f6008830261062e7fffffffffffffffffffffffffffffffffffffffffffffffffffffffffffffffff826105f3565b61063886836105f3565b95508019841693508086168417925050509392505050565b5f819050919050565b5f819050919050565b5f61067c61067761067284610650565b610659565b610650565b9050919050565b5f819050919050565b61069583610662565b6106a96106a182610683565b8484546105ff565b825550505050565b5f5f905090565b6106c06106b1565b6106cb81848461068c565b505050565b5b818110156106ee576106e35f826106b8565b6001810190506106d1565b5050565b601f82111561073357610704816105d2565b61070d846105e4565b8101602085101561071c578190505b610730610728856105e4565b8301826106d0565b50505b505050565b5f82821c905092915050565b5f6107535f1984600802610738565b1980831691505092915050565b5f61076b8383610744565b9150826002028217905092915050565b610784826102a1565b67ffffffffffffffff81111561079d5761079c6103a2565b5b6107a7825461053a565b6107b28282856106f2565b5f60209050601f8311600181146107e3575f84156107d1578287015190505b6107db8582610760565b865550610842565b601f1984166107f1866105d2565b5f5b82811015610818578489015182556001820191506020850194506020810190506107f3565b868310156108355784890151610831601f891682610744565b8355505b6001600288020188555050505b50505050505056fea2646970667358221220f916fe0e7f4ff7ad2cb71db0e63e9b574ec83696908154599cc2c8e42016657064736f6c634300081c0033",
					"opcodes": "PUSH1 0x80 PUSH1 0x40 MSTORE CALLVALUE DUP1 ISZERO PUSH2 0xF JUMPI PUSH0 PUSH0 REVERT JUMPDEST POP PUSH1 0x40 MLOAD PUSH2 0xDC6 CODESIZE SUB DUP1 PUSH2 0xDC6 DUP4 CODECOPY DUP2 DUP2 ADD PUSH1 0x40 MSTORE DUP2 ADD SWAP1 PUSH2 0x31 SWAP2 SWAP1 PUSH2 0x1E4 JUMP JUMPDEST DUP2 PUSH0 SWAP1 DUP2 PUSH2 0x3F SWAP2 SWAP1 PUSH2 0x46A JUMP JUMPDEST POP DUP1 PUSH1 0x1 SWAP1 DUP2 PUSH2 0x4F SWAP2 SWAP1 PUSH2 0x46A JUMP JUMPDEST POP CALLER PUSH1 0x2 PUSH0 PUSH2 0x100 EXP DUP2 SLOAD DUP2 PUSH20 0xFFFFFFFFFFFFFFFFFFFFFFFFFFFFFFFFFFFFFFFF MUL NOT AND SWAP1 DUP4 PUSH20 0xFFFFFFFFFFFFFFFFFFFFFFFFFFFFFFFFFFFFFFFF AND MUL OR SWAP1 SSTORE POP POP POP PUSH2 0x539 JUMP JUMPDEST PUSH0 PUSH1 0x40 MLOAD SWAP1 POP SWAP1 JUMP JUMPDEST PUSH0 PUSH0 REVERT JUMPDEST PUSH0 PUSH0 REVERT JUMPDEST PUSH0 PUSH0 REVERT JUMPDEST PUSH0 PUSH0 REVERT JUMPDEST PUSH0 PUSH1 0x1F NOT PUSH1 0x1F DUP4 ADD AND SWAP1 POP SWAP2 SWAP1 POP JUMP JUMPDEST PUSH32 0x4E487B7100000000000000000000000000000000000000000000000000000000 PUSH0 MSTORE PUSH1 0x41 PUSH1 0x4 MSTORE PUSH1 0x24 PUSH0 REVERT JUMPDEST PUSH2 0xF6 DUP3 PUSH2 0xB0 JUMP JUMPDEST DUP2 ADD DUP2 DUP2 LT PUSH8 0xFFFFFFFFFFFFFFFF DUP3 GT OR ISZERO PUSH2 0x115 JUMPI PUSH2 0x114 PUSH2 0xC0 JUMP JUMPDEST JUMPDEST DUP1 PUSH1 0x40 MSTORE POP POP POP JUMP JUMPDEST PUSH0 PUSH2 0x127 PUSH2 0x97 JUMP JUMPDEST SWAP1 POP PUSH2 0x133 DUP3 DUP3 PUSH2 0xED JUMP JUMPDEST SWAP2 SWAP1 POP JUMP JUMPDEST PUSH0 PUSH8 0xFFFFFFFFFFFFFFFF DUP3 GT ISZERO PUSH2 0x152 JUMPI PUSH2 0x151 PUSH2 0xC0 JUMP JUMPDEST JUMPDEST PUSH2 0x15B DUP3 PUSH2 0xB0 JUMP JUMPDEST SWAP1 POP PUSH1 0x20 DUP2 ADD SWAP1 POP SWAP2 SWAP1 POP JUMP JUMPDEST DUP3 DUP2 DUP4 MCOPY PUSH0 DUP4 DUP4 ADD MSTORE POP POP POP JUMP JUMPDEST PUSH0 PUSH2 0x188 PUSH2 0x183 DUP5 PUSH2 0x138 JUMP JUMPDEST PUSH2 0x11E JUMP JUMPDEST SWAP1 POP DUP3 DUP2 MSTORE PUSH1 0x20 DUP2 ADD DUP5 DUP5 DUP5 ADD GT ISZERO PUSH2 0x1A4 JUMPI PUSH2 0x1A3 PUSH2 0xAC JUMP JUMPDEST JUMPDEST PUSH2 0x1AF DUP5 DUP3 DUP6 PUSH2 0x168 JUMP JUMPDEST POP SWAP4 SWAP3 POP POP POP JUMP JUMPDEST PUSH0 DUP3 PUSH1 0x1F DUP4 ADD SLT PUSH2 0x1CB JUMPI PUSH2 0x1CA PUSH2 0xA8 JUMP JUMPDEST JUMPDEST DUP2 MLOAD PUSH2 0x1DB DUP5 DUP3 PUSH1 0x20 DUP7 ADD PUSH2 0x176 JUMP JUMPDEST SWAP2 POP POP SWAP3 SWAP2 POP POP JUMP JUMPDEST PUSH0 PUSH0 PUSH1 0x40 DUP4 DUP6 SUB SLT ISZERO PUSH2 0x1FA JUMPI PUSH2 0x1F9 PUSH2 0xA0 JUMP JUMPDEST JUMPDEST PUSH0 DUP4 ADD MLOAD PUSH8 0xFFFFFFFFFFFFFFFF DUP2 GT ISZERO PUSH2 0x217 JUMPI PUSH2 0x216 PUSH2 0xA4 JUMP JUMPDEST JUMPDEST PUSH2 0x223 DUP6 DUP3 DUP7 ADD PUSH2 0x1B7 JUMP JUMPDEST SWAP3 POP POP PUSH1 0x20 DUP4 ADD MLOAD PUSH8 0xFFFFFFFFFFFFFFFF DUP2 GT ISZERO PUSH2 0x244 JUMPI PUSH2 0x243 PUSH2 0xA4 JUMP JUMPDEST JUMPDEST PUSH2 0x250 DUP6 DUP3 DUP7 ADD PUSH2 0x1B7 JUMP JUMPDEST SWAP2 POP POP SWAP3 POP SWAP3 SWAP1 POP JUMP JUMPDEST PUSH0 DUP2 MLOAD SWAP1 POP SWAP2 SWAP1 POP JUMP JUMPDEST PUSH32 0x4E487B7100000000000000000000000000000000000000000000000000000000 PUSH0 MSTORE PUSH1 0x22 PUSH1 0x4 MSTORE PUSH1 0x24 PUSH0 REVERT JUMPDEST PUSH0 PUSH1 0x2 DUP3 DIV SWAP1 POP PUSH1 0x1 DUP3 AND DUP1 PUSH2 0x2A8 JUMPI PUSH1 0x7F DUP3 AND SWAP2 POP JUMPDEST PUSH1 0x20 DUP3 LT DUP2 SUB PUSH2 0x2BB JUMPI PUSH2 0x2BA PUSH2 0x264 JUMP JUMPDEST JUMPDEST POP SWAP2 SWAP1 POP JUMP JUMPDEST PUSH0 DUP2 SWAP1 POP DUP2 PUSH0 MSTORE PUSH1 0x20 PUSH0 KECCAK256 SWAP1 POP SWAP2 SWAP1 POP JUMP JUMPDEST PUSH0 PUSH1 0x20 PUSH1 0x1F DUP4 ADD DIV SWAP1 POP SWAP2 SWAP1 POP JUMP JUMPDEST PUSH0 DUP3 DUP3 SHL SWAP1 POP SWAP3 SWAP2 POP POP JUMP JUMPDEST PUSH0 PUSH1 0x8 DUP4 MUL PUSH2 0x31D PUSH32 0xFFFFFFFFFFFFFFFFFFFFFFFFFFFFFFFFFFFFFFFFFFFFFFFFFFFFFFFFFFFFFFFF DUP3 PUSH2 0x2E2 JUMP JUMPDEST PUSH2 0x327 DUP7 DUP4 PUSH2 0x2E2 JUMP JUMPDEST SWAP6 POP DUP1 NOT DUP5 AND SWAP4 POP DUP1 DUP7 AND DUP5 OR SWAP3 POP POP POP SWAP4 SWAP3 POP POP POP JUMP JUMPDEST PUSH0 DUP2 SWAP1 POP SWAP2 SWAP1 POP JUMP JUMPDEST PUSH0 DUP2 SWAP1 POP SWAP2 SWAP1 POP JUMP JUMPDEST PUSH0 PUSH2 0x36B PUSH2 0x366 PUSH2 0x361 DUP5 PUSH2 0x33F JUMP JUMPDEST PUSH2 0x348 JUMP JUMPDEST PUSH2 0x33F JUMP JUMPDEST SWAP1 POP SWAP2 SWAP1 POP JUMP JUMPDEST PUSH0 DUP2 SWAP1 POP SWAP2 SWAP1 POP JUMP JUMPDEST PUSH2 0x384 DUP4 PUSH2 0x351 JUMP JUMPDEST PUSH2 0x398 PUSH2 0x390 DUP3 PUSH2 0x372 JUMP JUMPDEST DUP5 DUP5 SLOAD PUSH2 0x2EE JUMP JUMPDEST DUP3 SSTORE POP POP POP POP JUMP JUMPDEST PUSH0 PUSH0 SWAP1 POP SWAP1 JUMP JUMPDEST PUSH2 0x3AF PUSH2 0x3A0 JUMP JUMPDEST PUSH2 0x3BA DUP2 DUP5 DUP5 PUSH2 0x37B JUMP JUMPDEST POP POP POP JUMP JUMPDEST JUMPDEST DUP2 DUP2 LT ISZERO PUSH2 0x3DD JUMPI PUSH2 0x3D2 PUSH0 DUP3 PUSH2 0x3A7 JUMP JUMPDEST PUSH1 0x1 DUP2 ADD SWAP1 POP PUSH2 0x3C0 JUMP JUMPDEST POP POP JUMP JUMPDEST PUSH1 0x1F DUP3 GT ISZERO PUSH2 0x422 JUMPI PUSH2 0x3F3 DUP2 PUSH2 0x2C1 JUMP JUMPDEST PUSH2 0x3FC DUP5 PUSH2 0x2D3 JUMP JUMPDEST DUP2 ADD PUSH1 0x20 DUP6 LT ISZERO PUSH2 0x40B JUMPI DUP2 SWAP1 POP JUMPDEST PUSH2 0x41F PUSH2 0x417 DUP6 PUSH2 0x2D3 JUMP JUMPDEST DUP4 ADD DUP3 PUSH2 0x3BF JUMP JUMPDEST POP POP JUMPDEST POP POP POP JUMP JUMPDEST PUSH0 DUP3 DUP3 SHR SWAP1 POP SWAP3 SWAP2 POP POP JUMP JUMPDEST PUSH0 PUSH2 0x442 PUSH0 NOT DUP5 PUSH1 0x8 MUL PUSH2 0x427 JUMP JUMPDEST NOT DUP1 DUP4 AND SWAP2 POP POP SWAP3 SWAP2 POP POP JUMP JUMPDEST PUSH0 PUSH2 0x45A DUP4 DUP4 PUSH2 0x433 JUMP JUMPDEST SWAP2 POP DUP3 PUSH1 0x2 MUL DUP3 OR SWAP1 POP SWAP3 SWAP2 POP POP JUMP JUMPDEST PUSH2 0x473 DUP3 PUSH2 0x25A JUMP JUMPDEST PUSH8 0xFFFFFFFFFFFFFFFF DUP2 GT ISZERO PUSH2 0x48C JUMPI PUSH2 0x48B PUSH2 0xC0 JUMP JUMPDEST JUMPDEST PUSH2 0x496 DUP3 SLOAD PUSH2 0x291 JUMP JUMPDEST PUSH2 0x4A1 DUP3 DUP3 DUP6 PUSH2 0x3E1 JUMP JUMPDEST PUSH0 PUSH1 0x20 SWAP1 POP PUSH1 0x1F DUP4 GT PUSH1 0x1 DUP2 EQ PUSH2 0x4D2 JUMPI PUSH0 DUP5 ISZERO PUSH2 0x4C0 JUMPI DUP3 DUP8 ADD MLOAD SWAP1 POP JUMPDEST PUSH2 0x4CA DUP6 DUP3 PUSH2 0x44F JUMP JUMPDEST DUP7 SSTORE POP PUSH2 0x531 JUMP JUMPDEST PUSH1 0x1F NOT DUP5 AND PUSH2 0x4E0 DUP7 PUSH2 0x2C1 JUMP JUMPDEST PUSH0 JUMPDEST DUP3 DUP2 LT ISZERO PUSH2 0x507 JUMPI DUP5 DUP10 ADD MLOAD DUP3 SSTORE PUSH1 0x1 DUP3 ADD SWAP2 POP PUSH1 0x20 DUP6 ADD SWAP5 POP PUSH1 0x20 DUP2 ADD SWAP1 POP PUSH2 0x4E2 JUMP JUMPDEST DUP7 DUP4 LT ISZERO PUSH2 0x524 JUMPI DUP5 DUP10 ADD MLOAD PUSH2 0x520 PUSH1 0x1F DUP10 AND DUP3 PUSH2 0x433 JUMP JUMPDEST DUP4 SSTORE POP JUMPDEST PUSH1 0x1 PUSH1 0x2 DUP9 MUL ADD DUP9 SSTORE POP POP POP JUMPDEST POP POP POP POP POP POP JUMP JUMPDEST PUSH2 0x880 DUP1 PUSH2 0x546 PUSH0 CODECOPY PUSH0 RETURN INVALID PUSH1 0x80 PUSH1 0x40 MSTORE CALLVALUE DUP1 ISZERO PUSH2 0xF JUMPI PUSH0 PUSH0 REVERT JUMPDEST POP PUSH1 0x4 CALLDATASIZE LT PUSH2 0x4A JUMPI PUSH0 CALLDATALOAD PUSH1 0xE0 SHR DUP1 PUSH4 0x6FDDE03 EQ PUSH2 0x4E JUMPI DUP1 PUSH4 0x7284E416 EQ PUSH2 0x6C JUMPI DUP1 PUSH4 0x8DA5CB5B EQ PUSH2 0x8A JUMPI DUP1 PUSH4 0xC47F0027 EQ PUSH2 0xA8 JUMPI JUMPDEST PUSH0 PUSH0 REVERT JUMPDEST PUSH2 0x56 PUSH2 0xC4 JUMP JUMPDEST PUSH1 0x40 MLOAD PUSH2 0x63 SWAP2 SWAP1 PUSH2 0x311 JUMP JUMPDEST PUSH1 0x40 MLOAD DUP1 SWAP2 SUB SWAP1 RETURN JUMPDEST PUSH2 0x74 PUSH2 0x14F JUMP JUMPDEST PUSH1 0x40 MLOAD PUSH2 0x81 SWAP2 SWAP1 PUSH2 0x311 JUMP JUMPDEST PUSH1 0x40 MLOAD DUP1 SWAP2 SUB SWAP1 RETURN JUMPDEST PUSH2 0x92 PUSH2 0x1DB JUMP JUMPDEST PUSH1 0x40 MLOAD PUSH2 0x9F SWAP2 SWAP1 PUSH2 0x370 JUMP JUMPDEST PUSH1 0x40 MLOAD DUP1 SWAP2 SUB SWAP1 RETURN JUMPDEST PUSH2 0xC2 PUSH1 0x4 DUP1 CALLDATASIZE SUB DUP2 ADD SWAP1 PUSH2 0xBD SWAP2 SWAP1 PUSH2 0x4C6 JUMP JUMPDEST PUSH2 0x200 JUMP JUMPDEST STOP JUMPDEST PUSH0 DUP1 SLOAD PUSH2 0xD0 SWAP1 PUSH2 0x53A JUMP JUMPDEST DUP1 PUSH1 0x1F ADD PUSH1 0x20 DUP1 SWAP2 DIV MUL PUSH1 0x20 ADD PUSH1 0x40 MLOAD SWAP1 DUP2 ADD PUSH1 0x40 MSTORE DUP1 SWAP3 SWAP2 SWAP1 DUP2 DUP2 MSTORE PUSH1 0x20 ADD DUP3 DUP1 SLOAD PUSH2 0xFC SWAP1 PUSH2 0x53A JUMP JUMPDEST DUP1 ISZERO PUSH2 0x147 JUMPI DUP1 PUSH1 0x1F LT PUSH2 0x11E JUMPI PUSH2 0x100 DUP1 DUP4 SLOAD DIV MUL DUP4 MSTORE SWAP2 PUSH1 0x20 ADD SWAP2 PUSH2 0x147 JUMP JUMPDEST DUP3 ADD SWAP2 SWAP1 PUSH0 MSTORE PUSH1 0x20 PUSH0 KECCAK256 SWAP1 JUMPDEST DUP2 SLOAD DUP2 MSTORE SWAP1 PUSH1 0x1 ADD SWAP1 PUSH1 0x20 ADD DUP1 DUP4 GT PUSH2 0x12A JUMPI DUP3 SWAP1 SUB PUSH1 0x1F AND DUP3 ADD SWAP2 JUMPDEST POP POP POP POP POP DUP2 JUMP JUMPDEST PUSH1 0x1 DUP1 SLOAD PUSH2 0x15C SWAP1 PUSH2 0x53A JUMP JUMPDEST DUP1 PUSH1 0x1F ADD PUSH1 0x20 DUP1 SWAP2 DIV MUL PUSH1 0x20 ADD PUSH1 0x40 MLOAD SWAP1 DUP2 ADD PUSH1 0x40 MSTORE DUP1 SWAP3 SWAP2 SWAP1 DUP2 DUP2 MSTORE PUSH1 0x20 ADD DUP3 DUP1 SLOAD PUSH2 0x188 SWAP1 PUSH2 0x53A JUMP JUMPDEST DUP1 ISZERO PUSH2 0x1D3 JUMPI DUP1 PUSH1 0x1F LT PUSH2 0x1AA JUMPI PUSH2 0x100 DUP1 DUP4 SLOAD DIV MUL DUP4 MSTORE SWAP2 PUSH1 0x20 ADD SWAP2 PUSH2 0x1D3 JUMP JUMPDEST DUP3 ADD SWAP2 SWAP1 PUSH0 MSTORE PUSH1 0x20 PUSH0 KECCAK256 SWAP1 JUMPDEST DUP2 SLOAD DUP2 MSTORE SWAP1 PUSH1 0x1 ADD SWAP1 PUSH1 0x20 ADD DUP1 DUP4 GT PUSH2 0x1B6 JUMPI DUP3 SWAP1 SUB PUSH1 0x1F AND DUP3 ADD SWAP2 JUMPDEST POP POP POP POP POP DUP2 JUMP JUMPDEST PUSH1 0x2 PUSH0 SWAP1 SLOAD SWAP1 PUSH2 0x100 EXP SWAP1 DIV PUSH20 0xFFFFFFFFFFFFFFFFFFFFFFFFFFFFFFFFFFFFFFFF AND DUP2 JUMP JUMPDEST PUSH1 0x2 PUSH0 SWAP1 SLOAD SWAP1 PUSH2 0x100 EXP SWAP1 DIV PUSH20 0xFFFFFFFFFFFFFFFFFFFFFFFFFFFFFFFFFFFFFFFF AND PUSH20 0xFFFFFFFFFFFFFFFFFFFFFFFFFFFFFFFFFFFFFFFF AND CALLER PUSH20 0xFFFFFFFFFFFFFFFFFFFFFFFFFFFFFFFFFFFFFFFF AND EQ PUSH2 0x28F JUMPI PUSH1 0x40 MLOAD PUSH32 0x8C379A000000000000000000000000000000000000000000000000000000000 DUP2 MSTORE PUSH1 0x4 ADD PUSH2 0x286 SWAP1 PUSH2 0x5B4 JUMP JUMPDEST PUSH1 0x40 MLOAD DUP1 SWAP2 SUB SWAP1 REVERT JUMPDEST DUP1 PUSH0 SWAP1 DUP2 PUSH2 0x29D SWAP2 SWAP1 PUSH2 0x77B JUMP JUMPDEST POP POP JUMP JUMPDEST PUSH0 DUP2 MLOAD SWAP1 POP SWAP2 SWAP1 POP JUMP JUMPDEST PUSH0 DUP3 DUP3 MSTORE PUSH1 0x20 DUP3 ADD SWAP1 POP SWAP3 SWAP2 POP POP JUMP JUMPDEST DUP3 DUP2 DUP4 MCOPY PUSH0 DUP4 DUP4 ADD MSTORE POP POP POP JUMP JUMPDEST PUSH0 PUSH1 0x1F NOT PUSH1 0x1F DUP4 ADD AND SWAP1 POP SWAP2 SWAP1 POP JUMP JUMPDEST PUSH0 PUSH2 0x2E3 DUP3 PUSH2 0x2A1 JUMP JUMPDEST PUSH2 0x2ED DUP2 DUP6 PUSH2 0x2AB JUMP JUMPDEST SWAP4 POP PUSH2 0x2FD DUP2 DUP6 PUSH1 0x20 DUP7 ADD PUSH2 0x2BB JUMP JUMPDEST PUSH2 0x306 DUP2 PUSH2 0x2C9 JUMP JUMPDEST DUP5 ADD SWAP2 POP POP SWAP3 SWAP2 POP POP JUMP JUMPDEST PUSH0 PUSH1 0x20 DUP3 ADD SWAP1 POP DUP2 DUP2 SUB PUSH0 DUP4 ADD MSTORE PUSH2 0x329 DUP2 DUP5 PUSH2 0x2D9 JUMP JUMPDEST SWAP1 POP SWAP3 SWAP2 POP POP JUMP JUMPDEST PUSH0 PUSH20 0xFFFFFFFFFFFFFFFFFFFFFFFFFFFFFFFFFFFFFFFF DUP3 AND SWAP1 POP SWAP2 SWAP1 POP JUMP JUMPDEST PUSH0 PUSH2 0x35A DUP3 PUSH2 0x331 JUMP JUMPDEST SWAP1 POP SWAP2 SWAP1 POP JUMP JUMPDEST PUSH2 0x36A DUP2 PUSH2 0x350 JUMP JUMPDEST DUP3 MSTORE POP POP JUMP JUMPDEST PUSH0 PUSH1 0x20 DUP3 ADD SWAP1 POP PUSH2 0x383 PUSH0 DUP4 ADD DUP5 PUSH2 0x361 JUMP JUMPDEST SWAP3 SWAP2 POP POP JUMP JUMPDEST PUSH0 PUSH1 0x40 MLOAD SWAP1 POP SWAP1 JUMP JUMPDEST PUSH0 PUSH0 REVERT JUMPDEST PUSH0 PUSH0 REVERT JUMPDEST PUSH0 PUSH0 REVERT JUMPDEST PUSH0 PUSH0 REVERT JUMPDEST PUSH32 0x4E487B7100000000000000000000000000000000000000000000000000000000 PUSH0 MSTORE PUSH1 0x41 PUSH1 0x4 MSTORE PUSH1 0x24 PUSH0 REVERT JUMPDEST PUSH2 0x3D8 DUP3 PUSH2 0x2C9 JUMP JUMPDEST DUP2 ADD DUP2 DUP2 LT PUSH8 0xFFFFFFFFFFFFFFFF DUP3 GT OR ISZERO PUSH2 0x3F7 JUMPI PUSH2 0x3F6 PUSH2 0x3A2 JUMP JUMPDEST JUMPDEST DUP1 PUSH1 0x40 MSTORE POP POP POP JUMP JUMPDEST PUSH0 PUSH2 0x409 PUSH2 0x389 JUMP JUMPDEST SWAP1 POP PUSH2 0x415 DUP3 DUP3 PUSH2 0x3CF JUMP JUMPDEST SWAP2 SWAP1 POP JUMP JUMPDEST PUSH0 PUSH8 0xFFFFFFFFFFFFFFFF DUP3 GT ISZERO PUSH2 0x434 JUMPI PUSH2 0x433 PUSH2 0x3A2 JUMP JUMPDEST JUMPDEST PUSH2 0x43D DUP3 PUSH2 0x2C9 JUMP JUMPDEST SWAP1 POP PUSH1 0x20 DUP2 ADD SWAP1 POP SWAP2 SWAP1 POP JUMP JUMPDEST DUP3 DUP2 DUP4 CALLDATACOPY PUSH0 DUP4 DUP4 ADD MSTORE POP POP POP JUMP JUMPDEST PUSH0 PUSH2 0x46A PUSH2 0x465 DUP5 PUSH2 0x41A JUMP JUMPDEST PUSH2 0x400 JUMP JUMPDEST SWAP1 POP DUP3 DUP2 MSTORE PUSH1 0x20 DUP2 ADD DUP5 DUP5 DUP5 ADD GT ISZERO PUSH2 0x486 JUMPI PUSH2 0x485 PUSH2 0x39E JUMP JUMPDEST JUMPDEST PUSH2 0x491 DUP5 DUP3 DUP6 PUSH2 0x44A JUMP JUMPDEST POP SWAP4 SWAP3 POP POP POP JUMP JUMPDEST PUSH0 DUP3 PUSH1 0x1F DUP4 ADD SLT PUSH2 0x4AD JUMPI PUSH2 0x4AC PUSH2 0x39A JUMP JUMPDEST JUMPDEST DUP2 CALLDATALOAD PUSH2 0x4BD DUP5 DUP3 PUSH1 0x20 DUP7 ADD PUSH2 0x458 JUMP JUMPDEST SWAP2 POP POP SWAP3 SWAP2 POP POP JUMP JUMPDEST PUSH0 PUSH1 0x20 DUP3 DUP5 SUB SLT ISZERO PUSH2 0x4DB JUMPI PUSH2 0x4DA PUSH2 0x392 JUMP JUMPDEST JUMPDEST PUSH0 DUP3 ADD CALLDATALOAD PUSH8 0xFFFFFFFFFFFFFFFF DUP2 GT ISZERO PUSH2 0x4F8 JUMPI PUSH2 0x4F7 PUSH2 0x396 JUMP JUMPDEST JUMPDEST PUSH2 0x504 DUP5 DUP3 DUP6 ADD PUSH2 0x499 JUMP JUMPDEST SWAP2 POP POP SWAP3 SWAP2 POP POP JUMP JUMPDEST PUSH32 0x4E487B7100000000000000000000000000000000000000000000000000000000 PUSH0 MSTORE PUSH1 0x22 PUSH1 0x4 MSTORE PUSH1 0x24 PUSH0 REVERT JUMPDEST PUSH0 PUSH1 0x2 DUP3 DIV SWAP1 POP PUSH1 0x1 DUP3 AND DUP1 PUSH2 0x551 JUMPI PUSH1 0x7F DUP3 AND SWAP2 POP JUMPDEST PUSH1 0x20 DUP3 LT DUP2 SUB PUSH2 0x564 JUMPI PUSH2 0x563 PUSH2 0x50D JUMP JUMPDEST JUMPDEST POP SWAP2 SWAP1 POP JUMP JUMPDEST PUSH32 0x596F75206172656E277420746865206F776E6572000000000000000000000000 PUSH0 DUP3 ADD MSTORE POP JUMP JUMPDEST PUSH0 PUSH2 0x59E PUSH1 0x14 DUP4 PUSH2 0x2AB JUMP JUMPDEST SWAP2 POP PUSH2 0x5A9 DUP3 PUSH2 0x56A JUMP JUMPDEST PUSH1 0x20 DUP3 ADD SWAP1 POP SWAP2 SWAP1 POP JUMP JUMPDEST PUSH0 PUSH1 0x20 DUP3 ADD SWAP1 POP DUP2 DUP2 SUB PUSH0 DUP4 ADD MSTORE PUSH2 0x5CB DUP2 PUSH2 0x592 JUMP JUMPDEST SWAP1 POP SWAP2 SWAP1 POP JUMP JUMPDEST PUSH0 DUP2 SWAP1 POP DUP2 PUSH0 MSTORE PUSH1 0x20 PUSH0 KECCAK256 SWAP1 POP SWAP2 SWAP1 POP JUMP JUMPDEST PUSH0 PUSH1 0x20 PUSH1 0x1F DUP4 ADD DIV SWAP1 POP SWAP2 SWAP1 POP JUMP JUMPDEST PUSH0 DUP3 DUP3 SHL SWAP1 POP SWAP3 SWAP2 POP POP JUMP JUMPDEST PUSH0 PUSH1 0x8 DUP4 MUL PUSH2 0x62E PUSH32 0xFFFFFFFFFFFFFFFFFFFFFFFFFFFFFFFFFFFFFFFFFFFFFFFFFFFFFFFFFFFFFFFF DUP3 PUSH2 0x5F3 JUMP JUMPDEST PUSH2 0x638 DUP7 DUP4 PUSH2 0x5F3 JUMP JUMPDEST SWAP6 POP DUP1 NOT DUP5 AND SWAP4 POP DUP1 DUP7 AND DUP5 OR SWAP3 POP POP POP SWAP4 SWAP3 POP POP POP JUMP JUMPDEST PUSH0 DUP2 SWAP1 POP SWAP2 SWAP1 POP JUMP JUMPDEST PUSH0 DUP2 SWAP1 POP SWAP2 SWAP1 POP JUMP JUMPDEST PUSH0 PUSH2 0x67C PUSH2 0x677 PUSH2 0x672 DUP5 PUSH2 0x650 JUMP JUMPDEST PUSH2 0x659 JUMP JUMPDEST PUSH2 0x650 JUMP JUMPDEST SWAP1 POP SWAP2 SWAP1 POP JUMP JUMPDEST PUSH0 DUP2 SWAP1 POP SWAP2 SWAP1 POP JUMP JUMPDEST PUSH2 0x695 DUP4 PUSH2 0x662 JUMP JUMPDEST PUSH2 0x6A9 PUSH2 0x6A1 DUP3 PUSH2 0x683 JUMP JUMPDEST DUP5 DUP5 SLOAD PUSH2 0x5FF JUMP JUMPDEST DUP3 SSTORE POP POP POP POP JUMP JUMPDEST PUSH0 PUSH0 SWAP1 POP SWAP1 JUMP JUMPDEST PUSH2 0x6C0 PUSH2 0x6B1 JUMP JUMPDEST PUSH2 0x6CB DUP2 DUP5 DUP5 PUSH2 0x68C JUMP JUMPDEST POP POP POP JUMP JUMPDEST JUMPDEST DUP2 DUP2 LT ISZERO PUSH2 0x6EE JUMPI PUSH2 0x6E3 PUSH0 DUP3 PUSH2 0x6B8 JUMP JUMPDEST PUSH1 0x1 DUP2 ADD SWAP1 POP PUSH2 0x6D1 JUMP JUMPDEST POP POP JUMP JUMPDEST PUSH1 0x1F DUP3 GT ISZERO PUSH2 0x733 JUMPI PUSH2 0x704 DUP2 PUSH2 0x5D2 JUMP JUMPDEST PUSH2 0x70D DUP5 PUSH2 0x5E4 JUMP JUMPDEST DUP2 ADD PUSH1 0x20 DUP6 LT ISZERO PUSH2 0x71C JUMPI DUP2 SWAP1 POP JUMPDEST PUSH2 0x730 PUSH2 0x728 DUP6 PUSH2 0x5E4 JUMP JUMPDEST DUP4 ADD DUP3 PUSH2 0x6D0 JUMP JUMPDEST POP POP JUMPDEST POP POP POP JUMP JUMPDEST PUSH0 DUP3 DUP3 SHR SWAP1 POP SWAP3 SWAP2 POP POP JUMP JUMPDEST PUSH0 PUSH2 0x753 PUSH0 NOT DUP5 PUSH1 0x8 MUL PUSH2 0x738 JUMP JUMPDEST NOT DUP1 DUP4 AND SWAP2 POP POP SWAP3 SWAP2 POP POP JUMP JUMPDEST PUSH0 PUSH2 0x76B DUP4 DUP4 PUSH2 0x744 JUMP JUMPDEST SWAP2 POP DUP3 PUSH1 0x2 MUL DUP3 OR SWAP1 POP SWAP3 SWAP2 POP POP JUMP JUMPDEST PUSH2 0x784 DUP3 PUSH2 0x2A1 JUMP JUMPDEST PUSH8 0xFFFFFFFFFFFFFFFF DUP2 GT ISZERO PUSH2 0x79D JUMPI PUSH2 0x79C PUSH2 0x3A2 JUMP JUMPDEST JUMPDEST PUSH2 0x7A7 DUP3 SLOAD PUSH2 0x53A JUMP JUMPDEST PUSH2 0x7B2 DUP3 DUP3 DUP6 PUSH2 0x6F2 JUMP JUMPDEST PUSH0 PUSH1 0x20 SWAP1 POP PUSH1 0x1F DUP4 GT PUSH1 0x1 DUP2 EQ PUSH2 0x7E3 JUMPI PUSH0 DUP5 ISZERO PUSH2 0x7D1 JUMPI DUP3 DUP8 ADD MLOAD SWAP1 POP JUMPDEST PUSH2 0x7DB DUP6 DUP3 PUSH2 0x760 JUMP JUMPDEST DUP7 SSTORE POP PUSH2 0x842 JUMP JUMPDEST PUSH1 0x1F NOT DUP5 AND PUSH2 0x7F1 DUP7 PUSH2 0x5D2 JUMP JUMPDEST PUSH0 JUMPDEST DUP3 DUP2 LT ISZERO PUSH2 0x818 JUMPI DUP5 DUP10 ADD MLOAD DUP3 SSTORE PUSH1 0x1 DUP3 ADD SWAP2 POP PUSH1 0x20 DUP6 ADD SWAP5 POP PUSH1 0x20 DUP2 ADD SWAP1 POP PUSH2 0x7F3 JUMP JUMPDEST DUP7 DUP4 LT ISZERO PUSH2 0x835 JUMPI DUP5 DUP10 ADD MLOAD PUSH2 0x831 PUSH1 0x1F DUP10 AND DUP3 PUSH2 0x744 JUMP JUMPDEST DUP4 SSTORE POP JUMPDEST PUSH1 0x1 PUSH1 0x2 DUP9 MUL ADD DUP9 SSTORE POP POP POP JUMPDEST POP POP POP POP POP POP JUMP INVALID LOG2 PUSH5 0x6970667358 0x22 SLT KECCAK256 0xF9 AND INVALID 0xE PUSH32 0x4FF7AD2CB71DB0E63E9B574EC83696908154599CC2C8E42016657064736F6C63 NUMBER STOP ADDMOD SHR STOP CALLER "
				},
				"gasEstimates": {
					"creation": {
						"codeDepositCost": "435200",
						"executionCost": "infinite",
						"totalCost": "infinite"
					},
					"external": {
						"description()": "infinite",
						"name()": "infinite",
						"owner()": "2530",
						"setName(string)": "infinite"
					}
				},
				"methodIdentifiers": {
					"description()": "7284e416",
					"name()": "06fdde03",
					"owner()": "8da5cb5b",
					"setName(string)": "c47f0027"
				}
			},
			"storageLayout": {
				"storage": [
					{
						"astId": 3,
						"contract": "contracts/SaveMyName.sol:SaveMyName",
						"label": "name",
						"offset": 0,
						"slot": "0",
						"type": "t_string_storage"
					},
					{
						"astId": 5,
						"contract": "contracts/SaveMyName.sol:SaveMyName",
						"label": "description",
						"offset": 0,
						"slot": "1",
						"type": "t_string_storage"
					},
					{
						"astId": 7,
						"contract": "contracts/SaveMyName.sol:SaveMyName",
						"label": "owner",
						"offset": 0,
						"slot": "2",
						"type": "t_address"
					}
				],
				"types": {
					"t_address": {
						"encoding": "inplace",
						"label": "address",
						"numberOfBytes": "20"
					},
					"t_string_storage": {
						"encoding": "bytes",
						"label": "string",
						"numberOfBytes": "32"
					}
				}
			},
			"userdoc": {
				"kind": "user",
				"methods": {},
				"version": 1
			}
		}
	}
}