{
	"contracts/Counter.sol": {
		"Counter": {
			"abi": [
				{
					"inputs": [
						{
							"internalType": "uint256",
							"name": "startNumber",
							"type": "uint256"
						}
					],
					"stateMutability": "nonpayable",
					"type": "constructor"
				},
				{
					"anonymous": false,
					"inputs": [
						{
							"indexed": false,
							"internalType": "uint256",
							"name": "newValue",
							"type": "uint256"
						}
					],
					"name": "CounterDecrement",
					"type": "event"
				},
				{
					"anonymous": false,
					"inputs": [
						{
							"indexed": false,
							"internalType": "uint256",
							"name": "newValue",
							"type": "uint256"
						}
					],
					"name": "CounterIncrement",
					"type": "event"
				},
				{
					"inputs": [],
					"name": "counter",
					"outputs": [
						{
							"internalType": "uint256",
							"name": "",
							"type": "uint256"
						}
					],
					"stateMutability": "view",
					"type": "function"
				},
				{
					"inputs": [],
					"name": "decrement",
					"outputs": [
						{
							"internalType": "uint256",
							"name": "",
							"type": "uint256"
						}
					],
					"stateMutability": "nonpayable",
					"type": "function"
				},
				{
					"inputs": [],
					"name": "incrementr",
					"outputs": [
						{
							"internalType": "uint256",
							"name": "",
							"type": "uint256"
						}
					],
					"stateMutability": "nonpayable",
					"type": "function"
				}
			],
			"devdoc": {
				"kind": "dev",
				"methods": {},
				"version": 1
			},
			"evm": {
				"assembly": "    /* \"contracts/Counter.sol\":65:685  contract Counter {... */\n  mstore(0x40, 0x80)\n    /* \"contracts/Counter.sol\":201:344  constructor(uint startNumber) {... */\n  callvalue\n  dup1\n  iszero\n  tag_1\n  jumpi\n  revert(0x00, 0x00)\ntag_1:\n  pop\n  mload(0x40)\n  sub(codesize, bytecodeSize)\n  dup1\n  bytecodeSize\n  dup4\n  codecopy\n  dup2\n  dup2\n  add\n  0x40\n  mstore\n  dup2\n  add\n  swap1\n  tag_2\n  swap2\n  swap1\n  tag_3\n  jump\t// in\ntag_2:\n    /* \"contracts/Counter.sol\":262:263  0 */\n  0x00\n    /* \"contracts/Counter.sol\":247:258  startNumber */\n  dup2\n    /* \"contracts/Counter.sol\":247:263  startNumber >= 0 */\n  lt\n  iszero\n    /* \"contracts/Counter.sol\":239:308  require(startNumber >= 0, \"Counter needs a positive starting number\") */\n  tag_6\n  jumpi\n  mload(0x40)\n  0x08c379a000000000000000000000000000000000000000000000000000000000\n  dup2\n  mstore\n  0x04\n  add\n  tag_7\n  swap1\n  tag_8\n  jump\t// in\ntag_7:\n  mload(0x40)\n  dup1\n  swap2\n  sub\n  swap1\n  revert\ntag_6:\n    /* \"contracts/Counter.sol\":326:337  startNumber */\n  dup1\n    /* \"contracts/Counter.sol\":316:323  counter */\n  0x00\n    /* \"contracts/Counter.sol\":316:337  counter = startNumber */\n  dup2\n  swap1\n  sstore\n  pop\n    /* \"contracts/Counter.sol\":201:344  constructor(uint startNumber) {... */\n  pop\n    /* \"contracts/Counter.sol\":65:685  contract Counter {... */\n  jump(tag_9)\n    /* \"#utility.yul\":88:205   */\ntag_11:\n    /* \"#utility.yul\":197:198   */\n  0x00\n    /* \"#utility.yul\":194:195   */\n  0x00\n    /* \"#utility.yul\":187:199   */\n  revert\n    /* \"#utility.yul\":334:411   */\ntag_13:\n    /* \"#utility.yul\":371:378   */\n  0x00\n    /* \"#utility.yul\":400:405   */\n  dup2\n    /* \"#utility.yul\":389:405   */\n  swap1\n  pop\n    /* \"#utility.yul\":334:411   */\n  swap2\n  swap1\n  pop\n  jump\t// out\n    /* \"#utility.yul\":417:539   */\ntag_14:\n    /* \"#utility.yul\":490:514   */\n  tag_25\n    /* \"#utility.yul\":508:513   */\n  dup2\n    /* \"#utility.yul\":490:514   */\n  tag_13\n  jump\t// in\ntag_25:\n    /* \"#utility.yul\":483:488   */\n  dup2\n    /* \"#utility.yul\":480:515   */\n  eq\n    /* \"#utility.yul\":470:533   */\n  tag_26\n  jumpi\n    /* \"#utility.yul\":529:530   */\n  0x00\n    /* \"#utility.yul\":526:527   */\n  0x00\n    /* \"#utility.yul\":519:531   */\n  revert\n    /* \"#utility.yul\":470:533   */\ntag_26:\n    /* \"#utility.yul\":417:539   */\n  pop\n  jump\t// out\n    /* \"#utility.yul\":545:688   */\ntag_15:\n    /* \"#utility.yul\":602:607   */\n  0x00\n    /* \"#utility.yul\":633:639   */\n  dup2\n    /* \"#utility.yul\":627:640   */\n  mload\n    /* \"#utility.yul\":618:640   */\n  swap1\n  pop\n    /* \"#utility.yul\":649:682   */\n  tag_28\n    /* \"#utility.yul\":676:681   */\n  dup2\n    /* \"#utility.yul\":649:682   */\n  tag_14\n  jump\t// in\ntag_28:\n    /* \"#utility.yul\":545:688   */\n  swap3\n  swap2\n  pop\n  pop\n  jump\t// out\n    /* \"#utility.yul\":694:1045   */\ntag_3:\n    /* \"#utility.yul\":764:770   */\n  0x00\n    /* \"#utility.yul\":813:815   */\n  0x20\n    /* \"#utility.yul\":801:810   */\n  dup3\n    /* \"#utility.yul\":792:799   */\n  dup5\n    /* \"#utility.yul\":788:811   */\n  sub\n    /* \"#utility.yul\":784:816   */\n  slt\n    /* \"#utility.yul\":781:900   */\n  iszero\n  tag_30\n  jumpi\n    /* \"#utility.yul\":819:898   */\n  tag_31\n  tag_11\n  jump\t// in\ntag_31:\n    /* \"#utility.yul\":781:900   */\ntag_30:\n    /* \"#utility.yul\":939:940   */\n  0x00\n    /* \"#utility.yul\":964:1028   */\n  tag_32\n    /* \"#utility.yul\":1020:1027   */\n  dup5\n    /* \"#utility.yul\":1011:1017   */\n  dup3\n    /* \"#utility.yul\":1000:1009   */\n  dup6\n    /* \"#utility.yul\":996:1018   */\n  add\n    /* \"#utility.yul\":964:1028   */\n  tag_15\n  jump\t// in\ntag_32:\n    /* \"#utility.yul\":954:1028   */\n  swap2\n  pop\n    /* \"#utility.yul\":910:1038   */\n  pop\n    /* \"#utility.yul\":694:1045   */\n  swap3\n  swap2\n  pop\n  pop\n  jump\t// out\n    /* \"#utility.yul\":1051:1220   */\ntag_16:\n    /* \"#utility.yul\":1135:1146   */\n  0x00\n    /* \"#utility.yul\":1169:1175   */\n  dup3\n    /* \"#utility.yul\":1164:1167   */\n  dup3\n    /* \"#utility.yul\":1157:1176   */\n  mstore\n    /* \"#utility.yul\":1209:1213   */\n  0x20\n    /* \"#utility.yul\":1204:1207   */\n  dup3\n    /* \"#utility.yul\":1200:1214   */\n  add\n    /* \"#utility.yul\":1185:1214   */\n  swap1\n  pop\n    /* \"#utility.yul\":1051:1220   */\n  swap3\n  swap2\n  pop\n  pop\n  jump\t// out\n    /* \"#utility.yul\":1226:1453   */\ntag_17:\n    /* \"#utility.yul\":1366:1400   */\n  0x436f756e746572206e65656473206120706f736974697665207374617274696e\n    /* \"#utility.yul\":1362:1363   */\n  0x00\n    /* \"#utility.yul\":1354:1360   */\n  dup3\n    /* \"#utility.yul\":1350:1364   */\n  add\n    /* \"#utility.yul\":1343:1401   */\n  mstore\n    /* \"#utility.yul\":1435:1445   */\n  0x67206e756d626572000000000000000000000000000000000000000000000000\n    /* \"#utility.yul\":1430:1432   */\n  0x20\n    /* \"#utility.yul\":1422:1428   */\n  dup3\n    /* \"#utility.yul\":1418:1433   */\n  add\n    /* \"#utility.yul\":1411:1446   */\n  mstore\n    /* \"#utility.yul\":1226:1453   */\n  pop\n  jump\t// out\n    /* \"#utility.yul\":1459:1825   */\ntag_18:\n    /* \"#utility.yul\":1601:1604   */\n  0x00\n    /* \"#utility.yul\":1622:1689   */\n  tag_36\n    /* \"#utility.yul\":1686:1688   */\n  0x28\n    /* \"#utility.yul\":1681:1684   */\n  dup4\n    /* \"#utility.yul\":1622:1689   */\n  tag_16\n  jump\t// in\ntag_36:\n    /* \"#utility.yul\":1615:1689   */\n  swap2\n  pop\n    /* \"#utility.yul\":1698:1791   */\n  tag_37\n    /* \"#utility.yul\":1787:1790   */\n  dup3\n    /* \"#utility.yul\":1698:1791   */\n  tag_17\n  jump\t// in\ntag_37:\n    /* \"#utility.yul\":1816:1818   */\n  0x40\n    /* \"#utility.yul\":1811:1814   */\n  dup3\n    /* \"#utility.yul\":1807:1819   */\n  add\n    /* \"#utility.yul\":1800:1819   */\n  swap1\n  pop\n    /* \"#utility.yul\":1459:1825   */\n  swap2\n  swap1\n  pop\n  jump\t// out\n    /* \"#utility.yul\":1831:2250   */\ntag_8:\n    /* \"#utility.yul\":1997:2001   */\n  0x00\n    /* \"#utility.yul\":2035:2037   */\n  0x20\n    /* \"#utility.yul\":2024:2033   */\n  dup3\n    /* \"#utility.yul\":2020:2038   */\n  add\n    /* \"#utility.yul\":2012:2038   */\n  swap1\n  pop\n    /* \"#utility.yul\":2084:2093   */\n  dup2\n    /* \"#utility.yul\":2078:2082   */\n  dup2\n    /* \"#utility.yul\":2074:2094   */\n  sub\n    /* \"#utility.yul\":2070:2071   */\n  0x00\n    /* \"#utility.yul\":2059:2068   */\n  dup4\n    /* \"#utility.yul\":2055:2072   */\n  add\n    /* \"#utility.yul\":2048:2095   */\n  mstore\n    /* \"#utility.yul\":2112:2243   */\n  tag_39\n    /* \"#utility.yul\":2238:2242   */\n  dup2\n    /* \"#utility.yul\":2112:2243   */\n  tag_18\n  jump\t// in\ntag_39:\n    /* \"#utility.yul\":2104:2243   */\n  swap1\n  pop\n    /* \"#utility.yul\":1831:2250   */\n  swap2\n  swap1\n  pop\n  jump\t// out\n    /* \"contracts/Counter.sol\":65:685  contract Counter {... */\ntag_9:\n  dataSize(sub_0)\n  dup1\n  dataOffset(sub_0)\n  0x00\n  codecopy\n  0x00\n  return\nstop\n\nsub_0: assembly {\n        /* \"contracts/Counter.sol\":65:685  contract Counter {... */\n      mstore(0x40, 0x80)\n      callvalue\n      dup1\n      iszero\n      tag_1\n      jumpi\n      revert(0x00, 0x00)\n    tag_1:\n      pop\n      jumpi(tag_2, lt(calldatasize, 0x04))\n      shr(0xe0, calldataload(0x00))\n      dup1\n      0x2baeceb7\n      eq\n      tag_3\n      jumpi\n      dup1\n      0x50e402f8\n      eq\n      tag_4\n      jumpi\n      dup1\n      0x61bc221a\n      eq\n      tag_5\n      jumpi\n    tag_2:\n      revert(0x00, 0x00)\n        /* \"contracts/Counter.sol\":471:683  function decrement() public returns(uint) {... */\n    tag_3:\n      tag_6\n      tag_7\n      jump\t// in\n    tag_6:\n      mload(0x40)\n      tag_8\n      swap2\n      swap1\n      tag_9\n      jump\t// in\n    tag_8:\n      mload(0x40)\n      dup1\n      swap2\n      sub\n      swap1\n      return\n        /* \"contracts/Counter.sol\":350:465  function incrementr() public returns(uint) {... */\n    tag_4:\n      tag_10\n      tag_11\n      jump\t// in\n    tag_10:\n      mload(0x40)\n      tag_12\n      swap2\n      swap1\n      tag_9\n      jump\t// in\n    tag_12:\n      mload(0x40)\n      dup1\n      swap2\n      sub\n      swap1\n      return\n        /* \"contracts/Counter.sol\":88:107  uint public counter */\n    tag_5:\n      tag_13\n      tag_14\n      jump\t// in\n    tag_13:\n      mload(0x40)\n      tag_15\n      swap2\n      swap1\n      tag_9\n      jump\t// in\n    tag_15:\n      mload(0x40)\n      dup1\n      swap2\n      sub\n      swap1\n      return\n        /* \"contracts/Counter.sol\":471:683  function decrement() public returns(uint) {... */\n    tag_7:\n        /* \"contracts/Counter.sol\":507:511  uint */\n      0x00\n        /* \"contracts/Counter.sol\":575:576  0 */\n      0x00\n        /* \"contracts/Counter.sol\":565:572  counter */\n      sload(0x00)\n        /* \"contracts/Counter.sol\":565:576  counter > 0 */\n      gt\n        /* \"contracts/Counter.sol\":557:611  require(counter > 0 , \"Cant decrement less than zero\") */\n      tag_17\n      jumpi\n      mload(0x40)\n      0x08c379a000000000000000000000000000000000000000000000000000000000\n      dup2\n      mstore\n      0x04\n      add\n      tag_18\n      swap1\n      tag_19\n      jump\t// in\n    tag_18:\n      mload(0x40)\n      dup1\n      swap2\n      sub\n      swap1\n      revert\n    tag_17:\n        /* \"contracts/Counter.sol\":624:649  CounterDecrement(counter) */\n      0x40fcc5abef980022547a39d2d5bf626ca222b9631318b23cd9f3167f913830ed\n        /* \"contracts/Counter.sol\":641:648  counter */\n      sload(0x00)\n        /* \"contracts/Counter.sol\":624:649  CounterDecrement(counter) */\n      mload(0x40)\n      tag_20\n      swap2\n      swap1\n      tag_9\n      jump\t// in\n    tag_20:\n      mload(0x40)\n      dup1\n      swap2\n      sub\n      swap1\n      log1\n        /* \"contracts/Counter.sol\":675:676  1 */\n      0x01\n        /* \"contracts/Counter.sol\":664:671  counter */\n      0x00\n      0x00\n        /* \"contracts/Counter.sol\":664:676  counter -= 1 */\n      dup3\n      dup3\n      sload\n      tag_21\n      swap2\n      swap1\n      tag_22\n      jump\t// in\n    tag_21:\n      swap3\n      pop\n      pop\n      dup2\n      swap1\n      sstore\n        /* \"contracts/Counter.sol\":657:676  return counter -= 1 */\n      swap1\n      pop\n        /* \"contracts/Counter.sol\":471:683  function decrement() public returns(uint) {... */\n      swap1\n      jump\t// out\n        /* \"contracts/Counter.sol\":350:465  function incrementr() public returns(uint) {... */\n    tag_11:\n        /* \"contracts/Counter.sol\":387:391  uint */\n      0x00\n        /* \"contracts/Counter.sol\":406:431  CounterIncrement(counter) */\n      0xe2ea736f80f92a510d75d1a96b5c1d5e5544283362b7acd97390d60ea1c7d149\n        /* \"contracts/Counter.sol\":423:430  counter */\n      sload(0x00)\n        /* \"contracts/Counter.sol\":406:431  CounterIncrement(counter) */\n      mload(0x40)\n      tag_24\n      swap2\n      swap1\n      tag_9\n      jump\t// in\n    tag_24:\n      mload(0x40)\n      dup1\n      swap2\n      sub\n      swap1\n      log1\n        /* \"contracts/Counter.sol\":457:458  1 */\n      0x01\n        /* \"contracts/Counter.sol\":446:453  counter */\n      0x00\n      0x00\n        /* \"contracts/Counter.sol\":446:458  counter += 1 */\n      dup3\n      dup3\n      sload\n      tag_25\n      swap2\n      swap1\n      tag_26\n      jump\t// in\n    tag_25:\n      swap3\n      pop\n      pop\n      dup2\n      swap1\n      sstore\n        /* \"contracts/Counter.sol\":439:458  return counter += 1 */\n      swap1\n      pop\n        /* \"contracts/Counter.sol\":350:465  function incrementr() public returns(uint) {... */\n      swap1\n      jump\t// out\n        /* \"contracts/Counter.sol\":88:107  uint public counter */\n    tag_14:\n      sload(0x00)\n      dup2\n      jump\t// out\n        /* \"#utility.yul\":7:84   */\n    tag_27:\n        /* \"#utility.yul\":44:51   */\n      0x00\n        /* \"#utility.yul\":73:78   */\n      dup2\n        /* \"#utility.yul\":62:78   */\n      swap1\n      pop\n        /* \"#utility.yul\":7:84   */\n      swap2\n      swap1\n      pop\n      jump\t// out\n        /* \"#utility.yul\":90:208   */\n    tag_28:\n        /* \"#utility.yul\":177:201   */\n      tag_36\n        /* \"#utility.yul\":195:200   */\n      dup2\n        /* \"#utility.yul\":177:201   */\n      tag_27\n      jump\t// in\n    tag_36:\n        /* \"#utility.yul\":172:175   */\n      dup3\n        /* \"#utility.yul\":165:202   */\n      mstore\n        /* \"#utility.yul\":90:208   */\n      pop\n      pop\n      jump\t// out\n        /* \"#utility.yul\":214:436   */\n    tag_9:\n        /* \"#utility.yul\":307:311   */\n      0x00\n        /* \"#utility.yul\":345:347   */\n      0x20\n        /* \"#utility.yul\":334:343   */\n      dup3\n        /* \"#utility.yul\":330:348   */\n      add\n        /* \"#utility.yul\":322:348   */\n      swap1\n      pop\n        /* \"#utility.yul\":358:429   */\n      tag_38\n        /* \"#utility.yul\":426:427   */\n      0x00\n        /* \"#utility.yul\":415:424   */\n      dup4\n        /* \"#utility.yul\":411:428   */\n      add\n        /* \"#utility.yul\":402:408   */\n      dup5\n        /* \"#utility.yul\":358:429   */\n      tag_28\n      jump\t// in\n    tag_38:\n        /* \"#utility.yul\":214:436   */\n      swap3\n      swap2\n      pop\n      pop\n      jump\t// out\n        /* \"#utility.yul\":442:611   */\n    tag_29:\n        /* \"#utility.yul\":526:537   */\n      0x00\n        /* \"#utility.yul\":560:566   */\n      dup3\n        /* \"#utility.yul\":555:558   */\n      dup3\n        /* \"#utility.yul\":548:567   */\n      mstore\n        /* \"#utility.yul\":600:604   */\n      0x20\n        /* \"#utility.yul\":595:598   */\n      dup3\n        /* \"#utility.yul\":591:605   */\n      add\n        /* \"#utility.yul\":576:605   */\n      swap1\n      pop\n        /* \"#utility.yul\":442:611   */\n      swap3\n      swap2\n      pop\n      pop\n      jump\t// out\n        /* \"#utility.yul\":617:796   */\n    tag_30:\n        /* \"#utility.yul\":757:788   */\n      0x43616e742064656372656d656e74206c657373207468616e207a65726f000000\n        /* \"#utility.yul\":753:754   */\n      0x00\n        /* \"#utility.yul\":745:751   */\n      dup3\n        /* \"#utility.yul\":741:755   */\n      add\n        /* \"#utility.yul\":734:789   */\n      mstore\n        /* \"#utility.yul\":617:796   */\n      pop\n      jump\t// out\n        /* \"#utility.yul\":802:1168   */\n    tag_31:\n        /* \"#utility.yul\":944:947   */\n      0x00\n        /* \"#utility.yul\":965:1032   */\n      tag_42\n        /* \"#utility.yul\":1029:1031   */\n      0x1d\n        /* \"#utility.yul\":1024:1027   */\n      dup4\n        /* \"#utility.yul\":965:1032   */\n      tag_29\n      jump\t// in\n    tag_42:\n        /* \"#utility.yul\":958:1032   */\n      swap2\n      pop\n        /* \"#utility.yul\":1041:1134   */\n      tag_43\n        /* \"#utility.yul\":1130:1133   */\n      dup3\n        /* \"#utility.yul\":1041:1134   */\n      tag_30\n      jump\t// in\n    tag_43:\n        /* \"#utility.yul\":1159:1161   */\n      0x20\n        /* \"#utility.yul\":1154:1157   */\n      dup3\n        /* \"#utility.yul\":1150:1162   */\n      add\n        /* \"#utility.yul\":1143:1162   */\n      swap1\n      pop\n        /* \"#utility.yul\":802:1168   */\n      swap2\n      swap1\n      pop\n      jump\t// out\n        /* \"#utility.yul\":1174:1593   */\n    tag_19:\n        /* \"#utility.yul\":1340:1344   */\n      0x00\n        /* \"#utility.yul\":1378:1380   */\n      0x20\n        /* \"#utility.yul\":1367:1376   */\n      dup3\n        /* \"#utility.yul\":1363:1381   */\n      add\n        /* \"#utility.yul\":1355:1381   */\n      swap1\n      pop\n        /* \"#utility.yul\":1427:1436   */\n      dup2\n        /* \"#utility.yul\":1421:1425   */\n      dup2\n        /* \"#utility.yul\":1417:1437   */\n      sub\n        /* \"#utility.yul\":1413:1414   */\n      0x00\n        /* \"#utility.yul\":1402:1411   */\n      dup4\n        /* \"#utility.yul\":1398:1415   */\n      add\n        /* \"#utility.yul\":1391:1438   */\n      mstore\n        /* \"#utility.yul\":1455:1586   */\n      tag_45\n        /* \"#utility.yul\":1581:1585   */\n      dup2\n        /* \"#utility.yul\":1455:1586   */\n      tag_31\n      jump\t// in\n    tag_45:\n        /* \"#utility.yul\":1447:1586   */\n      swap1\n      pop\n        /* \"#utility.yul\":1174:1593   */\n      swap2\n      swap1\n      pop\n      jump\t// out\n        /* \"#utility.yul\":1599:1779   */\n    tag_32:\n        /* \"#utility.yul\":1647:1724   */\n      0x4e487b7100000000000000000000000000000000000000000000000000000000\n        /* \"#utility.yul\":1644:1645   */\n      0x00\n        /* \"#utility.yul\":1637:1725   */\n      mstore\n        /* \"#utility.yul\":1744:1748   */\n      0x11\n        /* \"#utility.yul\":1741:1742   */\n      0x04\n        /* \"#utility.yul\":1734:1749   */\n      mstore\n        /* \"#utility.yul\":1768:1772   */\n      0x24\n        /* \"#utility.yul\":1765:1766   */\n      0x00\n        /* \"#utility.yul\":1758:1773   */\n      revert\n        /* \"#utility.yul\":1785:1979   */\n    tag_22:\n        /* \"#utility.yul\":1825:1829   */\n      0x00\n        /* \"#utility.yul\":1845:1865   */\n      tag_48\n        /* \"#utility.yul\":1863:1864   */\n      dup3\n        /* \"#utility.yul\":1845:1865   */\n      tag_27\n      jump\t// in\n    tag_48:\n        /* \"#utility.yul\":1840:1865   */\n      swap2\n      pop\n        /* \"#utility.yul\":1879:1899   */\n      tag_49\n        /* \"#utility.yul\":1897:1898   */\n      dup4\n        /* \"#utility.yul\":1879:1899   */\n      tag_27\n      jump\t// in\n    tag_49:\n        /* \"#utility.yul\":1874:1899   */\n      swap3\n      pop\n        /* \"#utility.yul\":1923:1924   */\n      dup3\n        /* \"#utility.yul\":1920:1921   */\n      dup3\n        /* \"#utility.yul\":1916:1925   */\n      sub\n        /* \"#utility.yul\":1908:1925   */\n      swap1\n      pop\n        /* \"#utility.yul\":1947:1948   */\n      dup2\n        /* \"#utility.yul\":1941:1945   */\n      dup2\n        /* \"#utility.yul\":1938:1949   */\n      gt\n        /* \"#utility.yul\":1935:1972   */\n      iszero\n      tag_50\n      jumpi\n        /* \"#utility.yul\":1952:1970   */\n      tag_51\n      tag_32\n      jump\t// in\n    tag_51:\n        /* \"#utility.yul\":1935:1972   */\n    tag_50:\n        /* \"#utility.yul\":1785:1979   */\n      swap3\n      swap2\n      pop\n      pop\n      jump\t// out\n        /* \"#utility.yul\":1985:2176   */\n    tag_26:\n        /* \"#utility.yul\":2025:2028   */\n      0x00\n        /* \"#utility.yul\":2044:2064   */\n      tag_53\n        /* \"#utility.yul\":2062:2063   */\n      dup3\n        /* \"#utility.yul\":2044:2064   */\n      tag_27\n      jump\t// in\n    tag_53:\n        /* \"#utility.yul\":2039:2064   */\n      swap2\n      pop\n        /* \"#utility.yul\":2078:2098   */\n      tag_54\n        /* \"#utility.yul\":2096:2097   */\n      dup4\n        /* \"#utility.yul\":2078:2098   */\n      tag_27\n      jump\t// in\n    tag_54:\n        /* \"#utility.yul\":2073:2098   */\n      swap3\n      pop\n        /* \"#utility.yul\":2121:2122   */\n      dup3\n        /* \"#utility.yul\":2118:2119   */\n      dup3\n        /* \"#utility.yul\":2114:2123   */\n      add\n        /* \"#utility.yul\":2107:2123   */\n      swap1\n      pop\n        /* \"#utility.yul\":2142:2145   */\n      dup1\n        /* \"#utility.yul\":2139:2140   */\n      dup3\n        /* \"#utility.yul\":2136:2146   */\n      gt\n        /* \"#utility.yul\":2133:2169   */\n      iszero\n      tag_55\n      jumpi\n        /* \"#utility.yul\":2149:2167   */\n      tag_56\n      tag_32\n      jump\t// in\n    tag_56:\n        /* \"#utility.yul\":2133:2169   */\n    tag_55:\n        /* \"#utility.yul\":1985:2176   */\n      swap3\n      swap2\n      pop\n      pop\n      jump\t// out\n\n    auxdata: 0xa264697066735822122060eab1698b5be57464d9acc4e1b523a307cf73239a23ee3710f05b08ed6e5f7364736f6c634300081c0033\n}\n",
				"bytecode": {
					"linkReferences": {},
					"object": "608060405234801561000f575f5ffd5b5060405161048e38038061048e833981810160405281019061003191906100b7565b5f811015610074576040517f08c379a000000000000000000000000000000000000000000000000000000000815260040161006b90610162565b60405180910390fd5b805f8190555050610180565b5f5ffd5b5f819050919050565b61009681610084565b81146100a0575f5ffd5b50565b5f815190506100b18161008d565b92915050565b5f602082840312156100cc576100cb610080565b5b5f6100d9848285016100a3565b91505092915050565b5f82825260208201905092915050565b7f436f756e746572206e65656473206120706f736974697665207374617274696e5f8201527f67206e756d626572000000000000000000000000000000000000000000000000602082015250565b5f61014c6028836100e2565b9150610157826100f2565b604082019050919050565b5f6020820190508181035f83015261017981610140565b9050919050565b6103018061018d5f395ff3fe608060405234801561000f575f5ffd5b506004361061003f575f3560e01c80632baeceb71461004357806350e402f81461006157806361bc221a1461007f575b5f5ffd5b61004b61009d565b60405161005891906101a7565b60405180910390f35b610069610135565b60405161007691906101a7565b60405180910390f35b61008761018a565b60405161009491906101a7565b60405180910390f35b5f5f5f54116100e1576040517f08c379a00000000000000000000000000000000000000000000000000000000081526004016100d89061021a565b60405180910390fd5b7f40fcc5abef980022547a39d2d5bf626ca222b9631318b23cd9f3167f913830ed5f5460405161011191906101a7565b60405180910390a160015f5f82825461012a9190610265565b925050819055905090565b5f7fe2ea736f80f92a510d75d1a96b5c1d5e5544283362b7acd97390d60ea1c7d1495f5460405161016691906101a7565b60405180910390a160015f5f82825461017f9190610298565b925050819055905090565b5f5481565b5f819050919050565b6101a18161018f565b82525050565b5f6020820190506101ba5f830184610198565b92915050565b5f82825260208201905092915050565b7f43616e742064656372656d656e74206c657373207468616e207a65726f0000005f82015250565b5f610204601d836101c0565b915061020f826101d0565b602082019050919050565b5f6020820190508181035f830152610231816101f8565b9050919050565b7f4e487b71000000000000000000000000000000000000000000000000000000005f52601160045260245ffd5b5f61026f8261018f565b915061027a8361018f565b925082820390508181111561029257610291610238565b5b92915050565b5f6102a28261018f565b91506102ad8361018f565b92508282019050808211156102c5576102c4610238565b5b9291505056fea264697066735822122060eab1698b5be57464d9acc4e1b523a307cf73239a23ee3710f05b08ed6e5f7364736f6c634300081c0033",
					"opcodes": "PUSH1 0x80 PUSH1 0x40 MSTORE CALLVALUE DUP1 ISZERO PUSH2 0xF JUMPI PUSH0 PUSH0 REVERT JUMPDEST POP PUSH1 0x40 MLOAD PUSH2 0x48E CODESIZE SUB DUP1 PUSH2 0x48E DUP4 CODECOPY DUP2 DUP2 ADD PUSH1 0x40 MSTORE DUP2 ADD SWAP1 PUSH2 0x31 SWAP2 SWAP1 PUSH2 0xB7 JUMP JUMPDEST PUSH0 DUP2 LT ISZERO PUSH2 0x74 JUMPI PUSH1 0x40 MLOAD PUSH32 0x8C379A000000000000000000000000000000000000000000000000000000000 DUP2 MSTORE PUSH1 0x4 ADD PUSH2 0x6B SWAP1 PUSH2 0x162 JUMP JUMPDEST PUSH1 0x40 MLOAD DUP1 SWAP2 SUB SWAP1 REVERT JUMPDEST DUP1 PUSH0 DUP2 SWAP1 SSTORE POP POP PUSH2 0x180 JUMP JUMPDEST PUSH0 PUSH0 REVERT JUMPDEST PUSH0 DUP2 SWAP1 POP SWAP2 SWAP1 POP JUMP JUMPDEST PUSH2 0x96 DUP2 PUSH2 0x84 JUMP JUMPDEST DUP2 EQ PUSH2 0xA0 JUMPI PUSH0 PUSH0 REVERT JUMPDEST POP JUMP JUMPDEST PUSH0 DUP2 MLOAD SWAP1 POP PUSH2 0xB1 DUP2 PUSH2 0x8D JUMP JUMPDEST SWAP3 SWAP2 POP POP JUMP JUMPDEST PUSH0 PUSH1 0x20 DUP3 DUP5 SUB SLT ISZERO PUSH2 0xCC JUMPI PUSH2 0xCB PUSH2 0x80 JUMP JUMPDEST JUMPDEST PUSH0 PUSH2 0xD9 DUP5 DUP3 DUP6 ADD PUSH2 0xA3 JUMP JUMPDEST SWAP2 POP POP SWAP3 SWAP2 POP POP JUMP JUMPDEST PUSH0 DUP3 DUP3 MSTORE PUSH1 0x20 DUP3 ADD SWAP1 POP SWAP3 SWAP2 POP POP JUMP JUMPDEST PUSH32 0x436F756E746572206E65656473206120706F736974697665207374617274696E PUSH0 DUP3 ADD MSTORE PUSH32 0x67206E756D626572000000000000000000000000000000000000000000000000 PUSH1 0x20 DUP3 ADD MSTORE POP JUMP JUMPDEST PUSH0 PUSH2 0x14C PUSH1 0x28 DUP4 PUSH2 0xE2 JUMP JUMPDEST SWAP2 POP PUSH2 0x157 DUP3 PUSH2 0xF2 JUMP JUMPDEST PUSH1 0x40 DUP3 ADD SWAP1 POP SWAP2 SWAP1 POP JUMP JUMPDEST PUSH0 PUSH1 0x20 DUP3 ADD SWAP1 POP DUP2 DUP2 SUB PUSH0 DUP4 ADD MSTORE PUSH2 0x179 DUP2 PUSH2 0x140 JUMP JUMPDEST SWAP1 POP SWAP2 SWAP1 POP JUMP JUMPDEST PUSH2 0x301 DUP1 PUSH2 0x18D PUSH0 CODECOPY PUSH0 RETURN INVALID PUSH1 0x80 PUSH1 0x40 MSTORE CALLVALUE DUP1 ISZERO PUSH2 0xF JUMPI PUSH0 PUSH0 REVERT JUMPDEST POP PUSH1 0x4 CALLDATASIZE LT PUSH2 0x3F JUMPI PUSH0 CALLDATALOAD PUSH1 0xE0 SHR DUP1 PUSH4 0x2BAECEB7 EQ PUSH2 0x43 JUMPI DUP1 PUSH4 0x50E402F8 EQ PUSH2 0x61 JUMPI DUP1 PUSH4 0x61BC221A EQ PUSH2 0x7F JUMPI JUMPDEST PUSH0 PUSH0 REVERT JUMPDEST PUSH2 0x4B PUSH2 0x9D JUMP JUMPDEST PUSH1 0x40 MLOAD PUSH2 0x58 SWAP2 SWAP1 PUSH2 0x1A7 JUMP JUMPDEST PUSH1 0x40 MLOAD DUP1 SWAP2 SUB SWAP1 RETURN JUMPDEST PUSH2 0x69 PUSH2 0x135 JUMP JUMPDEST PUSH1 0x40 MLOAD PUSH2 0x76 SWAP2 SWAP1 PUSH2 0x1A7 JUMP JUMPDEST PUSH1 0x40 MLOAD DUP1 SWAP2 SUB SWAP1 RETURN JUMPDEST PUSH2 0x87 PUSH2 0x18A JUMP JUMPDEST PUSH1 0x40 MLOAD PUSH2 0x94 SWAP2 SWAP1 PUSH2 0x1A7 JUMP JUMPDEST PUSH1 0x40 MLOAD DUP1 SWAP2 SUB SWAP1 RETURN JUMPDEST PUSH0 PUSH0 PUSH0 SLOAD GT PUSH2 0xE1 JUMPI PUSH1 0x40 MLOAD PUSH32 0x8C379A000000000000000000000000000000000000000000000000000000000 DUP2 MSTORE PUSH1 0x4 ADD PUSH2 0xD8 SWAP1 PUSH2 0x21A JUMP JUMPDEST PUSH1 0x40 MLOAD DUP1 SWAP2 SUB SWAP1 REVERT JUMPDEST PUSH32 0x40FCC5ABEF980022547A39D2D5BF626CA222B9631318B23CD9F3167F913830ED PUSH0 SLOAD PUSH1 0x40 MLOAD PUSH2 0x111 SWAP2 SWAP1 PUSH2 0x1A7 JUMP JUMPDEST PUSH1 0x40 MLOAD DUP1 SWAP2 SUB SWAP1 LOG1 PUSH1 0x1 PUSH0 PUSH0 DUP3 DUP3 SLOAD PUSH2 0x12A SWAP2 SWAP1 PUSH2 0x265 JUMP JUMPDEST SWAP3 POP POP DUP2 SWAP1 SSTORE SWAP1 POP SWAP1 JUMP JUMPDEST PUSH0 PUSH32 0xE2EA736F80F92A510D75D1A96B5C1D5E5544283362B7ACD97390D60EA1C7D149 PUSH0 SLOAD PUSH1 0x40 MLOAD PUSH2 0x166 SWAP2 SWAP1 PUSH2 0x1A7 JUMP JUMPDEST PUSH1 0x40 MLOAD DUP1 SWAP2 SUB SWAP1 LOG1 PUSH1 0x1 PUSH0 PUSH0 DUP3 DUP3 SLOAD PUSH2 0x17F SWAP2 SWAP1 PUSH2 0x298 JUMP JUMPDEST SWAP3 POP POP DUP2 SWAP1 SSTORE SWAP1 POP SWAP1 JUMP JUMPDEST PUSH0 SLOAD DUP2 JUMP JUMPDEST PUSH0 DUP2 SWAP1 POP SWAP2 SWAP1 POP JUMP JUMPDEST PUSH2 0x1A1 DUP2 PUSH2 0x18F JUMP JUMPDEST DUP3 MSTORE POP POP JUMP JUMPDEST PUSH0 PUSH1 0x20 DUP3 ADD SWAP1 POP PUSH2 0x1BA PUSH0 DUP4 ADD DUP5 PUSH2 0x198 JUMP JUMPDEST SWAP3 SWAP2 POP POP JUMP JUMPDEST PUSH0 DUP3 DUP3 MSTORE PUSH1 0x20 DUP3 ADD SWAP1 POP SWAP3 SWAP2 POP POP JUMP JUMPDEST PUSH32 0x43616E742064656372656D656E74206C657373207468616E207A65726F000000 PUSH0 DUP3 ADD MSTORE POP JUMP JUMPDEST PUSH0 PUSH2 0x204 PUSH1 0x1D DUP4 PUSH2 0x1C0 JUMP JUMPDEST SWAP2 POP PUSH2 0x20F DUP3 PUSH2 0x1D0 JUMP JUMPDEST PUSH1 0x20 DUP3 ADD SWAP1 POP SWAP2 SWAP1 POP JUMP JUMPDEST PUSH0 PUSH1 0x20 DUP3 ADD SWAP1 POP DUP2 DUP2 SUB PUSH0 DUP4 ADD MSTORE PUSH2 0x231 DUP2 PUSH2 0x1F8 JUMP JUMPDEST SWAP1 POP SWAP2 SWAP1 POP JUMP JUMPDEST PUSH32 0x4E487B7100000000000000000000000000000000000000000000000000000000 PUSH0 MSTORE PUSH1 0x11 PUSH1 0x4 MSTORE PUSH1 0x24 PUSH0 REVERT JUMPDEST PUSH0 PUSH2 0x26F DUP3 PUSH2 0x18F JUMP JUMPDEST SWAP2 POP PUSH2 0x27A DUP4 PUSH2 0x18F JUMP JUMPDEST SWAP3 POP DUP3 DUP3 SUB SWAP1 POP DUP2 DUP2 GT ISZERO PUSH2 0x292 JUMPI PUSH2 0x291 PUSH2 0x238 JUMP JUMPDEST JUMPDEST SWAP3 SWAP2 POP POP JUMP JUMPDEST PUSH0 PUSH2 0x2A2 DUP3 PUSH2 0x18F JUMP JUMPDEST SWAP2 POP PUSH2 0x2AD DUP4 PUSH2 0x18F JUMP JUMPDEST SWAP3 POP DUP3 DUP3 ADD SWAP1 POP DUP1 DUP3 GT ISZERO PUSH2 0x2C5 JUMPI PUSH2 0x2C4 PUSH2 0x238 JUMP JUMPDEST JUMPDEST SWAP3 SWAP2 POP POP JUMP INVALID LOG2 PUSH5 0x6970667358 0x22 SLT KECCAK256 PUSH1 0xEA 0xB1 PUSH10 0x8B5BE57464D9ACC4E1B5 0x23 LOG3 SMOD 0xCF PUSH20 0x239A23EE3710F05B08ED6E5F7364736F6C634300 ADDMOD SHR STOP CALLER "
				},
				"gasEstimates": {
					"creation": {
						"codeDepositCost": "153800",
						"executionCost": "infinite",
						"totalCost": "infinite"
					},
					"external": {
						"counter()": "2446",
						"decrement()": "infinite",
						"incrementr()": "infinite"
					}
				},
				"methodIdentifiers": {
					"counter()": "61bc221a",
					"decrement()": "2baeceb7",
					"incrementr()": "50e402f8"
				}
			},
			"storageLayout": {
				"storage": [
					{
						"astId": 3,
						"contract": "contracts/Counter.sol:Counter",
						"label": "counter",
						"offset": 0,
						"slot": "0",
						"type": "t_uint256"
					}
				],
				"types": {
					"t_uint256": {
						"encoding": "inplace",
						"label": "uint256",
						"numberOfBytes": "32"
					}
				}
			},
			"userdoc": {
				"kind": "user",
				"methods": {},
				"version": 1
			}
		}
	}
}