{
	"contracts/E3PollStation.sol": {
		"PollStation": {
			"abi": [
				{
					"inputs": [],
					"stateMutability": "nonpayable",
					"type": "constructor"
				},
				{
					"anonymous": false,
					"inputs": [
						{
							"indexed": false,
							"internalType": "string",
							"name": "name",
							"type": "string"
						}
					],
					"name": "CandidateAdded",
					"type": "event"
				},
				{
					"anonymous": false,
					"inputs": [
						{
							"indexed": true,
							"internalType": "address",
							"name": "voter",
							"type": "address"
						},
						{
							"indexed": true,
							"internalType": "string",
							"name": "candidate",
							"type": "string"
						}
					],
					"name": "Voted",
					"type": "event"
				},
				{
					"inputs": [
						{
							"internalType": "string",
							"name": "name",
							"type": "string"
						}
					],
					"name": "addCandidate",
					"outputs": [],
					"stateMutability": "nonpayable",
					"type": "function"
				},
				{
					"inputs": [
						{
							"internalType": "uint256",
							"name": "index",
							"type": "uint256"
						}
					],
					"name": "candidateAt",
					"outputs": [
						{
							"internalType": "string",
							"name": "",
							"type": "string"
						}
					],
					"stateMutability": "view",
					"type": "function"
				},
				{
					"inputs": [],
					"name": "candidateCount",
					"outputs": [
						{
							"internalType": "uint256",
							"name": "",
							"type": "uint256"
						}
					],
					"stateMutability": "view",
					"type": "function"
				},
				{
					"inputs": [
						{
							"internalType": "string",
							"name": "name",
							"type": "string"
						}
					],
					"name": "getVotes",
					"outputs": [
						{
							"internalType": "uint256",
							"name": "",
							"type": "uint256"
						}
					],
					"stateMutability": "view",
					"type": "function"
				},
				{
					"inputs": [
						{
							"internalType": "address",
							"name": "",
							"type": "address"
						}
					],
					"name": "hasVoted",
					"outputs": [
						{
							"internalType": "bool",
							"name": "",
							"type": "bool"
						}
					],
					"stateMutability": "view",
					"type": "function"
				},
				{
					"inputs": [],
					"name": "owner",
					"outputs": [
						{
							"internalType": "address",
							"name": "",
							"type": "address"
						}
					],
					"stateMutability": "view",
					"type": "function"
				},
				{
					"inputs": [
						{
							"internalType": "string",
							"name": "name",
							"type": "string"
						}
					],
					"name": "vote",
					"outputs": [],
					"stateMutability": "nonpayable",
					"type": "function"
				}
			],
			"devdoc": {
				"kind": "dev",
				"methods": {},
				"title": "PollStation v2 – Dynamic list of candidates with simple voting",
				"version": 1
			},
			"evm": {
				"assembly": "    /* \"contracts/E3PollStation.sol\":134:4097  contract PollStation {... */\n  mstore(0x40, 0xa0)\n    /* \"contracts/E3PollStation.sol\":1263:1300  constructor() { owner = msg.sender; } */\n  callvalue\n  dup1\n  iszero\n  tag_1\n  jumpi\n  revert(0x00, 0x00)\ntag_1:\n  pop\n    /* \"contracts/E3PollStation.sol\":1287:1297  msg.sender */\n  caller\n    /* \"contracts/E3PollStation.sol\":1279:1297  owner = msg.sender */\n  0xffffffffffffffffffffffffffffffffffffffff\n  and\n  0x80\n  dup2\n  0xffffffffffffffffffffffffffffffffffffffff\n  and\n  dup2\n  mstore\n  pop\n  pop\n    /* \"contracts/E3PollStation.sol\":134:4097  contract PollStation {... */\n  mload(0x80)\n  codecopy(0x00, dataOffset(sub_0), dataSize(sub_0))\n  0x00\n  assignImmutable(\"0x13600b294191fc92924bb3ce4b969c1e7e2bab8f4c93c3fc6d0a51733df3c060\")\n  return(0x00, dataSize(sub_0))\nstop\n\nsub_0: assembly {\n        /* \"contracts/E3PollStation.sol\":134:4097  contract PollStation {... */\n      mstore(0x40, 0x80)\n      callvalue\n      dup1\n      iszero\n      tag_1\n      jumpi\n      revert(0x00, 0x00)\n    tag_1:\n      pop\n      jumpi(tag_2, lt(calldatasize, 0x04))\n      shr(0xe0, calldataload(0x00))\n      dup1\n      0x8da5cb5b\n      gt\n      tag_10\n      jumpi\n      dup1\n      0x8da5cb5b\n      eq\n      tag_6\n      jumpi\n      dup1\n      0x9c7e8439\n      eq\n      tag_7\n      jumpi\n      dup1\n      0xa9a981a3\n      eq\n      tag_8\n      jumpi\n      dup1\n      0xfc36e15b\n      eq\n      tag_9\n      jumpi\n      jump(tag_2)\n    tag_10:\n      dup1\n      0x09eef43e\n      eq\n      tag_3\n      jumpi\n      dup1\n      0x462e91ec\n      eq\n      tag_4\n      jumpi\n      dup1\n      0x805265e5\n      eq\n      tag_5\n      jumpi\n    tag_2:\n      revert(0x00, 0x00)\n        /* \"contracts/E3PollStation.sol\":609:650  mapping(address => bool)  public hasVoted */\n    tag_3:\n      tag_11\n      0x04\n      dup1\n      calldatasize\n      sub\n      dup2\n      add\n      swap1\n      tag_12\n      swap2\n      swap1\n      tag_13\n      jump\t// in\n    tag_12:\n      tag_14\n      jump\t// in\n    tag_11:\n      mload(0x40)\n      tag_15\n      swap2\n      swap1\n      tag_16\n      jump\t// in\n    tag_15:\n      mload(0x40)\n      dup1\n      swap2\n      sub\n      swap1\n      return\n        /* \"contracts/E3PollStation.sol\":1546:1799  function addCandidate(string calldata name) external onlyOwner {... */\n    tag_4:\n      tag_17\n      0x04\n      dup1\n      calldatasize\n      sub\n      dup2\n      add\n      swap1\n      tag_18\n      swap2\n      swap1\n      tag_19\n      jump\t// in\n    tag_18:\n      tag_20\n      jump\t// in\n    tag_17:\n      stop\n        /* \"contracts/E3PollStation.sol\":2612:2778  function getVotes(string calldata name) external view returns (uint256) {... */\n    tag_5:\n      tag_21\n      0x04\n      dup1\n      calldatasize\n      sub\n      dup2\n      add\n      swap1\n      tag_22\n      swap2\n      swap1\n      tag_19\n      jump\t// in\n    tag_22:\n      tag_23\n      jump\t// in\n    tag_21:\n      mload(0x40)\n      tag_24\n      swap2\n      swap1\n      tag_25\n      jump\t// in\n    tag_24:\n      mload(0x40)\n      dup1\n      swap2\n      sub\n      swap1\n      return\n        /* \"contracts/E3PollStation.sol\":401:431  address public immutable owner */\n    tag_6:\n      tag_26\n      tag_27\n      jump\t// in\n    tag_26:\n      mload(0x40)\n      tag_28\n      swap2\n      swap1\n      tag_29\n      jump\t// in\n    tag_28:\n      mload(0x40)\n      dup1\n      swap2\n      sub\n      swap1\n      return\n        /* \"contracts/E3PollStation.sol\":2980:3163  function candidateAt(uint256 index) external view returns (string memory) {... */\n    tag_7:\n      tag_30\n      0x04\n      dup1\n      calldatasize\n      sub\n      dup2\n      add\n      swap1\n      tag_31\n      swap2\n      swap1\n      tag_32\n      jump\t// in\n    tag_31:\n      tag_33\n      jump\t// in\n    tag_30:\n      mload(0x40)\n      tag_34\n      swap2\n      swap1\n      tag_35\n      jump\t// in\n    tag_34:\n      mload(0x40)\n      dup1\n      swap2\n      sub\n      swap1\n      return\n        /* \"contracts/E3PollStation.sol\":2827:2930  function candidateCount() external view returns (uint256) {... */\n    tag_8:\n      tag_36\n      tag_37\n      jump\t// in\n    tag_36:\n      mload(0x40)\n      tag_38\n      swap2\n      swap1\n      tag_25\n      jump\t// in\n    tag_38:\n      mload(0x40)\n      dup1\n      swap2\n      sub\n      swap1\n      return\n        /* \"contracts/E3PollStation.sol\":2045:2324  function vote(string calldata name) external {... */\n    tag_9:\n      tag_39\n      0x04\n      dup1\n      calldatasize\n      sub\n      dup2\n      add\n      swap1\n      tag_40\n      swap2\n      swap1\n      tag_19\n      jump\t// in\n    tag_40:\n      tag_41\n      jump\t// in\n    tag_39:\n      stop\n        /* \"contracts/E3PollStation.sol\":609:650  mapping(address => bool)  public hasVoted */\n    tag_14:\n      mstore(0x20, 0x02)\n      dup1\n      0x00\n      mstore\n      keccak256(0x00, 0x40)\n      0x00\n      swap2\n      pop\n      sload\n      swap1\n      0x0100\n      exp\n      swap1\n      div\n      0xff\n      and\n      dup2\n      jump\t// out\n        /* \"contracts/E3PollStation.sol\":1546:1799  function addCandidate(string calldata name) external onlyOwner {... */\n    tag_20:\n        /* \"contracts/E3PollStation.sol\":4058:4063  owner */\n      immutable(\"0x13600b294191fc92924bb3ce4b969c1e7e2bab8f4c93c3fc6d0a51733df3c060\")\n        /* \"contracts/E3PollStation.sol\":4044:4063  msg.sender == owner */\n      0xffffffffffffffffffffffffffffffffffffffff\n      and\n        /* \"contracts/E3PollStation.sol\":4044:4054  msg.sender */\n      caller\n        /* \"contracts/E3PollStation.sol\":4044:4063  msg.sender == owner */\n      0xffffffffffffffffffffffffffffffffffffffff\n      and\n      eq\n        /* \"contracts/E3PollStation.sol\":4036:4077  require(msg.sender == owner, \"Not owner\") */\n      tag_43\n      jumpi\n      mload(0x40)\n      0x08c379a000000000000000000000000000000000000000000000000000000000\n      dup2\n      mstore\n      0x04\n      add\n      tag_44\n      swap1\n      tag_45\n      jump\t// in\n    tag_44:\n      mload(0x40)\n      dup1\n      swap2\n      sub\n      swap1\n      revert\n    tag_43:\n        /* \"contracts/E3PollStation.sol\":1648:1649  0 */\n      0x00\n        /* \"contracts/E3PollStation.sol\":1633:1637  name */\n      dup3\n      dup3\n        /* \"contracts/E3PollStation.sol\":1627:1645  bytes(name).length */\n      swap1\n      pop\n        /* \"contracts/E3PollStation.sol\":1627:1649  bytes(name).length > 0 */\n      gt\n        /* \"contracts/E3PollStation.sol\":1619:1664  require(bytes(name).length > 0, \"Empty name\") */\n      tag_47\n      jumpi\n      mload(0x40)\n      0x08c379a000000000000000000000000000000000000000000000000000000000\n      dup2\n      mstore\n      0x04\n      add\n      tag_48\n      swap1\n      tag_49\n      jump\t// in\n    tag_48:\n      mload(0x40)\n      dup1\n      swap2\n      sub\n      swap1\n      revert\n    tag_47:\n        /* \"contracts/E3PollStation.sol\":1683:1696  _exists(name) */\n      tag_50\n        /* \"contracts/E3PollStation.sol\":1691:1695  name */\n      dup3\n      dup3\n        /* \"contracts/E3PollStation.sol\":1683:1696  _exists(name) */\n      dup1\n      dup1\n      0x1f\n      add\n      0x20\n      dup1\n      swap2\n      div\n      mul\n      0x20\n      add\n      mload(0x40)\n      swap1\n      dup2\n      add\n      0x40\n      mstore\n      dup1\n      swap4\n      swap3\n      swap2\n      swap1\n      dup2\n      dup2\n      mstore\n      0x20\n      add\n      dup4\n      dup4\n      dup1\n      dup3\n      dup5\n      calldatacopy\n      0x00\n      dup2\n      dup5\n      add\n      mstore\n      not(0x1f)\n      0x1f\n      dup3\n      add\n      and\n      swap1\n      pop\n      dup1\n      dup4\n      add\n      swap3\n      pop\n      pop\n      pop\n      pop\n      pop\n      pop\n      pop\n        /* \"contracts/E3PollStation.sol\":1683:1690  _exists */\n      tag_51\n        /* \"contracts/E3PollStation.sol\":1683:1696  _exists(name) */\n      jump\t// in\n    tag_50:\n        /* \"contracts/E3PollStation.sol\":1682:1696  !_exists(name) */\n      iszero\n        /* \"contracts/E3PollStation.sol\":1674:1721  require(!_exists(name),        \"Already added\") */\n      tag_52\n      jumpi\n      mload(0x40)\n      0x08c379a000000000000000000000000000000000000000000000000000000000\n      dup2\n      mstore\n      0x04\n      add\n      tag_53\n      swap1\n      tag_54\n      jump\t// in\n    tag_53:\n      mload(0x40)\n      dup1\n      swap2\n      sub\n      swap1\n      revert\n    tag_52:\n        /* \"contracts/E3PollStation.sol\":1732:1746  candidateNames */\n      0x00\n        /* \"contracts/E3PollStation.sol\":1752:1756  name */\n      dup3\n      dup3\n        /* \"contracts/E3PollStation.sol\":1732:1757  candidateNames.push(name) */\n      swap1\n      swap2\n      dup1\n      0x01\n      dup2\n      sload\n      add\n      dup1\n      dup3\n      sstore\n      dup1\n      swap2\n      pop\n      pop\n      0x01\n      swap1\n      sub\n      swap1\n      0x00\n      mstore\n      keccak256(0x00, 0x20)\n      add\n      0x00\n      swap1\n      swap2\n      swap3\n      swap1\n      swap2\n      swap3\n      swap1\n      swap2\n      swap3\n      swap1\n      swap2\n      swap3\n      pop\n      swap2\n      dup3\n      tag_56\n      swap3\n      swap2\n      swap1\n      tag_57\n      jump\t// in\n    tag_56:\n      pop\n        /* \"contracts/E3PollStation.sol\":1772:1792  CandidateAdded(name) */\n      0xf29562dad1599aea0ebb142466120aab326d5efa8f839df82a9c064bf78e8938\n        /* \"contracts/E3PollStation.sol\":1787:1791  name */\n      dup3\n      dup3\n        /* \"contracts/E3PollStation.sol\":1772:1792  CandidateAdded(name) */\n      mload(0x40)\n      tag_58\n      swap3\n      swap2\n      swap1\n      tag_59\n      jump\t// in\n    tag_58:\n      mload(0x40)\n      dup1\n      swap2\n      sub\n      swap1\n      log1\n        /* \"contracts/E3PollStation.sol\":1546:1799  function addCandidate(string calldata name) external onlyOwner {... */\n      pop\n      pop\n      jump\t// out\n        /* \"contracts/E3PollStation.sol\":2612:2778  function getVotes(string calldata name) external view returns (uint256) {... */\n    tag_23:\n        /* \"contracts/E3PollStation.sol\":2675:2682  uint256 */\n      0x00\n        /* \"contracts/E3PollStation.sol\":2702:2715  _exists(name) */\n      tag_61\n        /* \"contracts/E3PollStation.sol\":2710:2714  name */\n      dup4\n      dup4\n        /* \"contracts/E3PollStation.sol\":2702:2715  _exists(name) */\n      dup1\n      dup1\n      0x1f\n      add\n      0x20\n      dup1\n      swap2\n      div\n      mul\n      0x20\n      add\n      mload(0x40)\n      swap1\n      dup2\n      add\n      0x40\n      mstore\n      dup1\n      swap4\n      swap3\n      swap2\n      swap1\n      dup2\n      dup2\n      mstore\n      0x20\n      add\n      dup4\n      dup4\n      dup1\n      dup3\n      dup5\n      calldatacopy\n      0x00\n      dup2\n      dup5\n      add\n      mstore\n      not(0x1f)\n      0x1f\n      dup3\n      add\n      and\n      swap1\n      pop\n      dup1\n      dup4\n      add\n      swap3\n      pop\n      pop\n      pop\n      pop\n      pop\n      pop\n      pop\n        /* \"contracts/E3PollStation.sol\":2702:2709  _exists */\n      tag_51\n        /* \"contracts/E3PollStation.sol\":2702:2715  _exists(name) */\n      jump\t// in\n    tag_61:\n        /* \"contracts/E3PollStation.sol\":2694:2739  require(_exists(name), \"Candidate not found\") */\n      tag_62\n      jumpi\n      mload(0x40)\n      0x08c379a000000000000000000000000000000000000000000000000000000000\n      dup2\n      mstore\n      0x04\n      add\n      tag_63\n      swap1\n      tag_64\n      jump\t// in\n    tag_63:\n      mload(0x40)\n      dup1\n      swap2\n      sub\n      swap1\n      revert\n    tag_62:\n        /* \"contracts/E3PollStation.sol\":2756:2765  voteCount */\n      0x01\n        /* \"contracts/E3PollStation.sol\":2766:2770  name */\n      dup4\n      dup4\n        /* \"contracts/E3PollStation.sol\":2756:2771  voteCount[name] */\n      mload(0x40)\n      tag_65\n      swap3\n      swap2\n      swap1\n      tag_66\n      jump\t// in\n    tag_65:\n      swap1\n      dup2\n      mstore\n      0x20\n      add\n      mload(0x40)\n      dup1\n      swap2\n      sub\n      swap1\n      keccak256\n      sload\n        /* \"contracts/E3PollStation.sol\":2749:2771  return voteCount[name] */\n      swap1\n      pop\n        /* \"contracts/E3PollStation.sol\":2612:2778  function getVotes(string calldata name) external view returns (uint256) {... */\n      swap3\n      swap2\n      pop\n      pop\n      jump\t// out\n        /* \"contracts/E3PollStation.sol\":401:431  address public immutable owner */\n    tag_27:\n      immutable(\"0x13600b294191fc92924bb3ce4b969c1e7e2bab8f4c93c3fc6d0a51733df3c060\")\n      dup2\n      jump\t// out\n        /* \"contracts/E3PollStation.sol\":2980:3163  function candidateAt(uint256 index) external view returns (string memory) {... */\n    tag_33:\n        /* \"contracts/E3PollStation.sol\":3039:3052  string memory */\n      0x60\n        /* \"contracts/E3PollStation.sol\":3080:3094  candidateNames */\n      0x00\n        /* \"contracts/E3PollStation.sol\":3080:3101  candidateNames.length */\n      dup1\n      sload\n      swap1\n      pop\n        /* \"contracts/E3PollStation.sol\":3072:3077  index */\n      dup3\n        /* \"contracts/E3PollStation.sol\":3072:3101  index < candidateNames.length */\n      lt\n        /* \"contracts/E3PollStation.sol\":3064:3118  require(index < candidateNames.length, \"Out of range\") */\n      tag_68\n      jumpi\n      mload(0x40)\n      0x08c379a000000000000000000000000000000000000000000000000000000000\n      dup2\n      mstore\n      0x04\n      add\n      tag_69\n      swap1\n      tag_70\n      jump\t// in\n    tag_69:\n      mload(0x40)\n      dup1\n      swap2\n      sub\n      swap1\n      revert\n    tag_68:\n        /* \"contracts/E3PollStation.sol\":3135:3149  candidateNames */\n      0x00\n        /* \"contracts/E3PollStation.sol\":3150:3155  index */\n      dup3\n        /* \"contracts/E3PollStation.sol\":3135:3156  candidateNames[index] */\n      dup2\n      sload\n      dup2\n      lt\n      tag_71\n      jumpi\n      tag_72\n      tag_73\n      jump\t// in\n    tag_72:\n    tag_71:\n      swap1\n      0x00\n      mstore\n      keccak256(0x00, 0x20)\n      add\n        /* \"contracts/E3PollStation.sol\":3128:3156  return candidateNames[index] */\n      dup1\n      sload\n      tag_75\n      swap1\n      tag_76\n      jump\t// in\n    tag_75:\n      dup1\n      0x1f\n      add\n      0x20\n      dup1\n      swap2\n      div\n      mul\n      0x20\n      add\n      mload(0x40)\n      swap1\n      dup2\n      add\n      0x40\n      mstore\n      dup1\n      swap3\n      swap2\n      swap1\n      dup2\n      dup2\n      mstore\n      0x20\n      add\n      dup3\n      dup1\n      sload\n      tag_77\n      swap1\n      tag_76\n      jump\t// in\n    tag_77:\n      dup1\n      iszero\n      tag_78\n      jumpi\n      dup1\n      0x1f\n      lt\n      tag_79\n      jumpi\n      0x0100\n      dup1\n      dup4\n      sload\n      div\n      mul\n      dup4\n      mstore\n      swap2\n      0x20\n      add\n      swap2\n      jump(tag_78)\n    tag_79:\n      dup3\n      add\n      swap2\n      swap1\n      0x00\n      mstore\n      keccak256(0x00, 0x20)\n      swap1\n    tag_80:\n      dup2\n      sload\n      dup2\n      mstore\n      swap1\n      0x01\n      add\n      swap1\n      0x20\n      add\n      dup1\n      dup4\n      gt\n      tag_80\n      jumpi\n      dup3\n      swap1\n      sub\n      0x1f\n      and\n      dup3\n      add\n      swap2\n    tag_78:\n      pop\n      pop\n      pop\n      pop\n      pop\n      swap1\n      pop\n        /* \"contracts/E3PollStation.sol\":2980:3163  function candidateAt(uint256 index) external view returns (string memory) {... */\n      swap2\n      swap1\n      pop\n      jump\t// out\n        /* \"contracts/E3PollStation.sol\":2827:2930  function candidateCount() external view returns (uint256) {... */\n    tag_37:\n        /* \"contracts/E3PollStation.sol\":2876:2883  uint256 */\n      0x00\n        /* \"contracts/E3PollStation.sol\":2902:2916  candidateNames */\n      0x00\n        /* \"contracts/E3PollStation.sol\":2902:2923  candidateNames.length */\n      dup1\n      sload\n      swap1\n      pop\n        /* \"contracts/E3PollStation.sol\":2895:2923  return candidateNames.length */\n      swap1\n      pop\n        /* \"contracts/E3PollStation.sol\":2827:2930  function candidateCount() external view returns (uint256) {... */\n      swap1\n      jump\t// out\n        /* \"contracts/E3PollStation.sol\":2045:2324  function vote(string calldata name) external {... */\n    tag_41:\n        /* \"contracts/E3PollStation.sol\":2109:2117  hasVoted */\n      0x02\n        /* \"contracts/E3PollStation.sol\":2109:2129  hasVoted[msg.sender] */\n      0x00\n        /* \"contracts/E3PollStation.sol\":2118:2128  msg.sender */\n      caller\n        /* \"contracts/E3PollStation.sol\":2109:2129  hasVoted[msg.sender] */\n      0xffffffffffffffffffffffffffffffffffffffff\n      and\n      0xffffffffffffffffffffffffffffffffffffffff\n      and\n      dup2\n      mstore\n      0x20\n      add\n      swap1\n      dup2\n      mstore\n      0x20\n      add\n      0x00\n      keccak256\n      0x00\n      swap1\n      sload\n      swap1\n      0x0100\n      exp\n      swap1\n      div\n      0xff\n      and\n        /* \"contracts/E3PollStation.sol\":2108:2129  !hasVoted[msg.sender] */\n      iszero\n        /* \"contracts/E3PollStation.sol\":2100:2147  require(!hasVoted[msg.sender], \"Already voted\") */\n      tag_83\n      jumpi\n      mload(0x40)\n      0x08c379a000000000000000000000000000000000000000000000000000000000\n      dup2\n      mstore\n      0x04\n      add\n      tag_84\n      swap1\n      tag_85\n      jump\t// in\n    tag_84:\n      mload(0x40)\n      dup1\n      swap2\n      sub\n      swap1\n      revert\n    tag_83:\n        /* \"contracts/E3PollStation.sol\":2165:2178  _exists(name) */\n      tag_86\n        /* \"contracts/E3PollStation.sol\":2173:2177  name */\n      dup3\n      dup3\n        /* \"contracts/E3PollStation.sol\":2165:2178  _exists(name) */\n      dup1\n      dup1\n      0x1f\n      add\n      0x20\n      dup1\n      swap2\n      div\n      mul\n      0x20\n      add\n      mload(0x40)\n      swap1\n      dup2\n      add\n      0x40\n      mstore\n      dup1\n      swap4\n      swap3\n      swap2\n      swap1\n      dup2\n      dup2\n      mstore\n      0x20\n      add\n      dup4\n      dup4\n      dup1\n      dup3\n      dup5\n      calldatacopy\n      0x00\n      dup2\n      dup5\n      add\n      mstore\n      not(0x1f)\n      0x1f\n      dup3\n      add\n      and\n      swap1\n      pop\n      dup1\n      dup4\n      add\n      swap3\n      pop\n      pop\n      pop\n      pop\n      pop\n      pop\n      pop\n        /* \"contracts/E3PollStation.sol\":2165:2172  _exists */\n      tag_51\n        /* \"contracts/E3PollStation.sol\":2165:2178  _exists(name) */\n      jump\t// in\n    tag_86:\n        /* \"contracts/E3PollStation.sol\":2157:2210  require(_exists(name),         \"Candidate not found\") */\n      tag_87\n      jumpi\n      mload(0x40)\n      0x08c379a000000000000000000000000000000000000000000000000000000000\n      dup2\n      mstore\n      0x04\n      add\n      tag_88\n      swap1\n      tag_64\n      jump\t// in\n    tag_88:\n      mload(0x40)\n      dup1\n      swap2\n      sub\n      swap1\n      revert\n    tag_87:\n        /* \"contracts/E3PollStation.sol\":2240:2241  1 */\n      0x01\n        /* \"contracts/E3PollStation.sol\":2221:2230  voteCount */\n      dup1\n        /* \"contracts/E3PollStation.sol\":2231:2235  name */\n      dup4\n      dup4\n        /* \"contracts/E3PollStation.sol\":2221:2236  voteCount[name] */\n      mload(0x40)\n      tag_89\n      swap3\n      swap2\n      swap1\n      tag_66\n      jump\t// in\n    tag_89:\n      swap1\n      dup2\n      mstore\n      0x20\n      add\n      mload(0x40)\n      dup1\n      swap2\n      sub\n      swap1\n      keccak256\n      0x00\n        /* \"contracts/E3PollStation.sol\":2221:2241  voteCount[name] += 1 */\n      dup3\n      dup3\n      sload\n      tag_90\n      swap2\n      swap1\n      tag_91\n      jump\t// in\n    tag_90:\n      swap3\n      pop\n      pop\n      dup2\n      swap1\n      sstore\n      pop\n        /* \"contracts/E3PollStation.sol\":2274:2278  true */\n      0x01\n        /* \"contracts/E3PollStation.sol\":2251:2259  hasVoted */\n      0x02\n        /* \"contracts/E3PollStation.sol\":2251:2271  hasVoted[msg.sender] */\n      0x00\n        /* \"contracts/E3PollStation.sol\":2260:2270  msg.sender */\n      caller\n        /* \"contracts/E3PollStation.sol\":2251:2271  hasVoted[msg.sender] */\n      0xffffffffffffffffffffffffffffffffffffffff\n      and\n      0xffffffffffffffffffffffffffffffffffffffff\n      and\n      dup2\n      mstore\n      0x20\n      add\n      swap1\n      dup2\n      mstore\n      0x20\n      add\n      0x00\n      keccak256\n      0x00\n        /* \"contracts/E3PollStation.sol\":2251:2278  hasVoted[msg.sender] = true */\n      0x0100\n      exp\n      dup2\n      sload\n      dup2\n      0xff\n      mul\n      not\n      and\n      swap1\n      dup4\n      iszero\n      iszero\n      mul\n      or\n      swap1\n      sstore\n      pop\n        /* \"contracts/E3PollStation.sol\":2312:2316  name */\n      dup2\n      dup2\n        /* \"contracts/E3PollStation.sol\":2294:2317  Voted(msg.sender, name) */\n      mload(0x40)\n      tag_92\n      swap3\n      swap2\n      swap1\n      tag_66\n      jump\t// in\n    tag_92:\n      mload(0x40)\n      dup1\n      swap2\n      sub\n      swap1\n      keccak256\n        /* \"contracts/E3PollStation.sol\":2300:2310  msg.sender */\n      caller\n        /* \"contracts/E3PollStation.sol\":2294:2317  Voted(msg.sender, name) */\n      0xffffffffffffffffffffffffffffffffffffffff\n      and\n      0xcb6783276e8a4347387036bbfea000268f0a4b1f8c46ac79980609f2af8d2acd\n      mload(0x40)\n      mload(0x40)\n      dup1\n      swap2\n      sub\n      swap1\n      log3\n        /* \"contracts/E3PollStation.sol\":2045:2324  function vote(string calldata name) external {... */\n      pop\n      pop\n      jump\t// out\n        /* \"contracts/E3PollStation.sol\":3409:3759  function _exists(string memory name) internal view returns (bool) {... */\n    tag_51:\n        /* \"contracts/E3PollStation.sol\":3469:3473  bool */\n      0x00\n        /* \"contracts/E3PollStation.sol\":3569:3578  uint256 i */\n      0x00\n        /* \"contracts/E3PollStation.sol\":3564:3731  for (uint256 i; i < candidateNames.length; ++i) {... */\n    tag_94:\n        /* \"contracts/E3PollStation.sol\":3584:3598  candidateNames */\n      0x00\n        /* \"contracts/E3PollStation.sol\":3584:3605  candidateNames.length */\n      dup1\n      sload\n      swap1\n      pop\n        /* \"contracts/E3PollStation.sol\":3580:3581  i */\n      dup2\n        /* \"contracts/E3PollStation.sol\":3580:3605  i < candidateNames.length */\n      lt\n        /* \"contracts/E3PollStation.sol\":3564:3731  for (uint256 i; i < candidateNames.length; ++i) {... */\n      iszero\n      tag_95\n      jumpi\n        /* \"contracts/E3PollStation.sol\":3685:3689  name */\n      dup3\n        /* \"contracts/E3PollStation.sol\":3669:3691  keccak256(bytes(name)) */\n      dup1\n      mload\n      swap1\n      0x20\n      add\n      keccak256\n        /* \"contracts/E3PollStation.sol\":3646:3660  candidateNames */\n      0x00\n        /* \"contracts/E3PollStation.sol\":3661:3662  i */\n      dup3\n        /* \"contracts/E3PollStation.sol\":3646:3663  candidateNames[i] */\n      dup2\n      sload\n      dup2\n      lt\n      tag_97\n      jumpi\n      tag_98\n      tag_73\n      jump\t// in\n    tag_98:\n    tag_97:\n      swap1\n      0x00\n      mstore\n      keccak256(0x00, 0x20)\n      add\n        /* \"contracts/E3PollStation.sol\":3630:3665  keccak256(bytes(candidateNames[i])) */\n      mload(0x40)\n      tag_100\n      swap2\n      swap1\n      tag_101\n      jump\t// in\n    tag_100:\n      mload(0x40)\n      dup1\n      swap2\n      sub\n      swap1\n      keccak256\n        /* \"contracts/E3PollStation.sol\":3630:3691  keccak256(bytes(candidateNames[i])) == keccak256(bytes(name)) */\n      sub\n        /* \"contracts/E3PollStation.sol\":3626:3720  if (keccak256(bytes(candidateNames[i])) == keccak256(bytes(name)))... */\n      tag_102\n      jumpi\n        /* \"contracts/E3PollStation.sol\":3716:3720  true */\n      0x01\n        /* \"contracts/E3PollStation.sol\":3709:3720  return true */\n      swap2\n      pop\n      pop\n      jump(tag_93)\n        /* \"contracts/E3PollStation.sol\":3626:3720  if (keccak256(bytes(candidateNames[i])) == keccak256(bytes(name)))... */\n    tag_102:\n        /* \"contracts/E3PollStation.sol\":3607:3610  ++i */\n      dup1\n      0x01\n      add\n      swap1\n      pop\n        /* \"contracts/E3PollStation.sol\":3564:3731  for (uint256 i; i < candidateNames.length; ++i) {... */\n      jump(tag_94)\n    tag_95:\n      pop\n        /* \"contracts/E3PollStation.sol\":3747:3752  false */\n      0x00\n        /* \"contracts/E3PollStation.sol\":3740:3752  return false */\n      swap1\n      pop\n        /* \"contracts/E3PollStation.sol\":3409:3759  function _exists(string memory name) internal view returns (bool) {... */\n    tag_93:\n      swap2\n      swap1\n      pop\n      jump\t// out\n        /* \"#utility.yul\":88:205   */\n    tag_104:\n        /* \"#utility.yul\":197:198   */\n      0x00\n        /* \"#utility.yul\":194:195   */\n      0x00\n        /* \"#utility.yul\":187:199   */\n      revert\n        /* \"#utility.yul\":211:328   */\n    tag_105:\n        /* \"#utility.yul\":320:321   */\n      0x00\n        /* \"#utility.yul\":317:318   */\n      0x00\n        /* \"#utility.yul\":310:322   */\n      revert\n        /* \"#utility.yul\":334:460   */\n    tag_106:\n        /* \"#utility.yul\":371:378   */\n      0x00\n        /* \"#utility.yul\":411:453   */\n      0xffffffffffffffffffffffffffffffffffffffff\n        /* \"#utility.yul\":404:409   */\n      dup3\n        /* \"#utility.yul\":400:454   */\n      and\n        /* \"#utility.yul\":389:454   */\n      swap1\n      pop\n        /* \"#utility.yul\":334:460   */\n      swap2\n      swap1\n      pop\n      jump\t// out\n        /* \"#utility.yul\":466:562   */\n    tag_107:\n        /* \"#utility.yul\":503:510   */\n      0x00\n        /* \"#utility.yul\":532:556   */\n      tag_170\n        /* \"#utility.yul\":550:555   */\n      dup3\n        /* \"#utility.yul\":532:556   */\n      tag_106\n      jump\t// in\n    tag_170:\n        /* \"#utility.yul\":521:556   */\n      swap1\n      pop\n        /* \"#utility.yul\":466:562   */\n      swap2\n      swap1\n      pop\n      jump\t// out\n        /* \"#utility.yul\":568:690   */\n    tag_108:\n        /* \"#utility.yul\":641:665   */\n      tag_172\n        /* \"#utility.yul\":659:664   */\n      dup2\n        /* \"#utility.yul\":641:665   */\n      tag_107\n      jump\t// in\n    tag_172:\n        /* \"#utility.yul\":634:639   */\n      dup2\n        /* \"#utility.yul\":631:666   */\n      eq\n        /* \"#utility.yul\":621:684   */\n      tag_173\n      jumpi\n        /* \"#utility.yul\":680:681   */\n      0x00\n        /* \"#utility.yul\":677:678   */\n      0x00\n        /* \"#utility.yul\":670:682   */\n      revert\n        /* \"#utility.yul\":621:684   */\n    tag_173:\n        /* \"#utility.yul\":568:690   */\n      pop\n      jump\t// out\n        /* \"#utility.yul\":696:835   */\n    tag_109:\n        /* \"#utility.yul\":742:747   */\n      0x00\n        /* \"#utility.yul\":780:786   */\n      dup2\n        /* \"#utility.yul\":767:787   */\n      calldataload\n        /* \"#utility.yul\":758:787   */\n      swap1\n      pop\n        /* \"#utility.yul\":796:829   */\n      tag_175\n        /* \"#utility.yul\":823:828   */\n      dup2\n        /* \"#utility.yul\":796:829   */\n      tag_108\n      jump\t// in\n    tag_175:\n        /* \"#utility.yul\":696:835   */\n      swap3\n      swap2\n      pop\n      pop\n      jump\t// out\n        /* \"#utility.yul\":841:1170   */\n    tag_13:\n        /* \"#utility.yul\":900:906   */\n      0x00\n        /* \"#utility.yul\":949:951   */\n      0x20\n        /* \"#utility.yul\":937:946   */\n      dup3\n        /* \"#utility.yul\":928:935   */\n      dup5\n        /* \"#utility.yul\":924:947   */\n      sub\n        /* \"#utility.yul\":920:952   */\n      slt\n        /* \"#utility.yul\":917:1036   */\n      iszero\n      tag_177\n      jumpi\n        /* \"#utility.yul\":955:1034   */\n      tag_178\n      tag_104\n      jump\t// in\n    tag_178:\n        /* \"#utility.yul\":917:1036   */\n    tag_177:\n        /* \"#utility.yul\":1075:1076   */\n      0x00\n        /* \"#utility.yul\":1100:1153   */\n      tag_179\n        /* \"#utility.yul\":1145:1152   */\n      dup5\n        /* \"#utility.yul\":1136:1142   */\n      dup3\n        /* \"#utility.yul\":1125:1134   */\n      dup6\n        /* \"#utility.yul\":1121:1143   */\n      add\n        /* \"#utility.yul\":1100:1153   */\n      tag_109\n      jump\t// in\n    tag_179:\n        /* \"#utility.yul\":1090:1153   */\n      swap2\n      pop\n        /* \"#utility.yul\":1046:1163   */\n      pop\n        /* \"#utility.yul\":841:1170   */\n      swap3\n      swap2\n      pop\n      pop\n      jump\t// out\n        /* \"#utility.yul\":1176:1266   */\n    tag_110:\n        /* \"#utility.yul\":1210:1217   */\n      0x00\n        /* \"#utility.yul\":1253:1258   */\n      dup2\n        /* \"#utility.yul\":1246:1259   */\n      iszero\n        /* \"#utility.yul\":1239:1260   */\n      iszero\n        /* \"#utility.yul\":1228:1260   */\n      swap1\n      pop\n        /* \"#utility.yul\":1176:1266   */\n      swap2\n      swap1\n      pop\n      jump\t// out\n        /* \"#utility.yul\":1272:1381   */\n    tag_111:\n        /* \"#utility.yul\":1353:1374   */\n      tag_182\n        /* \"#utility.yul\":1368:1373   */\n      dup2\n        /* \"#utility.yul\":1353:1374   */\n      tag_110\n      jump\t// in\n    tag_182:\n        /* \"#utility.yul\":1348:1351   */\n      dup3\n        /* \"#utility.yul\":1341:1375   */\n      mstore\n        /* \"#utility.yul\":1272:1381   */\n      pop\n      pop\n      jump\t// out\n        /* \"#utility.yul\":1387:1597   */\n    tag_16:\n        /* \"#utility.yul\":1474:1478   */\n      0x00\n        /* \"#utility.yul\":1512:1514   */\n      0x20\n        /* \"#utility.yul\":1501:1510   */\n      dup3\n        /* \"#utility.yul\":1497:1515   */\n      add\n        /* \"#utility.yul\":1489:1515   */\n      swap1\n      pop\n        /* \"#utility.yul\":1525:1590   */\n      tag_184\n        /* \"#utility.yul\":1587:1588   */\n      0x00\n        /* \"#utility.yul\":1576:1585   */\n      dup4\n        /* \"#utility.yul\":1572:1589   */\n      add\n        /* \"#utility.yul\":1563:1569   */\n      dup5\n        /* \"#utility.yul\":1525:1590   */\n      tag_111\n      jump\t// in\n    tag_184:\n        /* \"#utility.yul\":1387:1597   */\n      swap3\n      swap2\n      pop\n      pop\n      jump\t// out\n        /* \"#utility.yul\":1603:1720   */\n    tag_112:\n        /* \"#utility.yul\":1712:1713   */\n      0x00\n        /* \"#utility.yul\":1709:1710   */\n      0x00\n        /* \"#utility.yul\":1702:1714   */\n      revert\n        /* \"#utility.yul\":1726:1843   */\n    tag_113:\n        /* \"#utility.yul\":1835:1836   */\n      0x00\n        /* \"#utility.yul\":1832:1833   */\n      0x00\n        /* \"#utility.yul\":1825:1837   */\n      revert\n        /* \"#utility.yul\":1849:1966   */\n    tag_114:\n        /* \"#utility.yul\":1958:1959   */\n      0x00\n        /* \"#utility.yul\":1955:1956   */\n      0x00\n        /* \"#utility.yul\":1948:1960   */\n      revert\n        /* \"#utility.yul\":1986:2539   */\n    tag_115:\n        /* \"#utility.yul\":2044:2052   */\n      0x00\n        /* \"#utility.yul\":2054:2060   */\n      0x00\n        /* \"#utility.yul\":2104:2107   */\n      dup4\n        /* \"#utility.yul\":2097:2101   */\n      0x1f\n        /* \"#utility.yul\":2089:2095   */\n      dup5\n        /* \"#utility.yul\":2085:2102   */\n      add\n        /* \"#utility.yul\":2081:2108   */\n      slt\n        /* \"#utility.yul\":2071:2193   */\n      tag_189\n      jumpi\n        /* \"#utility.yul\":2112:2191   */\n      tag_190\n      tag_112\n      jump\t// in\n    tag_190:\n        /* \"#utility.yul\":2071:2193   */\n    tag_189:\n        /* \"#utility.yul\":2225:2231   */\n      dup3\n        /* \"#utility.yul\":2212:2232   */\n      calldataload\n        /* \"#utility.yul\":2202:2232   */\n      swap1\n      pop\n        /* \"#utility.yul\":2255:2273   */\n      0xffffffffffffffff\n        /* \"#utility.yul\":2247:2253   */\n      dup2\n        /* \"#utility.yul\":2244:2274   */\n      gt\n        /* \"#utility.yul\":2241:2358   */\n      iszero\n      tag_191\n      jumpi\n        /* \"#utility.yul\":2277:2356   */\n      tag_192\n      tag_113\n      jump\t// in\n    tag_192:\n        /* \"#utility.yul\":2241:2358   */\n    tag_191:\n        /* \"#utility.yul\":2391:2395   */\n      0x20\n        /* \"#utility.yul\":2383:2389   */\n      dup4\n        /* \"#utility.yul\":2379:2396   */\n      add\n        /* \"#utility.yul\":2367:2396   */\n      swap2\n      pop\n        /* \"#utility.yul\":2445:2448   */\n      dup4\n        /* \"#utility.yul\":2437:2441   */\n      0x01\n        /* \"#utility.yul\":2429:2435   */\n      dup3\n        /* \"#utility.yul\":2425:2442   */\n      mul\n        /* \"#utility.yul\":2415:2423   */\n      dup4\n        /* \"#utility.yul\":2411:2443   */\n      add\n        /* \"#utility.yul\":2408:2449   */\n      gt\n        /* \"#utility.yul\":2405:2533   */\n      iszero\n      tag_193\n      jumpi\n        /* \"#utility.yul\":2452:2531   */\n      tag_194\n      tag_114\n      jump\t// in\n    tag_194:\n        /* \"#utility.yul\":2405:2533   */\n    tag_193:\n        /* \"#utility.yul\":1986:2539   */\n      swap3\n      pop\n      swap3\n      swap1\n      pop\n      jump\t// out\n        /* \"#utility.yul\":2545:3074   */\n    tag_19:\n        /* \"#utility.yul\":2616:2622   */\n      0x00\n        /* \"#utility.yul\":2624:2630   */\n      0x00\n        /* \"#utility.yul\":2673:2675   */\n      0x20\n        /* \"#utility.yul\":2661:2670   */\n      dup4\n        /* \"#utility.yul\":2652:2659   */\n      dup6\n        /* \"#utility.yul\":2648:2671   */\n      sub\n        /* \"#utility.yul\":2644:2676   */\n      slt\n        /* \"#utility.yul\":2641:2760   */\n      iszero\n      tag_196\n      jumpi\n        /* \"#utility.yul\":2679:2758   */\n      tag_197\n      tag_104\n      jump\t// in\n    tag_197:\n        /* \"#utility.yul\":2641:2760   */\n    tag_196:\n        /* \"#utility.yul\":2827:2828   */\n      0x00\n        /* \"#utility.yul\":2816:2825   */\n      dup4\n        /* \"#utility.yul\":2812:2829   */\n      add\n        /* \"#utility.yul\":2799:2830   */\n      calldataload\n        /* \"#utility.yul\":2857:2875   */\n      0xffffffffffffffff\n        /* \"#utility.yul\":2849:2855   */\n      dup2\n        /* \"#utility.yul\":2846:2876   */\n      gt\n        /* \"#utility.yul\":2843:2960   */\n      iszero\n      tag_198\n      jumpi\n        /* \"#utility.yul\":2879:2958   */\n      tag_199\n      tag_105\n      jump\t// in\n    tag_199:\n        /* \"#utility.yul\":2843:2960   */\n    tag_198:\n        /* \"#utility.yul\":2992:3057   */\n      tag_200\n        /* \"#utility.yul\":3049:3056   */\n      dup6\n        /* \"#utility.yul\":3040:3046   */\n      dup3\n        /* \"#utility.yul\":3029:3038   */\n      dup7\n        /* \"#utility.yul\":3025:3047   */\n      add\n        /* \"#utility.yul\":2992:3057   */\n      tag_115\n      jump\t// in\n    tag_200:\n        /* \"#utility.yul\":2974:3057   */\n      swap3\n      pop\n      swap3\n      pop\n        /* \"#utility.yul\":2770:3067   */\n      pop\n        /* \"#utility.yul\":2545:3074   */\n      swap3\n      pop\n      swap3\n      swap1\n      pop\n      jump\t// out\n        /* \"#utility.yul\":3080:3157   */\n    tag_116:\n        /* \"#utility.yul\":3117:3124   */\n      0x00\n        /* \"#utility.yul\":3146:3151   */\n      dup2\n        /* \"#utility.yul\":3135:3151   */\n      swap1\n      pop\n        /* \"#utility.yul\":3080:3157   */\n      swap2\n      swap1\n      pop\n      jump\t// out\n        /* \"#utility.yul\":3163:3281   */\n    tag_117:\n        /* \"#utility.yul\":3250:3274   */\n      tag_203\n        /* \"#utility.yul\":3268:3273   */\n      dup2\n        /* \"#utility.yul\":3250:3274   */\n      tag_116\n      jump\t// in\n    tag_203:\n        /* \"#utility.yul\":3245:3248   */\n      dup3\n        /* \"#utility.yul\":3238:3275   */\n      mstore\n        /* \"#utility.yul\":3163:3281   */\n      pop\n      pop\n      jump\t// out\n        /* \"#utility.yul\":3287:3509   */\n    tag_25:\n        /* \"#utility.yul\":3380:3384   */\n      0x00\n        /* \"#utility.yul\":3418:3420   */\n      0x20\n        /* \"#utility.yul\":3407:3416   */\n      dup3\n        /* \"#utility.yul\":3403:3421   */\n      add\n        /* \"#utility.yul\":3395:3421   */\n      swap1\n      pop\n        /* \"#utility.yul\":3431:3502   */\n      tag_205\n        /* \"#utility.yul\":3499:3500   */\n      0x00\n        /* \"#utility.yul\":3488:3497   */\n      dup4\n        /* \"#utility.yul\":3484:3501   */\n      add\n        /* \"#utility.yul\":3475:3481   */\n      dup5\n        /* \"#utility.yul\":3431:3502   */\n      tag_117\n      jump\t// in\n    tag_205:\n        /* \"#utility.yul\":3287:3509   */\n      swap3\n      swap2\n      pop\n      pop\n      jump\t// out\n        /* \"#utility.yul\":3515:3633   */\n    tag_118:\n        /* \"#utility.yul\":3602:3626   */\n      tag_207\n        /* \"#utility.yul\":3620:3625   */\n      dup2\n        /* \"#utility.yul\":3602:3626   */\n      tag_107\n      jump\t// in\n    tag_207:\n        /* \"#utility.yul\":3597:3600   */\n      dup3\n        /* \"#utility.yul\":3590:3627   */\n      mstore\n        /* \"#utility.yul\":3515:3633   */\n      pop\n      pop\n      jump\t// out\n        /* \"#utility.yul\":3639:3861   */\n    tag_29:\n        /* \"#utility.yul\":3732:3736   */\n      0x00\n        /* \"#utility.yul\":3770:3772   */\n      0x20\n        /* \"#utility.yul\":3759:3768   */\n      dup3\n        /* \"#utility.yul\":3755:3773   */\n      add\n        /* \"#utility.yul\":3747:3773   */\n      swap1\n      pop\n        /* \"#utility.yul\":3783:3854   */\n      tag_209\n        /* \"#utility.yul\":3851:3852   */\n      0x00\n        /* \"#utility.yul\":3840:3849   */\n      dup4\n        /* \"#utility.yul\":3836:3853   */\n      add\n        /* \"#utility.yul\":3827:3833   */\n      dup5\n        /* \"#utility.yul\":3783:3854   */\n      tag_118\n      jump\t// in\n    tag_209:\n        /* \"#utility.yul\":3639:3861   */\n      swap3\n      swap2\n      pop\n      pop\n      jump\t// out\n        /* \"#utility.yul\":3867:3989   */\n    tag_119:\n        /* \"#utility.yul\":3940:3964   */\n      tag_211\n        /* \"#utility.yul\":3958:3963   */\n      dup2\n        /* \"#utility.yul\":3940:3964   */\n      tag_116\n      jump\t// in\n    tag_211:\n        /* \"#utility.yul\":3933:3938   */\n      dup2\n        /* \"#utility.yul\":3930:3965   */\n      eq\n        /* \"#utility.yul\":3920:3983   */\n      tag_212\n      jumpi\n        /* \"#utility.yul\":3979:3980   */\n      0x00\n        /* \"#utility.yul\":3976:3977   */\n      0x00\n        /* \"#utility.yul\":3969:3981   */\n      revert\n        /* \"#utility.yul\":3920:3983   */\n    tag_212:\n        /* \"#utility.yul\":3867:3989   */\n      pop\n      jump\t// out\n        /* \"#utility.yul\":3995:4134   */\n    tag_120:\n        /* \"#utility.yul\":4041:4046   */\n      0x00\n        /* \"#utility.yul\":4079:4085   */\n      dup2\n        /* \"#utility.yul\":4066:4086   */\n      calldataload\n        /* \"#utility.yul\":4057:4086   */\n      swap1\n      pop\n        /* \"#utility.yul\":4095:4128   */\n      tag_214\n        /* \"#utility.yul\":4122:4127   */\n      dup2\n        /* \"#utility.yul\":4095:4128   */\n      tag_119\n      jump\t// in\n    tag_214:\n        /* \"#utility.yul\":3995:4134   */\n      swap3\n      swap2\n      pop\n      pop\n      jump\t// out\n        /* \"#utility.yul\":4140:4469   */\n    tag_32:\n        /* \"#utility.yul\":4199:4205   */\n      0x00\n        /* \"#utility.yul\":4248:4250   */\n      0x20\n        /* \"#utility.yul\":4236:4245   */\n      dup3\n        /* \"#utility.yul\":4227:4234   */\n      dup5\n        /* \"#utility.yul\":4223:4246   */\n      sub\n        /* \"#utility.yul\":4219:4251   */\n      slt\n        /* \"#utility.yul\":4216:4335   */\n      iszero\n      tag_216\n      jumpi\n        /* \"#utility.yul\":4254:4333   */\n      tag_217\n      tag_104\n      jump\t// in\n    tag_217:\n        /* \"#utility.yul\":4216:4335   */\n    tag_216:\n        /* \"#utility.yul\":4374:4375   */\n      0x00\n        /* \"#utility.yul\":4399:4452   */\n      tag_218\n        /* \"#utility.yul\":4444:4451   */\n      dup5\n        /* \"#utility.yul\":4435:4441   */\n      dup3\n        /* \"#utility.yul\":4424:4433   */\n      dup6\n        /* \"#utility.yul\":4420:4442   */\n      add\n        /* \"#utility.yul\":4399:4452   */\n      tag_120\n      jump\t// in\n    tag_218:\n        /* \"#utility.yul\":4389:4452   */\n      swap2\n      pop\n        /* \"#utility.yul\":4345:4462   */\n      pop\n        /* \"#utility.yul\":4140:4469   */\n      swap3\n      swap2\n      pop\n      pop\n      jump\t// out\n        /* \"#utility.yul\":4475:4574   */\n    tag_121:\n        /* \"#utility.yul\":4527:4533   */\n      0x00\n        /* \"#utility.yul\":4561:4566   */\n      dup2\n        /* \"#utility.yul\":4555:4567   */\n      mload\n        /* \"#utility.yul\":4545:4567   */\n      swap1\n      pop\n        /* \"#utility.yul\":4475:4574   */\n      swap2\n      swap1\n      pop\n      jump\t// out\n        /* \"#utility.yul\":4580:4749   */\n    tag_122:\n        /* \"#utility.yul\":4664:4675   */\n      0x00\n        /* \"#utility.yul\":4698:4704   */\n      dup3\n        /* \"#utility.yul\":4693:4696   */\n      dup3\n        /* \"#utility.yul\":4686:4705   */\n      mstore\n        /* \"#utility.yul\":4738:4742   */\n      0x20\n        /* \"#utility.yul\":4733:4736   */\n      dup3\n        /* \"#utility.yul\":4729:4743   */\n      add\n        /* \"#utility.yul\":4714:4743   */\n      swap1\n      pop\n        /* \"#utility.yul\":4580:4749   */\n      swap3\n      swap2\n      pop\n      pop\n      jump\t// out\n        /* \"#utility.yul\":4755:4894   */\n    tag_123:\n        /* \"#utility.yul\":4844:4850   */\n      dup3\n        /* \"#utility.yul\":4839:4842   */\n      dup2\n        /* \"#utility.yul\":4834:4837   */\n      dup4\n        /* \"#utility.yul\":4828:4851   */\n      mcopy\n        /* \"#utility.yul\":4885:4886   */\n      0x00\n        /* \"#utility.yul\":4876:4882   */\n      dup4\n        /* \"#utility.yul\":4871:4874   */\n      dup4\n        /* \"#utility.yul\":4867:4883   */\n      add\n        /* \"#utility.yul\":4860:4887   */\n      mstore\n        /* \"#utility.yul\":4755:4894   */\n      pop\n      pop\n      pop\n      jump\t// out\n        /* \"#utility.yul\":4900:5002   */\n    tag_124:\n        /* \"#utility.yul\":4941:4947   */\n      0x00\n        /* \"#utility.yul\":4992:4994   */\n      0x1f\n        /* \"#utility.yul\":4988:4995   */\n      not\n        /* \"#utility.yul\":4983:4985   */\n      0x1f\n        /* \"#utility.yul\":4976:4981   */\n      dup4\n        /* \"#utility.yul\":4972:4986   */\n      add\n        /* \"#utility.yul\":4968:4996   */\n      and\n        /* \"#utility.yul\":4958:4996   */\n      swap1\n      pop\n        /* \"#utility.yul\":4900:5002   */\n      swap2\n      swap1\n      pop\n      jump\t// out\n        /* \"#utility.yul\":5008:5385   */\n    tag_125:\n        /* \"#utility.yul\":5096:5099   */\n      0x00\n        /* \"#utility.yul\":5124:5163   */\n      tag_224\n        /* \"#utility.yul\":5157:5162   */\n      dup3\n        /* \"#utility.yul\":5124:5163   */\n      tag_121\n      jump\t// in\n    tag_224:\n        /* \"#utility.yul\":5179:5250   */\n      tag_225\n        /* \"#utility.yul\":5243:5249   */\n      dup2\n        /* \"#utility.yul\":5238:5241   */\n      dup6\n        /* \"#utility.yul\":5179:5250   */\n      tag_122\n      jump\t// in\n    tag_225:\n        /* \"#utility.yul\":5172:5250   */\n      swap4\n      pop\n        /* \"#utility.yul\":5259:5324   */\n      tag_226\n        /* \"#utility.yul\":5317:5323   */\n      dup2\n        /* \"#utility.yul\":5312:5315   */\n      dup6\n        /* \"#utility.yul\":5305:5309   */\n      0x20\n        /* \"#utility.yul\":5298:5303   */\n      dup7\n        /* \"#utility.yul\":5294:5310   */\n      add\n        /* \"#utility.yul\":5259:5324   */\n      tag_123\n      jump\t// in\n    tag_226:\n        /* \"#utility.yul\":5349:5378   */\n      tag_227\n        /* \"#utility.yul\":5371:5377   */\n      dup2\n        /* \"#utility.yul\":5349:5378   */\n      tag_124\n      jump\t// in\n    tag_227:\n        /* \"#utility.yul\":5344:5347   */\n      dup5\n        /* \"#utility.yul\":5340:5379   */\n      add\n        /* \"#utility.yul\":5333:5379   */\n      swap2\n      pop\n        /* \"#utility.yul\":5100:5385   */\n      pop\n        /* \"#utility.yul\":5008:5385   */\n      swap3\n      swap2\n      pop\n      pop\n      jump\t// out\n        /* \"#utility.yul\":5391:5704   */\n    tag_35:\n        /* \"#utility.yul\":5504:5508   */\n      0x00\n        /* \"#utility.yul\":5542:5544   */\n      0x20\n        /* \"#utility.yul\":5531:5540   */\n      dup3\n        /* \"#utility.yul\":5527:5545   */\n      add\n        /* \"#utility.yul\":5519:5545   */\n      swap1\n      pop\n        /* \"#utility.yul\":5591:5600   */\n      dup2\n        /* \"#utility.yul\":5585:5589   */\n      dup2\n        /* \"#utility.yul\":5581:5601   */\n      sub\n        /* \"#utility.yul\":5577:5578   */\n      0x00\n        /* \"#utility.yul\":5566:5575   */\n      dup4\n        /* \"#utility.yul\":5562:5579   */\n      add\n        /* \"#utility.yul\":5555:5602   */\n      mstore\n        /* \"#utility.yul\":5619:5697   */\n      tag_229\n        /* \"#utility.yul\":5692:5696   */\n      dup2\n        /* \"#utility.yul\":5683:5689   */\n      dup5\n        /* \"#utility.yul\":5619:5697   */\n      tag_125\n      jump\t// in\n    tag_229:\n        /* \"#utility.yul\":5611:5697   */\n      swap1\n      pop\n        /* \"#utility.yul\":5391:5704   */\n      swap3\n      swap2\n      pop\n      pop\n      jump\t// out\n        /* \"#utility.yul\":5710:5869   */\n    tag_126:\n        /* \"#utility.yul\":5850:5861   */\n      0x4e6f74206f776e65720000000000000000000000000000000000000000000000\n        /* \"#utility.yul\":5846:5847   */\n      0x00\n        /* \"#utility.yul\":5838:5844   */\n      dup3\n        /* \"#utility.yul\":5834:5848   */\n      add\n        /* \"#utility.yul\":5827:5862   */\n      mstore\n        /* \"#utility.yul\":5710:5869   */\n      pop\n      jump\t// out\n        /* \"#utility.yul\":5875:6240   */\n    tag_127:\n        /* \"#utility.yul\":6017:6020   */\n      0x00\n        /* \"#utility.yul\":6038:6104   */\n      tag_232\n        /* \"#utility.yul\":6102:6103   */\n      0x09\n        /* \"#utility.yul\":6097:6100   */\n      dup4\n        /* \"#utility.yul\":6038:6104   */\n      tag_122\n      jump\t// in\n    tag_232:\n        /* \"#utility.yul\":6031:6104   */\n      swap2\n      pop\n        /* \"#utility.yul\":6113:6206   */\n      tag_233\n        /* \"#utility.yul\":6202:6205   */\n      dup3\n        /* \"#utility.yul\":6113:6206   */\n      tag_126\n      jump\t// in\n    tag_233:\n        /* \"#utility.yul\":6231:6233   */\n      0x20\n        /* \"#utility.yul\":6226:6229   */\n      dup3\n        /* \"#utility.yul\":6222:6234   */\n      add\n        /* \"#utility.yul\":6215:6234   */\n      swap1\n      pop\n        /* \"#utility.yul\":5875:6240   */\n      swap2\n      swap1\n      pop\n      jump\t// out\n        /* \"#utility.yul\":6246:6665   */\n    tag_45:\n        /* \"#utility.yul\":6412:6416   */\n      0x00\n        /* \"#utility.yul\":6450:6452   */\n      0x20\n        /* \"#utility.yul\":6439:6448   */\n      dup3\n        /* \"#utility.yul\":6435:6453   */\n      add\n        /* \"#utility.yul\":6427:6453   */\n      swap1\n      pop\n        /* \"#utility.yul\":6499:6508   */\n      dup2\n        /* \"#utility.yul\":6493:6497   */\n      dup2\n        /* \"#utility.yul\":6489:6509   */\n      sub\n        /* \"#utility.yul\":6485:6486   */\n      0x00\n        /* \"#utility.yul\":6474:6483   */\n      dup4\n        /* \"#utility.yul\":6470:6487   */\n      add\n        /* \"#utility.yul\":6463:6510   */\n      mstore\n        /* \"#utility.yul\":6527:6658   */\n      tag_235\n        /* \"#utility.yul\":6653:6657   */\n      dup2\n        /* \"#utility.yul\":6527:6658   */\n      tag_127\n      jump\t// in\n    tag_235:\n        /* \"#utility.yul\":6519:6658   */\n      swap1\n      pop\n        /* \"#utility.yul\":6246:6665   */\n      swap2\n      swap1\n      pop\n      jump\t// out\n        /* \"#utility.yul\":6671:6831   */\n    tag_128:\n        /* \"#utility.yul\":6811:6823   */\n      0x456d707479206e616d6500000000000000000000000000000000000000000000\n        /* \"#utility.yul\":6807:6808   */\n      0x00\n        /* \"#utility.yul\":6799:6805   */\n      dup3\n        /* \"#utility.yul\":6795:6809   */\n      add\n        /* \"#utility.yul\":6788:6824   */\n      mstore\n        /* \"#utility.yul\":6671:6831   */\n      pop\n      jump\t// out\n        /* \"#utility.yul\":6837:7203   */\n    tag_129:\n        /* \"#utility.yul\":6979:6982   */\n      0x00\n        /* \"#utility.yul\":7000:7067   */\n      tag_238\n        /* \"#utility.yul\":7064:7066   */\n      0x0a\n        /* \"#utility.yul\":7059:7062   */\n      dup4\n        /* \"#utility.yul\":7000:7067   */\n      tag_122\n      jump\t// in\n    tag_238:\n        /* \"#utility.yul\":6993:7067   */\n      swap2\n      pop\n        /* \"#utility.yul\":7076:7169   */\n      tag_239\n        /* \"#utility.yul\":7165:7168   */\n      dup3\n        /* \"#utility.yul\":7076:7169   */\n      tag_128\n      jump\t// in\n    tag_239:\n        /* \"#utility.yul\":7194:7196   */\n      0x20\n        /* \"#utility.yul\":7189:7192   */\n      dup3\n        /* \"#utility.yul\":7185:7197   */\n      add\n        /* \"#utility.yul\":7178:7197   */\n      swap1\n      pop\n        /* \"#utility.yul\":6837:7203   */\n      swap2\n      swap1\n      pop\n      jump\t// out\n        /* \"#utility.yul\":7209:7628   */\n    tag_49:\n        /* \"#utility.yul\":7375:7379   */\n      0x00\n        /* \"#utility.yul\":7413:7415   */\n      0x20\n        /* \"#utility.yul\":7402:7411   */\n      dup3\n        /* \"#utility.yul\":7398:7416   */\n      add\n        /* \"#utility.yul\":7390:7416   */\n      swap1\n      pop\n        /* \"#utility.yul\":7462:7471   */\n      dup2\n        /* \"#utility.yul\":7456:7460   */\n      dup2\n        /* \"#utility.yul\":7452:7472   */\n      sub\n        /* \"#utility.yul\":7448:7449   */\n      0x00\n        /* \"#utility.yul\":7437:7446   */\n      dup4\n        /* \"#utility.yul\":7433:7450   */\n      add\n        /* \"#utility.yul\":7426:7473   */\n      mstore\n        /* \"#utility.yul\":7490:7621   */\n      tag_241\n        /* \"#utility.yul\":7616:7620   */\n      dup2\n        /* \"#utility.yul\":7490:7621   */\n      tag_129\n      jump\t// in\n    tag_241:\n        /* \"#utility.yul\":7482:7621   */\n      swap1\n      pop\n        /* \"#utility.yul\":7209:7628   */\n      swap2\n      swap1\n      pop\n      jump\t// out\n        /* \"#utility.yul\":7634:7797   */\n    tag_130:\n        /* \"#utility.yul\":7774:7789   */\n      0x416c726561647920616464656400000000000000000000000000000000000000\n        /* \"#utility.yul\":7770:7771   */\n      0x00\n        /* \"#utility.yul\":7762:7768   */\n      dup3\n        /* \"#utility.yul\":7758:7772   */\n      add\n        /* \"#utility.yul\":7751:7790   */\n      mstore\n        /* \"#utility.yul\":7634:7797   */\n      pop\n      jump\t// out\n        /* \"#utility.yul\":7803:8169   */\n    tag_131:\n        /* \"#utility.yul\":7945:7948   */\n      0x00\n        /* \"#utility.yul\":7966:8033   */\n      tag_244\n        /* \"#utility.yul\":8030:8032   */\n      0x0d\n        /* \"#utility.yul\":8025:8028   */\n      dup4\n        /* \"#utility.yul\":7966:8033   */\n      tag_122\n      jump\t// in\n    tag_244:\n        /* \"#utility.yul\":7959:8033   */\n      swap2\n      pop\n        /* \"#utility.yul\":8042:8135   */\n      tag_245\n        /* \"#utility.yul\":8131:8134   */\n      dup3\n        /* \"#utility.yul\":8042:8135   */\n      tag_130\n      jump\t// in\n    tag_245:\n        /* \"#utility.yul\":8160:8162   */\n      0x20\n        /* \"#utility.yul\":8155:8158   */\n      dup3\n        /* \"#utility.yul\":8151:8163   */\n      add\n        /* \"#utility.yul\":8144:8163   */\n      swap1\n      pop\n        /* \"#utility.yul\":7803:8169   */\n      swap2\n      swap1\n      pop\n      jump\t// out\n        /* \"#utility.yul\":8175:8594   */\n    tag_54:\n        /* \"#utility.yul\":8341:8345   */\n      0x00\n        /* \"#utility.yul\":8379:8381   */\n      0x20\n        /* \"#utility.yul\":8368:8377   */\n      dup3\n        /* \"#utility.yul\":8364:8382   */\n      add\n        /* \"#utility.yul\":8356:8382   */\n      swap1\n      pop\n        /* \"#utility.yul\":8428:8437   */\n      dup2\n        /* \"#utility.yul\":8422:8426   */\n      dup2\n        /* \"#utility.yul\":8418:8438   */\n      sub\n        /* \"#utility.yul\":8414:8415   */\n      0x00\n        /* \"#utility.yul\":8403:8412   */\n      dup4\n        /* \"#utility.yul\":8399:8416   */\n      add\n        /* \"#utility.yul\":8392:8439   */\n      mstore\n        /* \"#utility.yul\":8456:8587   */\n      tag_247\n        /* \"#utility.yul\":8582:8586   */\n      dup2\n        /* \"#utility.yul\":8456:8587   */\n      tag_131\n      jump\t// in\n    tag_247:\n        /* \"#utility.yul\":8448:8587   */\n      swap1\n      pop\n        /* \"#utility.yul\":8175:8594   */\n      swap2\n      swap1\n      pop\n      jump\t// out\n        /* \"#utility.yul\":8600:8697   */\n    tag_132:\n        /* \"#utility.yul\":8659:8665   */\n      0x00\n        /* \"#utility.yul\":8687:8690   */\n      dup3\n        /* \"#utility.yul\":8677:8690   */\n      swap1\n      pop\n        /* \"#utility.yul\":8600:8697   */\n      swap3\n      swap2\n      pop\n      pop\n      jump\t// out\n        /* \"#utility.yul\":8703:8883   */\n    tag_133:\n        /* \"#utility.yul\":8751:8828   */\n      0x4e487b7100000000000000000000000000000000000000000000000000000000\n        /* \"#utility.yul\":8748:8749   */\n      0x00\n        /* \"#utility.yul\":8741:8829   */\n      mstore\n        /* \"#utility.yul\":8848:8852   */\n      0x41\n        /* \"#utility.yul\":8845:8846   */\n      0x04\n        /* \"#utility.yul\":8838:8853   */\n      mstore\n        /* \"#utility.yul\":8872:8876   */\n      0x24\n        /* \"#utility.yul\":8869:8870   */\n      0x00\n        /* \"#utility.yul\":8862:8877   */\n      revert\n        /* \"#utility.yul\":8889:9069   */\n    tag_134:\n        /* \"#utility.yul\":8937:9014   */\n      0x4e487b7100000000000000000000000000000000000000000000000000000000\n        /* \"#utility.yul\":8934:8935   */\n      0x00\n        /* \"#utility.yul\":8927:9015   */\n      mstore\n        /* \"#utility.yul\":9034:9038   */\n      0x22\n        /* \"#utility.yul\":9031:9032   */\n      0x04\n        /* \"#utility.yul\":9024:9039   */\n      mstore\n        /* \"#utility.yul\":9058:9062   */\n      0x24\n        /* \"#utility.yul\":9055:9056   */\n      0x00\n        /* \"#utility.yul\":9048:9063   */\n      revert\n        /* \"#utility.yul\":9075:9395   */\n    tag_76:\n        /* \"#utility.yul\":9119:9125   */\n      0x00\n        /* \"#utility.yul\":9156:9157   */\n      0x02\n        /* \"#utility.yul\":9150:9154   */\n      dup3\n        /* \"#utility.yul\":9146:9158   */\n      div\n        /* \"#utility.yul\":9136:9158   */\n      swap1\n      pop\n        /* \"#utility.yul\":9203:9204   */\n      0x01\n        /* \"#utility.yul\":9197:9201   */\n      dup3\n        /* \"#utility.yul\":9193:9205   */\n      and\n        /* \"#utility.yul\":9224:9242   */\n      dup1\n        /* \"#utility.yul\":9214:9295   */\n      tag_252\n      jumpi\n        /* \"#utility.yul\":9280:9284   */\n      0x7f\n        /* \"#utility.yul\":9272:9278   */\n      dup3\n        /* \"#utility.yul\":9268:9285   */\n      and\n        /* \"#utility.yul\":9258:9285   */\n      swap2\n      pop\n        /* \"#utility.yul\":9214:9295   */\n    tag_252:\n        /* \"#utility.yul\":9342:9344   */\n      0x20\n        /* \"#utility.yul\":9334:9340   */\n      dup3\n        /* \"#utility.yul\":9331:9345   */\n      lt\n        /* \"#utility.yul\":9311:9329   */\n      dup2\n        /* \"#utility.yul\":9308:9346   */\n      sub\n        /* \"#utility.yul\":9305:9389   */\n      tag_253\n      jumpi\n        /* \"#utility.yul\":9361:9379   */\n      tag_254\n      tag_134\n      jump\t// in\n    tag_254:\n        /* \"#utility.yul\":9305:9389   */\n    tag_253:\n        /* \"#utility.yul\":9126:9395   */\n      pop\n        /* \"#utility.yul\":9075:9395   */\n      swap2\n      swap1\n      pop\n      jump\t// out\n        /* \"#utility.yul\":9401:9542   */\n    tag_135:\n        /* \"#utility.yul\":9450:9454   */\n      0x00\n        /* \"#utility.yul\":9473:9476   */\n      dup2\n        /* \"#utility.yul\":9465:9476   */\n      swap1\n      pop\n        /* \"#utility.yul\":9496:9499   */\n      dup2\n        /* \"#utility.yul\":9493:9494   */\n      0x00\n        /* \"#utility.yul\":9486:9500   */\n      mstore\n        /* \"#utility.yul\":9530:9534   */\n      0x20\n        /* \"#utility.yul\":9527:9528   */\n      0x00\n        /* \"#utility.yul\":9517:9535   */\n      keccak256\n        /* \"#utility.yul\":9509:9535   */\n      swap1\n      pop\n        /* \"#utility.yul\":9401:9542   */\n      swap2\n      swap1\n      pop\n      jump\t// out\n        /* \"#utility.yul\":9548:9641   */\n    tag_136:\n        /* \"#utility.yul\":9585:9591   */\n      0x00\n        /* \"#utility.yul\":9632:9634   */\n      0x20\n        /* \"#utility.yul\":9627:9629   */\n      0x1f\n        /* \"#utility.yul\":9620:9625   */\n      dup4\n        /* \"#utility.yul\":9616:9630   */\n      add\n        /* \"#utility.yul\":9612:9635   */\n      div\n        /* \"#utility.yul\":9602:9635   */\n      swap1\n      pop\n        /* \"#utility.yul\":9548:9641   */\n      swap2\n      swap1\n      pop\n      jump\t// out\n        /* \"#utility.yul\":9647:9754   */\n    tag_137:\n        /* \"#utility.yul\":9691:9699   */\n      0x00\n        /* \"#utility.yul\":9741:9746   */\n      dup3\n        /* \"#utility.yul\":9735:9739   */\n      dup3\n        /* \"#utility.yul\":9731:9747   */\n      shl\n        /* \"#utility.yul\":9710:9747   */\n      swap1\n      pop\n        /* \"#utility.yul\":9647:9754   */\n      swap3\n      swap2\n      pop\n      pop\n      jump\t// out\n        /* \"#utility.yul\":9760:10153   */\n    tag_138:\n        /* \"#utility.yul\":9829:9835   */\n      0x00\n        /* \"#utility.yul\":9879:9880   */\n      0x08\n        /* \"#utility.yul\":9867:9877   */\n      dup4\n        /* \"#utility.yul\":9863:9881   */\n      mul\n        /* \"#utility.yul\":9902:9999   */\n      tag_259\n        /* \"#utility.yul\":9932:9998   */\n      0xffffffffffffffffffffffffffffffffffffffffffffffffffffffffffffffff\n        /* \"#utility.yul\":9921:9930   */\n      dup3\n        /* \"#utility.yul\":9902:9999   */\n      tag_137\n      jump\t// in\n    tag_259:\n        /* \"#utility.yul\":10020:10059   */\n      tag_260\n        /* \"#utility.yul\":10050:10058   */\n      dup7\n        /* \"#utility.yul\":10039:10048   */\n      dup4\n        /* \"#utility.yul\":10020:10059   */\n      tag_137\n      jump\t// in\n    tag_260:\n        /* \"#utility.yul\":10008:10059   */\n      swap6\n      pop\n        /* \"#utility.yul\":10092:10096   */\n      dup1\n        /* \"#utility.yul\":10088:10097   */\n      not\n        /* \"#utility.yul\":10081:10086   */\n      dup5\n        /* \"#utility.yul\":10077:10098   */\n      and\n        /* \"#utility.yul\":10068:10098   */\n      swap4\n      pop\n        /* \"#utility.yul\":10141:10145   */\n      dup1\n        /* \"#utility.yul\":10131:10139   */\n      dup7\n        /* \"#utility.yul\":10127:10146   */\n      and\n        /* \"#utility.yul\":10120:10125   */\n      dup5\n        /* \"#utility.yul\":10117:10147   */\n      or\n        /* \"#utility.yul\":10107:10147   */\n      swap3\n      pop\n        /* \"#utility.yul\":9836:10153   */\n      pop\n      pop\n        /* \"#utility.yul\":9760:10153   */\n      swap4\n      swap3\n      pop\n      pop\n      pop\n      jump\t// out\n        /* \"#utility.yul\":10159:10219   */\n    tag_139:\n        /* \"#utility.yul\":10187:10190   */\n      0x00\n        /* \"#utility.yul\":10208:10213   */\n      dup2\n        /* \"#utility.yul\":10201:10213   */\n      swap1\n      pop\n        /* \"#utility.yul\":10159:10219   */\n      swap2\n      swap1\n      pop\n      jump\t// out\n        /* \"#utility.yul\":10225:10367   */\n    tag_140:\n        /* \"#utility.yul\":10275:10284   */\n      0x00\n        /* \"#utility.yul\":10308:10361   */\n      tag_263\n        /* \"#utility.yul\":10326:10360   */\n      tag_264\n        /* \"#utility.yul\":10335:10359   */\n      tag_265\n        /* \"#utility.yul\":10353:10358   */\n      dup5\n        /* \"#utility.yul\":10335:10359   */\n      tag_116\n      jump\t// in\n    tag_265:\n        /* \"#utility.yul\":10326:10360   */\n      tag_139\n      jump\t// in\n    tag_264:\n        /* \"#utility.yul\":10308:10361   */\n      tag_116\n      jump\t// in\n    tag_263:\n        /* \"#utility.yul\":10295:10361   */\n      swap1\n      pop\n        /* \"#utility.yul\":10225:10367   */\n      swap2\n      swap1\n      pop\n      jump\t// out\n        /* \"#utility.yul\":10373:10448   */\n    tag_141:\n        /* \"#utility.yul\":10416:10419   */\n      0x00\n        /* \"#utility.yul\":10437:10442   */\n      dup2\n        /* \"#utility.yul\":10430:10442   */\n      swap1\n      pop\n        /* \"#utility.yul\":10373:10448   */\n      swap2\n      swap1\n      pop\n      jump\t// out\n        /* \"#utility.yul\":10454:10723   */\n    tag_142:\n        /* \"#utility.yul\":10564:10603   */\n      tag_268\n        /* \"#utility.yul\":10595:10602   */\n      dup4\n        /* \"#utility.yul\":10564:10603   */\n      tag_140\n      jump\t// in\n    tag_268:\n        /* \"#utility.yul\":10625:10716   */\n      tag_269\n        /* \"#utility.yul\":10674:10715   */\n      tag_270\n        /* \"#utility.yul\":10698:10714   */\n      dup3\n        /* \"#utility.yul\":10674:10715   */\n      tag_141\n      jump\t// in\n    tag_270:\n        /* \"#utility.yul\":10666:10672   */\n      dup5\n        /* \"#utility.yul\":10659:10663   */\n      dup5\n        /* \"#utility.yul\":10653:10664   */\n      sload\n        /* \"#utility.yul\":10625:10716   */\n      tag_138\n      jump\t// in\n    tag_269:\n        /* \"#utility.yul\":10619:10623   */\n      dup3\n        /* \"#utility.yul\":10612:10717   */\n      sstore\n        /* \"#utility.yul\":10530:10723   */\n      pop\n        /* \"#utility.yul\":10454:10723   */\n      pop\n      pop\n      pop\n      jump\t// out\n        /* \"#utility.yul\":10729:10802   */\n    tag_143:\n        /* \"#utility.yul\":10774:10777   */\n      0x00\n        /* \"#utility.yul\":10795:10796   */\n      0x00\n        /* \"#utility.yul\":10788:10796   */\n      swap1\n      pop\n        /* \"#utility.yul\":10729:10802   */\n      swap1\n      jump\t// out\n        /* \"#utility.yul\":10808:10997   */\n    tag_144:\n        /* \"#utility.yul\":10885:10917   */\n      tag_273\n      tag_143\n      jump\t// in\n    tag_273:\n        /* \"#utility.yul\":10926:10991   */\n      tag_274\n        /* \"#utility.yul\":10984:10990   */\n      dup2\n        /* \"#utility.yul\":10976:10982   */\n      dup5\n        /* \"#utility.yul\":10970:10974   */\n      dup5\n        /* \"#utility.yul\":10926:10991   */\n      tag_142\n      jump\t// in\n    tag_274:\n        /* \"#utility.yul\":10861:10997   */\n      pop\n        /* \"#utility.yul\":10808:10997   */\n      pop\n      pop\n      jump\t// out\n        /* \"#utility.yul\":11003:11189   */\n    tag_145:\n        /* \"#utility.yul\":11063:11183   */\n    tag_276:\n        /* \"#utility.yul\":11080:11083   */\n      dup2\n        /* \"#utility.yul\":11073:11078   */\n      dup2\n        /* \"#utility.yul\":11070:11084   */\n      lt\n        /* \"#utility.yul\":11063:11183   */\n      iszero\n      tag_278\n      jumpi\n        /* \"#utility.yul\":11134:11173   */\n      tag_279\n        /* \"#utility.yul\":11171:11172   */\n      0x00\n        /* \"#utility.yul\":11164:11169   */\n      dup3\n        /* \"#utility.yul\":11134:11173   */\n      tag_144\n      jump\t// in\n    tag_279:\n        /* \"#utility.yul\":11107:11108   */\n      0x01\n        /* \"#utility.yul\":11100:11105   */\n      dup2\n        /* \"#utility.yul\":11096:11109   */\n      add\n        /* \"#utility.yul\":11087:11109   */\n      swap1\n      pop\n        /* \"#utility.yul\":11063:11183   */\n      jump(tag_276)\n    tag_278:\n        /* \"#utility.yul\":11003:11189   */\n      pop\n      pop\n      jump\t// out\n        /* \"#utility.yul\":11195:11738   */\n    tag_146:\n        /* \"#utility.yul\":11296:11298   */\n      0x1f\n        /* \"#utility.yul\":11291:11294   */\n      dup3\n        /* \"#utility.yul\":11288:11299   */\n      gt\n        /* \"#utility.yul\":11285:11731   */\n      iszero\n      tag_281\n      jumpi\n        /* \"#utility.yul\":11330:11368   */\n      tag_282\n        /* \"#utility.yul\":11362:11367   */\n      dup2\n        /* \"#utility.yul\":11330:11368   */\n      tag_135\n      jump\t// in\n    tag_282:\n        /* \"#utility.yul\":11414:11443   */\n      tag_283\n        /* \"#utility.yul\":11432:11442   */\n      dup5\n        /* \"#utility.yul\":11414:11443   */\n      tag_136\n      jump\t// in\n    tag_283:\n        /* \"#utility.yul\":11404:11412   */\n      dup2\n        /* \"#utility.yul\":11400:11444   */\n      add\n        /* \"#utility.yul\":11597:11599   */\n      0x20\n        /* \"#utility.yul\":11585:11595   */\n      dup6\n        /* \"#utility.yul\":11582:11600   */\n      lt\n        /* \"#utility.yul\":11579:11628   */\n      iszero\n      tag_284\n      jumpi\n        /* \"#utility.yul\":11618:11626   */\n      dup2\n        /* \"#utility.yul\":11603:11626   */\n      swap1\n      pop\n        /* \"#utility.yul\":11579:11628   */\n    tag_284:\n        /* \"#utility.yul\":11641:11721   */\n      tag_285\n        /* \"#utility.yul\":11697:11719   */\n      tag_286\n        /* \"#utility.yul\":11715:11718   */\n      dup6\n        /* \"#utility.yul\":11697:11719   */\n      tag_136\n      jump\t// in\n    tag_286:\n        /* \"#utility.yul\":11687:11695   */\n      dup4\n        /* \"#utility.yul\":11683:11720   */\n      add\n        /* \"#utility.yul\":11670:11681   */\n      dup3\n        /* \"#utility.yul\":11641:11721   */\n      tag_145\n      jump\t// in\n    tag_285:\n        /* \"#utility.yul\":11300:11731   */\n      pop\n      pop\n        /* \"#utility.yul\":11285:11731   */\n    tag_281:\n        /* \"#utility.yul\":11195:11738   */\n      pop\n      pop\n      pop\n      jump\t// out\n        /* \"#utility.yul\":11744:11861   */\n    tag_147:\n        /* \"#utility.yul\":11798:11806   */\n      0x00\n        /* \"#utility.yul\":11848:11853   */\n      dup3\n        /* \"#utility.yul\":11842:11846   */\n      dup3\n        /* \"#utility.yul\":11838:11854   */\n      shr\n        /* \"#utility.yul\":11817:11854   */\n      swap1\n      pop\n        /* \"#utility.yul\":11744:11861   */\n      swap3\n      swap2\n      pop\n      pop\n      jump\t// out\n        /* \"#utility.yul\":11867:12036   */\n    tag_148:\n        /* \"#utility.yul\":11911:11917   */\n      0x00\n        /* \"#utility.yul\":11944:11995   */\n      tag_289\n        /* \"#utility.yul\":11992:11993   */\n      0x00\n        /* \"#utility.yul\":11988:11994   */\n      not\n        /* \"#utility.yul\":11980:11985   */\n      dup5\n        /* \"#utility.yul\":11977:11978   */\n      0x08\n        /* \"#utility.yul\":11973:11986   */\n      mul\n        /* \"#utility.yul\":11944:11995   */\n      tag_147\n      jump\t// in\n    tag_289:\n        /* \"#utility.yul\":11940:11996   */\n      not\n        /* \"#utility.yul\":12025:12029   */\n      dup1\n        /* \"#utility.yul\":12019:12023   */\n      dup4\n        /* \"#utility.yul\":12015:12030   */\n      and\n        /* \"#utility.yul\":12005:12030   */\n      swap2\n      pop\n        /* \"#utility.yul\":11918:12036   */\n      pop\n        /* \"#utility.yul\":11867:12036   */\n      swap3\n      swap2\n      pop\n      pop\n      jump\t// out\n        /* \"#utility.yul\":12041:12336   */\n    tag_149:\n        /* \"#utility.yul\":12117:12121   */\n      0x00\n        /* \"#utility.yul\":12263:12292   */\n      tag_291\n        /* \"#utility.yul\":12288:12291   */\n      dup4\n        /* \"#utility.yul\":12282:12286   */\n      dup4\n        /* \"#utility.yul\":12263:12292   */\n      tag_148\n      jump\t// in\n    tag_291:\n        /* \"#utility.yul\":12255:12292   */\n      swap2\n      pop\n        /* \"#utility.yul\":12325:12328   */\n      dup3\n        /* \"#utility.yul\":12322:12323   */\n      0x02\n        /* \"#utility.yul\":12318:12329   */\n      mul\n        /* \"#utility.yul\":12312:12316   */\n      dup3\n        /* \"#utility.yul\":12309:12330   */\n      or\n        /* \"#utility.yul\":12301:12330   */\n      swap1\n      pop\n        /* \"#utility.yul\":12041:12336   */\n      swap3\n      swap2\n      pop\n      pop\n      jump\t// out\n        /* \"#utility.yul\":12341:13744   */\n    tag_57:\n        /* \"#utility.yul\":12465:12509   */\n      tag_293\n        /* \"#utility.yul\":12505:12508   */\n      dup4\n        /* \"#utility.yul\":12500:12503   */\n      dup4\n        /* \"#utility.yul\":12465:12509   */\n      tag_132\n      jump\t// in\n    tag_293:\n        /* \"#utility.yul\":12574:12592   */\n      0xffffffffffffffff\n        /* \"#utility.yul\":12566:12572   */\n      dup2\n        /* \"#utility.yul\":12563:12593   */\n      gt\n        /* \"#utility.yul\":12560:12616   */\n      iszero\n      tag_294\n      jumpi\n        /* \"#utility.yul\":12596:12614   */\n      tag_295\n      tag_133\n      jump\t// in\n    tag_295:\n        /* \"#utility.yul\":12560:12616   */\n    tag_294:\n        /* \"#utility.yul\":12640:12678   */\n      tag_296\n        /* \"#utility.yul\":12672:12676   */\n      dup3\n        /* \"#utility.yul\":12666:12677   */\n      sload\n        /* \"#utility.yul\":12640:12678   */\n      tag_76\n      jump\t// in\n    tag_296:\n        /* \"#utility.yul\":12725:12792   */\n      tag_297\n        /* \"#utility.yul\":12785:12791   */\n      dup3\n        /* \"#utility.yul\":12777:12783   */\n      dup3\n        /* \"#utility.yul\":12771:12775   */\n      dup6\n        /* \"#utility.yul\":12725:12792   */\n      tag_146\n      jump\t// in\n    tag_297:\n        /* \"#utility.yul\":12819:12820   */\n      0x00\n        /* \"#utility.yul\":12848:12850   */\n      0x1f\n        /* \"#utility.yul\":12840:12846   */\n      dup4\n        /* \"#utility.yul\":12837:12851   */\n      gt\n        /* \"#utility.yul\":12865:12866   */\n      0x01\n        /* \"#utility.yul\":12860:13492   */\n      dup2\n      eq\n      tag_299\n      jumpi\n        /* \"#utility.yul\":13536:13537   */\n      0x00\n        /* \"#utility.yul\":13553:13559   */\n      dup5\n        /* \"#utility.yul\":13550:13634   */\n      iszero\n      tag_300\n      jumpi\n        /* \"#utility.yul\":13609:13618   */\n      dup3\n        /* \"#utility.yul\":13604:13607   */\n      dup8\n        /* \"#utility.yul\":13600:13619   */\n      add\n        /* \"#utility.yul\":13587:13620   */\n      calldataload\n        /* \"#utility.yul\":13578:13620   */\n      swap1\n      pop\n        /* \"#utility.yul\":13550:13634   */\n    tag_300:\n        /* \"#utility.yul\":13660:13727   */\n      tag_301\n        /* \"#utility.yul\":13720:13726   */\n      dup6\n        /* \"#utility.yul\":13713:13718   */\n      dup3\n        /* \"#utility.yul\":13660:13727   */\n      tag_149\n      jump\t// in\n    tag_301:\n        /* \"#utility.yul\":13654:13658   */\n      dup7\n        /* \"#utility.yul\":13647:13728   */\n      sstore\n        /* \"#utility.yul\":13509:13738   */\n      pop\n        /* \"#utility.yul\":12830:13738   */\n      jump(tag_298)\n        /* \"#utility.yul\":12860:13492   */\n    tag_299:\n        /* \"#utility.yul\":12912:12916   */\n      0x1f\n        /* \"#utility.yul\":12908:12917   */\n      not\n        /* \"#utility.yul\":12900:12906   */\n      dup5\n        /* \"#utility.yul\":12896:12918   */\n      and\n        /* \"#utility.yul\":12946:12983   */\n      tag_302\n        /* \"#utility.yul\":12978:12982   */\n      dup7\n        /* \"#utility.yul\":12946:12983   */\n      tag_135\n      jump\t// in\n    tag_302:\n        /* \"#utility.yul\":13005:13006   */\n      0x00\n        /* \"#utility.yul\":13019:13234   */\n    tag_303:\n        /* \"#utility.yul\":13033:13040   */\n      dup3\n        /* \"#utility.yul\":13030:13031   */\n      dup2\n        /* \"#utility.yul\":13027:13041   */\n      lt\n        /* \"#utility.yul\":13019:13234   */\n      iszero\n      tag_305\n      jumpi\n        /* \"#utility.yul\":13119:13128   */\n      dup5\n        /* \"#utility.yul\":13114:13117   */\n      dup10\n        /* \"#utility.yul\":13110:13129   */\n      add\n        /* \"#utility.yul\":13097:13130   */\n      calldataload\n        /* \"#utility.yul\":13089:13095   */\n      dup3\n        /* \"#utility.yul\":13082:13131   */\n      sstore\n        /* \"#utility.yul\":13170:13171   */\n      0x01\n        /* \"#utility.yul\":13162:13168   */\n      dup3\n        /* \"#utility.yul\":13158:13172   */\n      add\n        /* \"#utility.yul\":13148:13172   */\n      swap2\n      pop\n        /* \"#utility.yul\":13217:13219   */\n      0x20\n        /* \"#utility.yul\":13206:13215   */\n      dup6\n        /* \"#utility.yul\":13202:13220   */\n      add\n        /* \"#utility.yul\":13189:13220   */\n      swap5\n      pop\n        /* \"#utility.yul\":13056:13060   */\n      0x20\n        /* \"#utility.yul\":13053:13054   */\n      dup2\n        /* \"#utility.yul\":13049:13061   */\n      add\n        /* \"#utility.yul\":13044:13061   */\n      swap1\n      pop\n        /* \"#utility.yul\":13019:13234   */\n      jump(tag_303)\n    tag_305:\n        /* \"#utility.yul\":13262:13268   */\n      dup7\n        /* \"#utility.yul\":13253:13260   */\n      dup4\n        /* \"#utility.yul\":13250:13269   */\n      lt\n        /* \"#utility.yul\":13247:13433   */\n      iszero\n      tag_306\n      jumpi\n        /* \"#utility.yul\":13327:13336   */\n      dup5\n        /* \"#utility.yul\":13322:13325   */\n      dup10\n        /* \"#utility.yul\":13318:13337   */\n      add\n        /* \"#utility.yul\":13305:13338   */\n      calldataload\n        /* \"#utility.yul\":13370:13418   */\n      tag_307\n        /* \"#utility.yul\":13412:13416   */\n      0x1f\n        /* \"#utility.yul\":13404:13410   */\n      dup10\n        /* \"#utility.yul\":13400:13417   */\n      and\n        /* \"#utility.yul\":13389:13398   */\n      dup3\n        /* \"#utility.yul\":13370:13418   */\n      tag_148\n      jump\t// in\n    tag_307:\n        /* \"#utility.yul\":13362:13368   */\n      dup4\n        /* \"#utility.yul\":13355:13419   */\n      sstore\n        /* \"#utility.yul\":13270:13433   */\n      pop\n        /* \"#utility.yul\":13247:13433   */\n    tag_306:\n        /* \"#utility.yul\":13479:13480   */\n      0x01\n        /* \"#utility.yul\":13475:13476   */\n      0x02\n        /* \"#utility.yul\":13467:13473   */\n      dup9\n        /* \"#utility.yul\":13463:13477   */\n      mul\n        /* \"#utility.yul\":13459:13481   */\n      add\n        /* \"#utility.yul\":13453:13457   */\n      dup9\n        /* \"#utility.yul\":13446:13482   */\n      sstore\n        /* \"#utility.yul\":12867:13492   */\n      pop\n      pop\n      pop\n        /* \"#utility.yul\":12830:13738   */\n    tag_298:\n      pop\n        /* \"#utility.yul\":12440:13744   */\n      pop\n      pop\n      pop\n        /* \"#utility.yul\":12341:13744   */\n      pop\n      pop\n      pop\n      jump\t// out\n        /* \"#utility.yul\":13750:13898   */\n    tag_150:\n        /* \"#utility.yul\":13848:13854   */\n      dup3\n        /* \"#utility.yul\":13843:13846   */\n      dup2\n        /* \"#utility.yul\":13838:13841   */\n      dup4\n        /* \"#utility.yul\":13825:13855   */\n      calldatacopy\n        /* \"#utility.yul\":13889:13890   */\n      0x00\n        /* \"#utility.yul\":13880:13886   */\n      dup4\n        /* \"#utility.yul\":13875:13878   */\n      dup4\n        /* \"#utility.yul\":13871:13887   */\n      add\n        /* \"#utility.yul\":13864:13891   */\n      mstore\n        /* \"#utility.yul\":13750:13898   */\n      pop\n      pop\n      pop\n      jump\t// out\n        /* \"#utility.yul\":13928:14245   */\n    tag_151:\n        /* \"#utility.yul\":14026:14029   */\n      0x00\n        /* \"#utility.yul\":14047:14118   */\n      tag_310\n        /* \"#utility.yul\":14111:14117   */\n      dup4\n        /* \"#utility.yul\":14106:14109   */\n      dup6\n        /* \"#utility.yul\":14047:14118   */\n      tag_122\n      jump\t// in\n    tag_310:\n        /* \"#utility.yul\":14040:14118   */\n      swap4\n      pop\n        /* \"#utility.yul\":14128:14184   */\n      tag_311\n        /* \"#utility.yul\":14177:14183   */\n      dup4\n        /* \"#utility.yul\":14172:14175   */\n      dup6\n        /* \"#utility.yul\":14165:14170   */\n      dup5\n        /* \"#utility.yul\":14128:14184   */\n      tag_150\n      jump\t// in\n    tag_311:\n        /* \"#utility.yul\":14209:14238   */\n      tag_312\n        /* \"#utility.yul\":14231:14237   */\n      dup4\n        /* \"#utility.yul\":14209:14238   */\n      tag_124\n      jump\t// in\n    tag_312:\n        /* \"#utility.yul\":14204:14207   */\n      dup5\n        /* \"#utility.yul\":14200:14239   */\n      add\n        /* \"#utility.yul\":14193:14239   */\n      swap1\n      pop\n        /* \"#utility.yul\":13928:14245   */\n      swap4\n      swap3\n      pop\n      pop\n      pop\n      jump\t// out\n        /* \"#utility.yul\":14251:14584   */\n    tag_59:\n        /* \"#utility.yul\":14374:14378   */\n      0x00\n        /* \"#utility.yul\":14412:14414   */\n      0x20\n        /* \"#utility.yul\":14401:14410   */\n      dup3\n        /* \"#utility.yul\":14397:14415   */\n      add\n        /* \"#utility.yul\":14389:14415   */\n      swap1\n      pop\n        /* \"#utility.yul\":14461:14470   */\n      dup2\n        /* \"#utility.yul\":14455:14459   */\n      dup2\n        /* \"#utility.yul\":14451:14471   */\n      sub\n        /* \"#utility.yul\":14447:14448   */\n      0x00\n        /* \"#utility.yul\":14436:14445   */\n      dup4\n        /* \"#utility.yul\":14432:14449   */\n      add\n        /* \"#utility.yul\":14425:14472   */\n      mstore\n        /* \"#utility.yul\":14489:14577   */\n      tag_314\n        /* \"#utility.yul\":14572:14576   */\n      dup2\n        /* \"#utility.yul\":14563:14569   */\n      dup5\n        /* \"#utility.yul\":14555:14561   */\n      dup7\n        /* \"#utility.yul\":14489:14577   */\n      tag_151\n      jump\t// in\n    tag_314:\n        /* \"#utility.yul\":14481:14577   */\n      swap1\n      pop\n        /* \"#utility.yul\":14251:14584   */\n      swap4\n      swap3\n      pop\n      pop\n      pop\n      jump\t// out\n        /* \"#utility.yul\":14590:14759   */\n    tag_152:\n        /* \"#utility.yul\":14730:14751   */\n      0x43616e646964617465206e6f7420666f756e6400000000000000000000000000\n        /* \"#utility.yul\":14726:14727   */\n      0x00\n        /* \"#utility.yul\":14718:14724   */\n      dup3\n        /* \"#utility.yul\":14714:14728   */\n      add\n        /* \"#utility.yul\":14707:14752   */\n      mstore\n        /* \"#utility.yul\":14590:14759   */\n      pop\n      jump\t// out\n        /* \"#utility.yul\":14765:15131   */\n    tag_153:\n        /* \"#utility.yul\":14907:14910   */\n      0x00\n        /* \"#utility.yul\":14928:14995   */\n      tag_317\n        /* \"#utility.yul\":14992:14994   */\n      0x13\n        /* \"#utility.yul\":14987:14990   */\n      dup4\n        /* \"#utility.yul\":14928:14995   */\n      tag_122\n      jump\t// in\n    tag_317:\n        /* \"#utility.yul\":14921:14995   */\n      swap2\n      pop\n        /* \"#utility.yul\":15004:15097   */\n      tag_318\n        /* \"#utility.yul\":15093:15096   */\n      dup3\n        /* \"#utility.yul\":15004:15097   */\n      tag_152\n      jump\t// in\n    tag_318:\n        /* \"#utility.yul\":15122:15124   */\n      0x20\n        /* \"#utility.yul\":15117:15120   */\n      dup3\n        /* \"#utility.yul\":15113:15125   */\n      add\n        /* \"#utility.yul\":15106:15125   */\n      swap1\n      pop\n        /* \"#utility.yul\":14765:15131   */\n      swap2\n      swap1\n      pop\n      jump\t// out\n        /* \"#utility.yul\":15137:15556   */\n    tag_64:\n        /* \"#utility.yul\":15303:15307   */\n      0x00\n        /* \"#utility.yul\":15341:15343   */\n      0x20\n        /* \"#utility.yul\":15330:15339   */\n      dup3\n        /* \"#utility.yul\":15326:15344   */\n      add\n        /* \"#utility.yul\":15318:15344   */\n      swap1\n      pop\n        /* \"#utility.yul\":15390:15399   */\n      dup2\n        /* \"#utility.yul\":15384:15388   */\n      dup2\n        /* \"#utility.yul\":15380:15400   */\n      sub\n        /* \"#utility.yul\":15376:15377   */\n      0x00\n        /* \"#utility.yul\":15365:15374   */\n      dup4\n        /* \"#utility.yul\":15361:15378   */\n      add\n        /* \"#utility.yul\":15354:15401   */\n      mstore\n        /* \"#utility.yul\":15418:15549   */\n      tag_320\n        /* \"#utility.yul\":15544:15548   */\n      dup2\n        /* \"#utility.yul\":15418:15549   */\n      tag_153\n      jump\t// in\n    tag_320:\n        /* \"#utility.yul\":15410:15549   */\n      swap1\n      pop\n        /* \"#utility.yul\":15137:15556   */\n      swap2\n      swap1\n      pop\n      jump\t// out\n        /* \"#utility.yul\":15562:15710   */\n    tag_154:\n        /* \"#utility.yul\":15664:15675   */\n      0x00\n        /* \"#utility.yul\":15701:15704   */\n      dup2\n        /* \"#utility.yul\":15686:15704   */\n      swap1\n      pop\n        /* \"#utility.yul\":15562:15710   */\n      swap3\n      swap2\n      pop\n      pop\n      jump\t// out\n        /* \"#utility.yul\":15740:16070   */\n    tag_155:\n        /* \"#utility.yul\":15856:15859   */\n      0x00\n        /* \"#utility.yul\":15877:15966   */\n      tag_323\n        /* \"#utility.yul\":15959:15965   */\n      dup4\n        /* \"#utility.yul\":15954:15957   */\n      dup6\n        /* \"#utility.yul\":15877:15966   */\n      tag_154\n      jump\t// in\n    tag_323:\n        /* \"#utility.yul\":15870:15966   */\n      swap4\n      pop\n        /* \"#utility.yul\":15976:16032   */\n      tag_324\n        /* \"#utility.yul\":16025:16031   */\n      dup4\n        /* \"#utility.yul\":16020:16023   */\n      dup6\n        /* \"#utility.yul\":16013:16018   */\n      dup5\n        /* \"#utility.yul\":15976:16032   */\n      tag_150\n      jump\t// in\n    tag_324:\n        /* \"#utility.yul\":16057:16063   */\n      dup3\n        /* \"#utility.yul\":16052:16055   */\n      dup5\n        /* \"#utility.yul\":16048:16064   */\n      add\n        /* \"#utility.yul\":16041:16064   */\n      swap1\n      pop\n        /* \"#utility.yul\":15740:16070   */\n      swap4\n      swap3\n      pop\n      pop\n      pop\n      jump\t// out\n        /* \"#utility.yul\":16076:16371   */\n    tag_66:\n        /* \"#utility.yul\":16218:16221   */\n      0x00\n        /* \"#utility.yul\":16240:16345   */\n      tag_326\n        /* \"#utility.yul\":16341:16344   */\n      dup3\n        /* \"#utility.yul\":16332:16338   */\n      dup5\n        /* \"#utility.yul\":16324:16330   */\n      dup7\n        /* \"#utility.yul\":16240:16345   */\n      tag_155\n      jump\t// in\n    tag_326:\n        /* \"#utility.yul\":16233:16345   */\n      swap2\n      pop\n        /* \"#utility.yul\":16362:16365   */\n      dup2\n        /* \"#utility.yul\":16355:16365   */\n      swap1\n      pop\n        /* \"#utility.yul\":16076:16371   */\n      swap4\n      swap3\n      pop\n      pop\n      pop\n      jump\t// out\n        /* \"#utility.yul\":16377:16539   */\n    tag_156:\n        /* \"#utility.yul\":16517:16531   */\n      0x4f7574206f662072616e67650000000000000000000000000000000000000000\n        /* \"#utility.yul\":16513:16514   */\n      0x00\n        /* \"#utility.yul\":16505:16511   */\n      dup3\n        /* \"#utility.yul\":16501:16515   */\n      add\n        /* \"#utility.yul\":16494:16532   */\n      mstore\n        /* \"#utility.yul\":16377:16539   */\n      pop\n      jump\t// out\n        /* \"#utility.yul\":16545:16911   */\n    tag_157:\n        /* \"#utility.yul\":16687:16690   */\n      0x00\n        /* \"#utility.yul\":16708:16775   */\n      tag_329\n        /* \"#utility.yul\":16772:16774   */\n      0x0c\n        /* \"#utility.yul\":16767:16770   */\n      dup4\n        /* \"#utility.yul\":16708:16775   */\n      tag_122\n      jump\t// in\n    tag_329:\n        /* \"#utility.yul\":16701:16775   */\n      swap2\n      pop\n        /* \"#utility.yul\":16784:16877   */\n      tag_330\n        /* \"#utility.yul\":16873:16876   */\n      dup3\n        /* \"#utility.yul\":16784:16877   */\n      tag_156\n      jump\t// in\n    tag_330:\n        /* \"#utility.yul\":16902:16904   */\n      0x20\n        /* \"#utility.yul\":16897:16900   */\n      dup3\n        /* \"#utility.yul\":16893:16905   */\n      add\n        /* \"#utility.yul\":16886:16905   */\n      swap1\n      pop\n        /* \"#utility.yul\":16545:16911   */\n      swap2\n      swap1\n      pop\n      jump\t// out\n        /* \"#utility.yul\":16917:17336   */\n    tag_70:\n        /* \"#utility.yul\":17083:17087   */\n      0x00\n        /* \"#utility.yul\":17121:17123   */\n      0x20\n        /* \"#utility.yul\":17110:17119   */\n      dup3\n        /* \"#utility.yul\":17106:17124   */\n      add\n        /* \"#utility.yul\":17098:17124   */\n      swap1\n      pop\n        /* \"#utility.yul\":17170:17179   */\n      dup2\n        /* \"#utility.yul\":17164:17168   */\n      dup2\n        /* \"#utility.yul\":17160:17180   */\n      sub\n        /* \"#utility.yul\":17156:17157   */\n      0x00\n        /* \"#utility.yul\":17145:17154   */\n      dup4\n        /* \"#utility.yul\":17141:17158   */\n      add\n        /* \"#utility.yul\":17134:17181   */\n      mstore\n        /* \"#utility.yul\":17198:17329   */\n      tag_332\n        /* \"#utility.yul\":17324:17328   */\n      dup2\n        /* \"#utility.yul\":17198:17329   */\n      tag_157\n      jump\t// in\n    tag_332:\n        /* \"#utility.yul\":17190:17329   */\n      swap1\n      pop\n        /* \"#utility.yul\":16917:17336   */\n      swap2\n      swap1\n      pop\n      jump\t// out\n        /* \"#utility.yul\":17342:17522   */\n    tag_73:\n        /* \"#utility.yul\":17390:17467   */\n      0x4e487b7100000000000000000000000000000000000000000000000000000000\n        /* \"#utility.yul\":17387:17388   */\n      0x00\n        /* \"#utility.yul\":17380:17468   */\n      mstore\n        /* \"#utility.yul\":17487:17491   */\n      0x32\n        /* \"#utility.yul\":17484:17485   */\n      0x04\n        /* \"#utility.yul\":17477:17492   */\n      mstore\n        /* \"#utility.yul\":17511:17515   */\n      0x24\n        /* \"#utility.yul\":17508:17509   */\n      0x00\n        /* \"#utility.yul\":17501:17516   */\n      revert\n        /* \"#utility.yul\":17528:17691   */\n    tag_158:\n        /* \"#utility.yul\":17668:17683   */\n      0x416c726561647920766f74656400000000000000000000000000000000000000\n        /* \"#utility.yul\":17664:17665   */\n      0x00\n        /* \"#utility.yul\":17656:17662   */\n      dup3\n        /* \"#utility.yul\":17652:17666   */\n      add\n        /* \"#utility.yul\":17645:17684   */\n      mstore\n        /* \"#utility.yul\":17528:17691   */\n      pop\n      jump\t// out\n        /* \"#utility.yul\":17697:18063   */\n    tag_159:\n        /* \"#utility.yul\":17839:17842   */\n      0x00\n        /* \"#utility.yul\":17860:17927   */\n      tag_336\n        /* \"#utility.yul\":17924:17926   */\n      0x0d\n        /* \"#utility.yul\":17919:17922   */\n      dup4\n        /* \"#utility.yul\":17860:17927   */\n      tag_122\n      jump\t// in\n    tag_336:\n        /* \"#utility.yul\":17853:17927   */\n      swap2\n      pop\n        /* \"#utility.yul\":17936:18029   */\n      tag_337\n        /* \"#utility.yul\":18025:18028   */\n      dup3\n        /* \"#utility.yul\":17936:18029   */\n      tag_158\n      jump\t// in\n    tag_337:\n        /* \"#utility.yul\":18054:18056   */\n      0x20\n        /* \"#utility.yul\":18049:18052   */\n      dup3\n        /* \"#utility.yul\":18045:18057   */\n      add\n        /* \"#utility.yul\":18038:18057   */\n      swap1\n      pop\n        /* \"#utility.yul\":17697:18063   */\n      swap2\n      swap1\n      pop\n      jump\t// out\n        /* \"#utility.yul\":18069:18488   */\n    tag_85:\n        /* \"#utility.yul\":18235:18239   */\n      0x00\n        /* \"#utility.yul\":18273:18275   */\n      0x20\n        /* \"#utility.yul\":18262:18271   */\n      dup3\n        /* \"#utility.yul\":18258:18276   */\n      add\n        /* \"#utility.yul\":18250:18276   */\n      swap1\n      pop\n        /* \"#utility.yul\":18322:18331   */\n      dup2\n        /* \"#utility.yul\":18316:18320   */\n      dup2\n        /* \"#utility.yul\":18312:18332   */\n      sub\n        /* \"#utility.yul\":18308:18309   */\n      0x00\n        /* \"#utility.yul\":18297:18306   */\n      dup4\n        /* \"#utility.yul\":18293:18310   */\n      add\n        /* \"#utility.yul\":18286:18333   */\n      mstore\n        /* \"#utility.yul\":18350:18481   */\n      tag_339\n        /* \"#utility.yul\":18476:18480   */\n      dup2\n        /* \"#utility.yul\":18350:18481   */\n      tag_159\n      jump\t// in\n    tag_339:\n        /* \"#utility.yul\":18342:18481   */\n      swap1\n      pop\n        /* \"#utility.yul\":18069:18488   */\n      swap2\n      swap1\n      pop\n      jump\t// out\n        /* \"#utility.yul\":18494:18674   */\n    tag_160:\n        /* \"#utility.yul\":18542:18619   */\n      0x4e487b7100000000000000000000000000000000000000000000000000000000\n        /* \"#utility.yul\":18539:18540   */\n      0x00\n        /* \"#utility.yul\":18532:18620   */\n      mstore\n        /* \"#utility.yul\":18639:18643   */\n      0x11\n        /* \"#utility.yul\":18636:18637   */\n      0x04\n        /* \"#utility.yul\":18629:18644   */\n      mstore\n        /* \"#utility.yul\":18663:18667   */\n      0x24\n        /* \"#utility.yul\":18660:18661   */\n      0x00\n        /* \"#utility.yul\":18653:18668   */\n      revert\n        /* \"#utility.yul\":18680:18871   */\n    tag_91:\n        /* \"#utility.yul\":18720:18723   */\n      0x00\n        /* \"#utility.yul\":18739:18759   */\n      tag_342\n        /* \"#utility.yul\":18757:18758   */\n      dup3\n        /* \"#utility.yul\":18739:18759   */\n      tag_116\n      jump\t// in\n    tag_342:\n        /* \"#utility.yul\":18734:18759   */\n      swap2\n      pop\n        /* \"#utility.yul\":18773:18793   */\n      tag_343\n        /* \"#utility.yul\":18791:18792   */\n      dup4\n        /* \"#utility.yul\":18773:18793   */\n      tag_116\n      jump\t// in\n    tag_343:\n        /* \"#utility.yul\":18768:18793   */\n      swap3\n      pop\n        /* \"#utility.yul\":18816:18817   */\n      dup3\n        /* \"#utility.yul\":18813:18814   */\n      dup3\n        /* \"#utility.yul\":18809:18818   */\n      add\n        /* \"#utility.yul\":18802:18818   */\n      swap1\n      pop\n        /* \"#utility.yul\":18837:18840   */\n      dup1\n        /* \"#utility.yul\":18834:18835   */\n      dup3\n        /* \"#utility.yul\":18831:18841   */\n      gt\n        /* \"#utility.yul\":18828:18864   */\n      iszero\n      tag_344\n      jumpi\n        /* \"#utility.yul\":18844:18862   */\n      tag_345\n      tag_160\n      jump\t// in\n    tag_345:\n        /* \"#utility.yul\":18828:18864   */\n    tag_344:\n        /* \"#utility.yul\":18680:18871   */\n      swap3\n      swap2\n      pop\n      pop\n      jump\t// out\n        /* \"#utility.yul\":18877:19024   */\n    tag_161:\n        /* \"#utility.yul\":18978:18989   */\n      0x00\n        /* \"#utility.yul\":19015:19018   */\n      dup2\n        /* \"#utility.yul\":19000:19018   */\n      swap1\n      pop\n        /* \"#utility.yul\":18877:19024   */\n      swap3\n      swap2\n      pop\n      pop\n      jump\t// out\n        /* \"#utility.yul\":19030:19174   */\n    tag_162:\n        /* \"#utility.yul\":19082:19086   */\n      0x00\n        /* \"#utility.yul\":19105:19108   */\n      dup2\n        /* \"#utility.yul\":19097:19108   */\n      swap1\n      pop\n        /* \"#utility.yul\":19128:19131   */\n      dup2\n        /* \"#utility.yul\":19125:19126   */\n      0x00\n        /* \"#utility.yul\":19118:19132   */\n      mstore\n        /* \"#utility.yul\":19162:19166   */\n      0x20\n        /* \"#utility.yul\":19159:19160   */\n      0x00\n        /* \"#utility.yul\":19149:19167   */\n      keccak256\n        /* \"#utility.yul\":19141:19167   */\n      swap1\n      pop\n        /* \"#utility.yul\":19030:19174   */\n      swap2\n      swap1\n      pop\n      jump\t// out\n        /* \"#utility.yul\":19202:20080   */\n    tag_163:\n        /* \"#utility.yul\":19307:19310   */\n      0x00\n        /* \"#utility.yul\":19344:19349   */\n      dup2\n        /* \"#utility.yul\":19338:19350   */\n      sload\n        /* \"#utility.yul\":19373:19409   */\n      tag_349\n        /* \"#utility.yul\":19399:19408   */\n      dup2\n        /* \"#utility.yul\":19373:19409   */\n      tag_76\n      jump\t// in\n    tag_349:\n        /* \"#utility.yul\":19425:19513   */\n      tag_350\n        /* \"#utility.yul\":19506:19512   */\n      dup2\n        /* \"#utility.yul\":19501:19504   */\n      dup7\n        /* \"#utility.yul\":19425:19513   */\n      tag_161\n      jump\t// in\n    tag_350:\n        /* \"#utility.yul\":19418:19513   */\n      swap5\n      pop\n        /* \"#utility.yul\":19544:19545   */\n      0x01\n        /* \"#utility.yul\":19533:19542   */\n      dup3\n        /* \"#utility.yul\":19529:19546   */\n      and\n        /* \"#utility.yul\":19560:19561   */\n      0x00\n        /* \"#utility.yul\":19555:19721   */\n      dup2\n      eq\n      tag_352\n      jumpi\n        /* \"#utility.yul\":19735:19736   */\n      0x01\n        /* \"#utility.yul\":19730:20074   */\n      dup2\n      eq\n      tag_353\n      jumpi\n        /* \"#utility.yul\":19522:20074   */\n      jump(tag_351)\n        /* \"#utility.yul\":19555:19721   */\n    tag_352:\n        /* \"#utility.yul\":19639:19643   */\n      0xff\n        /* \"#utility.yul\":19635:19644   */\n      not\n        /* \"#utility.yul\":19624:19633   */\n      dup4\n        /* \"#utility.yul\":19620:19645   */\n      and\n        /* \"#utility.yul\":19615:19618   */\n      dup7\n        /* \"#utility.yul\":19608:19646   */\n      mstore\n        /* \"#utility.yul\":19701:19707   */\n      dup2\n        /* \"#utility.yul\":19694:19708   */\n      iszero\n        /* \"#utility.yul\":19687:19709   */\n      iszero\n        /* \"#utility.yul\":19679:19685   */\n      dup3\n        /* \"#utility.yul\":19675:19710   */\n      mul\n        /* \"#utility.yul\":19670:19673   */\n      dup7\n        /* \"#utility.yul\":19666:19711   */\n      add\n        /* \"#utility.yul\":19659:19711   */\n      swap4\n      pop\n        /* \"#utility.yul\":19555:19721   */\n      jump(tag_351)\n        /* \"#utility.yul\":19730:20074   */\n    tag_353:\n        /* \"#utility.yul\":19797:19838   */\n      tag_354\n        /* \"#utility.yul\":19832:19837   */\n      dup6\n        /* \"#utility.yul\":19797:19838   */\n      tag_162\n      jump\t// in\n    tag_354:\n        /* \"#utility.yul\":19860:19861   */\n      0x00\n        /* \"#utility.yul\":19874:20028   */\n    tag_355:\n        /* \"#utility.yul\":19888:19894   */\n      dup4\n        /* \"#utility.yul\":19885:19886   */\n      dup2\n        /* \"#utility.yul\":19882:19895   */\n      lt\n        /* \"#utility.yul\":19874:20028   */\n      iszero\n      tag_357\n      jumpi\n        /* \"#utility.yul\":19962:19969   */\n      dup2\n        /* \"#utility.yul\":19956:19970   */\n      sload\n        /* \"#utility.yul\":19952:19953   */\n      dup2\n        /* \"#utility.yul\":19947:19950   */\n      dup10\n        /* \"#utility.yul\":19943:19954   */\n      add\n        /* \"#utility.yul\":19936:19971   */\n      mstore\n        /* \"#utility.yul\":20012:20013   */\n      0x01\n        /* \"#utility.yul\":20003:20010   */\n      dup3\n        /* \"#utility.yul\":19999:20014   */\n      add\n        /* \"#utility.yul\":19988:20014   */\n      swap2\n      pop\n        /* \"#utility.yul\":19910:19914   */\n      0x20\n        /* \"#utility.yul\":19907:19908   */\n      dup2\n        /* \"#utility.yul\":19903:19915   */\n      add\n        /* \"#utility.yul\":19898:19915   */\n      swap1\n      pop\n        /* \"#utility.yul\":19874:20028   */\n      jump(tag_355)\n    tag_357:\n        /* \"#utility.yul\":20057:20063   */\n      dup4\n        /* \"#utility.yul\":20052:20055   */\n      dup9\n        /* \"#utility.yul\":20048:20064   */\n      add\n        /* \"#utility.yul\":20041:20064   */\n      swap6\n      pop\n        /* \"#utility.yul\":19737:20074   */\n      pop\n      pop\n        /* \"#utility.yul\":19522:20074   */\n    tag_351:\n      pop\n        /* \"#utility.yul\":19311:20080   */\n      pop\n      pop\n        /* \"#utility.yul\":19202:20080   */\n      swap3\n      swap2\n      pop\n      pop\n      jump\t// out\n        /* \"#utility.yul\":20086:20359   */\n    tag_101:\n        /* \"#utility.yul\":20217:20220   */\n      0x00\n        /* \"#utility.yul\":20239:20333   */\n      tag_359\n        /* \"#utility.yul\":20329:20332   */\n      dup3\n        /* \"#utility.yul\":20320:20326   */\n      dup5\n        /* \"#utility.yul\":20239:20333   */\n      tag_163\n      jump\t// in\n    tag_359:\n        /* \"#utility.yul\":20232:20333   */\n      swap2\n      pop\n        /* \"#utility.yul\":20350:20353   */\n      dup2\n        /* \"#utility.yul\":20343:20353   */\n      swap1\n      pop\n        /* \"#utility.yul\":20086:20359   */\n      swap3\n      swap2\n      pop\n      pop\n      jump\t// out\n\n    auxdata: 0xa264697066735822122040f147d77242eda5c808c3a8c89a65f94a8c9d2eb63e5dd30cc66b1e435d13f064736f6c634300081c0033\n}\n",
				"bytecode": {
					"linkReferences": {},
					"object": "60a0604052348015600e575f5ffd5b503373ffffffffffffffffffffffffffffffffffffffff1660808173ffffffffffffffffffffffffffffffffffffffff16815250506080516111e76100625f395f81816101a2015261042d01526111e75ff3fe608060405234801561000f575f5ffd5b506004361061007b575f3560e01c80638da5cb5b116100595780638da5cb5b146100fb5780639c7e843914610119578063a9a981a314610149578063fc36e15b146101675761007b565b806309eef43e1461007f578063462e91ec146100af578063805265e5146100cb575b5f5ffd5b61009960048036038101906100949190610817565b610183565b6040516100a6919061085c565b60405180910390f35b6100c960048036038101906100c491906108d6565b6101a0565b005b6100e560048036038101906100e091906108d6565b610376565b6040516100f29190610939565b60405180910390f35b61010361042b565b6040516101109190610961565b60405180910390f35b610133600480360381019061012e91906109a4565b61044f565b6040516101409190610a3f565b60405180910390f35b610151610540565b60405161015e9190610939565b60405180910390f35b610181600480360381019061017c91906108d6565b61054b565b005b6002602052805f5260405f205f915054906101000a900460ff1681565b7f000000000000000000000000000000000000000000000000000000000000000073ffffffffffffffffffffffffffffffffffffffff163373ffffffffffffffffffffffffffffffffffffffff161461022e576040517f08c379a000000000000000000000000000000000000000000000000000000000815260040161022590610aa9565b60405180910390fd5b5f8282905011610273576040517f08c379a000000000000000000000000000000000000000000000000000000000815260040161026a90610b11565b60405180910390fd5b6102bf82828080601f0160208091040260200160405190810160405280939291908181526020018383808284375f81840152601f19601f8201169050808301925050505050505061074a565b156102ff576040517f08c379a00000000000000000000000000000000000000000000000000000000081526004016102f690610b79565b60405180910390fd5b5f828290918060018154018082558091505060019003905f5260205f20015f909192909192909192909192509182610338929190610dcb565b507ff29562dad1599aea0ebb142466120aab326d5efa8f839df82a9c064bf78e8938828260405161036a929190610ed2565b60405180910390a15050565b5f6103c383838080601f0160208091040260200160405190810160405280939291908181526020018383808284375f81840152601f19601f8201169050808301925050505050505061074a565b610402576040517f08c379a00000000000000000000000000000000000000000000000000000000081526004016103f990610f3e565b60405180910390fd5b60018383604051610414929190610f8a565b908152602001604051809103902054905092915050565b7f000000000000000000000000000000000000000000000000000000000000000081565b60605f805490508210610497576040517f08c379a000000000000000000000000000000000000000000000000000000000815260040161048e90610fec565b60405180910390fd5b5f82815481106104aa576104a961100a565b5b905f5260205f200180546104bd90610bfb565b80601f01602080910402602001604051908101604052809291908181526020018280546104e990610bfb565b80156105345780601f1061050b57610100808354040283529160200191610534565b820191905f5260205f20905b81548152906001019060200180831161051757829003601f168201915b50505050509050919050565b5f5f80549050905090565b60025f3373ffffffffffffffffffffffffffffffffffffffff1673ffffffffffffffffffffffffffffffffffffffff1681526020019081526020015f205f9054906101000a900460ff16156105d5576040517f08c379a00000000000000000000000000000000000000000000000000000000081526004016105cc90611081565b60405180910390fd5b61062182828080601f0160208091040260200160405190810160405280939291908181526020018383808284375f81840152601f19601f8201169050808301925050505050505061074a565b610660576040517f08c379a000000000000000000000000000000000000000000000000000000000815260040161065790610f3e565b60405180910390fd5b6001808383604051610673929190610f8a565b90815260200160405180910390205f82825461068f91906110cc565b92505081905550600160025f3373ffffffffffffffffffffffffffffffffffffffff1673ffffffffffffffffffffffffffffffffffffffff1681526020019081526020015f205f6101000a81548160ff02191690831515021790555081816040516106fb929190610f8a565b60405180910390203373ffffffffffffffffffffffffffffffffffffffff167fcb6783276e8a4347387036bbfea000268f0a4b1f8c46ac79980609f2af8d2acd60405160405180910390a35050565b5f5f5b5f805490508110156107ab5782805190602001205f82815481106107745761077361100a565b5b905f5260205f2001604051610789919061119b565b6040518091039020036107a05760019150506107b0565b80600101905061074d565b505f90505b919050565b5f5ffd5b5f5ffd5b5f73ffffffffffffffffffffffffffffffffffffffff82169050919050565b5f6107e6826107bd565b9050919050565b6107f6816107dc565b8114610800575f5ffd5b50565b5f81359050610811816107ed565b92915050565b5f6020828403121561082c5761082b6107b5565b5b5f61083984828501610803565b91505092915050565b5f8115159050919050565b61085681610842565b82525050565b5f60208201905061086f5f83018461084d565b92915050565b5f5ffd5b5f5ffd5b5f5ffd5b5f5f83601f84011261089657610895610875565b5b8235905067ffffffffffffffff8111156108b3576108b2610879565b5b6020830191508360018202830111156108cf576108ce61087d565b5b9250929050565b5f5f602083850312156108ec576108eb6107b5565b5b5f83013567ffffffffffffffff811115610909576109086107b9565b5b61091585828601610881565b92509250509250929050565b5f819050919050565b61093381610921565b82525050565b5f60208201905061094c5f83018461092a565b92915050565b61095b816107dc565b82525050565b5f6020820190506109745f830184610952565b92915050565b61098381610921565b811461098d575f5ffd5b50565b5f8135905061099e8161097a565b92915050565b5f602082840312156109b9576109b86107b5565b5b5f6109c684828501610990565b91505092915050565b5f81519050919050565b5f82825260208201905092915050565b8281835e5f83830152505050565b5f601f19601f8301169050919050565b5f610a11826109cf565b610a1b81856109d9565b9350610a2b8185602086016109e9565b610a34816109f7565b840191505092915050565b5f6020820190508181035f830152610a578184610a07565b905092915050565b7f4e6f74206f776e657200000000000000000000000000000000000000000000005f82015250565b5f610a936009836109d9565b9150610a9e82610a5f565b602082019050919050565b5f6020820190508181035f830152610ac081610a87565b9050919050565b7f456d707479206e616d65000000000000000000000000000000000000000000005f82015250565b5f610afb600a836109d9565b9150610b0682610ac7565b602082019050919050565b5f6020820190508181035f830152610b2881610aef565b9050919050565b7f416c7265616479206164646564000000000000000000000000000000000000005f82015250565b5f610b63600d836109d9565b9150610b6e82610b2f565b602082019050919050565b5f6020820190508181035f830152610b9081610b57565b9050919050565b5f82905092915050565b7f4e487b71000000000000000000000000000000000000000000000000000000005f52604160045260245ffd5b7f4e487b71000000000000000000000000000000000000000000000000000000005f52602260045260245ffd5b5f6002820490506001821680610c1257607f821691505b602082108103610c2557610c24610bce565b5b50919050565b5f819050815f5260205f209050919050565b5f6020601f8301049050919050565b5f82821b905092915050565b5f60088302610c877fffffffffffffffffffffffffffffffffffffffffffffffffffffffffffffffff82610c4c565b610c918683610c4c565b95508019841693508086168417925050509392505050565b5f819050919050565b5f610ccc610cc7610cc284610921565b610ca9565b610921565b9050919050565b5f819050919050565b610ce583610cb2565b610cf9610cf182610cd3565b848454610c58565b825550505050565b5f5f905090565b610d10610d01565b610d1b818484610cdc565b505050565b5b81811015610d3e57610d335f82610d08565b600181019050610d21565b5050565b601f821115610d8357610d5481610c2b565b610d5d84610c3d565b81016020851015610d6c578190505b610d80610d7885610c3d565b830182610d20565b50505b505050565b5f82821c905092915050565b5f610da35f1984600802610d88565b1980831691505092915050565b5f610dbb8383610d94565b9150826002028217905092915050565b610dd58383610b97565b67ffffffffffffffff811115610dee57610ded610ba1565b5b610df88254610bfb565b610e03828285610d42565b5f601f831160018114610e30575f8415610e1e578287013590505b610e288582610db0565b865550610e8f565b601f198416610e3e86610c2b565b5f5b82811015610e6557848901358255600182019150602085019450602081019050610e40565b86831015610e825784890135610e7e601f891682610d94565b8355505b6001600288020188555050505b50505050505050565b828183375f83830152505050565b5f610eb183856109d9565b9350610ebe838584610e98565b610ec7836109f7565b840190509392505050565b5f6020820190508181035f830152610eeb818486610ea6565b90509392505050565b7f43616e646964617465206e6f7420666f756e64000000000000000000000000005f82015250565b5f610f286013836109d9565b9150610f3382610ef4565b602082019050919050565b5f6020820190508181035f830152610f5581610f1c565b9050919050565b5f81905092915050565b5f610f718385610f5c565b9350610f7e838584610e98565b82840190509392505050565b5f610f96828486610f66565b91508190509392505050565b7f4f7574206f662072616e676500000000000000000000000000000000000000005f82015250565b5f610fd6600c836109d9565b9150610fe182610fa2565b602082019050919050565b5f6020820190508181035f83015261100381610fca565b9050919050565b7f4e487b71000000000000000000000000000000000000000000000000000000005f52603260045260245ffd5b7f416c726561647920766f746564000000000000000000000000000000000000005f82015250565b5f61106b600d836109d9565b915061107682611037565b602082019050919050565b5f6020820190508181035f8301526110988161105f565b9050919050565b7f4e487b71000000000000000000000000000000000000000000000000000000005f52601160045260245ffd5b5f6110d682610921565b91506110e183610921565b92508282019050808211156110f9576110f861109f565b5b92915050565b5f81905092915050565b5f819050815f5260205f209050919050565b5f815461112781610bfb565b61113181866110ff565b9450600182165f811461114b576001811461116057611192565b60ff1983168652811515820286019350611192565b61116985611109565b5f5b8381101561118a5781548189015260018201915060208101905061116b565b838801955050505b50505092915050565b5f6111a6828461111b565b91508190509291505056fea264697066735822122040f147d77242eda5c808c3a8c89a65f94a8c9d2eb63e5dd30cc66b1e435d13f064736f6c634300081c0033",
					"opcodes": "PUSH1 0xA0 PUSH1 0x40 MSTORE CALLVALUE DUP1 ISZERO PUSH1 0xE JUMPI PUSH0 PUSH0 REVERT JUMPDEST POP CALLER PUSH20 0xFFFFFFFFFFFFFFFFFFFFFFFFFFFFFFFFFFFFFFFF AND PUSH1 0x80 DUP2 PUSH20 0xFFFFFFFFFFFFFFFFFFFFFFFFFFFFFFFFFFFFFFFF AND DUP2 MSTORE POP POP PUSH1 0x80 MLOAD PUSH2 0x11E7 PUSH2 0x62 PUSH0 CODECOPY PUSH0 DUP2 DUP2 PUSH2 0x1A2 ADD MSTORE PUSH2 0x42D ADD MSTORE PUSH2 0x11E7 PUSH0 RETURN INVALID PUSH1 0x80 PUSH1 0x40 MSTORE CALLVALUE DUP1 ISZERO PUSH2 0xF JUMPI PUSH0 PUSH0 REVERT JUMPDEST POP PUSH1 0x4 CALLDATASIZE LT PUSH2 0x7B JUMPI PUSH0 CALLDATALOAD PUSH1 0xE0 SHR DUP1 PUSH4 0x8DA5CB5B GT PUSH2 0x59 JUMPI DUP1 PUSH4 0x8DA5CB5B EQ PUSH2 0xFB JUMPI DUP1 PUSH4 0x9C7E8439 EQ PUSH2 0x119 JUMPI DUP1 PUSH4 0xA9A981A3 EQ PUSH2 0x149 JUMPI DUP1 PUSH4 0xFC36E15B EQ PUSH2 0x167 JUMPI PUSH2 0x7B JUMP JUMPDEST DUP1 PUSH4 0x9EEF43E EQ PUSH2 0x7F JUMPI DUP1 PUSH4 0x462E91EC EQ PUSH2 0xAF JUMPI DUP1 PUSH4 0x805265E5 EQ PUSH2 0xCB JUMPI JUMPDEST PUSH0 PUSH0 REVERT JUMPDEST PUSH2 0x99 PUSH1 0x4 DUP1 CALLDATASIZE SUB DUP2 ADD SWAP1 PUSH2 0x94 SWAP2 SWAP1 PUSH2 0x817 JUMP JUMPDEST PUSH2 0x183 JUMP JUMPDEST PUSH1 0x40 MLOAD PUSH2 0xA6 SWAP2 SWAP1 PUSH2 0x85C JUMP JUMPDEST PUSH1 0x40 MLOAD DUP1 SWAP2 SUB SWAP1 RETURN JUMPDEST PUSH2 0xC9 PUSH1 0x4 DUP1 CALLDATASIZE SUB DUP2 ADD SWAP1 PUSH2 0xC4 SWAP2 SWAP1 PUSH2 0x8D6 JUMP JUMPDEST PUSH2 0x1A0 JUMP JUMPDEST STOP JUMPDEST PUSH2 0xE5 PUSH1 0x4 DUP1 CALLDATASIZE SUB DUP2 ADD SWAP1 PUSH2 0xE0 SWAP2 SWAP1 PUSH2 0x8D6 JUMP JUMPDEST PUSH2 0x376 JUMP JUMPDEST PUSH1 0x40 MLOAD PUSH2 0xF2 SWAP2 SWAP1 PUSH2 0x939 JUMP JUMPDEST PUSH1 0x40 MLOAD DUP1 SWAP2 SUB SWAP1 RETURN JUMPDEST PUSH2 0x103 PUSH2 0x42B JUMP JUMPDEST PUSH1 0x40 MLOAD PUSH2 0x110 SWAP2 SWAP1 PUSH2 0x961 JUMP JUMPDEST PUSH1 0x40 MLOAD DUP1 SWAP2 SUB SWAP1 RETURN JUMPDEST PUSH2 0x133 PUSH1 0x4 DUP1 CALLDATASIZE SUB DUP2 ADD SWAP1 PUSH2 0x12E SWAP2 SWAP1 PUSH2 0x9A4 JUMP JUMPDEST PUSH2 0x44F JUMP JUMPDEST PUSH1 0x40 MLOAD PUSH2 0x140 SWAP2 SWAP1 PUSH2 0xA3F JUMP JUMPDEST PUSH1 0x40 MLOAD DUP1 SWAP2 SUB SWAP1 RETURN JUMPDEST PUSH2 0x151 PUSH2 0x540 JUMP JUMPDEST PUSH1 0x40 MLOAD PUSH2 0x15E SWAP2 SWAP1 PUSH2 0x939 JUMP JUMPDEST PUSH1 0x40 MLOAD DUP1 SWAP2 SUB SWAP1 RETURN JUMPDEST PUSH2 0x181 PUSH1 0x4 DUP1 CALLDATASIZE SUB DUP2 ADD SWAP1 PUSH2 0x17C SWAP2 SWAP1 PUSH2 0x8D6 JUMP JUMPDEST PUSH2 0x54B JUMP JUMPDEST STOP JUMPDEST PUSH1 0x2 PUSH1 0x20 MSTORE DUP1 PUSH0 MSTORE PUSH1 0x40 PUSH0 KECCAK256 PUSH0 SWAP2 POP SLOAD SWAP1 PUSH2 0x100 EXP SWAP1 DIV PUSH1 0xFF AND DUP2 JUMP JUMPDEST PUSH32 0x0 PUSH20 0xFFFFFFFFFFFFFFFFFFFFFFFFFFFFFFFFFFFFFFFF AND CALLER PUSH20 0xFFFFFFFFFFFFFFFFFFFFFFFFFFFFFFFFFFFFFFFF AND EQ PUSH2 0x22E JUMPI PUSH1 0x40 MLOAD PUSH32 0x8C379A000000000000000000000000000000000000000000000000000000000 DUP2 MSTORE PUSH1 0x4 ADD PUSH2 0x225 SWAP1 PUSH2 0xAA9 JUMP JUMPDEST PUSH1 0x40 MLOAD DUP1 SWAP2 SUB SWAP1 REVERT JUMPDEST PUSH0 DUP3 DUP3 SWAP1 POP GT PUSH2 0x273 JUMPI PUSH1 0x40 MLOAD PUSH32 0x8C379A000000000000000000000000000000000000000000000000000000000 DUP2 MSTORE PUSH1 0x4 ADD PUSH2 0x26A SWAP1 PUSH2 0xB11 JUMP JUMPDEST PUSH1 0x40 MLOAD DUP1 SWAP2 SUB SWAP1 REVERT JUMPDEST PUSH2 0x2BF DUP3 DUP3 DUP1 DUP1 PUSH1 0x1F ADD PUSH1 0x20 DUP1 SWAP2 DIV MUL PUSH1 0x20 ADD PUSH1 0x40 MLOAD SWAP1 DUP2 ADD PUSH1 0x40 MSTORE DUP1 SWAP4 SWAP3 SWAP2 SWAP1 DUP2 DUP2 MSTORE PUSH1 0x20 ADD DUP4 DUP4 DUP1 DUP3 DUP5 CALLDATACOPY PUSH0 DUP2 DUP5 ADD MSTORE PUSH1 0x1F NOT PUSH1 0x1F DUP3 ADD AND SWAP1 POP DUP1 DUP4 ADD SWAP3 POP POP POP POP POP POP POP PUSH2 0x74A JUMP JUMPDEST ISZERO PUSH2 0x2FF JUMPI PUSH1 0x40 MLOAD PUSH32 0x8C379A000000000000000000000000000000000000000000000000000000000 DUP2 MSTORE PUSH1 0x4 ADD PUSH2 0x2F6 SWAP1 PUSH2 0xB79 JUMP JUMPDEST PUSH1 0x40 MLOAD DUP1 SWAP2 SUB SWAP1 REVERT JUMPDEST PUSH0 DUP3 DUP3 SWAP1 SWAP2 DUP1 PUSH1 0x1 DUP2 SLOAD ADD DUP1 DUP3 SSTORE DUP1 SWAP2 POP POP PUSH1 0x1 SWAP1 SUB SWAP1 PUSH0 MSTORE PUSH1 0x20 PUSH0 KECCAK256 ADD PUSH0 SWAP1 SWAP2 SWAP3 SWAP1 SWAP2 SWAP3 SWAP1 SWAP2 SWAP3 SWAP1 SWAP2 SWAP3 POP SWAP2 DUP3 PUSH2 0x338 SWAP3 SWAP2 SWAP1 PUSH2 0xDCB JUMP JUMPDEST POP PUSH32 0xF29562DAD1599AEA0EBB142466120AAB326D5EFA8F839DF82A9C064BF78E8938 DUP3 DUP3 PUSH1 0x40 MLOAD PUSH2 0x36A SWAP3 SWAP2 SWAP1 PUSH2 0xED2 JUMP JUMPDEST PUSH1 0x40 MLOAD DUP1 SWAP2 SUB SWAP1 LOG1 POP POP JUMP JUMPDEST PUSH0 PUSH2 0x3C3 DUP4 DUP4 DUP1 DUP1 PUSH1 0x1F ADD PUSH1 0x20 DUP1 SWAP2 DIV MUL PUSH1 0x20 ADD PUSH1 0x40 MLOAD SWAP1 DUP2 ADD PUSH1 0x40 MSTORE DUP1 SWAP4 SWAP3 SWAP2 SWAP1 DUP2 DUP2 MSTORE PUSH1 0x20 ADD DUP4 DUP4 DUP1 DUP3 DUP5 CALLDATACOPY PUSH0 DUP2 DUP5 ADD MSTORE PUSH1 0x1F NOT PUSH1 0x1F DUP3 ADD AND SWAP1 POP DUP1 DUP4 ADD SWAP3 POP POP POP POP POP POP POP PUSH2 0x74A JUMP JUMPDEST PUSH2 0x402 JUMPI PUSH1 0x40 MLOAD PUSH32 0x8C379A000000000000000000000000000000000000000000000000000000000 DUP2 MSTORE PUSH1 0x4 ADD PUSH2 0x3F9 SWAP1 PUSH2 0xF3E JUMP JUMPDEST PUSH1 0x40 MLOAD DUP1 SWAP2 SUB SWAP1 REVERT JUMPDEST PUSH1 0x1 DUP4 DUP4 PUSH1 0x40 MLOAD PUSH2 0x414 SWAP3 SWAP2 SWAP1 PUSH2 0xF8A JUMP JUMPDEST SWAP1 DUP2 MSTORE PUSH1 0x20 ADD PUSH1 0x40 MLOAD DUP1 SWAP2 SUB SWAP1 KECCAK256 SLOAD SWAP1 POP SWAP3 SWAP2 POP POP JUMP JUMPDEST PUSH32 0x0 DUP2 JUMP JUMPDEST PUSH1 0x60 PUSH0 DUP1 SLOAD SWAP1 POP DUP3 LT PUSH2 0x497 JUMPI PUSH1 0x40 MLOAD PUSH32 0x8C379A000000000000000000000000000000000000000000000000000000000 DUP2 MSTORE PUSH1 0x4 ADD PUSH2 0x48E SWAP1 PUSH2 0xFEC JUMP JUMPDEST PUSH1 0x40 MLOAD DUP1 SWAP2 SUB SWAP1 REVERT JUMPDEST PUSH0 DUP3 DUP2 SLOAD DUP2 LT PUSH2 0x4AA JUMPI PUSH2 0x4A9 PUSH2 0x100A JUMP JUMPDEST JUMPDEST SWAP1 PUSH0 MSTORE PUSH1 0x20 PUSH0 KECCAK256 ADD DUP1 SLOAD PUSH2 0x4BD SWAP1 PUSH2 0xBFB JUMP JUMPDEST DUP1 PUSH1 0x1F ADD PUSH1 0x20 DUP1 SWAP2 DIV MUL PUSH1 0x20 ADD PUSH1 0x40 MLOAD SWAP1 DUP2 ADD PUSH1 0x40 MSTORE DUP1 SWAP3 SWAP2 SWAP1 DUP2 DUP2 MSTORE PUSH1 0x20 ADD DUP3 DUP1 SLOAD PUSH2 0x4E9 SWAP1 PUSH2 0xBFB JUMP JUMPDEST DUP1 ISZERO PUSH2 0x534 JUMPI DUP1 PUSH1 0x1F LT PUSH2 0x50B JUMPI PUSH2 0x100 DUP1 DUP4 SLOAD DIV MUL DUP4 MSTORE SWAP2 PUSH1 0x20 ADD SWAP2 PUSH2 0x534 JUMP JUMPDEST DUP3 ADD SWAP2 SWAP1 PUSH0 MSTORE PUSH1 0x20 PUSH0 KECCAK256 SWAP1 JUMPDEST DUP2 SLOAD DUP2 MSTORE SWAP1 PUSH1 0x1 ADD SWAP1 PUSH1 0x20 ADD DUP1 DUP4 GT PUSH2 0x517 JUMPI DUP3 SWAP1 SUB PUSH1 0x1F AND DUP3 ADD SWAP2 JUMPDEST POP POP POP POP POP SWAP1 POP SWAP2 SWAP1 POP JUMP JUMPDEST PUSH0 PUSH0 DUP1 SLOAD SWAP1 POP SWAP1 POP SWAP1 JUMP JUMPDEST PUSH1 0x2 PUSH0 CALLER PUSH20 0xFFFFFFFFFFFFFFFFFFFFFFFFFFFFFFFFFFFFFFFF AND PUSH20 0xFFFFFFFFFFFFFFFFFFFFFFFFFFFFFFFFFFFFFFFF AND DUP2 MSTORE PUSH1 0x20 ADD SWAP1 DUP2 MSTORE PUSH1 0x20 ADD PUSH0 KECCAK256 PUSH0 SWAP1 SLOAD SWAP1 PUSH2 0x100 EXP SWAP1 DIV PUSH1 0xFF AND ISZERO PUSH2 0x5D5 JUMPI PUSH1 0x40 MLOAD PUSH32 0x8C379A000000000000000000000000000000000000000000000000000000000 DUP2 MSTORE PUSH1 0x4 ADD PUSH2 0x5CC SWAP1 PUSH2 0x1081 JUMP JUMPDEST PUSH1 0x40 MLOAD DUP1 SWAP2 SUB SWAP1 REVERT JUMPDEST PUSH2 0x621 DUP3 DUP3 DUP1 DUP1 PUSH1 0x1F ADD PUSH1 0x20 DUP1 SWAP2 DIV MUL PUSH1 0x20 ADD PUSH1 0x40 MLOAD SWAP1 DUP2 ADD PUSH1 0x40 MSTORE DUP1 SWAP4 SWAP3 SWAP2 SWAP1 DUP2 DUP2 MSTORE PUSH1 0x20 ADD DUP4 DUP4 DUP1 DUP3 DUP5 CALLDATACOPY PUSH0 DUP2 DUP5 ADD MSTORE PUSH1 0x1F NOT PUSH1 0x1F DUP3 ADD AND SWAP1 POP DUP1 DUP4 ADD SWAP3 POP POP POP POP POP POP POP PUSH2 0x74A JUMP JUMPDEST PUSH2 0x660 JUMPI PUSH1 0x40 MLOAD PUSH32 0x8C379A000000000000000000000000000000000000000000000000000000000 DUP2 MSTORE PUSH1 0x4 ADD PUSH2 0x657 SWAP1 PUSH2 0xF3E JUMP JUMPDEST PUSH1 0x40 MLOAD DUP1 SWAP2 SUB SWAP1 REVERT JUMPDEST PUSH1 0x1 DUP1 DUP4 DUP4 PUSH1 0x40 MLOAD PUSH2 0x673 SWAP3 SWAP2 SWAP1 PUSH2 0xF8A JUMP JUMPDEST SWAP1 DUP2 MSTORE PUSH1 0x20 ADD PUSH1 0x40 MLOAD DUP1 SWAP2 SUB SWAP1 KECCAK256 PUSH0 DUP3 DUP3 SLOAD PUSH2 0x68F SWAP2 SWAP1 PUSH2 0x10CC JUMP JUMPDEST SWAP3 POP POP DUP2 SWAP1 SSTORE POP PUSH1 0x1 PUSH1 0x2 PUSH0 CALLER PUSH20 0xFFFFFFFFFFFFFFFFFFFFFFFFFFFFFFFFFFFFFFFF AND PUSH20 0xFFFFFFFFFFFFFFFFFFFFFFFFFFFFFFFFFFFFFFFF AND DUP2 MSTORE PUSH1 0x20 ADD SWAP1 DUP2 MSTORE PUSH1 0x20 ADD PUSH0 KECCAK256 PUSH0 PUSH2 0x100 EXP DUP2 SLOAD DUP2 PUSH1 0xFF MUL NOT AND SWAP1 DUP4 ISZERO ISZERO MUL OR SWAP1 SSTORE POP DUP2 DUP2 PUSH1 0x40 MLOAD PUSH2 0x6FB SWAP3 SWAP2 SWAP1 PUSH2 0xF8A JUMP JUMPDEST PUSH1 0x40 MLOAD DUP1 SWAP2 SUB SWAP1 KECCAK256 CALLER PUSH20 0xFFFFFFFFFFFFFFFFFFFFFFFFFFFFFFFFFFFFFFFF AND PUSH32 0xCB6783276E8A4347387036BBFEA000268F0A4B1F8C46AC79980609F2AF8D2ACD PUSH1 0x40 MLOAD PUSH1 0x40 MLOAD DUP1 SWAP2 SUB SWAP1 LOG3 POP POP JUMP JUMPDEST PUSH0 PUSH0 JUMPDEST PUSH0 DUP1 SLOAD SWAP1 POP DUP2 LT ISZERO PUSH2 0x7AB JUMPI DUP3 DUP1 MLOAD SWAP1 PUSH1 0x20 ADD KECCAK256 PUSH0 DUP3 DUP2 SLOAD DUP2 LT PUSH2 0x774 JUMPI PUSH2 0x773 PUSH2 0x100A JUMP JUMPDEST JUMPDEST SWAP1 PUSH0 MSTORE PUSH1 0x20 PUSH0 KECCAK256 ADD PUSH1 0x40 MLOAD PUSH2 0x789 SWAP2 SWAP1 PUSH2 0x119B JUMP JUMPDEST PUSH1 0x40 MLOAD DUP1 SWAP2 SUB SWAP1 KECCAK256 SUB PUSH2 0x7A0 JUMPI PUSH1 0x1 SWAP2 POP POP PUSH2 0x7B0 JUMP JUMPDEST DUP1 PUSH1 0x1 ADD SWAP1 POP PUSH2 0x74D JUMP JUMPDEST POP PUSH0 SWAP1 POP JUMPDEST SWAP2 SWAP1 POP JUMP JUMPDEST PUSH0 PUSH0 REVERT JUMPDEST PUSH0 PUSH0 REVERT JUMPDEST PUSH0 PUSH20 0xFFFFFFFFFFFFFFFFFFFFFFFFFFFFFFFFFFFFFFFF DUP3 AND SWAP1 POP SWAP2 SWAP1 POP JUMP JUMPDEST PUSH0 PUSH2 0x7E6 DUP3 PUSH2 0x7BD JUMP JUMPDEST SWAP1 POP SWAP2 SWAP1 POP JUMP JUMPDEST PUSH2 0x7F6 DUP2 PUSH2 0x7DC JUMP JUMPDEST DUP2 EQ PUSH2 0x800 JUMPI PUSH0 PUSH0 REVERT JUMPDEST POP JUMP JUMPDEST PUSH0 DUP2 CALLDATALOAD SWAP1 POP PUSH2 0x811 DUP2 PUSH2 0x7ED JUMP JUMPDEST SWAP3 SWAP2 POP POP JUMP JUMPDEST PUSH0 PUSH1 0x20 DUP3 DUP5 SUB SLT ISZERO PUSH2 0x82C JUMPI PUSH2 0x82B PUSH2 0x7B5 JUMP JUMPDEST JUMPDEST PUSH0 PUSH2 0x839 DUP5 DUP3 DUP6 ADD PUSH2 0x803 JUMP JUMPDEST SWAP2 POP POP SWAP3 SWAP2 POP POP JUMP JUMPDEST PUSH0 DUP2 ISZERO ISZERO SWAP1 POP SWAP2 SWAP1 POP JUMP JUMPDEST PUSH2 0x856 DUP2 PUSH2 0x842 JUMP JUMPDEST DUP3 MSTORE POP POP JUMP JUMPDEST PUSH0 PUSH1 0x20 DUP3 ADD SWAP1 POP PUSH2 0x86F PUSH0 DUP4 ADD DUP5 PUSH2 0x84D JUMP JUMPDEST SWAP3 SWAP2 POP POP JUMP JUMPDEST PUSH0 PUSH0 REVERT JUMPDEST PUSH0 PUSH0 REVERT JUMPDEST PUSH0 PUSH0 REVERT JUMPDEST PUSH0 PUSH0 DUP4 PUSH1 0x1F DUP5 ADD SLT PUSH2 0x896 JUMPI PUSH2 0x895 PUSH2 0x875 JUMP JUMPDEST JUMPDEST DUP3 CALLDATALOAD SWAP1 POP PUSH8 0xFFFFFFFFFFFFFFFF DUP2 GT ISZERO PUSH2 0x8B3 JUMPI PUSH2 0x8B2 PUSH2 0x879 JUMP JUMPDEST JUMPDEST PUSH1 0x20 DUP4 ADD SWAP2 POP DUP4 PUSH1 0x1 DUP3 MUL DUP4 ADD GT ISZERO PUSH2 0x8CF JUMPI PUSH2 0x8CE PUSH2 0x87D JUMP JUMPDEST JUMPDEST SWAP3 POP SWAP3 SWAP1 POP JUMP JUMPDEST PUSH0 PUSH0 PUSH1 0x20 DUP4 DUP6 SUB SLT ISZERO PUSH2 0x8EC JUMPI PUSH2 0x8EB PUSH2 0x7B5 JUMP JUMPDEST JUMPDEST PUSH0 DUP4 ADD CALLDATALOAD PUSH8 0xFFFFFFFFFFFFFFFF DUP2 GT ISZERO PUSH2 0x909 JUMPI PUSH2 0x908 PUSH2 0x7B9 JUMP JUMPDEST JUMPDEST PUSH2 0x915 DUP6 DUP3 DUP7 ADD PUSH2 0x881 JUMP JUMPDEST SWAP3 POP SWAP3 POP POP SWAP3 POP SWAP3 SWAP1 POP JUMP JUMPDEST PUSH0 DUP2 SWAP1 POP SWAP2 SWAP1 POP JUMP JUMPDEST PUSH2 0x933 DUP2 PUSH2 0x921 JUMP JUMPDEST DUP3 MSTORE POP POP JUMP JUMPDEST PUSH0 PUSH1 0x20 DUP3 ADD SWAP1 POP PUSH2 0x94C PUSH0 DUP4 ADD DUP5 PUSH2 0x92A JUMP JUMPDEST SWAP3 SWAP2 POP POP JUMP JUMPDEST PUSH2 0x95B DUP2 PUSH2 0x7DC JUMP JUMPDEST DUP3 MSTORE POP POP JUMP JUMPDEST PUSH0 PUSH1 0x20 DUP3 ADD SWAP1 POP PUSH2 0x974 PUSH0 DUP4 ADD DUP5 PUSH2 0x952 JUMP JUMPDEST SWAP3 SWAP2 POP POP JUMP JUMPDEST PUSH2 0x983 DUP2 PUSH2 0x921 JUMP JUMPDEST DUP2 EQ PUSH2 0x98D JUMPI PUSH0 PUSH0 REVERT JUMPDEST POP JUMP JUMPDEST PUSH0 DUP2 CALLDATALOAD SWAP1 POP PUSH2 0x99E DUP2 PUSH2 0x97A JUMP JUMPDEST SWAP3 SWAP2 POP POP JUMP JUMPDEST PUSH0 PUSH1 0x20 DUP3 DUP5 SUB SLT ISZERO PUSH2 0x9B9 JUMPI PUSH2 0x9B8 PUSH2 0x7B5 JUMP JUMPDEST JUMPDEST PUSH0 PUSH2 0x9C6 DUP5 DUP3 DUP6 ADD PUSH2 0x990 JUMP JUMPDEST SWAP2 POP POP SWAP3 SWAP2 POP POP JUMP JUMPDEST PUSH0 DUP2 MLOAD SWAP1 POP SWAP2 SWAP1 POP JUMP JUMPDEST PUSH0 DUP3 DUP3 MSTORE PUSH1 0x20 DUP3 ADD SWAP1 POP SWAP3 SWAP2 POP POP JUMP JUMPDEST DUP3 DUP2 DUP4 MCOPY PUSH0 DUP4 DUP4 ADD MSTORE POP POP POP JUMP JUMPDEST PUSH0 PUSH1 0x1F NOT PUSH1 0x1F DUP4 ADD AND SWAP1 POP SWAP2 SWAP1 POP JUMP JUMPDEST PUSH0 PUSH2 0xA11 DUP3 PUSH2 0x9CF JUMP JUMPDEST PUSH2 0xA1B DUP2 DUP6 PUSH2 0x9D9 JUMP JUMPDEST SWAP4 POP PUSH2 0xA2B DUP2 DUP6 PUSH1 0x20 DUP7 ADD PUSH2 0x9E9 JUMP JUMPDEST PUSH2 0xA34 DUP2 PUSH2 0x9F7 JUMP JUMPDEST DUP5 ADD SWAP2 POP POP SWAP3 SWAP2 POP POP JUMP JUMPDEST PUSH0 PUSH1 0x20 DUP3 ADD SWAP1 POP DUP2 DUP2 SUB PUSH0 DUP4 ADD MSTORE PUSH2 0xA57 DUP2 DUP5 PUSH2 0xA07 JUMP JUMPDEST SWAP1 POP SWAP3 SWAP2 POP POP JUMP JUMPDEST PUSH32 0x4E6F74206F776E65720000000000000000000000000000000000000000000000 PUSH0 DUP3 ADD MSTORE POP JUMP JUMPDEST PUSH0 PUSH2 0xA93 PUSH1 0x9 DUP4 PUSH2 0x9D9 JUMP JUMPDEST SWAP2 POP PUSH2 0xA9E DUP3 PUSH2 0xA5F JUMP JUMPDEST PUSH1 0x20 DUP3 ADD SWAP1 POP SWAP2 SWAP1 POP JUMP JUMPDEST PUSH0 PUSH1 0x20 DUP3 ADD SWAP1 POP DUP2 DUP2 SUB PUSH0 DUP4 ADD MSTORE PUSH2 0xAC0 DUP2 PUSH2 0xA87 JUMP JUMPDEST SWAP1 POP SWAP2 SWAP1 POP JUMP JUMPDEST PUSH32 0x456D707479206E616D6500000000000000000000000000000000000000000000 PUSH0 DUP3 ADD MSTORE POP JUMP JUMPDEST PUSH0 PUSH2 0xAFB PUSH1 0xA DUP4 PUSH2 0x9D9 JUMP JUMPDEST SWAP2 POP PUSH2 0xB06 DUP3 PUSH2 0xAC7 JUMP JUMPDEST PUSH1 0x20 DUP3 ADD SWAP1 POP SWAP2 SWAP1 POP JUMP JUMPDEST PUSH0 PUSH1 0x20 DUP3 ADD SWAP1 POP DUP2 DUP2 SUB PUSH0 DUP4 ADD MSTORE PUSH2 0xB28 DUP2 PUSH2 0xAEF JUMP JUMPDEST SWAP1 POP SWAP2 SWAP1 POP JUMP JUMPDEST PUSH32 0x416C726561647920616464656400000000000000000000000000000000000000 PUSH0 DUP3 ADD MSTORE POP JUMP JUMPDEST PUSH0 PUSH2 0xB63 PUSH1 0xD DUP4 PUSH2 0x9D9 JUMP JUMPDEST SWAP2 POP PUSH2 0xB6E DUP3 PUSH2 0xB2F JUMP JUMPDEST PUSH1 0x20 DUP3 ADD SWAP1 POP SWAP2 SWAP1 POP JUMP JUMPDEST PUSH0 PUSH1 0x20 DUP3 ADD SWAP1 POP DUP2 DUP2 SUB PUSH0 DUP4 ADD MSTORE PUSH2 0xB90 DUP2 PUSH2 0xB57 JUMP JUMPDEST SWAP1 POP SWAP2 SWAP1 POP JUMP JUMPDEST PUSH0 DUP3 SWAP1 POP SWAP3 SWAP2 POP POP JUMP JUMPDEST PUSH32 0x4E487B7100000000000000000000000000000000000000000000000000000000 PUSH0 MSTORE PUSH1 0x41 PUSH1 0x4 MSTORE PUSH1 0x24 PUSH0 REVERT JUMPDEST PUSH32 0x4E487B7100000000000000000000000000000000000000000000000000000000 PUSH0 MSTORE PUSH1 0x22 PUSH1 0x4 MSTORE PUSH1 0x24 PUSH0 REVERT JUMPDEST PUSH0 PUSH1 0x2 DUP3 DIV SWAP1 POP PUSH1 0x1 DUP3 AND DUP1 PUSH2 0xC12 JUMPI PUSH1 0x7F DUP3 AND SWAP2 POP JUMPDEST PUSH1 0x20 DUP3 LT DUP2 SUB PUSH2 0xC25 JUMPI PUSH2 0xC24 PUSH2 0xBCE JUMP JUMPDEST JUMPDEST POP SWAP2 SWAP1 POP JUMP JUMPDEST PUSH0 DUP2 SWAP1 POP DUP2 PUSH0 MSTORE PUSH1 0x20 PUSH0 KECCAK256 SWAP1 POP SWAP2 SWAP1 POP JUMP JUMPDEST PUSH0 PUSH1 0x20 PUSH1 0x1F DUP4 ADD DIV SWAP1 POP SWAP2 SWAP1 POP JUMP JUMPDEST PUSH0 DUP3 DUP3 SHL SWAP1 POP SWAP3 SWAP2 POP POP JUMP JUMPDEST PUSH0 PUSH1 0x8 DUP4 MUL PUSH2 0xC87 PUSH32 0xFFFFFFFFFFFFFFFFFFFFFFFFFFFFFFFFFFFFFFFFFFFFFFFFFFFFFFFFFFFFFFFF DUP3 PUSH2 0xC4C JUMP JUMPDEST PUSH2 0xC91 DUP7 DUP4 PUSH2 0xC4C JUMP JUMPDEST SWAP6 POP DUP1 NOT DUP5 AND SWAP4 POP DUP1 DUP7 AND DUP5 OR SWAP3 POP POP POP SWAP4 SWAP3 POP POP POP JUMP JUMPDEST PUSH0 DUP2 SWAP1 POP SWAP2 SWAP1 POP JUMP JUMPDEST PUSH0 PUSH2 0xCCC PUSH2 0xCC7 PUSH2 0xCC2 DUP5 PUSH2 0x921 JUMP JUMPDEST PUSH2 0xCA9 JUMP JUMPDEST PUSH2 0x921 JUMP JUMPDEST SWAP1 POP SWAP2 SWAP1 POP JUMP JUMPDEST PUSH0 DUP2 SWAP1 POP SWAP2 SWAP1 POP JUMP JUMPDEST PUSH2 0xCE5 DUP4 PUSH2 0xCB2 JUMP JUMPDEST PUSH2 0xCF9 PUSH2 0xCF1 DUP3 PUSH2 0xCD3 JUMP JUMPDEST DUP5 DUP5 SLOAD PUSH2 0xC58 JUMP JUMPDEST DUP3 SSTORE POP POP POP POP JUMP JUMPDEST PUSH0 PUSH0 SWAP1 POP SWAP1 JUMP JUMPDEST PUSH2 0xD10 PUSH2 0xD01 JUMP JUMPDEST PUSH2 0xD1B DUP2 DUP5 DUP5 PUSH2 0xCDC JUMP JUMPDEST POP POP POP JUMP JUMPDEST JUMPDEST DUP2 DUP2 LT ISZERO PUSH2 0xD3E JUMPI PUSH2 0xD33 PUSH0 DUP3 PUSH2 0xD08 JUMP JUMPDEST PUSH1 0x1 DUP2 ADD SWAP1 POP PUSH2 0xD21 JUMP JUMPDEST POP POP JUMP JUMPDEST PUSH1 0x1F DUP3 GT ISZERO PUSH2 0xD83 JUMPI PUSH2 0xD54 DUP2 PUSH2 0xC2B JUMP JUMPDEST PUSH2 0xD5D DUP5 PUSH2 0xC3D JUMP JUMPDEST DUP2 ADD PUSH1 0x20 DUP6 LT ISZERO PUSH2 0xD6C JUMPI DUP2 SWAP1 POP JUMPDEST PUSH2 0xD80 PUSH2 0xD78 DUP6 PUSH2 0xC3D JUMP JUMPDEST DUP4 ADD DUP3 PUSH2 0xD20 JUMP JUMPDEST POP POP JUMPDEST POP POP POP JUMP JUMPDEST PUSH0 DUP3 DUP3 SHR SWAP1 POP SWAP3 SWAP2 POP POP JUMP JUMPDEST PUSH0 PUSH2 0xDA3 PUSH0 NOT DUP5 PUSH1 0x8 MUL PUSH2 0xD88 JUMP JUMPDEST NOT DUP1 DUP4 AND SWAP2 POP POP SWAP3 SWAP2 POP POP JUMP JUMPDEST PUSH0 PUSH2 0xDBB DUP4 DUP4 PUSH2 0xD94 JUMP JUMPDEST SWAP2 POP DUP3 PUSH1 0x2 MUL DUP3 OR SWAP1 POP SWAP3 SWAP2 POP POP JUMP JUMPDEST PUSH2 0xDD5 DUP4 DUP4 PUSH2 0xB97 JUMP JUMPDEST PUSH8 0xFFFFFFFFFFFFFFFF DUP2 GT ISZERO PUSH2 0xDEE JUMPI PUSH2 0xDED PUSH2 0xBA1 JUMP JUMPDEST JUMPDEST PUSH2 0xDF8 DUP3 SLOAD PUSH2 0xBFB JUMP JUMPDEST PUSH2 0xE03 DUP3 DUP3 DUP6 PUSH2 0xD42 JUMP JUMPDEST PUSH0 PUSH1 0x1F DUP4 GT PUSH1 0x1 DUP2 EQ PUSH2 0xE30 JUMPI PUSH0 DUP5 ISZERO PUSH2 0xE1E JUMPI DUP3 DUP8 ADD CALLDATALOAD SWAP1 POP JUMPDEST PUSH2 0xE28 DUP6 DUP3 PUSH2 0xDB0 JUMP JUMPDEST DUP7 SSTORE POP PUSH2 0xE8F JUMP JUMPDEST PUSH1 0x1F NOT DUP5 AND PUSH2 0xE3E DUP7 PUSH2 0xC2B JUMP JUMPDEST PUSH0 JUMPDEST DUP3 DUP2 LT ISZERO PUSH2 0xE65 JUMPI DUP5 DUP10 ADD CALLDATALOAD DUP3 SSTORE PUSH1 0x1 DUP3 ADD SWAP2 POP PUSH1 0x20 DUP6 ADD SWAP5 POP PUSH1 0x20 DUP2 ADD SWAP1 POP PUSH2 0xE40 JUMP JUMPDEST DUP7 DUP4 LT ISZERO PUSH2 0xE82 JUMPI DUP5 DUP10 ADD CALLDATALOAD PUSH2 0xE7E PUSH1 0x1F DUP10 AND DUP3 PUSH2 0xD94 JUMP JUMPDEST DUP4 SSTORE POP JUMPDEST PUSH1 0x1 PUSH1 0x2 DUP9 MUL ADD DUP9 SSTORE POP POP POP JUMPDEST POP POP POP POP POP POP POP JUMP JUMPDEST DUP3 DUP2 DUP4 CALLDATACOPY PUSH0 DUP4 DUP4 ADD MSTORE POP POP POP JUMP JUMPDEST PUSH0 PUSH2 0xEB1 DUP4 DUP6 PUSH2 0x9D9 JUMP JUMPDEST SWAP4 POP PUSH2 0xEBE DUP4 DUP6 DUP5 PUSH2 0xE98 JUMP JUMPDEST PUSH2 0xEC7 DUP4 PUSH2 0x9F7 JUMP JUMPDEST DUP5 ADD SWAP1 POP SWAP4 SWAP3 POP POP POP JUMP JUMPDEST PUSH0 PUSH1 0x20 DUP3 ADD SWAP1 POP DUP2 DUP2 SUB PUSH0 DUP4 ADD MSTORE PUSH2 0xEEB DUP2 DUP5 DUP7 PUSH2 0xEA6 JUMP JUMPDEST SWAP1 POP SWAP4 SWAP3 POP POP POP JUMP JUMPDEST PUSH32 0x43616E646964617465206E6F7420666F756E6400000000000000000000000000 PUSH0 DUP3 ADD MSTORE POP JUMP JUMPDEST PUSH0 PUSH2 0xF28 PUSH1 0x13 DUP4 PUSH2 0x9D9 JUMP JUMPDEST SWAP2 POP PUSH2 0xF33 DUP3 PUSH2 0xEF4 JUMP JUMPDEST PUSH1 0x20 DUP3 ADD SWAP1 POP SWAP2 SWAP1 POP JUMP JUMPDEST PUSH0 PUSH1 0x20 DUP3 ADD SWAP1 POP DUP2 DUP2 SUB PUSH0 DUP4 ADD MSTORE PUSH2 0xF55 DUP2 PUSH2 0xF1C JUMP JUMPDEST SWAP1 POP SWAP2 SWAP1 POP JUMP JUMPDEST PUSH0 DUP2 SWAP1 POP SWAP3 SWAP2 POP POP JUMP JUMPDEST PUSH0 PUSH2 0xF71 DUP4 DUP6 PUSH2 0xF5C JUMP JUMPDEST SWAP4 POP PUSH2 0xF7E DUP4 DUP6 DUP5 PUSH2 0xE98 JUMP JUMPDEST DUP3 DUP5 ADD SWAP1 POP SWAP4 SWAP3 POP POP POP JUMP JUMPDEST PUSH0 PUSH2 0xF96 DUP3 DUP5 DUP7 PUSH2 0xF66 JUMP JUMPDEST SWAP2 POP DUP2 SWAP1 POP SWAP4 SWAP3 POP POP POP JUMP JUMPDEST PUSH32 0x4F7574206F662072616E67650000000000000000000000000000000000000000 PUSH0 DUP3 ADD MSTORE POP JUMP JUMPDEST PUSH0 PUSH2 0xFD6 PUSH1 0xC DUP4 PUSH2 0x9D9 JUMP JUMPDEST SWAP2 POP PUSH2 0xFE1 DUP3 PUSH2 0xFA2 JUMP JUMPDEST PUSH1 0x20 DUP3 ADD SWAP1 POP SWAP2 SWAP1 POP JUMP JUMPDEST PUSH0 PUSH1 0x20 DUP3 ADD SWAP1 POP DUP2 DUP2 SUB PUSH0 DUP4 ADD MSTORE PUSH2 0x1003 DUP2 PUSH2 0xFCA JUMP JUMPDEST SWAP1 POP SWAP2 SWAP1 POP JUMP JUMPDEST PUSH32 0x4E487B7100000000000000000000000000000000000000000000000000000000 PUSH0 MSTORE PUSH1 0x32 PUSH1 0x4 MSTORE PUSH1 0x24 PUSH0 REVERT JUMPDEST PUSH32 0x416C726561647920766F74656400000000000000000000000000000000000000 PUSH0 DUP3 ADD MSTORE POP JUMP JUMPDEST PUSH0 PUSH2 0x106B PUSH1 0xD DUP4 PUSH2 0x9D9 JUMP JUMPDEST SWAP2 POP PUSH2 0x1076 DUP3 PUSH2 0x1037 JUMP JUMPDEST PUSH1 0x20 DUP3 ADD SWAP1 POP SWAP2 SWAP1 POP JUMP JUMPDEST PUSH0 PUSH1 0x20 DUP3 ADD SWAP1 POP DUP2 DUP2 SUB PUSH0 DUP4 ADD MSTORE PUSH2 0x1098 DUP2 PUSH2 0x105F JUMP JUMPDEST SWAP1 POP SWAP2 SWAP1 POP JUMP JUMPDEST PUSH32 0x4E487B7100000000000000000000000000000000000000000000000000000000 PUSH0 MSTORE PUSH1 0x11 PUSH1 0x4 MSTORE PUSH1 0x24 PUSH0 REVERT JUMPDEST PUSH0 PUSH2 0x10D6 DUP3 PUSH2 0x921 JUMP JUMPDEST SWAP2 POP PUSH2 0x10E1 DUP4 PUSH2 0x921 JUMP JUMPDEST SWAP3 POP DUP3 DUP3 ADD SWAP1 POP DUP1 DUP3 GT ISZERO PUSH2 0x10F9 JUMPI PUSH2 0x10F8 PUSH2 0x109F JUMP JUMPDEST JUMPDEST SWAP3 SWAP2 POP POP JUMP JUMPDEST PUSH0 DUP2 SWAP1 POP SWAP3 SWAP2 POP POP JUMP JUMPDEST PUSH0 DUP2 SWAP1 POP DUP2 PUSH0 MSTORE PUSH1 0x20 PUSH0 KECCAK256 SWAP1 POP SWAP2 SWAP1 POP JUMP JUMPDEST PUSH0 DUP2 SLOAD PUSH2 0x1127 DUP2 PUSH2 0xBFB JUMP JUMPDEST PUSH2 0x1131 DUP2 DUP7 PUSH2 0x10FF JUMP JUMPDEST SWAP5 POP PUSH1 0x1 DUP3 AND PUSH0 DUP2 EQ PUSH2 0x114B JUMPI PUSH1 0x1 DUP2 EQ PUSH2 0x1160 JUMPI PUSH2 0x1192 JUMP JUMPDEST PUSH1 0xFF NOT DUP4 AND DUP7 MSTORE DUP2 ISZERO ISZERO DUP3 MUL DUP7 ADD SWAP4 POP PUSH2 0x1192 JUMP JUMPDEST PUSH2 0x1169 DUP6 PUSH2 0x1109 JUMP JUMPDEST PUSH0 JUMPDEST DUP4 DUP2 LT ISZERO PUSH2 0x118A JUMPI DUP2 SLOAD DUP2 DUP10 ADD MSTORE PUSH1 0x1 DUP3 ADD SWAP2 POP PUSH1 0x20 DUP2 ADD SWAP1 POP PUSH2 0x116B JUMP JUMPDEST DUP4 DUP9 ADD SWAP6 POP POP POP JUMPDEST POP POP POP SWAP3 SWAP2 POP POP JUMP JUMPDEST PUSH0 PUSH2 0x11A6 DUP3 DUP5 PUSH2 0x111B JUMP JUMPDEST SWAP2 POP DUP2 SWAP1 POP SWAP3 SWAP2 POP POP JUMP INVALID LOG2 PUSH5 0x6970667358 0x22 SLT KECCAK256 BLOCKHASH CALL SELFBALANCE 0xD7 PUSH19 0x42EDA5C808C3A8C89A65F94A8C9D2EB63E5DD3 0xC 0xC6 PUSH12 0x1E435D13F064736F6C634300 ADDMOD SHR STOP CALLER "
				},
				"gasEstimates": {
					"creation": {
						"codeDepositCost": "916600",
						"executionCost": "infinite",
						"totalCost": "infinite"
					},
					"external": {
						"addCandidate(string)": "infinite",
						"candidateAt(uint256)": "infinite",
						"candidateCount()": "2483",
						"getVotes(string)": "infinite",
						"hasVoted(address)": "2834",
						"owner()": "infinite",
						"vote(string)": "infinite"
					},
					"internal": {
						"_exists(string memory)": "infinite"
					}
				},
				"methodIdentifiers": {
					"addCandidate(string)": "462e91ec",
					"candidateAt(uint256)": "9c7e8439",
					"candidateCount()": "a9a981a3",
					"getVotes(string)": "805265e5",
					"hasVoted(address)": "09eef43e",
					"owner()": "8da5cb5b",
					"vote(string)": "fc36e15b"
				}
			},
			"storageLayout": {
				"storage": [
					{
						"astId": 7,
						"contract": "contracts/E3PollStation.sol:PollStation",
						"label": "candidateNames",
						"offset": 0,
						"slot": "0",
						"type": "t_array(t_string_storage)dyn_storage"
					},
					{
						"astId": 11,
						"contract": "contracts/E3PollStation.sol:PollStation",
						"label": "voteCount",
						"offset": 0,
						"slot": "1",
						"type": "t_mapping(t_string_memory_ptr,t_uint256)"
					},
					{
						"astId": 15,
						"contract": "contracts/E3PollStation.sol:PollStation",
						"label": "hasVoted",
						"offset": 0,
						"slot": "2",
						"type": "t_mapping(t_address,t_bool)"
					}
				],
				"types": {
					"t_address": {
						"encoding": "inplace",
						"label": "address",
						"numberOfBytes": "20"
					},
					"t_array(t_string_storage)dyn_storage": {
						"base": "t_string_storage",
						"encoding": "dynamic_array",
						"label": "string[]",
						"numberOfBytes": "32"
					},
					"t_bool": {
						"encoding": "inplace",
						"label": "bool",
						"numberOfBytes": "1"
					},
					"t_mapping(t_address,t_bool)": {
						"encoding": "mapping",
						"key": "t_address",
						"label": "mapping(address => bool)",
						"numberOfBytes": "32",
						"value": "t_bool"
					},
					"t_mapping(t_string_memory_ptr,t_uint256)": {
						"encoding": "mapping",
						"key": "t_string_memory_ptr",
						"label": "mapping(string => uint256)",
						"numberOfBytes": "32",
						"value": "t_uint256"
					},
					"t_string_memory_ptr": {
						"encoding": "bytes",
						"label": "string",
						"numberOfBytes": "32"
					},
					"t_string_storage": {
						"encoding": "bytes",
						"label": "string",
						"numberOfBytes": "32"
					},
					"t_uint256": {
						"encoding": "inplace",
						"label": "uint256",
						"numberOfBytes": "32"
					}
				}
			},
			"userdoc": {
				"kind": "user",
				"methods": {
					"candidateAt(uint256)": {
						"notice": "Get candidate name at index"
					},
					"candidateCount()": {
						"notice": "How many candidates exist?"
					},
					"getVotes(string)": {
						"notice": "Get vote total for a name"
					}
				},
				"version": 1
			}
		}
	}
}